:020000041000EA
:1000000000B5324B212058609868022188439860DF
:10001000D860186158612E4B002199600221596106
:100020000121F02299502B49196001219960352056
:1000300000F044F80222904214D00621196600F024
:1000400034F8196E01211966002018661A6600F04E
:100050002CF8196E196E196E052000F02FF8012189
:100060000842F9D1002199601B49196000215960AB
:100070001A491B48016001219960EB211966A021F2
:10008000196600F012F800219960164914480160C1
:100090000121996001BC002800D000471248134993
:1000A000086003C880F30888084703B5996A0420EC
:1000B0000142FBD001200142F8D103BD02B5186610
:1000C0001866FFF7F2FF186E186E02BD00000240BE
:1000D000000000180000070000035F00212200005C
:1000E000F4000018222000A00001001008ED00E03C
:1000F00000000000000000000000000074B24E7A12
:1001000000200420F7010010C3010010C5010010F9
:10011000C1010010C1010010C1010010C101001097
:10012000C1010010C1010010C1010010C701001081
:10013000C1010010C1010010C9010010CB01001065
:10014000CD010010CD010010CD010010CD01001037
:10015000CD01001071C10010CD010010CD010010C3
:10016000CD010010CD010010CD010010CD01001017
:10017000CD010010CD010010CD010010CD01001007
:10018000CD010010CD010010CD010010CD010010F7
:10019000CD010010CD010010CD010010CD010010E7
:1001A000CD010010CD010010CD010010CD010010D7
:1001B000CD010010CD010010CD010010CD010010C7
:1001C00000BE00BE00BE00BE00BE00BEEFF3058054
:1001D000103800BEF2EB8871F8D5041014D6041064
:1001E0003402001090A31AE700201F49086006C8D7
:1001F00081F3088810471D48006800282FD10DA4FE
:100200000ECC002902D000F012F8F9E71849194A7B
:10021000002000E001C19142FCD1174988471749ED
:1002200088471749884700BEFDE701C901C29A42C5
:10023000FBD3704714D60410C0000020B812002071
:100240000CE8041000000420000004200CE8041056
:10025000001004200010042000000000704709482E
:1002600004F0F2F90047000008ED00E0000000D0C3
:10027000B8120020800F0120592E0010CD0500106B
:10028000812F00105756000006005250ABB3605348
:10029000B046011006005250861C0302C0460110F1
:1002A000060052505422A29DCC4601100500525027
:1002B000DE65F4680CE80410F8B5C0460448054B48
:1002C00010B5834203D0044B002B00D0984710BDDB
:1002D000B8120020B81200200000000006480749AC
:1002E000091A8B10C90FC91810B5491003D0044B57
:1002F000002B00D0984710BDB8120020B812002083
:100300000000000010B5074C2378002B09D1FFF73F
:10031000D5FF054B002B02D0044800E000BF0123AD
:10032000237010BD60220020000000001041011069
:10033000054B10B5002B03D00449054800E000BF71
:10034000FFF7CCFF10BDC046000000006422002073
:1003500010410110F0B5DE464E4645465746E0B521
:1003600085B005F007F906F01BF8644B644D9B4619
:10037000644B654C994601F079FF2A686B68121A44
:100380008B41002BF7DA80231B01E658002E66D044
:10039000BE2200215D4804F045FEBE2200215846E1
:1003A00004F040FE06220021484604F03BFE0023F4
:1003B000574A771E13708333FF339F4200DD1F00BF
:1003C000BE21002349009C46002200208A46B046F8
:1003D000039309E0002A0DD1BD2B55DD8C46012188
:1003E00003910133BB420FDCE15C2029F2D10020F4
:1003F0000132F3E7012A3DD15345EFDA5E4601337E
:1004000031540130BB42EFDD4646039988469E4297
:1004100015D9BE2149008A4609E0002A38D1BD2BF2
:1004200002DC3A4F3954013001339E4207D9E15C76
:100430002029F2D10133002001329E42F7D84346F1
:10044000002B08D06246324B1A70582A36D0592AEF
:1004500047D05A2A4BD0802300221B01E25001F0E2
:1004600005FF00232B4A80185941002922DB286010
:10047000696080E7022AB1D1C1267600B342ADD0CF
:100480004E4631540130ACE7204E31540130A8E7DC
:10049000012A05D15345C7DA5F4639540130C3E715
:1004A000022AC1D1C1277F00BB42BDDA4F46395471
:1004B0000130B9E7012018494042D8E70021174828
:1004C0000AF078F9164B114A1860114B154901933F
:1004D0004B46154800935B4604F04CF8134B1860EC
:1004E000B9E700220021002002F056FCB3E71048D3
:1004F00004F0AAF80021030000209847B82E00203D
:1005000058210020C00A0120A8F20020D82F002086
:10051000383A002040420F00FFFFFF7F08310020E3
:100520003C3A002010410110E40B01206C0F012027
:1005300055420000F0B5C64600B5204C0E00A5445B
:10054000002934D01E4B0D0098461F3508AC18AF5B
:1005500020002A784146023404F00CF80135BC42F0
:10056000F6D15A23F35E5822B25C16490792727E86
:1005700019A80692327E0592F27D0492B27D039212
:10058000727D0292327D01925422B25A009208AAE0
:1005900003F0F0FF0C4919AA48A803F0EBFF48A8A4
:1005A0000EF03CF948A90200022000F0AFFB002049
:1005B00092231B019D4480BCB846F0BDE0F6FFFFCE
:1005C000344101103C410110BC410110F0B5DE4640
:1005D00057464E464546E0B59DB0BC4809AB08AA13
:1005E00007A900F0F3FB0590002803D1B749B848EC
:1005F00002F0E4FC099A0899079800F0ABFBE122AD
:10060000B44C00212000520004F00CFDE122002136
:100610005200B14804F006FDE122B04B52001968C7
:10062000AD4804F005FDE1222000AB49520004F082
:10063000FFFCAB4BAB4A0193AB4BAC490093A648D4
:10064000AB4B0EF049F8AB4805F066FF05F032FF02
:10065000A94BAA491800994609F0EAFDA84C0020C8
:1006600021000AF005FC200000F0B8FAA54805F0CA
:1006700071FEA54BA54F5C681B68029303943B6019
:100680007C6000239A46A24B9B46A24B98465B4651
:100690001B78002B00D09DE001F0E8FD029A039B3F
:1006A000121A8B41002B00DAACE001F0DFFD3A6852
:1006B0007B68121A8B41002BE9DA8A480EF0AEF8FB
:1006C000002834D001238749013898430B000233B6
:1006D000914CC01812E01D00613D052D00D88CE042
:1006E0001D00413D052D22D8373B551C1FD012015E
:1006F0001343023123700134884218D00B781A005A
:10070000303AD5B2092D09D9313A052A77D91A00DC
:10071000413A052A00D9C5E0373B1A004B781D0045
:10072000303DEEB2092ED6D82B00551CDFD17048D3
:100730000EF074F8002833D001236D490138984336
:100740000B000233754CC01811E01D00613D052DF2
:1007500076D91D00413D052D22D8373B551C1FD0B1
:1007600012011343023123700134814218D00B78F7
:100770001A00303AD5B2092D09D9313A052A61D982
:100780001A00413A052A00D989E0373B1A004B7814
:100790001D00303DEEB2092ED7D82B00551CDFD1FD
:1007A0004F4B1B78372B64D0352B76D0332B7CD036
:1007B000302B00D187E001F059FD0023584A801802
:1007C0005941002951DB5B461B7838607960002B6A
:1007D00000D161E70CF06EF8041E00D157E7012349
:1007E0000289002100930300484609F0C1FC4346FA
:1007F0001860200005F01AFA49E7573B75E7573BA8
:100800001A008BE75346002B1FD04A46454BD3585E
:10081000012B00D149E701F029FD0023424A80184D
:100820005941002203000C009246029303940029D0
:1008300000DB3AE701233D4C5B420293039434E72B
:10084000573B8BE7573B1A00A1E74C22002109A830
:1008500004F0E8FB00224846354B09A909F0C6FE22
:10086000002824D1059B9A461FE701202F494042CA
:10087000A9E7304A2949284805F02AFE434618606E
:10088000174B184A0193184B184900931248184BFC
:1008900003F070FE284B18608DE7284AEAE7012232
:1008A000524274E70122524238E7254AE2E701F05A
:1008B000DDFC00231C4A8018594102900391002955
:1008C00000DBF2E6B6E70022D4E7C046400D0300A5
:1008D00088410110A80D0120E40B0120E007002051
:1008E000383A0020D82F0020C00A01201041011002
:1008F000B82E0020494E00000831002020101100C1
:10090000D80700205503001088430110582100200B
:100910007C0F01203C3A002098300020782F0020E6
:10092000809698006808000080841E00FFFFFF7F0B
:1009300035050010060040006C0F01200400400047
:1009400002002000014B18687047C046D00B012000
:1009500070B51A4C2378002B0ED1E122184D19489E
:100960002900520013F06CFB01232370002804D1EE
:100970000121002005F0D8FD70BDEFF3108672B69E
:1009800005F034FD8021A0204901400313F088FBCD
:100990008022A02029009200400313F059FB05F0AB
:1009A0005BFD86F310880020217805F0BDFD002254
:1009B0000021002002F0F0F9DEE7C0467C0F0120A4
:1009C000E40B0120A80D012070B5184C2378002BF2
:1009D00009D0174B1B78582B06D00023002100208C
:1009E000237005F0A1FD70BD00232370EFF3108587
:1009F00072B605F0FBFC8021A0204901400313F0F2
:100A00004FFB8022A0200B499200400313F020FBF3
:100A100005F022FD85F310880020217805F084FD83
:100A200000220021002002F0B7F9DCE77C0F012052
:100A3000383A0020E40B012070B51D000C4B9A429F
:100A400000D970BD94B2C12221005200002005F0EF
:100A50002DF8084E22002900306005F037F9306883
:100A60000BF050FF306805F0E1F800233360E8E751
:100A7000DC050000D89F0020F8B51500022948D0F9
:100A8000032923D08023334E0421320000201B0190
:100A90000BF0A2FA002D12D030002F4A2F4B7719FD
:100AA000D1582F4B54189C460131037864444905B2
:100AB00001302370490D8742F3D1284BD1502B00D0
:100AC0003200842100200BF0D3F9F8BD8023254C9F
:100AD000002022001B010BF07FFA002D12D0224BC8
:100AE0001D4A6719D1582300204E5018B4460131D1
:100AF0001E786044490501330670490D9F42F3D1C9
:100B0000194BD1502B002200832100200BF0B0F9AB
:100B1000DBE78026164C36013300220000200BF064
:100B20005BFA002D0ED021000B4A93596619087804
:100B30000131D05401335B055B0D8E42F7D180212A
:100B4000090153502B002200822100200BF090F964
:100B5000BBE7C046A8EA0020A8F200200818000061
:100B600008100000A8E200200410000004080000A3
:100B7000A8DA002010B5072900D010BD80230C4C46
:100B80001B012200053900200BF026FA80231B01EF
:100B9000E218032100200BF01FFA80235B01E2180A
:100BA000802304211B0100200BF016FAE5E7C04664
:100BB000A8DA002010B5930601D1002A03D1002243
:100BC000044B1A7010BD0023002200200BF050F9D6
:100BD000F8E7C0467A0F01207047C04610B5040000
:100BE00082B0002033490CF07BFF85238122012154
:100BF000009431480BF0C6FE010000200CF0BCFF51
:100C000085238122012100942C480BF0BBFE0100BA
:100C100000200CF0B1FF2A4900200BF095FB0100E9
:100C200000200CF0A9FF274900200BF08DFB0100EC
:100C300000200CF0A1FF002023490CF0B7FF00209A
:100C400022490CF0B3FF224900200BF07DFB01008C
:100C500000200CF091FF1F4900200BF075FB0100F4
:100C600000200CF089FF00201B490CF09FFF0020A2
:100C70001A490CF09BFF1A4900200BF065FB01009C
:100C800000200CF079FF174900200BF05DFB0100FC
:100C900000200CF071FF002013490CF087FF0020AA
:100CA00012490CF083FF124A124900200CF0C0FFD9
:100CB00002B010BDC4410110483A0020643A00203F
:100CC000803A00209C3A0020FC070020E407002026
:100CD000B83A0020D43A002004080020EC07002095
:100CE000F03A00200C3B00200C080020F407002004
:100CF000750B001000001150034B002A02D0012296
:100D00001A7070471A70FCE7790F012010B50F4B6D
:100D10001B78002B0FD001230D4C237013000A0009
:100D2000022809D003280CD0842100200BF0A0F861
:100D30002378002BFCD110BD822100200BF098F805
:100D4000F6E7832100200BF093F8F1E7790F0120FB
:100D50007A0F0120F0B583B005000E00140000F0FA
:100D6000B1F9002801D003B0F0BD154F01223B00BE
:100D700001210097053001F0BDFD33002A000094E9
:100D80000121104801F0B0FF21002800714303F059
:100D9000B5FC04000C4B002200930221042001F05A
:100DA000A9FD2300002201210094052001F0A2FDED
:100DB0003B00022200210097062001F09BFDD2E7B4
:100DC000006CDC0200800240001BB700F0B54E460C
:100DD0005746DE464546E0B585B00393554B0600C1
:100DE0009A46A0235B0099460191029201235B423F
:100DF0009C46E1444B460F2B00D198E04E4F4F4BA1
:100E0000072457449A4569D821003800614303F00C
:100E100075FC864248D0631E9846012C5ED01D00AA
:100E200065433800290003F069FC86425AD0A31EAE
:100E30009B46022C5CD02D1B2900380003F05EFC81
:100E4000864257D0E31E9B46032C6ED02D1B2900F3
:100E5000380003F053FC864250D0231F9B46042CDD
:100E600052D02D1B2900380003F048FC86424DD09B
:100E7000631F9B46052C4FD02D1B2900380003F023
:100E80003DFC86424AD04346052B4CD03800E91F32
:100E900003F034FC86421CD0062421003800614354
:100EA00003F02CFC8642B6D10029B4D1A0464A46B4
:100EB000234B01205343019A13604246029B1C605E
:100EC000039B1A6005B0F0BCBB46B246A946A046DB
:100ED000F0BD0029E0D101239846E8E7194B9C4674
:100EE000E24483E70029E2D0A31E9B46022CA2D154
:100EF000012489E70029A5D1D846D8E70029FBD0ED
:100F0000231F9B46042CACD103247DE70029F3D09A
:100F1000631F9B46052CAFD1042475E70029EBD055
:100F20004346052BB2D105246EE702246CE700206E
:100F3000C8E7C04670F72E00B0710B0050F80C00E7
:100F4000001BB70020D1FFFF094A830094464022CE
:100F5000634410B51C68C0006240C0241440802265
:100F6000520113431C60034B9C466044416010BD1A
:100F700004C00140004001400A4B80009C4604230D
:100F80006044002901D00C230821002A00D10B0065
:100F9000026853400C221A4080235B011843026010
:100FA0007047C04604C00140084B80009C46604426
:100FB000002905D080239B0118430223036070475A
:100FC000C0239B01184302230360F8E704C00140DB
:100FD000D0231B061B6830B50500581E83410F48FF
:100FE0005C42844607203023284023408000EC08E0
:100FF000814020000A4D3C3063448000A4004151F0
:101000001B19002A04D0802292011343196030BDBD
:10101000C022920113431960F9E7C0460041014024
:1010200000400140D023F0B5C64604001B06984698
:101030001B680C4F9B00F8580D00160000B50442C9
:1010400009D1044332002900FC500D2000F056F96C
:1010500080BCB846F0BD01F0C9FF43461B689B0049
:10106000F858EEE7A0DA002010B504000D2000F0DB
:1010700039FAD0231B061B6802499B005A58A24329
:101080005A5010BDA0DA00200123D022834012065E
:1010900093629361094A830094464022634419682D
:1010A000C0004A40C0211140802252011343196000
:1010B000034B9C46052360444360704704C00140D5
:1010C00000400140024B18688007C00F7047C046BF
:1010D00000C00640EFF3108072B6034A1368002B7D
:1010E000FCD0BFF35F8F70472C0100D0BFF35F8F40
:1010F0000022024B1A6080F3108870472C0100D048
:1011000070B5EFF3108C72B60D4D2B68002BFCD030
:10111000BFF35F8F0724CB08C618C05C01230C40C7
:10112000A3401C000440034207D103433370BFF3C4
:101130005F8F2C608CF3108870BD100001F03EFFB3
:101140002C0100D0F8B54746CE46884680B5EFF36F
:10115000108C72B6214D2C68002CFCD0BFF35F8F31
:101160009A422CD8D4080727055D06190124174098
:10117000BC402C421FD007210127894609E0D40832
:10118000055D06194C4639001440A1400C00294267
:1011900011D001329342F2D201204042BFF35F8F5F
:1011A00000220E4B1A608CF3108800280FDBC0BCA5
:1011B000B946B046F8BD2C4310003470EEE7BFF3DB
:1011C0005F8F00232B608CF3108801204042434640
:1011D000002BECD0089801F0F1FEC0462C0100D0A5
:1011E00030B5EFF3108C72B60A4C2368002BFCD09C
:1011F000BFF35F8F07230122CD0819408A40435D6A
:1012000093434355BFF35F8F002323608CF3108813
:1012100030BDC0462C0100D00021044B044ABFF36E
:101220005F8F02C39342FAD17047C046000100D0DD
:10123000800100D0044A1078431CDBB2172B00D980
:10124000102313707047C046140800200123834008
:10125000002904D0034A1360034A13607047034A0D
:101260001360FBE780E200E000E100E080E100E0E5
:1012700001228240034B1B6813405A1E9341D8B28F
:101280007047C04600E100E001238340014A13603B
:101290007047C04600E200E0024B10309B688000BF
:1012A000C058704700ED00E070B50D00EFF31086F8
:1012B00072B60F4A1368002BFCD0BFF35F8F0D4B43
:1012C00010309B6884001B590B4A934203D09D4207
:1012D00001D001F08BFE074B9B681D51BFF35F8F60
:1012E000BFF35F8F0022024B1A6086F3108870BD37
:1012F000240100D000ED00E0CD010010F0B557460C
:101300004E46DE464546E0B585B006000291170020
:10131000EFF3108B72B6674A1368002BFCD0BFF353
:101320005F8F0025644B5D579A46002D00DAA4E0DC
:101330006B00624C03935B199B009846A146C14425
:101340004B4652469B79103613705D4BB2009B683A
:10135000019299580B1B2F2B34D95A4B994200D02C
:10136000A4E0039B584A9C46584B6544AD00635328
:10137000434602336519E418554B0121043B1B1BFE
:101380001B055B0D13436B80524BEF71AB80FF234A
:10139000AB71029BAB604B460B431900484B019A63
:1013A0009B689950BFF35F8FBFF35F8F0022414B63
:1013B0001A608BF3108805B0F0BCBB46B246A94654
:1013C000A046F0BD01200A008243D379BB422FD84A
:1013D00045464E46130040491B1B5B415943090DCE
:1013E0003A4B63533A4B02356519043B5B1B1B05B3
:1013F000354D5B0D2B4373800426B446E0444444D2
:10140000131F1B1B4C46A17102991B05A160494685
:101410005B0D2B43A380314BE77101431360BDE7A4
:101420005800C01880002018C679BE422BD902008F
:101430000623D356002BF3DA101D82462848804637
:1014400004267642B446E14450464E46361A3005EC
:10145000400D824656461C48957106439680039A75
:10146000944665441D4AAD00641922604246A3714A
:10147000029BA280E771A36090E701F0B7FD002511
:1014800053465D5754E7101D82469088400500156D
:1014900084464046D444664604302018301AE0267C
:1014A0000005400D360230438046C9E701F09EFD3D
:1014B00057E7C046240100D07B0F01201808002008
:1014C00000ED00E0CD01001000E0FFFF00A1FFFFF4
:1014D0004808002001BDFFFFAAAA0000014880477C
:1014E00001BD0000F0B5DE4657464E464546E0B524
:1014F0000C0083B0EFF3108972B6584A1368002BC2
:10150000FCD0BFF35F8F564B9A68030010339F00E7
:10151000D559544A9046954232D0A54243D0524EB6
:10152000AA1B2F2A2CD801228240924651464F4AAC
:1015300012681140019151464D4A1160BFF35F8F0F
:10154000EFF305829346002A33D101232A009A4300
:1015500093689C4208D177E04B005B189B00F3181E
:101560009968A1422AD01A00062151560029F3DABF
:10157000019B002B19D052463E4B1A603B4B1A6020
:10158000374B9B68DD51BFF35F8FBFF35F8F002246
:10159000324B1A6089F3108803B0F0BCBB46B246E8
:1015A000A946A046F0BD1500EAE75246304B1A6046
:1015B000E6E79342C9D001F019FDC6E70621595666
:1015C000002921DB4A005018800034188046A068AA
:1015D0009860E079D871062020569871002824DBA5
:1015E000A488F01A6405241544440019E024000579
:1015F000400D24022043988052181F4B9200B618C9
:101600001A781970B271B3E7594600290FD1FF312A
:1016100091711A49918018490A789A71184A9B1B4E
:101620005B415A43120D0A70A2E71648E3E7164AD7
:101630001649D21A083A5002400D014399801449C4
:1016400052080A43DA8093E7062151561300002915
:10165000B8DA5A46002AEAD14546DCE7240100D030
:1016600000ED00E0CD0100101808002000E100E0CE
:1016700080E100E080E200E07B0F012001BDFFFF80
:10168000AAAA000001BD00005208002000F0FFFFE0
:1016900000F8FFFF032310B50400074A18409446E2
:1016A000C0009C43FC3383406444226881409A43D9
:1016B00013000B43236010BD00E400E070B5EFF3AE
:1016C000058101240443EFF3108C72B6214A13689C
:1016D000002BFCD0BFF35F8F1F4B05001F4AED1A94
:1016E0006D416A43120D1E4D8900AE6852B27658A4
:1016F000A6421CD00621595691421CD0122159569F
:10170000914222D01E215956914220D02A21595669
:101710000324914210D0134B19781A708171BFF3D2
:101720005F8F00220B4B1A608CF3108870BDAB6882
:101730000D4C5C50EFE700246100091989005B182B
:10174000FF21997109499980E5E70124F4E7022412
:10175000F2E7C046240100D018080020AAAA000021
:1017600000ED00E07B0F0120CD01001001BDFFFF67
:10177000054B064A1360064A136053609360D360BA
:1017800013615361936170478080808000E400E0C2
:1017900004E400E01F2110B5091A0248FFF720FDFC
:1017A00010BDC0467F0F012000B5074B83B001007C
:1017B0000093002205230548FFF7C4FC002801DB45
:1017C0001F23181A03B000BD604301107F0F0120D2
:1017D00070B504000E001500FFF72CFD010020007D
:1017E00000F006F8A680E580BFF35F8F70BDC046AD
:1017F000024B9C4661448900016070474000003400
:1018000010B50400FFF716FD01002000FFF7F0FF00
:10181000FF232371BFF35F8F10BDC04610B50400D6
:10182000FFF708FD01002000FFF7E2FFFF23A38080
:10183000BFF35F8F10BDC04683680B4810B5844668
:1018400061446244090112019A18591854684B689E
:1018500001209C4201D802D00020C0B210BD126805
:101860000B689A42F9D8F7E7FFFFFF0F0A4B196898
:10187000EFF3108072B60A68002AFCD0BFF35F8FC6
:101880001B68BFF35F8F00221A6080F3108840BF8F
:10189000002000217047C046CC0B0120F8B5574608
:1018A0004E464546DE46E0B599460CAB1C780DAB7E
:1018B0001B78060090469A460768002C11D1BC7B25
:1018C000002C42D065003B682D19033D59194B7817
:1018D000BB73002B00D1FB7300238B704B700B701C
:1018E00004E065003B682D19033D5919B2682A4B85
:1018F00094464246E3181B0163441A604A465A6004
:101900000A9A9A600B9ADA6000238B704B700B7006
:101910007B7B9B46002B2BD022005946B8687B6806
:1019200098473A68002816D05B4658465B005B44EF
:101930005519033BA870D118D35C002B00D06B70F5
:101940005B460C707B73A34513D0F0BCBB46B2461C
:10195000A946A046F8BD5B465B005B44033BD31839
:101960009C705119525D002A00D05A705B460B7072
:101970007C7342464B46307D00F002FD051E06D0CA
:101980005346002B03D12100306800F075FF0E9BF9
:10199000002BDAD01D70D8E7FFFFFF0FF0B5DE4651
:1019A00057464E4645460023E0B58BB00893674B3B
:1019B0008200D45800239B46099000F057FC6268CF
:1019C00006000F00EFF3108572B61368002BFCD0F1
:1019D000BFF35F8F23689C465B7B9946002B00D149
:1019E00069E0A2685A4B90464B441B019844434619
:1019F0001A685B6810001900801BB941002900DCDF
:101A000063E0099800F0BCFC002300229846002304
:101A10000692079300239A466368BFF35F8F5A4686
:101A20001A6085F310885346002B08D10028C4D1D2
:101A30000BB0F0BCBB46B246A946A046F0BD089B21
:101A4000414618024B461843D047626806000F0013
:101A5000EFF3108572B61368002BFCD0BFF35F8FD5
:101A6000002F50DB33003B4302D02369002B61D1B0
:101A70002368D97B002907D04A00521819688C4680
:101A800049466244033A51709A7B002A01D14A4682
:101A90009A734A46DA734B46E168013BCA5C0132ED
:101AA000CA545B4623616368BFF35F8F5A461A606E
:101AB00085F3108881E700230022984600230692D0
:101AC0000793002300209A46A6E7002902D10028A8
:101AD00000D096E70021604600F04CFE43461A68AD
:101AE0005B680692079343469B689A464346DB68C9
:101AF0009846E3684B44013B1B7808931B02034361
:101B00002361002088E72369002BB1D0069A079B48
:101B1000921BBB41002B15DB594604910121039117
:101B20004946029141460191514620000091FFF73C
:101B3000B5FEB6E700F09AFB32003B0012184B41AD
:101B4000002BE9DA0122034B5242E5E7DC9F00203B
:101B5000FFFFFF0FFFFFFF7F10B5144C6368002BE2
:101B600004D00A211248FFF743FE10BD2300114A9A
:101B70001021206800F00EFD032000F053FB03202D
:101B800000F068FC03200C4900F0B4FBFFF752FBA7
:101B90000A4B9C4603232375D0231B061B68604415
:101BA0006375074B80006060DC60DAE76008002046
:101BB000CC0B0120391800109D1900104000003492
:101BC000DC9F0020004870476008002070B50500C9
:101BD000182003F0D1F9164904000200280000F093
:101BE000A9FC10212060280003F0E4F90121A06085
:101BF000280003F0DFF9E060012000F027FB05007A
:101C000000F028FC28000B4900F074FBFFF712FBE2
:101C1000094B25759C46D0231B061B6860446375E1
:101C2000064BAD0080006060EC50200070BDC046E7
:101C3000391800109D19001040000034DC9F00206E
:101C40000E4B10B50400984217D00021037D0C4ABA
:101C50009B009950006800F0BBFC0021207D00F043
:101C600049FB207D00F0EAFAE06803F0C3F9A068C0
:101C700003F0C0F9200003F0BDF910BD600800209A
:101C8000DC9F0020F0B54E464546DE465746E0B59F
:101C900085B0019310AB1B7806000393002399468F
:101CA000984600927268EFF3108B72B61368002B9F
:101CB000FCD0BFF35F8F3568AC7B002C3DD0670054
:101CC0002B683F19033FDB195A78AA73002A00D109
:101CD000EA73B168474A8C4600980199A21812012C
:101CE0006244106051600E9991600F99D160424634
:101CF0009A705A701A706B7B9A46002B67D022003C
:101D00001900A8686B6898472A68002852D0534683
:101D100050465B005344D719033BB870D118D35CCD
:101D2000002B00D07B7053460C706B7354454FD022
:101D3000F3681B19013B187800E000207368BFF3BB
:101D40005F8F42461A608BF31088002C4FD04B46B1
:101D5000002B08D10002204305B0F0BCBB46B246C0
:101D6000A946A046F0BD039B002B3ED00E9B002051
:101D70000F999847030004000D000B4335D000294C
:101D80000ADA009A019B121BAB4100920193002BCF
:101D90000ADB039B994685E700F068FA24184D4159
:101DA00000940195002DF4DA0123134C5B4200935B
:101DB0000194EEE753465B005344033BD3189C70F9
:101DC000D119D25D002A00D05A7053460B706C7343
:101DD000307D009A019B00F0D3FA81460028A7D0FD
:101DE0002100306800F048FDA2E70020B4E70120A0
:101DF0004042B1E7FFFFFF0FFFFFFF7FF0B55746FF
:101E00004546DE464E46E0B50400170083B09846CE
:101E10004268EFF3108A72B61368002BFCD0BFF350
:101E20005F8F2668B57B002D3FD06B005B19033BAD
:101E30009C463268019362445378AB46B373002BDF
:101E400000D1F373A168354B8C464146EB181B015A
:101E5000634459600C991F6099600D99D960002303
:101E6000937053701370737B9946002B48D02A00EF
:101E70001900B068736898473268002832D04B4622
:101E800048465B004B44033BD1188C4601995118DE
:101E90008870D35C002B00D04B7063461D704B469E
:101EA000002073734D4531D12BE0002300269B4663
:101EB00000206368BFF35F8F00221A608AF31088E6
:101EC000002D28D0002809D15B463002184303B00A
:101ED000F0BCBB46B246A946A046F0BD207D00F04E
:101EE000D7FAF1E74B465B004B44033B0198D3180C
:101EF0009D701118125C002A00D05A704B460B706E
:101F000075733A004346207D00F03AFAE3685B19A6
:101F1000013B1E78CDE701204042D8E7FFFFFF0FCD
:101F200070B50400002933D04268EFF3108572B613
:101F30001368002BFCD0BFF35F8F2068CEB2437BC9
:101F4000B34216D0FF230B405A00D31802689446C0
:101F50006344033B9B78002B0BD12269914219D03B
:101F600000206368BFF35F8F00221A6085F310883A
:101F700070BDFF230A0A0B40E168D2B28C4663446D
:101F8000013B19789142EBD1310000F075FCE8E794
:101F90000020EDE72361E3E7407D7047F0B50400E2
:101FA0000D0006267642F717C64636196F4100B572
:101FB00084B08F4214D811D000F058F932003B00A1
:101FC000121A8B41002B15DC002B3ED0200029007B
:101FD00000F080F904B080BCB846F0BD8642EBD971
:101FE0000026002700F042F932003B00121A8B4114
:101FF000002BE9DD002302930193154B320000937F
:1020000014483B00FFF73EFE0028DFDB0023984624
:10201000BC46114A114F7B6A9C4504D8B96A8E426E
:10202000D4D99C45D2D11168EFF3108072B60B68F9
:10203000002BFCD0BFF35F8F1368BFF35F8F414667
:10204000196080F3108820BFE5E7002ABED0D1E7F1
:102050006D18001060080020CC0B012000400540E6
:1020600070B5060000F002F9FA2204000D0000230A
:1020700030000021920002F0F5FE001969410029AC
:1020800002DBFFF78BFF70BD012001494042F8E7FA
:10209000FFFFFF7FF0B5EFF30583CE46474680B5DF
:1020A00005000C0085B0002B12D02C4A0020536A8A
:1020B0009C4203D8926A0130AA4204D305B0C0BC46
:1020C000B946B046F0BDE01A421E9041C0B2F5E7F5
:1020D000234E02930193234B0200009330000B0028
:1020E000FFF7D0FD031EE0DD20BF7168EFF310871E
:1020F00072B60A68002AFCD0BFF35F8FDAB294464A
:102100003068427B62451DD0FF221A40510089464B
:102110000168914488464946414403398978002939
:1021200013D0F1681B0A88464244013A1278DBB2A8
:102130009A420FD07368BFF35F8F00221A6087F353
:102140001088B2E7FF221A40EBE732699342F1D1DF
:102150003161EFE7614600F08FFBEBE7004005409F
:10216000600800206D180010F0B5EFF30582D64628
:102170004F4646461000C0B51038EFF3108872B6CF
:10218000214C2368002BFCD0BFF35F8F0123190083
:1021900081401E4D1F006963AA461D4D29601D4DDB
:1021A0002E78AC463500C5402F402B4209D1BFF3F5
:1021B0005F8F276088F31088E0BCBA46B146A84616
:1021C000F0BD5346144D5F6A83005D59AF420ED394
:1021D000124A8E439B5862461670BFF35F8F0022EF
:1021E000226088F31088002BE6D09847E4E70C4B78
:1021F00092009C46624413681360BFF35F8F002314
:10220000236088F31088D7E7280100D000400540FC
:102210003C7005407E0F0120D40B0120682C00206B
:10222000D03F054010B50100024A0348FEF768FFA1
:1022300010BDC04690430110770F012010B501007A
:102240000148FEF7CDFF10BD770F012000B5054B0B
:1022500083B001000093002203230348FEF772FFBE
:1022600003B000BDB4430110770F0120034B596A3E
:102270000A00986A596A8A42FAD1704700400540BC
:1022800070B504000D00124A536A1900966A536A29
:102290008B42FAD13000190024184D41AB4211D8BD
:1022A0000ED02B000A494A6A9A42FCD307D1084A49
:1022B00002E0516A994202D1916AA142F9D370BDFC
:1022C000A642EED9012301246442E5175B42E9E707
:1022D00000400540064A536A9942FCD807D1044B96
:1022E00002E05A6A914202D19A6A8242F9D3704757
:1022F0000040054070B504000D00EFF3108672B683
:102300001A4A1368002BFCD0BFF35F8F002D1BD03F
:102310002000FEF7C1FF164981420AD02000FEF7D7
:10232000C3FF01212000FEF791FF0123A340114AC2
:102330001360114BA400E550BFF35F8F00220B4BDD
:102340001A6086F3108870BD0B4BA200D550012295
:10235000A2400A4920000B7893430B700449FFF711
:10236000C1F800212000FEF771FFE5E7280100D049
:102370006921001038600540682C00207E0F012084
:10238000F0B54F46D6464646C0B507002C4C616AAC
:102390000D00A66A616AA942FAD18B4208D805D01D
:1023A0000120E0BCBA46B146A846F0BDB242F7D91A
:1023B000EFF3108A72B6234801680029FCD0BFF3FE
:1023C0005F8F0125BD4020491D4C8846097889460C
:1023D0002943C9B28C46414660460870391D1B48E6
:1023E000890065630A51B9000B50216A0020294217
:1023F00019D0616A0800A66A616A8142FAD18B42EB
:1024000019D801D1B24216D8CC4516D00C4B1F209A
:102410001D625D6301230740BB400D4A1E381360F7
:1024200043464A461A70BFF35F8F0022054B1A607D
:102430008AF31088B5E70020F5E70120F3E7C046EE
:1024400000400540280100D07E0F0120D40B012060
:1024500080E200E0EFF3108C72B60A490B68002BA3
:10246000FCD0BFF35F8F01238340074A0748136204
:1024700002789A430270BFF35F8F00230B608CF3E6
:1024800010887047280100D0004005407E0F0120D1
:10249000EFF3108C72B60A490B68002BFCD0BFF327
:1024A0005F8F01238340074802781A430270BFF30D
:1024B0005F8F00220A608CF31088034A1360704714
:1024C000280100D07E0F01203C60054070B505005A
:1024D00014001600002915D00C00002A12D08068C4
:1024E0006B689847296800280ED073009B1962001A
:1024F000033B1219CB18033A9C7088188A5C002A97
:1025000015D10670200070BD63001B197200033BDB
:102510009219CB18033A9E7088188A5C002A02D15F
:1025200004703400EEE75A7004703400EAE75A7021
:102530000670E7E7F0B5C6460600884600B51021EC
:102540000120170002F036FD03210500300002F0E3
:1025500031FD43466B600023F4B26B730133286096
:102560002C73AF60AB73EC73012C06D9421C0133A2
:10257000DBB2137003329C42F9D1FF231E4073007B
:102580009E190023801903384370280080BCB84688
:10259000F0BDC04630B583600023CCB24373013335
:1025A000047342608373C4730D000068012C06D964
:1025B000421C0133DBB2137003329C42F9D1FF217C
:1025C00029404B005918002340180338437030BD90
:1025D00010B50400006802F00DFD200002F00AFDB5
:1025E00010BDC046F8B5CE46474606000C0080B583
:1025F000002907D04D0003686D18033D5A1957781C
:10260000002F04D12000C0BCB946B046F8BD790007
:10261000C9190339884643445978894600215970BD
:10262000517073683A002100806898473368002829
:1026300014D042469A18947059195B5D002B00D053
:1026400053700F70270049463000FFF7CBFF390069
:1026500002003000FFF73AFF0400D3E7424641464C
:102660005D19AF709A185B5C002B00D06B70147012
:10267000E9E7C046F0B557464546DE464E46E0B56A
:102680000D006B0001685B19DF1E0400C85D83B09C
:102690000192CA19002850D043001B18033BCB18E5
:1026A0005E78B446002E1AD1019E002E42D0E67B01
:1026B000002E04D073009B19CB18033B5D70A37BE5
:1026C000002B00D1A573E57300282FD10023537090
:1026D00003B0F0BCBB46B246A946A046F0BD7200AE
:1026E0006244033A89184A78904600224A7091461B
:1026F0005A70010032002000FFF7E8FE4346824690
:10270000002B07D05B0021684344033BCB185A7869
:10271000002A16D1424651462000FFF7D7FE216815
:10272000019BCA19002BC2D10028CFD043001B182F
:10273000033BCB1800219970C8E7019B002BB6D151
:10274000C4E7500080180338091848788346484683
:102750004870587041462000FFF7B8FE5946804641
:102760002000FFF73FFF414602002000FFF7AEFECA
:102770008046CFE7F0B557464546DE464E46E0B5C3
:1027800083B00191457B04006B0000685B19DF1E7C
:10279000C15DC219002952D04B005B18033BC3181E
:1027A0005E78B446002E1CD1019E002E44D0E67BFC
:1027B000002E04D073009B19C318033B5D70A37BEC
:1027C000002B00D1A573E573002931D10023280027
:1027D0005370617303B0F0BCBB46B246A946A04635
:1027E000F0BD72006244033A80184278904600229D
:1027F000427091465A7020003200FFF767FE434650
:102800008246002B07D05B0021684344033BCB1872
:102810005A78002A17D1424651462000FFF756FE4B
:10282000019B01002068C219002BC0D10029CDD026
:102830004B005B18033BC31800209870C6E7019B50
:10284000002BB4D1C2E7500080180338091848782B
:10285000834648464870587041462000FFF736FED0
:10286000594680462000FFF7BDFE41460200200089
:10287000FFF72CFE8046CEE770B5040000292CD06F
:10288000437B8B422ED00568480040180338281837
:102890008278002A21D053009B18033BEA5CEE1893
:1028A0008A4202D11BE0002A08D053009B18033B48
:1028B000EB185A788A42F6D142785A7000230122E6
:1028C000837043702000FFF7D5FE617B020020007B
:1028D000FFF7FCFD6073012000E0002070BD43782D
:1028E0003370EBE701221900FFF7C4FE607301208B
:1028F000F4E7C046F0B54546DE4657464E46E0B5DD
:1029000083B001920C9A050088469A4200D976E07D
:102910001A0E93461E023000002359460C9A01F00D
:102920002BFF384B6C009C466419A4006444636818
:102930000700834200D260602B1FDBB29946012B57
:1029400037D9C02380229B01234312011A602E4BEA
:10295000AD0059599A46002907D0586901F0CEFEBA
:10296000431C5800C0180338FDD2019A2368520155
:102970005340E0221A4080235B0123431A604A46F9
:10298000012A2FD9802380229B01234312011A6040
:10299000300000233A005946676001F0EDFE5346CF
:1029A0005851012003B0F0BCBB46B246A946A04630
:1029B000F0BD4346012BC4D1C02303229B01234316
:1029C0001A60023AA3681A42FCD0019A23685201A5
:1029D0005A40E0231A4080235B0123431A600A4ACD
:1029E000AD00924642462168514003220A401A60D7
:1029F000012243469A40A3681A42FCD0C2E7002055
:102A0000D0E7C04600800040902E002030B50C205A
:102A100083B000F0B9F9FEF755FB00280ED0994BB2
:102A2000994A1A605A609A60DA601A615A619A612A
:102A3000DA611A62954A5A6203B030BD944CA067BD
:102A400000F0F6F90122934B1A60636C012BFCD164
:102A50000322914B1A608E4A936B012BFCD10133F8
:102A600001218E4A8E480093043300F03DF905237E
:102A70008C4A009301218C4800F036F98B4B5A6840
:102A8000FF2A02D8802252005A6080227D4C824B5D
:102A900021691201854D1A60002907D0606901F093
:102AA0002DFE431C5800C0180338FDD2E0217F4B97
:102AB00002201A681140802252012A4311601968CD
:102AC000484003210140116004219A681142FCD062
:102AD0008022802192012A43090111608022520044
:102AE0005A60734B2361734B5968FF2900D85A60B1
:102AF0000321684A6F4B116002399A681142FCD079
:102B0000E0201A681040802252011A4310601868B1
:102B10004840032101400220116066498A68104242
:102B2000FCD0802292011343802212011A6080227D
:102B3000614B52004A606361604B5968FF2900D8BD
:102B40005A6080225E4BE16912015C4D1A600029D7
:102B500007D0606901F0D2FD431C5800C01803384B
:102B6000FDD2E02255490B681A4080235B012B43BC
:102B70001A60802380229B012B4312011A6080225D
:102B8000414B52004A60E3614E4B5968FF2900D81F
:102B90005A6080224C4B216A12014A4D1A6000296A
:102BA00007D0606901F0AAFD431C5800C018033823
:102BB000FDD2E02243490B681A4080235B012B437E
:102BC0001A60802380229B012B4312011A6080230C
:102BD00080225B004B602C4BD20223623B4B596836
:102BE000914200D25A608022394B616A1201374DFE
:102BF0001A60002907D0606901F080FD431C58006D
:102C0000C0180338FDD2E02230490B681A408023F7
:102C10005B012B431A60802380229B012B4312010E
:102C20001A608023DB024B60184B6362294B5A68A1
:102C3000FF2A02D8802252005A608022264BA169C6
:102C40001201244D1A60002907D0606901F056FD79
:102C5000431C5800C0180338FDD2E0221D490B6800
:102C60001A4080235B012B431A60802380229B0142
:102C70002B4312011A6080235B004B600E4BA36153
:102C8000DAE6C046902E0020006CDC021BB7000084
:102C9000008000403CB0004030B00040002F685938
:102CA00000800240008C864700C002403080004017
:102CB000001BB7003C80004040597307548000401F
:102CC00054B000406080004060B000406C80004024
:102CD0006CB000404880004048B00040014B80008C
:102CE000C0587047902E0020F8B5040021481D0000
:102CF00017000E0001F002FD0100380001F0FEFC9B
:102D0000069B29041B0319432368002B20DB1A4B65
:102D10001A4DE21853425A4180235B019C4612032C
:102D2000174B62441A60174B1A601700AB689F4339
:102D3000FBD1C022231D92011A4321232660A060EB
:102D400013602368002BFCDA0823E1601360F8BDF0
:102D50003F2322681340B342D9D1A3681B051B0D42
:102D60008342D4D1EE22E368D20213408B42CED10B
:102D7000EDE7C046001BB7000040FDBF00C00040AB
:102D800000E0004000F000408023024A9B00034323
:102D9000D36270470080054010B5140080221B4BA1
:102DA000D2051A6000281AD00123194A1843194B7A
:102DB000DA61194A42401A62596298628022134BC2
:102DC000D2051A601549164A1160E022D2041A6031
:102DD000002C07D18022134B12061A6010BD0D4B38
:102DE000D861EBE763011B1B9A00802312191201C3
:102DF0005B049A4200D30C4A0C4B1A60054B5A6094
:102E00008022084BD2051A60E8E7C04600B00540B2
:102E1000D3C007B0008005402D3FF84FFCFF0100F4
:102E20000820014000A00540FFFFFF00303B0020CC
:102E3000AA23064A1B0113602F230549D360054BC3
:102E400019605368002BFCDA7047C046004002400E
:102E500000B0FA00006002402C4B2D4A70B51A6099
:102E60002C4A2D4B2D491A6014008B689C43FBD1D2
:102E70002B4D2C4EB54208D2013E761BB60808CD2C
:102E8000984723000134B342F9D1FFF7BFFD264A2A
:102E9000214B1A60214A9368DB43DB01DD09002BDB
:102EA000F9D14022214B224C224E9A675A671A6769
:102EB000DA66B44208D223682000002B20D0083400
:102EC000FEF7ACFCB442F6D31B4E1C4CC022A168EA
:102ED000300002F0ADF8A660FEF79EF9FEF748FC60
:102EE000FEF73AFE164C174EB44208D2013E361B8E
:102EF000B60808CC98472B0001359E42F9D170BD29
:102F00000834FEF77DFCB442D5D3DDE700E0004095
:102F1000BFCDFBFEFE7F3C0000F0004000C0004043
:102F2000A0120020B0120020FFFFFF0100F00140BE
:102F300090120020A01200200000002000ED00E010
:102F4000B0120020B812002000BEFDE7094A0300BD
:102F50001068002805D00849C3188B4207D81360B1
:102F6000704706480449C31810608B42F7D9012006
:102F70004042F5E7443A002000000420800F012081
:102F800010B5FFF7E1FFC04610B50C0082B0190084
:102F9000002A0AD0064B0192009302002300054844
:102FA00001F00CFB0120FFF7CFFF034B1A00F2E703
:102FB000C8430110D843011010C604100FB400B567
:102FC000084883B002F098F9049B002B07D005A9AC
:102FD0001800019101F012FB034802F08DF9012065
:102FE000FFF7B2FF0844011098C8041010B501485B
:102FF000FFF7E4FF184401109A4200D2885470474A
:103000007047C046F8B557464E464546DE46E0B5E1
:1030100099460A9B07009A460D9B884693461500E1
:103020000B9E9B0710D10C9B9E420DD29D1B140042
:103030000E005D4422004B46013431002020B84789
:10304000A542F7D1B0460B9E002E27D044467519F5
:103050005346AA1B013E985D21004B46B847002EFF
:10306000F6D123002C0098460D9B9B070FD55B469D
:10307000E51A0C9BAB420AD94646984622004B46BD
:10308000310020200135B8470134A845F6D820008A
:10309000F0BCBB46B246A946A046F8BD2C00E3E70B
:1030A000F0B54F464646D646C0B584B098460EABFE
:1030B0001B78129F994694460D9C109B119EBA074F
:1030C00025D4002E4BD19C4200D3BFE001223A40D0
:1030D00092461F2C00D9B8E00C9A551E302201E010
:1030E000202C03D001342A55A342F9D85246002A95
:1030F0000DD0A6420BD9202C44D00C9A551E30225C
:1031000001E0202C3ED001342A55B442F9D1FA0610
:103110004DD57A053FD4002C39D10F9B102B00D10F
:1031200079E00F9B022B00D18AE030230C9A012416
:1031300013704B46002B3FD02D230C9A13550134AE
:103140000C9B624600930397434602960194FFF757
:1031500059FF04B0E0BCBA46B146A846F0BD012212
:1031600015003D40AA463A422FD04A46002A02D1D5
:103170000C323A4200D0013E9C42BAD21F2CABD94D
:10318000202E27D92024FA06DAD57A0503D4A342C3
:103190002DD0A6422BD00F9B102B32D0022B20D04B
:1031A000202CCDD030220C9B1B191A700134202CFE
:1031B000C6D04B46002BBFD17B070DD43B07BFD5F4
:1031C00020230C9A13550134BAE79C429FD21F2C3E
:1031D00000D881E720249AE72B230C9A1355013459
:1031E000AEE7202CACD00C9B1B1901343AE0631ED7
:1031F000012C92D00F9A102A2AD0022A2FD01C001C
:10320000D0E7BB060ED4202C9AD00C9B1A1901349F
:1032100078231370C4E7BB060DD478230C9A0124DD
:103220001370BFE7202C00D18AE758220C9B1B1992
:103230001A700134B4E758230C9A01241370B1E7D3
:103240000C9A603301241370ACE7202400265EE75B
:10325000023CBA06E9D40C9A12191C00D8E70C9A61
:103260009246534462221A709AE7C04610B500286D
:1032700000D110BD01F0F4FFFBE7C0460B0010B514
:10328000002802D049681B68984710BDF0B5DE469B
:1032900057464E464546E0B59BB09B46249B894623
:1032A0009846259B0B900C924046424619009A4640
:1032B00001F0E5FC002800D0D8E00122404651464C
:1032C000774B524201F0D6FC002800D0CEE001221C
:1032D00040465146734B524201F0B6FC002800D0E4
:1032E000C4E0002200234046514601F0ADFC002816
:1032F00000D0B9E1424653460A9209938023289AA6
:10330000DB001A400E92289A1A4201D10623269316
:103310000A9A099B1600134300D0C7E0289B00259A
:1033200000261B0500D49BE100230D93269A0D9BDC
:103330009A4200DC9FE1D01A431E26938023289AEC
:10334000DB001A430023002728920D93279B0024BB
:10335000BB4200D9DC1B0223289A1A400E92289AFD
:10336000134203D07B427B415B421C400D9B002BF0
:1033700007D00A9809992A00330001F004FC0A904A
:103380000991002200234046514601F05DFC0028CF
:1033900005D0802000068446099961440991289A45
:1033A000414B0B9D13400493269B0A9A0293099B61
:1033B00003940092019349465B4628000C9A00F062
:1033C0008BF90400002F62D0289B220098061F234F
:1033D000C0179843631C984649465B466530A8472A
:1033E0000D9B0025DA179C18DB0F9A465440013FCD
:1033F00001E0202D13D00AAA94461F232000634425
:103400000A2101355E1901F079F93031317020005F
:103410000A2101F073F926000400092EE9D80523DA
:103420000693002304930A330393534605970B9F97
:10343000029312AB009342465B4649463800019521
:10344000FFF72EFE0E9B0400002B20D00C9BC51A0C
:10345000279BAB421BD91E0022005B464946202019
:103460000135B8470134AE42F6D810E0289B4246F9
:103470000493279B49460393269B0B98029353463C
:10348000009201935B460C9A00F026F9040020009C
:103490001BB0F0BCBB46B246A946A046F0BDC04634
:1034A000FFFFEF7FFFFFEFFFFFF7FFFF734B099F6A
:1034B0009C467800400D604401F0F4FB704A714B6B
:1034C00001F07BFB704A714B01F058FB3B03704AE3
:1034D0001B0B1A4304000D00300011006D4B00223D
:1034E00001F047FB6C4A6D4B01F067FB02000B00DB
:1034F0002000290001F042FB01F0ECFB0D9001F0EF
:10350000D1FB674A674B04000D0001F056FB002217
:10351000654B01F033FB01F0DDFB644A0600644BB0
:103520002000290001F049FB040030000D000F9637
:1035300001F0B8FB5F4A604B01F03FFB02000B005B
:103540002000290001F015FB02000B0006000F000F
:1035500001F033FB320004000D003B003000390065
:1035600001F00CFB002210901191544B2000290017
:1035700001F009FB0022524B01F000FB02000B009E
:103580002000290001F0FFFA00224E4B01F0F6FA6C
:1035900002000B002000290001F0F5FA0D00802147
:1035A000040032003B000020C90501F0E2FA0200ED
:1035B0000B002000290001F0E1FA02000B00109836
:1035C000119901F0E0FA0022314B01F0D7FA3E4B9D
:1035D0000F9C9C4664440022230501F0EEFA05008E
:1035E0000E0002000B000A98099901F02DFB00283B
:1035F0000AD00D9B2800013B31000D930022304B77
:1036000001F0C1FA05000E00C6270D992B006331A9
:103610008F42BF4128997F420437090500D495E6BF
:10362000334300D182E6099C284A2100284B0A989E
:1036300001F018FB002808D000222100254B0A9831
:1036400001F002FB002800D070E6269B002B00D181
:103650007CE60E9B5A1E9341269AD31A269375E652
:10366000002304270D9371E643460A9380231B062B
:103670005344099342E6002326935FE601FCFFFFD3
:10368000FB799F501344D33FB3C8608B288AC63F51
:103690000000F03F0000F83F61436F63A787D23F0F
:1036A00071A379094F930A400000E03F1655B5BB5E
:1036B000B16B0240EF39FAFE422EE63F00002C408B
:1036C0000000244000001840FF0300002D431CEBC5
:1036D000E2361A3F80842E41F0B54E46DE4657460C
:1036E0004546E0B597B09946209E219F229B834690
:1036F000984607910C923B0032003000390001F0EF
:10370000BEFA002800D0A9E1012230003900CA4BDE
:10371000524201F099FA002800D0E1E00122300085
:103720003900C64B524201F0A5FA002800D0B7E09C
:10373000002230003900C24B01F09CFA002800D072
:1037400099E0002230003900BE4B01F07DFA0028DC
:1037500000D090E0002200233000390001F074FA1C
:10376000002800D0B1E000230D93249B5B0501D419
:103770000623984608AB9C46172200243023414676
:10378000624404E0013413550139202C01D0092989
:10379000F8D888463000390001F09CFA4346DA0038
:1037A000A94B05009B181A685B680892099301F001
:1037B00079FA02000B003000390001F0DAF9089ABA
:1037C000099B01F0FAF90A900B9101F0A7FA8246E1
:1037D00001F064FA02000B000A980B9901F0C9F994
:1037E00000229A4B0A900B9101F044FA002800D174
:1037F000C0E001239C46E244504601F04FFA02002B
:103800000B000898099901F025FA002802D000233E
:103810009A4601354346002B6AD008AB17269C46D2
:1038200008956644554614E001235B4243440A214F
:1038300028009A4600F062FF0134303137193970A0
:1038400028000A2100F05AFF092D00D8D0E0D04608
:103850000500202CE8D10EAB98460323249A134090
:10386000012B00D196E02023249A01930392239AFE
:10387000434602921EE0249B58460493239B0096E5
:103880000197039343460C9A029307994B46FFF71F
:10389000FDFC17B0F0BCBB46B246A946A046F0BD41
:1038A000249B5B070ED40322694B24990192039158
:1038B00023990291009358464B460C9A0799FFF7BB
:1038C000A1FBE6E70422634BEFE73B003200002058
:1038D000002101F04EF9012306000F000D9344E78B
:1038E000249B0393239B0293042301935A4BE1E708
:1038F000280001F0D7F902000B003000390001F078
:1039000038F9524B002206000F0001F09DF90EAB72
:10391000984600280AD10022300039004B4B01F0B4
:10392000A9F9002802D1EB0700D50135202C94D04D
:1039300008AA94461723280063440A2101341E195B
:1039400000F0B4FE3031280031700A2100F0AEFEE4
:10395000051EEBD10323249A1340012B1BD0202CEE
:1039600000D180E70D9B002B35D02D224146631CF2
:103970000A5579E700220A980B99344B01F064F953
:10398000002800D046E75346002B51D101239C4626
:10399000E2443FE72024239B002BE0D00D9B002B2B
:1039A00003D1249A0C33134202D0239B013B23936F
:1039B000239BA342D3D908AB9C46172230236244F1
:1039C000202C00D14FE72399013413558C42C6D0E7
:1039D000202CF8D147E7249B5B0724D4249A2300AA
:1039E000120700D440E72022414601330A553BE745
:1039F0005746089D202C00D12DE72200302140465B
:103A0000002F09D00132B154202A00D123E7D3433B
:103A10001B191B18002BF5D10EAB98462E234146DF
:103A2000541C8B5482E72B224146631C0A551BE72A
:103A3000DB0700D4EEE6A9E7FFFFEFFFFFFFEF7F14
:103A400065CDCD4165CDCDC1204601100000E03FE0
:103A5000244401102844011034440110249B039392
:103A6000239B029303230193004B23E7304401106F
:103A7000F0B5DE464E4657464546E0B59FB01C00C1
:103A8000289B91460993C94AC94B8B4608901A60F6
:103A9000002900D118E2002320789A46002800D19E
:103AA0001AE226001D005C460AE02A006F1C4B4605
:103AB000089D2100A8473D0001363078002870D0CD
:103AC0002528F2D110239B46083B9A46043B984692
:103AD000023B00219C46721C107816000300203B1C
:103AE000DBB2102B03D8B34F9B00FB589F4603005B
:103AF000303B092B32D900230A932A2868D00023AF
:103B000098462E283ED00300683BDBB2122B1CD80F
:103B1000A94A9B00D3589F46012301321943DBE792
:103B2000634601321943D7E7434601321943D3E7CD
:103B30005B4601321943CFE7534601321943CBE7C5
:103B400080235B007078194301360300253BDBB20C
:103B5000532BAAD8994A9B00D3589F4600270300AD
:103B6000B800C01901364000C018337830381A0048
:103B7000303A0700092AF3D90A9018000023984622
:103B80002E28C0D180237078DB0019430300303B1E
:103B9000721C092B00D8A1E12A2800D1B2E116003D
:103BA000B1E7A346AA462C00D14503D801235B42C6
:103BB0004B449A464B46524659460020089DA8471A
:103BC00020001FB0F0BCBB46B246A946A046F0BDDF
:103BD000099B40CB0A96002E03DB50780993561CB4
:103BE0008DE72838014370420A9009935078561C9B
:103BF00085E7782800D1DFE1582800D14CE26F2812
:103C000000D14FE3622801D100F030FC10230A00FC
:103C10009A430B92692801D000F0A9FC0A230C9367
:103C20004B0500D5D0E10B9A802311009B00194071
:103C30008B461A4200D0A1E2802311005B0019409C
:103C40008A461A4200D0B6E313005B0600D5EDE2C7
:103C5000130009991B0601D400F076FC08C91BB2B9
:103C6000D8171A18424092B209919346DA0F12926D
:103C7000002B09D1802310220B99DB000B409143CC
:103C80000B91002B00D0E4E20B9A6123920600D541
:103C900041230EA91F228C46DBB262440A3B5F46D9
:103CA0001395A34655460C9CB2460D9316000AE0A8
:103CB0003033DBB201357355A74200D2EDE2202D3F
:103CC00000D1EAE207002100380000F017FDCBB276
:103CD0000929EDD90D9A94466344DBB2EAE78023C3
:103CE0009B007078194301362FE77078682800D15F
:103CF000CDE180230136194327E770786C2800D185
:103D0000BFE180235B00194301361EE7462800D13E
:103D10009BE10722099B0491073393430A9A1900F8
:103D20000392424602920CC90898009201930991AD
:103D30002A004B462100FFF7CFFC01360500BCE608
:103D40002A006F1C4B46089D21002520A8470136FC
:103D50003D00B2E68B0700D4ADE1099B2A009A46EC
:103D60006B1C9846534601CB21009A46089F4B4650
:103D7000C0B2B8470A9B9C466544012B00D886E236
:103D8000089B4746B04626004C4699463A00230019
:103D9000013731002020C847AF42F7D1A146534632
:103DA000340046460993013687E6C046713A001052
:103DB000283B00203C44011080440110CC440110F9
:103DC000099B04CB9B4643460992002B00D1C6E0D9
:103DD00013789C46002B00D1BDE34346013B099A72
:103DE0000133D0180A9F130001E0834203D05A78B0
:103DF0000133002AF9D1099A0A979B1A0B93802361
:103E00000A00DB001A400C92194204D00B9B434578
:103E100001D943460B9302231A000A400D920B422C
:103E200000D187E16046002800D168E10C9B002B9F
:103E300000D10DE1A844C246099B57465B1B98463A
:103E4000089BB2462A0026004C46994609E023000A
:103E50003100551CC8474346585D002800D126E173
:103E60002A009742F3D1A1463D00340056460D9BEF
:103E7000002B00D043E15B46013609931DE6099B08
:103E80001A0008CA9246002B48D0212211438B46C3
:103E90000EA884461F216144099500220F27A446DD
:103EA0000D0002E0202A0CD00B003C001C4020003A
:103EB0003730092C00D807380132A85419090F2BC4
:103EC000F0D86446099D32E0DC4B2078089300234B
:103ED0009A46002800D0E4E5002465E64346060043
:103EE0000A9F9800C018013240008019167803001C
:103EF00030003038303B0928F3D93000984616009E
:103F00000A9700E6099B023604CB9046D24340460E
:103F1000D2171040804609933078F4E5102208004B
:103F2000904311321043834600224905B0D55B46C9
:103F30000693082305934346049310230393002319
:103F4000029316AB019200932A004B462100089879
:103F5000FFF7A6F85346050001360993ADE513783F
:103F60009C46002B00D1F7E202235B4237E7202377
:103F700002009A43472A04D180231B0119430223DC
:103F80009843452801D1202319430722099B049116
:103F9000073393430A9A19000392424602920CC9CE
:103FA00008980092019309912A004B462100FFF7DF
:103FB0006DF90136050080E510230C930C230A00EF
:103FC0009A430B924B0503D501230B9A9A430B920C
:103FD000692800D127E6642800D124E60B9A8023C3
:103FE00011009B0019408B461A4200D066E18023E5
:103FF00011005B0019408A461A4200D039E21300D2
:104000005B0600D53CE113001B0600D4A6E2099B29
:1040100004CB1204120C934609935B46002B00D08C
:104020009AE10B9A1033110099430B91520500D479
:1040300092E100239A460B9B06930A9B0593434605
:1040400004930C9B039300230CE12023194360E6A7
:10405000099B0A9A5B1B98464B4691461F00B24645
:104060002600089C2A003B003100A047434601354A
:10407000585D0028F6D14A463400B94656460A92A1
:10408000F5E6C0239B00B078194302365DE5C023F6
:10409000B0781943023658E50C230A009A431433CA
:1040A0001A43103B0B920C934B058DD496E7A14617
:1040B00034005646DBE60A9A012A00D853E26B1E0A
:1040C0009F18089BB04626004C4699462A002300BC
:1040D000013531002020C847BD42F7D1A146340048
:1040E0004646099B3A0001CB210098467D1C4B4671
:1040F000089FC0B2B847434601360993DDE40B9BE5
:104100000A9AA8469A4200D8B5E694466544ED1A44
:10411000089B4746B04626004C4699463A00230085
:10412000013731002020C847AF42F7D1A146340003
:104130004646A0E60B9A0A99531C914200D814E215
:104140004B199B1A1F00089BB24626004C46994605
:104150002A002300013531002020C847BD42F7D195
:104160000A9BA14601330B93099B34001B785646EA
:104170009C466046002800D058E67CE60722099B52
:1041800007339343013294469C4462465F68099228
:104190001A68FB171093119310981199030053405C
:1041A0000E930B007B400F9394460E9A0F9B121AAE
:1041B0008B410E920F93FB0F6246129300233A43FA
:1041C0009B463DD00B9A6123920600D541230022E5
:1041D000DBB20EA90A3B8C4692460D9343461F3232
:1041E00062441395159655460E9E0F9FA246904623
:1041F0000C9C14930CE03032D2B2434601355A5530
:10420000BB4500D18AE1202D00D18AE106000F00D4
:10421000220000233000390000F0AEFAD2B2092AA1
:10422000E9D90D9B9C466244D2B2E6E7FF23099987
:1042300004C913401A00099117E5C0460130001067
:104240000B9A1033110099430B915205BAD50023F4
:104250009A460B9B06930A9B0593434604930C9B3B
:104260000393129B02935346019316AB2A000093CB
:1042700021004B460898FEF713FF013605001CE4A9
:10428000FF22099B02CB11408B460993C5E653469A
:10429000454609930136FFF710FC56465C46AA4690
:1042A000139DD6E708230C930B910B99642800D03B
:1042B00084E60B9B5B0500D586E6B4E40722099BE8
:1042C00007339343013294469C44624609921A682C
:1042D0005B6810009B4613005A46134307D10B9AA4
:1042E0001033110099430B91520500D5A1E60B9AAA
:1042F0006123920600D541230022DBB20EA90A3BBE
:104300008C4692460D9343461F3262445F46129597
:10431000A34655460400B24690460C9E13930DE00A
:104320003032D2B2434601355A550023BB4200D148
:1043300000E1202D00D100E104000F003200002335
:104340002000390000F018FAD2B2092AE8D90D9BF2
:104350009C466244D2B2E5E70B9A6123920600D5EF
:104360004123DBB20EA90A3B1F228C460D9323008A
:1043700062445C461295170055469B46B2460C9E19
:1043800008E03033DBB201357B55B4420ED3202D2B
:104390000CD004003100200000F0B0F9CBB20929A4
:1043A000EFD90D9A94466344DBB2ECE756465C467F
:1043B000AA46129D3FE6099B1A0008CAD917139214
:1043C0005A184A409246DA0F1292002B08D18023E5
:1043D00010220B99DB000B4091430B91002B2BD14A
:1043E0000B9A6123920600D541230EAA1F279446FB
:1043F000DBB20A3B0D9567445D460993A3465446DC
:10440000B2460C9E08E03033DBB201357B55B44236
:104410000ED3202D0CD004003100200000F06EF9E6
:10442000CBB20929EFD9099A94466344DBB2ECE791
:1044300056465C46AB460D9D0B9B2A0006930A9B95
:1044400021000593434604930C9B08980393129B09
:10445000013602935B46019316AB00934B46FEF781
:104460001FFE139B05000993FFF727FB02230C9304
:104470001AE7099B04CB92461293002A08D18023A5
:1044800010220B99DB000B4091430B91002B2BD199
:104490000B9A6123920600D541230EAA1F2794464A
:1044A000DBB20A3B0D9567445D460993A34654462B
:1044B000B2460C9E08E03033DBB201357B55B44286
:1044C0000ED3202D0CD004003100200000F016F98E
:1044D000CBB20929EFD9099A94466344DBB2ECE7E1
:1044E00056465C46AB460D9D0B9B2A0006930A9BE5
:1044F00021000593434604930C9B089803930023E3
:1045000002935B46019316AB00934B46FEF7C8FD42
:10451000129B050009930136FFF7CFFAB44200D889
:1045200071E6149B54460E960F97AA469846159E20
:10453000139D8EE6A64200D8FBE6139B564698468E
:10454000AA465C46129D76E508C9D8171A1842405B
:104550000991FFF78AFB00230B9350E4099B04CBDE
:104560009346099359E52F00BBE50B9301E6063B03
:104570000C939AE60EB4012210B585B007AC08CCB6
:1045800001000094524204480394FFF771FA05B009
:1045900010BC08BC03B01847F92F001000B585B057
:1045A0000391012102900093034813004A4202A99B
:1045B000FFF75EFA05B000BD7D3200100FB410B5F4
:1045C0000C4984B006AA08CA0C680392002C0BD0D0
:1045D000009201220848524202A9A047012004B0DB
:1045E00010BC08BC04B01847180000F085FE00207D
:1045F000F5E7C046283B00206D32001010B5094A8F
:104600000300146884B0002C08D0012200910648F1
:10461000524203A9A047012004B010BD00F06CFE77
:104620000020F9E7283B00206D32001001480421EA
:10463000014B18479008002069460010014B9B6809
:104640001847000090080020142310B501001888B6
:1046500004331B88984710BD162310B50100188835
:1046600002331B88984710BDF8B54746CE4680B543
:104670000F1E19D014239946043304000025012687
:1046800098464B461888434621681B88984701C4C2
:10469000431E9841013540420640AF42F1D13000FF
:1046A000C0BCB946B046F8BD0126F8E7124A936F80
:1046B0009B0815D29066D166002905D0FFE7FFE779
:1046C000FFE7516F106F704704B580210906C217CC
:1046D0005140002800D0C8430FF0CAFC002104BD9F
:1046E000F0B5146E556E576F166FFFF7E3FF146643
:1046F000556657671667F0BD000000D0114A936FEA
:104700009B0813D210665166002905D0FFE7FFE72A
:10471000FFE7516F106F704704B5002801D00020EB
:10472000C0430FF0A5FC002104BDC046F0B5146ED7
:10473000556E576F166FFFF7E5FF1466556657679E
:104740001667F0BD000000D094464A4A926F920866
:10475000624601D228E0C046F0B5464E346E756E12
:10476000776F366F00F020F89446424A146655661B
:10477000576716676246F0BD94463E4A926F9208AC
:10478000624601D254E0C046F0B53A4E346E756EC2
:10479000776F366F00F04CF89446364A14665566CB
:1047A000576716676246F0BD002B24DB11D0002945
:1047B0003EDA00B5C943404200D1013100F038F87B
:1047C000C943404200D10131DB43524200D10133A1
:1047D00000BD002AEBD1002801D1002905D000201E
:1047E000C90FC90701D1C043410800B50FF020FC33
:1047F0000022002300BD00B500290ADBDB43524242
:1048000000D1013300F014F8C943404200D1013116
:1048100000BDC943404200D10131DB43524200D1C7
:10482000013300F005F8DB43524200D1013300BDF3
:10483000002923D1002B18D1002A0CD0BC460D4FE3
:1048400038667A6600210023FFE7FFE7FFE77A6F0B
:10485000386F67467047002801D00748010000B54F
:104860000FF0E6FB0022002300BD02000B00002039
:1048700000217047000000D0FFFFFFFF002B00D099
:10488000BFE0130C28D1002AE7D080B4114F39665D
:104890007A66FFE7FFE730B4040C7B6F396F1B04C7
:1048A00023433B667A66FFE7FFE7FFE7C04684B233
:1048B0007B6F3D6F1B0423433B667A66FFE7FFE790
:1048C000C04600232C042D0C7A6F386F0019694103
:1048D000B0BC7047000000D0F0B594460025140E1F
:1048E00001D112020835140F01D112010435940FC1
:1048F00001D192000235D40F01D152000135D40B01
:104900000134254F7C66254C3C660E0C93B2FFE7C4
:10491000FFE7FFE73C6F6643360C7703BE46734301
:10492000DF0B5B04C01AB941130C7343DB18C91ABF
:10493000CE086643360CB64493B273431F0F1B0177
:10494000C01AB941130C73431F0B1B05C01AB941A0
:10495000860D8F023E436643360C092D24DB520A36
:104960007243801A7703460A6643360C16235B1B94
:10497000DE40DF40BF1964466643821B7046043543
:1049800006330100D940A840C01900D30131A2422A
:1049900006D20023F0BD0000000000D0FFFFFFFFA3
:1049A000121B0130F3D3F1E709277F1BFE40644659
:1049B000A2B27243801A00D20139220C7243130C46
:1049C0001204821A99410B00704604351337010016
:1049D000F940A840801900D30131002B02D1A24236
:1049E0000AD2F0BD013000D30131121BFAD2013BD3
:1049F000F8D1A24200D2F0BD013000D30131121B28
:104A0000F7E7F0B51C0C00D080E00CB400251C0AC0
:104A100004D11B02160E3343120208351C0B04D1BD
:104A20001B01160F3343120104359C0B04D19B006C
:104A3000960F334392000235DC0B02D192185B4192
:104A400001351C00971864410134464F7C66464C82
:104A50003C660E0CFFE7FFE7FFE7C0463C6F66438E
:104A6000360C7703BE4697B27743C01B00D201399C
:104A7000C01B00D201399FB27743C91BC91B170C59
:104A800077437E04FF0B801BB941CE086643360C8A
:104A90000C2D33DBB644120B1F053A431B0B97B2A8
:104AA0007743C01B00D201399FB27743C91B170C53
:104AB00077433E043F0C801BB941860D8F023E4375
:104AC000664329277F1BFE400C3D7746AF40BF1948
:104AD00030BCA2B2ABB272437343801A9941220C2C
:104AE0007243130C1204801A994102000B00013723
:104AF000001BA941F9D2781E0021F0BD0C277F1BB5
:104B0000FE4077467F0BAF40FF19E0E700245D1CB5
:104B100007D0144F7D663966FFE7FFE7FFE7FFE741
:104B20003C6F95B29EB265436643401BB141150C84
:104B30001E0C6543664336042F0C3E432D04401B78
:104B4000B141994204D202000B0020000021F0BDC7
:104B500001D19042F7D3801A994101349942F2D39E
:104B6000F6E70000000000D0FFFFFFFF4840414093
:104B7000484018B4134B5B68019308BD18B4114B3F
:104B80001B68019308BD94460F4A926F920805D2A4
:104B9000624618B40B4BDB68019308BD0A4AF0B5B6
:104BA000146E556E576F166F6246FFF7F2FF064A96
:104BB0001466556657671667F0BD18B4014B9B68BD
:104BC000019308BD60210020000000D0FFB55040D7
:104BD0004240504059404B40594000E0FFB5154F0E
:104BE0004C00640D03D0BC4204D10C0314D8002047
:104BF000090D09055C00640D03D0BC4204D11C03FF
:104C00000AD800221B0D1B0501264B4009D44B403E
:104C100003D58B4200D18242FFBD9942FCD1904224
:104C2000FFBD0B43DB1803431343F5D0C9434918B9
:104C3000FFBD0000FF07000000B5FFF7CFFF01D068
:104C4000002000BD012000BD00B5FFF7C7FF804177
:104C500000BDC04600B5FFF7C1FF01D9002000BD6F
:104C6000012000BD00B5FFF7B1FF01D9002000BD54
:104C7000012000BD00B5FFF7A9FF804100BD012064
:104C800040054A00121804D85A00121801D8002012
:104C90007047012070470020704700000021002865
:104CA00005D17047C1174840401AFAD0C90713B55B
:104CB000064B1B6898470CBC441CA2401005120B05
:104CC0000349091B09051943114310BDC80A0120F6
:104CD0001F04000010B54C00620D8023D218DB00C9
:104CE000D21A5B057E2A10DD9E3A13DACC1709032F
:104CF000490819435242D140640001341532202A38
:104D000005DAD0400843604310BD002010BD0846BE
:104D1000604310BDC80FC018013810BD18B4024B55
:104D20005B6A019308BD00006021002018B4024BAB
:104D3000DB6D019308BD000060210020C94211D342
:104D400000B549004908002200F014F8002904D4F5
:104D5000002240428A41114600BD80210906002000
:104D600000BD000018B4024BDB6E019308BD0000CB
:104D70006021002018B4024B9B6F019308BD000016
:104D80006021002018B4024BDB6F019308BD0000C6
:104D90006021002010B50148FEF710F9704601109F
:104DA000132370B51D78012D11D035DD1C48FFF798
:104DB00053FC1C4C01008022200000F039F9022D28
:104DC00027D01948FFF740FC184B186070BD184BEE
:104DD000144C23606360A360E36023616361A3619B
:104DE000E36123626362A362E36223636363A36399
:104DF000E36323646364A364E36423656365A36579
:104E0000E36523666366A366E36623676367A36758
:104E1000E367084BA364D4E7024C064BA364D0E7D6
:104E200053440000602100204C330000C80A0120D8
:104E3000954D0010394E001007B5604601880A0AEA
:104E40000230DF2AFAD1C9B2820804D3028840882E
:104E50000004104300E00068014A5050039007BD71
:104E60006021002051434343C9188C46110C83B282
:104E70004B4310B4040C614392B280B2504362437E
:104E80001C041B0C001910BC59411304120CC0184F
:104E9000514161447047000007B5484041404840D7
:104EA00001E0C04607B54200120E03D0FF2A03D12D
:104EB000420218D8C00DC0054A00120E03D0FF2AC6
:104EC00003D14A020FD8C90DC9050122414005D4BA
:104ED000414001D5814207BD884207BD01434918C1
:104EE00001D0C043001807BD00B5FFF7DBFF01D9B3
:104EF000002000BD012000BD01231B064200D21886
:104F000004D84A00D21801D8002070470120704709
:104F100010B50148FEF752F810C60410132310B55F
:104F200010481C78FFF798FB0100012C0AD003DD24
:104F300080220D4800F07CF80C48FFF785FB0C4BF5
:104F4000186010BD084C5422200000F071F82300B6
:104F5000084A80332168002900D122600434A3422A
:104F6000F8D1E9E753460000CC0A01204C33000099
:104F7000C80A0120114F001070B504000A4E30001D
:104F80000FF0AEF8200008F019FF050030000FF018
:104F900047F8002D05D0054B2C199C4201D828005C
:104FA00070BD0348FEF70AF89012002000000420AC
:104FB0008846011070B505000C000B4E30000FF054
:104FC0008FF82800210008F0BFFE050030000FF028
:104FD00027F8002D05D0054B2C199C4201D828003C
:104FE00070BD0348FDF7EAFF901200200000042086
:104FF0008846011070B50400054D28000FF070F8C8
:10500000200008F0E5FE28000FF00AF870BDC04649
:105010009012002001480421014B1847A0080020ED
:1050200069460010014B1B6818470000A0080020CB
:10503000014B5B6818470000A0080020030010B572
:10504000080011001B68984710BDC046F0B54646E1
:105050004F46D646C0B5437D80460E001700002B54
:1050600046D0002A3FDD4B1E9946244B01250024E3
:1050700000209A460DE04B461B5D0D3B5A425341C2
:10508000325DDBB20A2A0BD02B00013401359F427E
:105090001ADD002CEFD14346325D1B7D0A2AF3D185
:1050A000002BF1D1A04204DA4346211A1B683018C4
:1050B0009847434650461B68022198470134280010
:1050C0002B0001359F42E4DC874204DD4346391A58
:1050D0001B6830189847F619013E33780D3B5A4249
:1050E000534142461375E0BCBA46B146A846F0BDEE
:1050F0000368110030009847F5E7C046FC460110F0
:10510000F0B5C6460C000968060000B5802906D037
:105110004B1C23606418267180BCB846F0BD0F4B51
:105120001D68002D16D0231D98460D4F02E02D69F5
:10513000002D0FD02B68002BF9D03B68002B01D03D
:10514000AB42F4D1280041462268FFF77FFF2D696A
:10515000002DEFD101230021DBE7C046343A0020C7
:10516000403A0020F0B5DE4657464E464546E0B58B
:1051700085B017001C0006000D00FDF777F800232E
:10518000304A12184B41002B58DB2F4908008A4641
:105190000EF096FF01906B1C03D1300009F03EFB2E
:1051A0000500002C25D1294B9846294B1C68002C62
:1051B00015D0002F20D1274F02E02469002C0ED0FB
:1051C0002368002BF9D03B68002B01D0A342F4D117
:1051D00020002A003100C0472469002CF0D1019B37
:1051E000002B27D105B0F0BCBB46B246A946A0466D
:1051F000F0BD194B9846D8E7164B994602ABDF1D18
:105200000A239B4602E02469002CE8D02368002B87
:10521000F9D04B461B68002B01D0A342F3D12A00E2
:1052200031002000C0475B460122390020003B705E
:10523000C047E8E750460EF0F3FED3E70122074BE4
:105240005242A2E740420F00981200204D50001039
:10525000343A0020403A00203D500010FFFFFF7F0D
:10526000F0B5CE46474680B583B06B460600DD1DDF
:105270002870FCF7FBFF00231A4A12184B41002B41
:105280002BDB1949080088460EF01AFF174B8146A0
:105290001C68002C14D0164F02E02469002C0FD09B
:1052A0002368002BF9D03B68002B01D0A342F4D136
:1052B000200001222900FFF7C9FE2469002CEFD14C
:1052C0004B46002B05D1300003B0C0BCB946B046F8
:1052D000F0BD40460EF0A4FEF5E70122054B524218
:1052E000CFE7C04640420F0098120020343A002019
:1052F000403A0020FFFFFF7F70B5040009F08EFAEE
:1053000000230100050001222000FFF72BFF084BBE
:105310001C68002C06D06368002B05D098472469D0
:10532000002CF8D1280070BD2469002CF3D1F9E7D6
:10533000343A0020F0B54746D64680B516000F0037
:1053400083B000282DD11C4B1C4D1A685B6801925C
:1053500000931B4B9A461B4B984653461C68002CE7
:1053600003D114E02469002C11D02B68002B01D04C
:10537000A342F7D1A368002BF4D03100380098473E
:105380000028EFDD03B0C0BCBA46B046F0BD4346CE
:1053900000995B6A994209D842460198926A824212
:1053A00002D301204042EDE79942FAD101200021C9
:1053B000FCF766FFD1E7C04680430110403A002069
:1053C000343A002000400540F0B54646D6464F46E8
:1053D0000138C0B50D00160001283ED8FCF746FF85
:1053E00000231F4A12184B41002B32DB1D49B046E7
:1053F000080089460EF064FE8246731C03D1280023
:1054000009F00CFA8046184B1C68002C14D0174F7A
:1054100002E02469002C0FD02368002BF9D03B68F0
:10542000002B01D0A342F4D1200042462900FFF70F
:105430000DFE2469002CEFD15346002B05D130001E
:10544000E0BCBA46B146A846F0BD48460EF0E8FDBD
:10545000F5E70122064B5242C8E701267642EEE705
:1054600040420F0098120020343A0020403A0020B9
:10547000FFFFFF7F012040427047C04601204042AD
:105480007047C046F0B5CE46474680B5A5B004008B
:105490000D00FCF7EBFE00232A4A12184B41002BAB
:1054A00049DB294E30000EF00BFE0023070003936A
:1054B00022002B00254803A9FFF770F8039B8046C4
:1054C000002B14D1224B1C68002C06D06368002BE3
:1054D0000BD098472469002CF8D1002F27D14046E3
:1054E00025B0C0BCB946B046F0BD2469ECE7184B06
:1054F0001D689946002D22D0164C02E02D69002D22
:1055000011D02B68002BF9D02368002B01D09D42CD
:10551000F4D1039B28001A0004A90193FFF796FD1C
:105520002D69002DEDD14B4603951C68CCE730006A
:105530000EF076FDD3E70122074B5242B1E7039507
:10554000CBE7C04640420F009812002001510010E6
:10555000343A0020403A0020FFFFFF7F0FB400B52F
:1055600083B004A901C90191FFF78CFF03B008BC07
:1055700004B0184710B500F0E9FB00F00DF800F09A
:10558000ADF900F039FA00F077FC00F023FC10BD13
:1055900040BA80B27047C046032200210A4B0B4834
:1055A000033393430A4A197113600A4A9918016038
:1055B00001201A6008710849995008490B6092232C
:1055C0000749CA527047C046F49F0020F09F002050
:1055D000EC9F0020983A0000983A983A2C3B002023
:1055E000403B0020F8B5CE46474680B5002864D041
:1055F000830700D070E00400454D083C2B68A342AF
:105600005FD8444E0C30316881425AD32279002A47
:1056100000D175E02288404882425BD86788874283
:1056200058D8E01A80B2B84202D0DF5B874251D12D
:105630009B18994202D05B8883424BD1002323718F
:10564000364B99461B68A34201D94B461C60344B2C
:10565000984694239C4643466746DB5B9B1AC018DA
:105660004346D853A14239D92B6899188C4212D09D
:10567000087900280FD1306881420CD04A46126860
:1056800091423FD00A88244822800988814202D072
:10569000E01A59184880608819188C420DD00D798D
:1056A000002D0AD14D462D68AC422ED00A802288AA
:1056B00019498A4201D09B185880C0BCB946B046EF
:1056C000F8BD1848FFF74AFF982215498B5A013355
:1056D0008B52F2E71448F5E71448F3E71448FFF754
:1056E0003DFF2379002B02D01248FFF737FF2288B5
:1056F000094B9A42B8D91048FFF730FF2288B3E728
:105700000E48DFE74A461460BCE74D462960CDE706
:10571000EC9F0020F09F0020983A00002C3B0020D6
:10572000403B00202447011068470110004701104A
:105730009C470110B8470110D447011040470110A1
:10574000F8B5DE4657464E464546E0B500283BD004
:10575000584DC31C1D400B2D33D9574B9D4233D898
:10576000A84231D8554B544F1B687F1B9846544B69
:105770001A689B4643469B1A9CB21B041B0C9F4213
:1057800013D90821494208E03088CB1A1B18AB42D4
:105790001CD2030004009F4207D9D6183079002894
:1057A000F2D0348823009F42F7D890220020454948
:1057B0008B5A01338B52F0BCBB46B246A946A04679
:1057C000F8BD0C25A842CDD90020F4E714218C4661
:1057D000AC44614689B28B421ED2012394273371B7
:1057E000384BD95B8C466044041B9620A4B2DC5332
:1057F0001F5AA74200D21C520835ABB29946324B11
:1058000046453BD01B684A469219934232D3B307B0
:1058100029D130000830CEE72B0008339BB29946DF
:105820001B199BB29A46244B9A4538D05346D3183D
:1058300018800027012051461F715C803071318033
:105840001B881D48834201D0D318598094241D48D9
:10585000035B0833ED189623ADB20553C45AAC422E
:10586000CDD2C552CBE71948FFF778FE1848FFF7AD
:1058700075FECEE71748FFF771FEC8E718683300DA
:1058800004E01B88D3181979002904D09842F8D174
:105890000A4A1360B7E7094A13600300B3E70E48EA
:1058A000FFF75CFE5B461A68044B30881B6898461D
:1058B000BCE7C046FCFF0000983A00002C3B0020EB
:1058C000EC9F0020403B0020F09F00207C4801100E
:1058D000AC4801104C480110384801101F4BF0B57E
:1058E00000224546984618235746DE464E469B46BC
:1058F0009246033204249146194BE0B5194F9C4659
:10590000194D1A4BBB4451463A6829604946033346
:105910008B43002C0BD096880021002200E003006E
:1059200001321960981919002B60A242F7DB634617
:1059300062465C804346043704C39846BB4506D0A4
:105940003A681168D5688C469368D488DBE7F0BC68
:10595000BB46B246A946A046F0BDC046DC3B00208F
:10596000B09F002088490110D09F0020F09E0020A9
:1059700070B5052815D8104B8000C558EB681C6819
:10598000002C14D022681A60A3070CD12A689388CF
:10599000D18801339BB29380994200D2D3802000FA
:1059A00070BD0024FBE70548FFF7D8FDEEE72A6845
:1059B000138801331380F2E788490110E44801108D
:1059C00070B50C0005280ED800290CD0084B8000BB
:1059D000C5588B0708D12A689388013B9380EB68F0
:1059E0001A6822601C6070BD0248FFF7B7FDF2E73D
:1059F00088490110084901107047C046F8B5CE46E5
:105A000047460400002580B500282BD0244B254EA6
:105A10009946254B984609E02369002B35D0200094
:105A200098470135EDB2002F1CD03C00A37B002B22
:105A30001DD0013BDBB2A373002B13D1637B27681E
:105A40009B07E9D40F23227B1340022B18D0012B94
:105A500020D0002B10D120000135FFF7C3FDEDB29F
:105A6000002FE2D12800C0BCB946B046F8BD3000D6
:105A7000FFF774FDA37BDCE74846FFF76FFDD0E737
:105A800021000520FFF79CFFCBE74046FFF766FDAE
:105A90002369C4E721000420FFF792FFC1E7C04655
:105AA000DC490110A0490110B8490110F0B5C1232B
:105AB0004F464646D6468046C0B50D00170084B214
:105AC0005B009A4242D00FD81400433BFF3B9C43FB
:105AD000012C2CD03A48FFF741FD00263000E0BCF5
