:020000041000EA
:1000000000B5324B212058609868022188439860DF
:10001000D860186158612E4B002199600221596106
:100020000121F02299502B49196001219960352056
:1000300000F044F80222904214D00621196600F024
:1000400034F8196E01211966002018661A6600F04E
:100050002CF8196E196E196E052000F02FF8012189
:100060000842F9D1002199601B49196000215960AB
:100070001A491B48016001219960EB211966A021F2
:10008000196600F012F800219960164914480160C1
:100090000121996001BC002800D000471248134993
:1000A000086003C880F30888084703B5996A0420EC
:1000B0000142FBD001200142F8D103BD02B5186610
:1000C0001866FFF7F2FF186E186E02BD00000240BE
:1000D000000000180000070000035F00212200005C
:1000E000F4000018222000A00001001008ED00E03C
:1000F00000000000000000000000000074B24E7A12
:1001000000200420F7010010C3010010C5010010F9
:10011000C1010010C1010010C1010010C101001097
:10012000C1010010C1010010C1010010C701001081
:10013000C1010010C1010010C9010010CB01001065
:10014000CD010010CD010010CD010010CD01001037
:10015000CD010010CD010010CD010010CD01001027
:10016000CD010010CD010010CD010010CD01001017
:10017000CD010010CD010010CD010010CD01001007
:10018000CD010010CD010010CD010010CD010010F7
:10019000CD010010CD010010CD010010CD010010E7
:1001A000CD010010CD010010CD010010CD010010D7
:1001B000CD010010CD010010CD010010CD010010C7
:1001C00000BE00BE00BE00BE00BE00BEEFF3058054
:1001D000103800BEF2EB887108F1041024F104100D
:1001E0003802001090A31AE71E481F49086006C88D
:1001F00081F3088810471D480068002801D019487D
:10020000F3E70DA40ECC002902D000F012F8F9E7B4
:100210001749184A002000E001C19142FCD116495B
:100220008847164988471649884700BEFDE701C937
:1002300001C29A42FBD3704724F10410C000002091
:10024000100F002074FF04100000042000000420A0
:1002500074FF0410001004200010042000000000AF
:10026000704700000000000008ED00E0000000D032
:10027000100F00200C0D0120798D0010890800104E
:10028000398D0010F8B5C0460448054B10B58342BF
:1002900003D0044B002B00D0984710BD100F002056
:1002A000100F00200000000006480749091A8B10B3
:1002B000C90FC91810B5491003D0044B002B00D04A
:1002C000984710BD100F0020100F00200000000004
:1002D00010B5074C2378002B09D1FFF7D5FF054B4C
:1002E000002B02D0044800E000BF0123237010BDA2
:1002F0000015002000000000C85D0110054B10B57E
:10030000002B03D00449054800E000BFFFF7CCFFF5
:1003100010BDC0460000000004150020C85D01109B
:10032000F0B5DE46454657464E460023E0B5C04888
:100330008BB0069300F0C4FE08F060FF09F04CFE9D
:10034000BC4BBD4C9B46BD4BBD4D0393BD4B049375
:10035000BD4B9846BD4B0793BD4B0893BD4B0993CE
:1003600005F0EAFF22686368121A8B41002BF7DA66
:1003700080231B01EE58002E66D0BE220021584675
:1003800006F0D2FFBE220021039806F0CDFF062220
:100390000021049806F0C8FF002342461370C122D2
:1003A000731E5200934200DD13002878202859D094
:1003B00000220027BE2A0CD0791C8C4659460132F7
:1003C000C8559A4222DCA85C202809D06746BE2A7C
:1003D000F2D10132934200DAC2E0A85C2028F8D1C1
:1003E00000210132013193423EDBA85C2028F8D085
:1003F000012900D1DFE0022900D1A4E001329A42B4
:1004000000DD31E1A85C2028F8D1EAE70022E146CE
:1004100000219446DA43D217134001334F46069821
:100420009E422BD86346002B0AD0434618705828AA
:1004300000D197E0592800D1B7E05A2800D1DEE07A
:10044000802300221B01EA5005F076FF0023824A38
:1004500080185941002902DA012080494042206079
:1004600061607DE70022BBE720200027DA43D21736
:1004700013400122013394469E42D6D9EA5C202AD9
:100480001AD0002900D0B5E08A46BD2B0DDC791CBE
:10049000894659460133CA559E42C3D9EA5C202A8F
:1004A00000D180E04F46BD2BF1DD514601339E4225
:1004B000B8D9EA5C202AF9D101339E42B2D9EA5C6C
:1004C0000131202AF8D000270597012911D0C12732
:1004D0007F00B946022900D0A1E0059F05914B4558
:1004E00024DB059901339E429CD9EA5C202AF9D18C
:1004F000E2E79246BE22520091465246059F059180
:100500004B4507DB059901339E428BD9EA5C202AD3
:10051000F9D1D1E7791C8A4603990133CA559E4225
:1005200080D9EA5C202A30D05746E9E7791C8A4610
:1005300004990133CA559E4200D873E7EA5C202A29
:1005400023D05746CBE78131FF3100278C466245E7
:100550001DD101220133022194469E428ED864E7C8
:10056000002183E7002107980EF058F8089B5A46AF
:10057000186043460193049B394800930999039BF3
:1005800008F032FB374B18605AE7059994E7791C5D
:10059000894604990132C855934238DBA85C20286B
:1005A0003BD04F46D3E7514686E70022002100208A
:1005B00006F056F844E7202106915D31FF3100270F
:1005C0008C460100624507DB0132934214DBA85CD4
:1005D00020280DD00691F4E7781C8146039801325B
:1005E000C15593420FDBA95C202901D04F46E9E7B2
:1005F0000121F6E6059768E70800012136E70021AA
:10060000002006F0B5F801220121944602E72022DD
:1006100006921F3A02219446FCE60221E1E60133EC
:100620009E4200D8FEE6EA5C202A00D04DE743E770
:1006300040070020BC1B0020581300209C1A0020FB
:1006400028F0002040080120F0250020EC1C0020AC
:10065000F4250020C85D011040420F00FFFFFF7F1E
:1006600070090120F80C01200027FFE6F0B5040016
:100670004C4002000B00A40723D10C000443640784
:1006800000D0A4E004000F34641A1E2C00D89EE0B1
:10069000E0246400A4468C441E685F689C68DD68A2
:1006A0001033166057609460D56010329C45F3D1CA
:1006B000E0235B00CA5CC254C223FF33CA5CC2544D
:1006C000F0BDE1270C000326050000237F00344223
:1006D00008D0CA5C0134C25401330135BB42EFD0AB
:1006E0003442F6D1E1267600F61A0F2E35D9D927F5
:1006F0007F00FB1A18099C4621002B0001300001E5
:1007000028180A68170A1A705F70170C120E9F706B
:10071000DA704A68170A1A715F71170C120E9F710E
:10072000DA718A68170A1A725F72170C120E9F72BA
:10073000DA72CA681031170A1A735F73170C120E37
:100740009F73DA7310338342DBD10F236746103572
:100750009F4310341E40ED19E419032E26D9236857
:100760001A0A2B706A701A0C1B0EEB70331FAA70DA
:10077000032B13D96268110A2A716971110C120EC8
:10078000EA713200083AA971032A07D9A268110A4E
:100790002A726972110C120EA972EA7203229B0866
:1007A0009B00043504341640ED18E418002E00D1E7
:1007B00086E72378721E2B70012E00D180E76378C4
:1007C0006B70012A00D17BE7A378AB7078E70D004E
:1007D000C135FF351C6814605C6854609C68946087
:1007E000DC681033D46010329D42F3D160E7C0461C
:1007F000F0B5C64600B5204C0E00A544002934D003
:100800001E4B0D0098461F3508AC18AF20002A7803
:100810004146023408F0E8F90135BC42F6D15A23CA
:10082000F35E5822B25C16490792727E19A80692AE
:10083000327E0592F27D0492B27D0392727D029225
:10084000327D01925422B25A009208AA08F0CCF9E3
:100850000C4919AA48A808F0C7F948A80EF04EFF9D
:1008600048A90200022000F0C3FC002092231B01D3
:100870009D4480BCB846F0BDE0F6FFFFEC5D011082
:10088000F45D0110346B0110F0B5DE4657464E465C
:100890004546E122E0B5DB4CA5B000212000520026
:1008A00006F042FDE122D84B52001D000021180045
:1008B0000B9306F039FDD54B28001968FFF7D6FEDB
:1008C00029002000FFF7D2FED14BD24E9846D24BE2
:1008D000424619000D93D14B280005930193D04B4C
:1008E000D04F0E93009333000EF036FFCE4809F040
:1008F00029FC09F0F3FBCD4BCD4918009B460DF0C8
:10090000ABFBCC4900200EF0F7F9CB4809F038FBDF
:10091000CA4BCB4D00205C681B68029303942B608C
:100920006C600EF0BBF801238340C64CC64A2060C1
:10093000C64913600B2004F0E3FC01210B2004F0F6
:10094000B9FC2268C24CD202C24B22403A43012079
:100950001A600EF0A3F8C04B1860C002BF4B2040D5
:10096000074301201F600EF099F8BD4BBD4A186087
:10097000C3022340BC491A4301200A600EF08EF8DE
:10098000BA4BBB491860C302BA4A23400B4301204B
:10099000894613600EF082F8B74BB84F1860C30257
:1009A000B74A23403B43012013600EF077F84A46D4
:1009B000B44BC1461860C002B34B204010431860CE
:1009C00001200EF06BF8B14B1860C002B04B204014
:1009D00007431F6000239A46AE4BAF4C0F93AF4BBB
:1009E000AF4F0693AF4B0793AF4B0C932378002B7D
:1009F00000D0CCE005F0A0FC029A039B121A8B41B8
:100A0000002B00DAE1E005F097FC2A686B68121A07
:100A10008B41002BEADA48460EF070FE002849D0E0
:100A2000069B01389C46012398434B46804602337F
:100A30009844534609964A466646AA46A4460893F1
:100A40000A971CE01C00613C052C00D8B2E01C0099
:100A5000413C052C28D8373B092D1DD901006139AF
:100A6000052900D8AFE00100413905291CD83738E5
:100A70001B010343023233700136904514D01378C2
:100A800050781F000100303F3039FCB2CDB2092C44
:100A9000D8D83B00092DE1D808001B0103430232DE
:100AA000337001369045EAD1089B554664469A4614
:100AB000099E0A9F30000EF021FE002848D0079BB7
:100AC00001389C46012398438046B31C9844534602
:100AD00032000996AA4666460893A4460A971CE087
:100AE0001C00613C052C00D8E8E01C00413C052CB2
:100AF00028D8373B092D1DD901006139052900D8B7
:100B0000E5E00100413905291CD837381B010343B2
:100B1000023233700136904514D0137850781F009C
:100B20000100303F3039FCB2CDB2092CD8D83B009F
:100B3000092DE1D808001B0103430232337001364E
:100B40009045EAD1089B554664469A46099E0A9FFD
:100B5000059B1B78372B00D1CBE0352B00D1ECE087
:100B6000332B00D1EBE0302B00D1EAE005F0E4FBC1
:100B700000234E4A12184B41002B02DA01224C4B43
:100B800052422A606B602378002B00D132E702F0DA
:100B9000C7FB8046002800D128E7012302890021F5
:100BA0000093030058460DF0F7F93860404608F00E
:100BB00079FE1BE7573B092D00D86DE7010061392D
:100BC000052900D94FE7573852E75346002B00D18B
:100BD0007FE05A46374BD358012B00D113E705F07D
:100BE000ABFB0023344A801859410290039100293D
:100BF00004DA01222E4B52420292039300239A46BA
:100C000001E7C046340B012070090120480700208D
:100C1000BC1B00209C1A0020C85D0110F02500209C
:100C20004008012035801F00494E0000EC1C0020C8
:100C3000201011004007002021030010986D0110C2
:100C400058130020641A002004240050310F0010B3
:100C5000FDFF1FFF5C1A0020681A0020601A0020A8
:100C6000E425002025801F00489D0020DC25002071
:100C700031801F0038180020D825002039801F003F
:100C800034180020E02500203C180020E825002032
:100C90006C090120F1070010060D01207C1C0020CA
:100CA000F42500205C1B0020F80C012080969800A1
:100CB000FFFFFF7F6808000080841E00573B092D5E
:100CC00000D837E701006139052900D919E75738FD
:100CD0001CE74C22002111A806F026FB00225846F2
:100CE0000F9B11A90DF0B6FB002815D101239A46E0
:100CF00089E6154A0799069809F0FEF9059B3860C0
:100D000001930E9B4A4600930D9933000B9807F010
:100D10006BFF0C9B186029E705F00EFB00230B4AC4
:100D20008018594102900391002900DB6BE60122F3
:100D3000074B52420292039365E6064ADAE7064AF7
:100D4000D8E70022D6E7C0460600400080841E0097
:100D5000FFFFFF7F0400400002002000014B1868E5
:100D60007047C0466809012070B51A4C2378002BE3
:100D70000ED1E122184D19482900520010F052FA04
:100D800001232370002804D10121002009F0E2F999
:100D900070BDEFF3108672B609F044F98021A020EF
:100DA0004901400314F0BCFF8022A02029009200DA
:100DB000400314F08DFF09F067F986F310880020D6
:100DC000217809F0C7F900220021002005F048FC35
:100DD000DEE7C046060D012070090120340B01201A
:100DE00070B5184C2378002B09D0174B1B78582B63
:100DF00006D0002300210020237009F0ABF970BD5C
:100E000000232370EFF3108572B609F00BF98021EF
:100E1000A0204901400314F083FF8022A0200B4949
:100E20009200400314F054FF09F02EF985F3108866
:100E30000020217809F08EF900220021002005F021
:100E40000FFCDCE7060D0120F025002070090120D1
:100E5000F8B51D00A023DB059C46802314002D4E11
:100E60005B043268A1B292016244D2681A4234D063
:100E7000A020C0058446284E326892016244D268A0
:100E80001A420DD0C1220020520008F051FC234C20
:100E90004560206002F0D4FB206808F003FDF8BD37
:100EA000C1220020520008F043FC1D4F3860E307C8
:100EB0002BD4A021C9058C46336842689B0163444A
:100EC0001D605A60174A640812689C60DA6002F07C
:100ED000B7FB386808F0E6FCE1E7C12200205200C9
:100EE00008F026FC104B1860E30710D4A021C905B8
:100EF0008C46336842689B0163441D605A600B4A0C
:100F0000640812689C60DA60C9E70134D1E70134F3
:100F1000ECE7C046641A0020681A0020509D0020AB
:100F2000589D0020601A0020549D00205C1A00206B
:100F300010B5084C206802F083FB206808F0B2FC72
:100F4000054BA0211A6801239340044AC9058B5020
:100F500010BDC046549D0020641A00200C040000FF
:100F6000F8B51500022948D0032923D08023334E39
:100F70000421320000201B0101F08EFA002D12D056
:100F800030002F4A2F4B7719D1582F4B54189C46BD
:100F9000013103786444490501302370490D8742CB
:100FA000F3D1284BD1502B0032008421002001F0D6
:100FB00073F8F8BD8023254C002022001B0101F0AE
:100FC0006BFA002D12D0224B1D4A6719D15823000D
:100FD000204E5018B44601311E7860444905013353
:100FE0000670490D9F42F3D1194BD1502B002200BE
:100FF0008321002001F050F8DBE78023164C00200D
:1010000022001B0101F048FA002D10D0802321009E
:101010000B4A1B01D358661908780131D0540133AB
:101020005B055B0D8E42F7D18021090153502B00E7
:1010300022008221002001F02FF8BAE728E80020E2
:1010400028F00020081800000810000028E0002008
:10105000041000000408000028D8002010B507295B
:1010600000D010BD80230C4C1B012200053900204C
:1010700001F012FA80231B01E2180321002001F085
:101080000BFA80235B01E218802304211B0100205E
:1010900001F002FAE5E7C04628D8002010B5930613
:1010A00001D1002A03D10022044B1A7010BD002385
:1010B0000022002000F0F0FFF8E7C046040D0120F8
:1010C00010B5040082B00020334903F06FFE852381
:1010D000812201210094314802F04EFC01000020E1
:1010E00003F088FE85238122012100942C4802F020
:1010F00043FC0100002003F07DFE2A49002001F09E
:10110000A9FC0100002003F075FE2749002001F032
:10111000A1FC0100002003F06DFE0020234903F034
:1011200089FE0020224903F085FE2249002001F0BB
:1011300091FC0100002003F05DFE1F49002001F03A
:1011400089FC0100002003F055FE00201B4903F03C
:1011500071FE00201A4903F06DFE1A49002001F0CB
:1011600079FC0100002003F045FE1749002001F042
:1011700071FC0100002003F03DFE0020134903F044
:1011800059FE0020124903F055FE124A1249002070
:1011900003F0ACFE02B010BD3C6B0110BC37002068
:1011A000D8370020F43700201038002074070020C2
:1011B0006C0700202C3800204838002064070020ED
:1011C0005C0700206438002080380020540700208D
:1011D0004C0700205D10001000001150034B002A46
:1011E00002D001221A7070471A70FCE7030D01202B
:1011F00010B50F4B1B78002B0FD001230D4C237023
:1012000013000A00022809D003280CD084210020F2
:1012100000F042FF2378002BFCD110BD822100207A
:1012200000F03AFFF6E78321002000F035FFF1E7F8
:10123000030D0120040D0120F0B5DE4657464E4651
:101240004546E0B5836941791B6885B0802900D1A6
:1012500085E09B059B0D002943D00F244AB20C402A
:10126000002A00DB25E1E500A14A2B199B00D318D9
:1012700018699E88B04200D883E0D968801B8C46EC
:10128000B4446146D96059691861891959613300BC
:10129000864200D9030099B28E4200D97AE28020BA
:1012A000C0000143281980001018477A0E007F2FD4
:1012B00000D97CE22D19AD005219100024300178BC
:1012C000D2690B005C1EA34101245B0333436140E0
:1012D0000170136005B0F0BCBB46B246A946A046FB
:1012E000F0BD834A2D31FF31515888464646A02132
:1012F000300049005158484089460F0003210C0036
:101300000440A446014244D140464D461C000E42D2
:1013100000D1C0E1160043464A4600210327B146EA
:10132000A04608E0565C01305E540135013C0131B5
:10133000384200D1ADE1002CF4D143464A469A2010
:101340009824400011586400591811501059C31ABC
:10135000135100200A00002103F014FDBAE7912286
:10136000634B92009A5CD209012A00D182E11A787B
:10137000002AAFD01A785F49D2B20A6000221A70F0
:10138000A8E75A69821800205A61186103F0E6FC48
:10139000A0E71D000324002B08D1D0E7471C0078EC
:1013A000013D4E1C0870002D00D1ADE23100380027
:1013B0002742F3D10F2D01D800F04EFC10204042FF
:1013C0008046A84440460009013000018446B444E8
:1013D00060463C009C46914603002068020A087063
:1013E0004A70020C000E8A70C8706068020A0871A8
:1013F0004A71020C000E8A71C871A068020A087254
:101400004A72020C000E8A72C872E0681034020A36
:1014100008734A73020C000E8A73C8731031994224
:10142000DBD10F214046103688430C0031180C26C2
:10143000103763464A462C4038182E4200D13BE311
:1014400005682E0A0D704E702E0C2D0ECD70251FC6
:101450008E70032D13D945682E0A0D714E712E0C16
:101460002D0ECD712500083D8E71032D07D985689D
:101470002E0A0D724E722E0C2D0E8E72CD72032519
:101480002540A408013CA4000431043009190019C6
:101490006C1E002D00D152E705780D70002C00D194
:1014A0004DE745784D70012C00D148E78078887071
:1014B00045E7E5002C190E4AA40014192500413413
:1014C000FF3424682D352600FF352D68A1466E4077
:1014D000A8462F0003252C003440A446354200D1F5
:1014E00039E103241E1EA44698464C460CD198E0D0
:1014F000E0100020000011506C1C2D78013E4F1CA4
:101500000D70002E00D16EE26346390025001C42AA
:10151000F2D14346A3460F2E00D8A4E31024644220
:10152000A046B0444446250901352D01AC465D4630
:10153000BC4491465C46624682469C462B001D6830
:10154000280A0D704870280C2D0E8870CD705D68CB
:10155000280A0D714871280C2D0E8871CD719D6877
:10156000280A0D724872280C2D0E8872CD72DD6823
:101570001033280A0D734873280C2D0E8873CD7311
:1015800010319142DBD10F21A3460C003440634659
:101590004546A4465C468D431034103779196519C9
:1015A0000C2450464A46344200D1AAE22C68260A4E
:1015B0000C704E70260C240ECC706446043C8E7069
:1015C000032C13D96C68260A0C714E71260C240E5C
:1015D000CC716446083C8E71032C07D9AC68260A8E
:1015E0000C724E72260C240E8E72CC726446032648
:1015F0002640A408013CA4000431043509192D1922
:10160000741E002E00D183E12E780E70002C00D1C4
:101610007EE16E784E70012C00D179E1AC788C704F
:1016200041790F240C40E00080460019800010181A
:1016300006002D36FF363568ED1835600500353566
:10164000FF352E689E192E6098256D00AC468444A7
:10165000654667462D682530ED1A3D60FF300088ED
:10166000984202D8002D00D0C2E13200002003F0E1
:1016700089FB2FE619699A885869914200D88DE054
:10168000891A19611218802100205A6103F066FB43
:1016900020E643464A460F2C36D92700103F0F2F2D
:1016A00000D8D3E129000F31091A1E2900D8CDE155
:1016B00001002943490700D0C8E1390989460121C1
:1016C00049442E00A246070064468046AC46934635
:1016D0000D000193013430687168B268F3683860B6
:1016E0007960BA60FB6010361037A542F2D84046E8
:1016F000654654465A46019B10300F210C4049461E
:101700001035090140186D18032C14D9296801609F
:10171000211F032907D96E6846602600083E032E64
:1017200001D9AE6886600326890889000430043533
:10173000344040186D18002C00D100E62978017063
:10174000012C00D1FBE569784170022C00D1F6E54F
:10175000A9788170F3E52F4200D151E203271D00E3
:10176000BA46170044464E4643464A460021B9460B
:10177000A84609E0575C01345F5457460136013DE5
:1017800001313C4200D1C5E0002DF3D143464A4629
:10179000417946E78820C001014383E50A1800210A
:1017A0000020196180315A6103F0D8FA92E566464B
:1017B000002E00D1A4E00327B946006A804670409D
:1017C0000740BA464F46074200D178E103208446DD
:1017D000002B00D194E04046A946904607E03F78B0
:1017E000013B013601301770002B00D105E2654640
:1017F000020037002E42F2D1C4464D468046624672
:101800000F2B00D823E210277F42B94699444F4658
:101810003F0901373F01474492469C468B463A00B8
:1018200033001F68390A07704170390C3F0E817010
:10183000C7705F68390A07714171390C3F0E8171B9
:10184000C7719F68390A07724172390C3F0E817265
:10185000C772DF681033390A07734173390C3F0EC2
:101860008173C77310308242DBD10F2063460700BB
:101870001F40BC464F468743404610361030C019C3
:10188000F7190C26594652461E4200D1DDE13B684D
:101890001E0A037046701E0C1B0EC3706346043B89
:1018A0008670032B13D97B681E0A037146711E0CC8
:1018B0001B0EC3716346083B8671032B07D9BB68B7
:1018C0001E0A037246721E0C1B0E8672C372664697
:1018D00003233340B608013EB600043004378019B4
:1018E000BF19002B0CD05E1EB4463E780670012B4B
:1018F00006D07B7843706346012B01D0BB788370A0
:10190000802636020E43D5E4380031006C1EC0E557
:10191000417986E643464A460F2D3FD91021494278
:101920008946A94449460F2900D8A9E0310021433E
:10193000490700D0A4E031000F31091B1E2900D84F
:101940009EE0494609098946012149448846019398
:101950004346A84665462100A44682462C00300036
:1019600093461D0002960134026843688668C76882
:101970000A604B608E60CF6010301031A542F2D803
:101980006446454650465A46029E019B10360F213A
:101990000D4049461034090164187618032D14D9F6
:1019A00031682160291F032907D9776867602F00F4
:1019B000083F032F01D9B768A7600327890889006A
:1019C000043404363D4064187618002DA0D03178D8
:1019D0002170012D9CD071786170022D98D0B17862
:1019E000A17041791DE6250043463900741E08E6C2
:1019F0000300A84200D92B009BB2984222D8802134
:101A0000C900194343461B199B00D3182A33FF33DF
:101A10001B787F2B02D980231B0219434444A70063
:101A2000D71938004530FF3002783D3713005C1E6F
:101A3000A3415B030B430121FF374A4002703A6820
:101A4000136047E48821C9011943DBE70100380925
:101A5000070181460800BC461030844467462E00CA
:101A60009C463B0037680F6077684F60B7688F60AF
:101A7000F7681036CF6010318B42F3D163463CE6F5
:101A800031004E463609B1463601B4460E001036D6
:101A9000B4449046270062469C460B683B604B6806
:101AA0007B608B68BB60CB681031FB6010378A426B
:101AB000F3D1634642466AE725006C1EE9E44046DE
:101AC00001900320464683464846674630421FD071
:101AD00001916146A4469146019A44460020E046A1
:101AE000944608E00A5C013622545A460137013B0D
:101AF0000130164208D0002BF4D1614644464A46D4
:101B0000FEE66646741E7CE5614644464A460196FA
:101B10000F2B3FD91020404283469B4458460F2844
:101B200072D93800019E304340076DD138000F3024
:101B3000801B1E2868D95846000983460120584456
:101B40008146A046029154463100AA469C464D4625
:101B50003800914603970134026843688668C76875
:101B60000A604B608E60CF6010301031AC42F2D30F
:101B700010204446804663464A465546039F0299D4
:101B8000B8440F2003405846019E07011036F01953
:101B900001904744032B1DD93868019E3060181FFF
:101BA000804603280BD930007E68466008267642BE
:101BB000B4469C446646032E01D9BE68866003265F
:101BC00040463340019E80088000043636180437B2
:101BD00001963F18002B00D192E6581E8446019EC4
:101BE00038783070012B00D18AE67B783000737032
:101BF0006346012B00D081E682E642464D467FE6F1
:101C00004E4644461D0087E6019E3800B146370027
:101C10005E463609B3463601B4461026B0468044C7
:101C2000C4444E46914662469C4603683B60436806
:101C30007B608368BB60C3681030FB6010378242F2
:101C4000F3D163464A4601969BE7634649E6032B78
:101C500000D848E69C461AE62C00032D01D9FFF770
:101C6000EFFB6C1E18E4B446741E032E00D99DE4ED
:101C7000CAE4C046932210B56A4C002120009200AD
:101C800005F052FBA022684B5200A3502362674B21
:101C9000674AE3619E235B00E250664B664A236419
:101CA000B0235B00E250654B654AE363AE235B0003
:101CB000E250644A644B65482266636623006449C7
:101CC0008133FF33186059608823624A6248E250CA
:101CD000624A2133FF33E250614A253BFF3BE25029
:101CE000604A2133FF33E25023005F49A833186074
:101CF000596023005D485E49C933FF33186059605D
:101D0000D0235C4A5C48E2505C4A2133FF33E25006
:101D10005B4A253BFF3BE2505A4A2133FF33E250F6
:101D200023005949F03318605960842357485849B3
:101D30009B00E318186059608C23564A5B00E25000
:101D4000554A2133FF33E250544A253BFF3BE250D2
:101D5000534A2133FF33E250524B534A6364B22358
:101D60005B00E250514B524AA366C4235B00E25031
:101D7000504AFC3BE250504A2133FF33E2504F4A75
:101D8000FC3BE2504E4A2133FF33E2504D4AFC3BCC
:101D9000E2504D4A2133FF33E2504C4AFC3BE250C3
:101DA0004B4A2133FF33E2504A4AFC3BE2504A4A55
:101DB0002133FF33E250494C0520210003F0C4FBDE
:101DC000FF222100052003F0C5FA8022444B520473
:101DD0001A60444B44491A6010000B689843FBD1C9
:101DE0009C220021414805F09FFA802200215201E7
:101DF0003F4805F099FA09233C493E4A4B670333B3
:101E00008B670B3B0B6480239B05CB6490230520E1
:101E1000CA50012103F04EFA8022374B52020020B3
:101E2000DA6410BDE0100020000110508000105056
:101E300084001050880010508C0010500800105082
:101E40000C00105010001050900010501400105052
:101E50009400105098001050200010509C0010501A
:101E6000180010501C001050A000105024001050FA
:101E7000A4001050A800105030001050AC001050BA
:101E8000280010502C001050B0001050340010509A
:101E9000B4001050B8001050BC0010503800105062
:101EA0003C0010508001105080051050C0051050AB
:101EB000000610504006105080061050C00610500A
:101EC000000710504007105080071050C0071050F6
:101ED000000810504008105080081050492A001087
:101EE00000E0004000F0004008C000400000115039
:101EF0000000105010D0010000201150014B0020B4
:101F000019707047E010002030B54B790A791B0238
:101F100088781343CA7803217F255B05114042B2BC
:101F200005405B0D002A29DBEC001F4A6419A40060
:101F3000121914002534FF3423801300A1700121ED
:101F40002A33FF331870013B1970002114331B68CA
:101F50000234196013003933FF33196800290BD09C
:101F60004132FF321268114B5340227892061343DC
:101F7000A022120613430B60002030BDEC000A4A79
:101F80006419A40012199380012391710021137226
:101F9000D3695072196091690029EDD0106A034B22
:101FA00092794340E2E7C046E01000200000105064
:101FB0000020704780230A009A43131E0ED10F4A57
:101FC000002918D001219166D9000D4ACB189B0039
:101FD000D218D369802212011A600AE049B200299E
:101FE000F2DBDA00D318074A9B009B5880221201CB
:101FF0001A600020704702219166F2E7002011501C
:10200000E01000201C1200204B0611D04BB2002B18
:1020100010DBCA0052180F4B92009B181A000021C7
:1020200045323D33FF32FF3311701B680A4A1A6094
:102030000020704780239943CA005218054B920034
:102040009B181A00002124321170DB69024A1A60C1
:10205000EEE7C046E0100020FFF7FFFF4BB2002B79
:102060000ADBCB005B180A499B005B581B681B0509
:10207000DB0F00201370704780208143C800054BA0
:10208000411889005B18DB691B681B05DB0FF0E753
:102090001C120020E0100020F0B5DE4657464E46E8
:1020A00045467F20E0B5014085B0002A3BD0C800FE
:1020B000A34C4518AD0065192E7A002E00D1BBE166
:1020C0000026EA602B616E61002B3BD0AE883500A4
:1020D0009E4200D91D00ABB29E425AD88026F6001F
:1020E000334301934618B600A619777ABC46634677
:1020F000019F7F2B52D840188000241821002431E2
:102100000A781300581E8341012042400A705B0385
:10211000E2693B431360002005B0F0BCBB46B24609
:10212000A946A046F0BD002B00D0ABE1C800844C0E
:1021300042189200A218157A002D00D17CE1D360DC
:102140001361536143189B00E3189B88002B1BD13C
:1021500080228425D2002D0243189B00E3185B7A6D
:102160007F2B00D815004118890061180800243021
:10217000027813005C1EA3410124624002705B03DD
:10218000CA692B431360C6E78822C425D2012D02F9
:10219000E2E78826F60133430193A3E7336A16008A
:1021A0001F009C460323994657403B409A464B46A6
:1021B0003B4200D1A1E0C846002D00D198E0019A31
:1021C00063468946944607E07E1C3F78013D531CD8
:1021D0001770002D00D128E141461A0037000E4249
:1021E000F2D1029363460193029B49469C460F2D10
:1021F00000D84AE110235B429946A9444B461F0987
:10220000019B83469A46330001373F01674401979B
:10221000884601991F68380A17705070380C3F0EB5
:102220009070D7705F68380A17715071380C3F0E84
:102230009071D7719F68380A17725072380C3F0E30
:102240009072D772DF681033380A17735073380CE6
:102250003F0E9073D77310328A42DBD10F22534660
:102260004F46019397431300624610361032D2193D
:10227000F7190C262B404146584698462E4200D16D
:10228000FDE043463D682E0A157056702E0C2D0E4B
:10229000D5701D1F9670032D13D97D682E0A1571F8
:1022A00056712E0C2D0ED5714546083D9671032DA5
:1022B00007D9BD682E0A157256722E0C2D0E967215
:1022C000D572434603259E08013EB6001D400432E8
:1022D00004379219BF196E1E002D09D03D78157074
:1022E000002E05D07D785570012E01D0BD789570F7
:1022F0008027019B3F021F43FDE60023984663466B
:102300000293032366469B464B46170033421ED07A
:102310008C4601998146100042468846310008E00B
:10232000835C01368B545B460137013D01321E420E
:1023300008D0002DF4D14346614648460193D7E7C3
:10234000E0100020434661464846019302960F2D57
:102350003DD910235B429B46AB445B460F2B6ED9A5
:102360003A00029E0F32921B1E2A68D932003A436D
:10237000520764D11B099B4601235B449946B4462E
:1023800033003A004E460397A8465746A146824678
:1023900002910137146855689068D1681C605D60CF
:1023A0009860D96010321033BE42F2D810234546EF
:1023B00098464C4650460299039FE0440F225B46E4
:1023C00015401A01434610379B180293BF18032D7E
:1023D0001AD93A68029E32602A1F032A0AD97B68FA
:1023E000736008235B429C46AC446346032B01D9CF
:1023F000BB68B3600323029E9208920004361D401E
:102400000437B3180293BF18002D00D170E73A7853
:10241000029B1A70012D00D16AE77A785A70022D5A
:1024200000D165E7BA789A7062E762463700019298
:1024300049461A006E1E4FE7022040426CE65B469A
:102440001B099B461B019C4610239846029A019B40
:102450009044C444994663463E008C461900336854
:10246000136073685360B3689360F3681036D36089
:1024700010329142F3D14B46614601939EE71D0015
:102480006E1E29E70120404246E6A8466E1E032D37
:1024900000D9F6E622E7C046F0B5DE4657464E467E
:1024A00045467F20E0B5014085B0002A4AD0CC00E7
:1024B000B3486518AD0045192E002936FF36367829
:1024C000002E00D1D8E12E0000272D36FF363260D5
:1024D0007360B760002B4CD02535FF352E88350052
:1024E0009E4200D91D00ABB29E4200D96FE080260B
:1024F000F600334301936618B600861937002A3771
:10250000FF373F78BC466346019F7F2B64D8641831
:10251000A400001901004531FF310A783D30130055
:102520005C1EA3410124FF3062400A705B03026815
:102530003B431360002005B0F0BCBB46B246A94641
:10254000A046F0BD002B00D0BCE1CC008C48621846
:102550009200821815002935FF352D78002D00D105
:102560008AE1150035322D35FF35FF322B606B6067
:10257000136063189B00C3182533FF331B88002B9F
:1025800020D180258422ED00120263189B00C3181D
:102590002A33FF331B787F2B00D82A00611889006B
:1025A00041180C004534FF3420783D3103005D1E96
:1025B000AB415B0313430122FF3150400A68207096
:1025C0001360B7E78825C422ED011202DDE78826F3
:1025D000F601334301938EE74136FF363368160028
:1025E0001F009C460323994657403B409A464B4662
:1025F0003B4200D1A1E0C846002D00D198E0019AED
:1026000063468946944607E07E1C3F78013D531C93
:102610001770002D00D128E141461A0037000E4204
:10262000F2D1029363460193029B49469C460F2DCB
:1026300000D84AE110235B429946A9444B461F0942
:10264000019B83469A46330001373F016744019757
:10265000884601991F68380A17705070380C3F0E71
:102660009070D7705F68380A17715071380C3F0E40
:102670009071D7719F68380A17725072380C3F0EEC
:102680009072D772DF681033380A17735073380CA2
:102690003F0E9073D77310328A42DBD10F2253461C
:1026A0004F46019397431300624610361032D219F9
:1026B000F7190C262B404146584698462E4200D129
:1026C000FDE043463D682E0A157056702E0C2D0E07
:1026D000D5701D1F9670032D13D97D682E0A1571B4
:1026E00056712E0C2D0ED5714546083D9671032D61
:1026F00007D9BD682E0A157256722E0C2D0E9672D1
:10270000D572434603259E08013EB6001D400432A3
:1027100004379219BF196E1E002D09D03D7815702F
:10272000002E05D07D785570012E01D0BD789570B2
:102730008027019B3F021F43E9E60023984663463A
:102740000293032366469B464B46170033421ED036
:102750008C4601998146100042468846310008E0C7
:10276000835C01368B545B460137013D01321E42CA
:1027700008D0002DF4D14346614648460193D7E77F
:10278000E0100020434661464846019302960F2D13
:102790003DD910235B429B46AB445B460F2B6ED961
:1027A0003A00029E0F32921B1E2A68D932003A4329
:1027B000520764D11B099B4601235B449946B446EA
:1027C00033003A004E460397A84657468146A24634
:1027D00002910137146855689068D1681C605D608B
:1027E0009860D96010321033BE42F2D810234546AB
:1027F0009846484654460299039FE0440F225B46A0
:1028000015401A01434610379B180293BF18032D39
:102810001AD93A68029E32602A1F032A0AD97B68B5
:10282000736008235B429C46AC446346032B01D98A
:10283000BB68B3600323029E9208920004361D40D9
:102840000437B3180293BF18002D00D170E73A780F
:10285000029B1A70012D00D16AE77A785A70022D16
:1028600000D165E7BA789A7062E762463700019254
:1028700049461A006E1E4FE7022040425BE65B4667
:102880001B099B461B019C4610239846029A019BFC
:102890009044C444994663463E008C461900336810
:1028A000136073685360B3689360F3681036D36045
:1028B00010329142F3D14B46614601939EE71D00D1
:1028C0006E1E29E70120404235E6A8466E1E032D04
:1028D00000D9F6E622E7C046F0B598234646D6462C
:1028E0004F46504AC0B5D658883B1C00344033424E
:1028F0006AD180256D02F30348D480235B011E4218
:1029000019D080221C43484B12031A650023454A04
:1029100000201360454A9360D36013615361936153
:10292000D361136253629362D362136353639363FD
:10293000D36301F01BFF8023DB011E421ED18023E5
:102940001B021E4211D1B4420AD0394806F04AFC9B
:1029500021003848714006F045FC374806F042FC3B
:10296000E0BCBA46B146A846F0BD80221C432E4BBF
:10297000120100201A6501F0C3FEE4E710221C4397
:10298000294B00201A6501F0D3FED8E7274B2B49CD
:102990001A6891239B00CA50294B00201A68922381
:1029A0009B00CA50012324228B542132FF328B54C6
:1029B00091239B009C46614401F038FF80221A4B12
:1029C00092022C001A6598E7976D00250124002FCC
:1029D0001FD0154B9946194B9A4602E00135202D20
:1029E00017D02300A0463B406400002BF6D04B4696
:1029F00042469A65EBB25B08D800C0188000EB072E
:102A00000AD52530FF305044FEF716FC43469F435D
:102A1000E4D110240B4D6EE704305044FEF70CFC5B
:102A2000F4E7C04600001150003011500000105073
:102A3000405E0110505E0110645E0110E010002045
:102A4000040010501000010010B50020FFF744FFF3
:102A500010BDC046034B08000B6000234B608B6029
:102A6000CB607047912A00107047C0468021002338
:102A700049421170043151709A3191701639D370F6
:102A800091715371137170477047C0467047C046CB
:102A9000F0B5454657464E46DE46E0B50D000E7988
:102AA000497804001700984685B022294DD032D8C5
:102AB00020295AD021293BD102AD2A003100FFF74D
:102AC000D5FF3A680323910700D04DE11A4200D1A7
:102AD0007EE129781170511C194200D188E1687893
:102AE000911C5070194200D195E1A9789170D11CC8
:102AF000194200D194E1E878111DD070501D19429F
:102B000000D19BE12B7913710323184200D17DE1A1
:102B10006979517134E123290AD13100FFF7B6FFF9
:102B2000002005B0F0BCBB46B246A946A046F0BDA9
:102B3000C84806F057FB6978C74806F053FBC748FA
:102B400006F050FB01204042EBE70122AB78ED7824
:102B500031002D021D432A40FEF740FBAA07310039
:102B60002000D20FFFF790FFDAE71268032017006A
:102B7000EB79A9791B020B4302AD11000740024219
:102B800061D10F2B00D821E1103B0F2B00D801E1C0
:102B9000510700D0FEE002A80F2184466144891A43
:102BA0001E2900D8F6E019098846012141448C46C7
:102BB0002800A246AB461100654699463C00944663
:102BC000019601340A684B688E68CF6802604360E2
:102BD0008660C76010311030AC42F2D362464B467B
:102BE00054465D46019E41460801291812181B1AD9
:102BF00010311032032B14D910680860181F0328F5
:102C000007D957684F601F00083F032F01D9976805
:102C10008F60032780088000043104323B4009188C
:102C20001218002B09D010780870012B05D05078AD
:102C30004870022B01D093788B702A00310020005D
:102C4000FFF712FF6CE7032228009046A146002BF5
:102C500008D1F2E7791C3F78013B501C1770002B1C
:102C600000D193E044460F0002002142F2D1844695
:102C70004C460F2B00D8E7E0102040428046984495
:102C80004046000901300001604499468A4603002D
:102C90000F003868010A10705170010C000E91701D
:102CA000D0707868010A10715171010C000E917199
:102CB000D071B868010A10725172010C000E917245
:102CC000D072F8681037010A10735173010C000EAE
:102CD0009173D07310329A42DBD10F205146474690
:102CE00062468743103110324B46D219CF190C215E
:102CF0001840194268D03B68190A13705170190CBA
:102D00001B0ED370031F9170032B13D97B68190A14
:102D100013715171190C1B0ED3710300083B917193
:102D2000032B07D9BB68190A13725172190C1B0EB9
:102D30009172D3720323034080080138800004326B
:102D4000043712183F18591E002B00D175E73B7845
:102D50001370002900D170E77B785370012900D1EE
:102D60006BE7BB78937068E7029B190A1370517088
:102D7000190C1B0E9170D3702B7913716B795371F1
:102D8000AB799371072342461360C9E64C460F00A6
:102D90000200D8E719098846100009018C461F0077
:102DA00010308444634628001100BC460F68076059
:102DB0004F6847608F688760CF681031C7601030F8
:102DC0008B42F3D163460EE70300BCE7290011E70D
:102DD00007212B6813602B7913710529D2D02B1D85
:102DE000111D0535501D2A7802709B788B70C9E73C
:102DF00002AB5C1C501D5A789B781B021343A278CF
:102E000012041A43E3781B0613430B606B790370BB
:102E1000AB794370B6E702AB0A009D1C0521D8E7E9
:102E200002ABDA78D81C1B791B0213438278120498
:102E30001A43C3781B0613430B60A3E72B79137166
:102E400002AA03AB551DCEE71800591E032B00D96B
:102E500051E77CE76C5E01107C5E0110645E01103E
:102E60007047C04610B5012917D0072914D1002496
:102E70000E4B00205C6002F02DF800280CD00C4BAB
:102E80000C4A0D491A600D4B00200B600C490C6078
:102E90000C490978FFF700FB10BD0022034B596075
:102EA000074B1A60084B1A60F6E7C0463013002043
:102EB000282C0020FC250020302C00202C060000AF
:102EC0002C2C0020480801206032002070B5497881
:102ED00082B000290ED0012902D00120404207E033
:102EE0000020CF494877CF4911604A681A60002016
:102EF00002B070BD01231568C9492C684B77082CB6
:102F0000F5D8C94AA300D3589F46C64BAA68C74CF8
:102F10009A60C74A1A6010225A600022DA600832AA
:102F20000021200004F000FA01232370C14B22008D
:102F3000197C00200823FFF7AFF8D8E7AA68B94B3F
:102F400001259A60BC4ABD481A6034225A600022AA
:102F50001D615A61DA609D61DA611D6258629A6290
:102F6000DA621A630D77B14C00212000083204F0B8
:102F7000DBF92570DAE70022AA4B0A775A60B6E738
:102F8000A84EAF4BAF4A3360AB68B3601023736198
:102F90000023F360EB68934240D072D9AA4A93426F
:102FA00000D9EEE0A94A934274D9A94A94466344F1
:102FB000032B00D92EE1A74A9B00D3589F46994E78
:102FC000AB68A54AB360A54B336010237360002340
:102FD000F360EB68934211D03ED8A14A934200D0EF
:102FE000EFE02B69032B00D8F2E06B69EB189B68CC
:102FF0008B60002B00D1E8E002230B7708228B4C7A
:103000008EE7884B974A01251A6010225A600022E9
:10301000DD609A600A77A6E7934BF3600023854D45
:10302000B3611C233461814C0822002120007360AD
:1030300004F07AF9012323702200297C0733002051
:10304000FFF72AF853E74B697A4DE9E70B69794DA9
:10305000E6E78B69774DE3E7844A934200D09FE02F
:103060006B698348EC1806F0BDF86369E268A168F3
:10307000A4698048009406F0B5F87F4806F0B2F8DD
:10308000BCE77E4A94466344152B06D87C4A9B00D5
:10309000D3589F46754A9342C0D07A4B7448F36028
:1030A00006F0A0F8E968784806F09CF8724806F047
:1030B00099F8002418235F4DB4E7744B5D4DAFE7DA
:1030C00001235C4DACE7724B5A4DA9E78B68594D13
:1030D000A6E7704B4222B3616F4B0A24F3612023B1
:1030E000544DF25402339DE76C4B6D4AB3616D4B06
:1030F0007424F3616C4B4F4D33626C4B73626C4BB9
:10310000B3626C4BF3626C4B33636C4B73636C4B0D
:10311000B3636C4BF3636C4B3364514B73646B4B15
:10312000B3646B4BF364474B33656A4B73656A4B0F
:10313000B3656A4BF3656A4B3366434B73664B4B1F
:10314000B366684BF366684B3367684B7367684BCD
:10315000B367684BF3678023F250674A0433F25039
:10316000664A0433F25004335CE7324D002029787C
:1031700001F092FE402850D9614B51E7614B2D4D33
:103180004EE75B4A93429BD02ED95C4A934200D1D2
:1031900042E75D4A94466344022B00D83EE77CE751
:1031A000524A934200D129E7364B3148F36006F08A
:1031B00019F8E968344806F015F82F4806F012F8B7
:1031C0001CE7524A9342EFD118E701230B7715E72A
:1031D000274806F007F84E4805F080FF264806F01D
:1031E00001F84C4BF36009E7404A934200D113E7E2
:1031F000494A934200D850E70B8CC88B0A6A1B04DB
:103200000343B361130C120E337706241E23094DBA
:10321000727707E7CB68074D02E7404B00E7C046EF
:103220003013002060130020D86C011024180020F7
:103230000800008048080120020000802C060000E1
:1032400004000080020201000501020000010200EA
:10325000FEFEFDFFFC6C0110120101000500008064
:103260000E01010006000080BB0000C01B0201002F
:103270006C5E0110CC5E0110645E0110FFFEFEFF6B
:103280000C6D0110010000C0A45E0110DC050000FF
:1032900016060000436865727279555301010100FA
:1032A0000201020102010100030101000401010009
:1032B00006010100070101000A0101000B010100E4
:1032C0000C0101000D0101001601010011010100B6
:1032D00014010100010102000201020003010200C9
:1032E00004010200010101010201010103010101C8
:1032F00004010101010102010301020105010101B3
:10330000003E4900FFFF0000FFFEFDFE0F0101002F
:10331000105F0110150001C000010101C0D40100BF
:10332000F0B54E46DE4657464546E0B5BE4E83B044
:103330003368002B00D1EFE0C1223168002089B250
:10334000520006F0F5F9051E00D1D4E043680321D0
:103350009846B64B444699461B6822009A46574603
:1033600008007A40104084463368114235D100226B
:10337000504603270C4200D1D2E0AB46310045460F
:103380005646D8468A4608E0B15C0134A95401305B
:10339000013B01323C4200D1C0E0002BF4D1454654
:1033A0005646336800206B8101F094FD00280CD054
:1033B0004B469F4A9F491A609F4B00200B6000219B
:1033C00031609E490978FFF767F8280003B0F0BC28
:1033D000BB46B246A946A046F0BD0320002B08D14B
:1033E000DFE74F1C0978013B541C1170002B00D102
:1033F000F5E0220039000742F3D10F2B00D80DE190
:103400001021494288469844414609090131090181
:103410008C46A444614638009C46A2460B000168D5
:103420000C0A117054700C0C090E9470D170416824
:103430000C0A117154710C0C090E9471D1718168D0
:103440000C0A117254720C0C090E9472D172C1687C
:1034500010300C0A117354730C0C090E9473D17351
:1034600010329A42DBD10F22544641461034914328
:103470001000634662180C241037184079181C425B
:1034800000D1C8E00B681C0A137054701C0C1B0E92
:10349000D370031F9470032B13D94B681C0A13714C
:1034A00054711C0C1B0ED3710300083B9471032B49
:1034B00007D98B681C0A137254721C0C1B0E947271
:1034C000D3720323034080080138800004320431A2
:1034D00012180918581E002B00D162E70B781370E0
:1034E000002800D15DE74B785370012800D158E7E0
:1034F0008B78937055E7002001F0ECFC00280BD08E
:103500004A4B4B4A4B491A604B4B00200B604B49CE
:1035100035600978FEF7C0FF002556E74546564658
:103520000F2B34D91F00103F0F2F5CD9220002430C
:10353000520758D122000F32121A1E2A53D93A09C3
:103540009246012252440700B34600902100604693
:1035500016009C46A846019401303C687D68BA6814
:10356000FB680C604D608A60CB601037103186427A
:10357000F2D800986346103045465E460700019C2D
:103580000F22134052461034100124183818032B10
:1035900014D9026822601A1F032A07D941686160A2
:1035A00019000839032901D98168A1600321920813
:1035B0009200043404300B40A4188018002B00D172
:1035C000EFE60278591E2270012B00D1E9E643781C
:1035D0006370012900D1E4E68378A370E1E6390045
:1035E0002200581E77E7020038091700824610377C
:1035F000000138189C4621000300106808605068DC
:10360000486090688860D0681032C860103193427A
:10361000F3D16346B4E70300581E5CE71800032BA0
:1036200000D92FE7581E59E72C2C0020282C002009
:10363000FC250020302C00202C060000480801202A
:10364000F0B54E46DE4657464546E0B5C44B06004B
:103650005B6887B0012B00D178E1C24D2B68002B4D
:1036600000D070E1C04B02899A4200D969E10F2372
:103670009A46033B310003279B46BC4A04960595B6
:103680004B68150099464E467540AC463D40A846ED
:1036900065464B89140018002F4200D1B4E0002B7E
:1036A00008D18BE06E1C2D78013B441C0570002B6B
:1036B00000D122E1200035003E42F3D10F2B00D88B
:1036C00047E110256D42A846984445462D0901352D
:1036D0002D01AC46A4440092624635009C468946C2
:1036E00013002A68110A02704170110C120E8170C9
:1036F000C2706A68110A02714171110C120E817157
:10370000C271AA68110A02724172110C120E817202
:10371000C272EA681035110A02734173110C120E5D
:103720008173C27310309842DBD163465046184013
:103730008446454650461034854360195C46103631
:103740004946009A75191C4200D1F7E02B681C0A03
:10375000037044701C0C1B0EC3706346043B8470E2
:10376000032B13D96B681C0A037144711C0C1B0ECC
:10377000C3716346083B8471032B07D9AB681C0AED
:10378000037244721C0C1B0E8472C372644663463F
:10379000A408013CA4003B400430043500192D1955
:1037A0005C1E002B2ED02B780370002C2AD06B7857
:1037B0004370012C26D0AB788370488909681218B1
:1037C000002900D05CE76A4C28222000059D049E59
:1037D00003F0AAFD0123221F1360318924200B006E
:1037E000D1602C336349536090602B6000202B68BC
:1037F000097AFEF751FC07B0F0BCBB46B246A946B9
:10380000A046F0BD4889D9E7002610004C463A4250
:1038100013D08C4611004A4607E0955D01308D5566
:103820000134013B0136384205D0002BF5D10A00A6
:1038300061464889C2E70A0061460F2B39D9102535
:103840006D42A94699444D460F2D5AD905000726C9
:1038500025432E4255D1250017360F352D1AAE427D
:103860004FD24D462D09A94601254D44AC462600B0
:103870000294050044469846009201910390013459
:1038800030687168B268F36828606960AA60EB60AC
:1038900010361035A445F2D84346029C009A01998F
:1038A0000398103455462B404D4610302D014019D9
:1038B0006419032B13D9256805601D1F032D07D933
:1038C000666846601E00083E032E01D9A668866021
:1038D000AD08AD00043004343B4040196419002B9E
:1038E00090D025780570012B8CD065784570022B1F
:1038F00088D0A3788370488960E7200035005C1E7B
:103900004FE725004C462409A1462401A4462C007B
:103910001034A44498466346060094461A002B6867
:1039200033606B687360AB68B360EB681035F3604D
:103930001036AA42F3D162464346B3E763465C1EA3
:103940002FE7038193E60620404254E704204042DB
:1039500051E79C465C1E032B00D9F7E623E7C046DF
:1039600030130020603200202C060000602C002064
:10397000382C002048080120F8B55746DE464E4650
:103980004546E0B50A9C03262700050053489246A9
:1039900047409B463E4234D126781E38867766786B
:1039A0000234C6772468046253464D4C01262372C4
:1039B0005B4601274B4821704B494C4A23744C4BC2
:1039C000066047606160002021006361E26001F0F1
:1039D00031FA21000020083101F02CFA21000020EA
:1039E000103101F027FA434B28002B6000236B6055
:1039F000AB60414BEB60F0BCBB46B246A946A0466B
:103A0000F8BD34422DD00700631C9C4623781E3F2E
:103A1000BB776346334246D0A31C9C466378FB7752
:103A20006346334243D0E31C9C46A3789946202347
:103A30004A46FA546346334245D0231D9C46E378F8
:103A4000994621234A46FA546346334098466346D2
:103A5000334230D0222023793B54232064793C54D4
:103A6000A2E706272668330A06704370330C360E29
:103A70008370C670042F97D026790671052F93D0D6
:103A8000231D9C46031D9946BB1F9846661D0530A5
:103A9000434634780470002B00D185E7634698785C
:103AA0004B46987080E7644605270130DAE76446A4
:103AB00004270230D6E72379661D22243B55031DD7
:103AC00099460530E4E7012321209846261D0B4B3B
:103AD000E47899463C540A48DAE7C0464E13002081
:103AE0004808012030130020093B00106D3B0010F6
:103AF000612E0010CD2E0010652E001051130020F5
:103B0000521300207047C046F8B5134D2C68236847
:103B1000012B02D16368934213D9104E00203768FD
:103B200001F0D8F900280BD000220D4B37601A6045
:103B30000C4B2200197800203B002C60FEF7ACFCF7
:103B4000F8BDA368E2680833E3182B60044B1A60E1
:103B50001868FFF7D7FFF3E7282C0020302C00204F
:103B60002C2C0020480801207047C04670B500206A
:103B70000D00140001F090F90100200002F03CFF5C
:103B8000002901D1002C06D1064C2068FFF7ECFF7C
:103B90000023236070BD0023002229000020FEF7CF
:103BA0007BFAF7E76032002070B51400184E194D0B
:103BB0004643A9198A68CB6812191B1B8A60CB601F
:103BC00017D10A7D002A11D1CB88002B02D0AB5D22
:103BD0007F2B12D80E4B4343ED180F4B9C46654488
:103BE0002B78032B08D100232B7005E00B750022E6
:103BF00000238021FEF750FA70BD074B00229C463F
:103C0000042361440B7000230021FEF745FCF3E719
:103C10004C050000643200202E040000F0B545463B
:103C20004E46DE465746E0B560258BB003930B78D1
:103C300006000C0090461D40202D00D17AE0402D5A
:103C400014D0002D6ED103221A4091464F78012ADC
:103C500000D1CBE0022A00D109E1002A00D1FFE027
:103C6000062F00D0EAE061880A00E2E0C74B9A46DE
:103C7000C74B43435344DA69002A00D1A2E0497894
:103C80001379994200D119E1C14B734353449B6AA4
:103C9000002B04D061781A78914200D1D1E1BC4B5D
:103CA000BC4A73439B46D3445A441278002A1ED020
:103CB000B94900258C46634453441F00039BB24618
:103CC00099463B68002B0DD09E68002E0AD04B46CB
:103CD000424621005046B047002800D184E0AD4B59
:103CE0005B441A780135EDB20437AA42E9D8AB4EED
:103CF000AB4D300005F076FAAA4805F0EFF9280040
:103D000005F070FAA84805F06DFAE68863886278D5
:103D100021780196A488A548009405F063FA28004C
:103D200005F060FA00200BB0F0BCBB46B246A946D5
:103D3000A046F0BD03221340012B20D0022B19D145
:103D4000934A9249424393488B18844663441878B7
:103D500000280FD0904B9C460023624452181168F3
:103D6000002902D04D68002D71D10133DBB204323D
:103D70008342F4D1894805F035FA8D4862E0844ADF
:103D80008249424383488B1884466344187800284C
:103D9000F0D0814BFF279C4600236244B4460600C6
:103DA00052181168002907D00D68002D04D0087E34
:103DB000A1883940884249D00133DBB20432B34292
:103DC000EFD1D7E71B6A002B00D15DE749789A79DC
:103DD000914200D058E7A288072A75D141461A6857
:103DE0000A609B88039A136001209CE7674B714A25
:103DF0009A46674B434353449A181278002A00D1DD
:103E00002EE70A7993460A2F00D1C2E149889869C2
:103E10000A0081460A2F00D936E1002F00D1C5E102
:103E2000062F0BD10B0A212B00D1B9E2222B00D196
:103E300061E3C023DB009A4200D173E7574805F0E5
:103E4000D1F95D4805F04AF9554D58E766464246B6
:103E500021003000039BA84700288BDB012062E78C
:103E60004A88092FEAD85549BB00CB589F46484B92
:103E7000534A43439B5C002B00D1F1E60D79012F9F
:103E800000D173E1032F00D169E1002F00D0E7E6F4
:103E900006AB9C460F24644422002900FEF7DEF89E
:103EA00043461A6823780120591E8B4113704346FC
:103EB0004A461B685F70039B1A6034E7A388042B93
:103EC0000ED0052B00D1DAE0344E300005F08AF92F
:103ED0003C4805F003F9324D280005F083F908E766
:103EE00093684246136059781A78090211439A7808
:103EF000DB7812040A431B061343039A0120136064
:103F000011E7012A00D1ADE10023039A01201360DB
:103F100009E71F4BD1B243432B4A9954FDF7EEFFFB
:103F2000F2E743461A681A4B254943435B5C01207C
:103F300013700123039A1360F5E6150AD7B2032D17
:103F400000D17CE10F2D00D155E2032D00D970E79F
:103F50000E4B9A460E4B734353449B691A78002AC2
:103F600000D18DE200218C462100E8B264468C46E7
:103F700004E09B181A78002A00D180E25978814227
:103F8000F7D1A74200D18CE20134F2E7643200207D
:103F90004C0500008404000034040000205F011080
:103FA000645E011038600110AC5F0110C05F011049
:103FB000945F01102C04000050600110646D01102A
:103FC000903600202060011091360020FF23190058
:103FD0001140134200D059E1B84BB94A43439954B8
:103FE000039B012019609EE6434600221B681A705D
:103FF000B44BB54A9A469446B04B4343534463444A
:104000001B78002B05D0434601211A6813780B4317
:104010001370AE4AA94B94467343534463441B78D0
:10402000002B05D0434602211A6813780B43137006
:10403000434600221B6801205A700223039A136032
:1040400071E6A288022A00D03EE79A7959791202D5
:104050000A43D9799878090411431A7A00021206A2
:104060000A4359780843D9781B79090401431B0690
:104070000B4341460B60039B01201A6053E66388A3
:10408000D2689B009B582CE70B2F00D0D6E6CAB213
:1040900090468F495A468C4641469A1862441170A0
:1040A0000278002A00D105E200240027002900D16F
:1040B000B1E100230493FF3306930593330004001A
:1040C0005E469946AB463D0011E0052B1DD0022B04
:1040D00004D10027E578A3782D021D43BF18A4184A
:1040E000BD4201D8002D6CD12278002A69D06378B6
:1040F000042BEAD1E3780693A37805939E42EDD191
:10410000069B9845EAD10494E8E7059B9E42E5D1D9
:10411000069B9845E2D1637922791B021343022260
:104120005905DB049B0FA0780793A256490D002A7E
:1041300000DA5FE20C224B46424360485843654B2D
:1041400012185244D018644B01809C46079B62446D
:10415000137021004846FDF7D7FE2278BEE74F884E
:10416000002F5AD00023039A136067E64B88002B78
:10417000F8D15A4805F036F82900594805F032F8C8
:10418000584805F02FF829003000FDF73DFF0120C9
:10419000C9E54F4942468C465B44634412681B782C
:1041A000012013704A46039B1A60BCE543461B6816
:1041B000039A1F7043461B6801205F70022313603F
:1041C000B1E55D464E463D4C474B7443A046D04456
:1041D00043441A78002A00D196E6049B002B00D1B4
:1041E0006FE1424B9C46644454442368002B0ED03C
:1041F000DF68002F0BD004991B7E8978994206D185
:10420000049A08213000B847374B43441A780135E7
:10421000EDB20434AA42E8D876E6304804F0E2FF72
:104220002900334804F0DEFF2E4804F0DBFF2900AC
:104230003000FDF7BFFE039B01201F6073E5EE2FEA
:1042400000D085E61D4A1F4B42439B18DB69002BBB
:1042500000D1F3E542461B68012013601B78039AE6
:10426000136060E5174B032F00D161E10021134A71
:1042700042439B18154A9A181170A922D2009446FD
:1042800063441B680A31300098473DE6D3B2984634
:104290000C4B9A46094B434353449D692B78002BA2
:1042A00079D000229346FF320592049222004646BE
:1042B0005C46002700219346804630E04C05000014
:1042C00090360020643200202F04000031040000EA
:1042D00074040000EA040000E9040000205F0110FB
:1042E000685F0110645E0110840400003404000063
:1042F000805F0110022A09D16A790492964205D1A1
:1043000000270121EC78AA7824021443FF18ED1845
:10431000A74201D3002C37D12B78002B34D06A78F8
:10432000042A2ED0052AE5D1049A9642EED1059AA8
:10433000002AEBD16B792A791B021343022259051B
:10434000DB049B0FA8780693AA56490D002A00DAD1
:1043500062E10C2243464243B8485843B84B121816
:104360005244D018B74B01809C46069B62441370A0
:1043700029004046FDF7C8FD414241412B78C9B2B2
:10438000C4E7EA780592C1E743465C46B0461E00A2
:10439000002900D0DAE00023039A136067785FE415
:1043A0000378002B00D149E58C4600200025FF262C
:1043B0004A4659460FE0022F04D1D57890782D0255
:1043C00005430020C018D218A84201D3002D65D1A2
:1043D0001378002B62D05778042F0AD0212FEAD10E
:1043E000B142EFD143461A601378039A012013605B
:1043F00099E49678E6E7914A934B42439B185B6AAF
:10440000002B00D11AE541461A685B680A60039ADE
:104410000120136087E400230493FF3398462100B2
:104420003300A9464646040098460D0011E0052BCE
:104430001AD0022B04D10025E778A3783F021F434E
:10444000AD18A418BD4201D3002F15D12278002A3F
:1044500012D06378042BEAD1A678B345F0D1E37883
:10446000002BEDD10494EBE7B345E9D14046A178A8
:10447000FDF79EFD2278E3E74D464646A3E66446F7
:10448000724804F0AFFE3A002900714804F0AAFE19
:10449000704804F0A7FE6778FFF7E2FB61460A0068
:1044A000C7E4022D00D183E003990A60424601204F
:1044B000136038E4684A944663441A78002A00D1AD
:1044C00022E55E4B654973435C1853441F00544416
:1044D0002368002B09D0DB68002B06D000220821BE
:1044E000300098475C4BFB181A780135EDB2043464
:1044F0009542EDD308E55848524684464F4B7343E6
:10450000D21862441078002800D197E4534A5F46DD
:104510009446634453441A68002A02D0167EBE4271
:104520005FD00135EDB20433A842F4D10A0080E433
:10453000424941435B184A4959180A70A922D200DE
:104540009446634409211B689847DDE43B4C42468E
:104550005C4353461D19434B4F46EB181A7000221B
:10456000414BEB181A703C4BEB181A783B4B9C46AE
:1045700064445444002A11D02368002B09D0DB681E
:10458000002B06D00022072130009847324BEB1851
:104590001A780137FFB204349742EDD3A922D20032
:1045A0009446264B07217343534463441B686AE6D1
:1045B0000120DA78997812020A4303990A601F4AA7
:1045C0002A49724352445418D97989110140217003
:1045D0008621C9008C46D979624449110140117085
:1045E00064E74146136901200B605369039A136025
:1045F000FFF799FB7F224B461040733A42430F4826
:1046000058431B4B12185244D0181A4B01809C4639
:10461000079B624413709CE57F2243461040733A27
:10462000424306485843124B12185244D018114BBB
:1046300001809C46069B6244137099E64C0500007D
:10464000EA040000E904000064320020205F011049
:10465000345F0110645E0110840400003404000023
:10466000310400002C040000320400002F0400007C
:104670008A0400008904000070B511000400002ABB
:1046800025D01B481B4E60433518AA68EB685218AA
:104690005B1AAA60EB601FD103002C339B19AB603F
:1046A00003000830103329009B1982192000FFF7FE
:1046B000B5FA114B9C466544002812D00323002212
:1046C0002B70802100232000FDF7E6FC03E0084B5F
:1046D0000A4A4343995470BD00212000FDF7DCFED7
:1046E000F9E7287080212000FDF764FCF3E7C0465D
:1046F0004C050000643200202E0400009236002099
:104700000021084A084B42439B18084A10B59A18E2
:104710001170A922D200944663441B680631984761
:1047200010BDC0464C050000643200203204000079
:104730000A4A0B4B42439B180A4A10B59A18127842
:10474000002A0AD00121084A9A181170A922D20021
:10475000944663441B680431984710BD4C05000023
:10476000643200202D04000032040000F0B5C6467B
:1047700000B5060082B00021FDF7C0FB85230022B2
:10478000244D254F7543DB00EB18DB19043F1A80DD
:104790007B1998460024214B6A4643441C704023F1
:1047A00093801F4B6946300094710093FDF7ACFB7A
:1047B0006B46694630009C70FDF7A6FB194B4344DD
:1047C0001A78002A16D0184B00249C466544ED192F
:1047D0002B68002B09D0DB68002B06D000220121BA
:1047E000300098470F4B43441A780134E4B2043543
:1047F0009442EDD3A922D2009446064B0121734383
:10480000FB18634430001B68984702B080BCB84670
:10481000F0BDC0464C050000683200202E040000A8
:10482000070580008404000034040000F0B5040093
:1048300057464E464546DE46CE48E0B56043CE4D2F
:104840000A0029180E0003235640824685B03342E1
:1048500000D084E013680B6053684B608022C54F22
:10486000D2006743EE19F388934200D8A5E0EA5DD1
:104870007F2A00D8C6E05246F360336100232C3211
:10488000AA18B26033750392504610302B1803AA51
:104890002000FFF7C3F9B74B6343EB18002800D1A2
:1048A0005FE11A69DB88934200D9A0E08022B14E13
:1048B000D2006643AE19F360934200D93EE1B2687C
:1048C0009046039A90452DD0032641461000B246EB
:1048D00048400640B44656461700064200D09FE0C6
:1048E000002103278B46404651461600B946084230
:1048F00000D14CE12700594614004246B84609E071
:10490000675C013057544F460136013B0131384254
:1049100000D13BE1002BF3D14446964A6243AA18EA
:10492000D3689268594259419248490060432D1812
:10493000924801312818017080212000FDF7ACFB5E
:104940002B69EA889A4203D99B0601D101232B7572
:1049500005B0F0BCBB46B246A946A046F0BD1A421F
:1049600000D174E11778561C0F701E4200D1AAE1E5
:104970005778961C4F701E4200D1A9E19778D61C3B
:104980008F701E4200D1A8E1D778161DCF701E424D
:1049900000D1AAE11779561D0F711E4200D1C3E163
:1049A0005779961D4F711F0037401E4200D1CBE151
:1049B00096798E71D379CB7150E7524600202C3214
:1049C000AA18B260F360336130750392002B00D1F6
:1049D0005AE7EF5D7F2F00D956E7684920008C46E3
:1049E0000221664431700021FDF756FDB0E7130047
:1049F0008022604ED2006643AE19F360934200D825
:104A00005DE79BE05E4804F0EDFB5E4804F066FB6A
:104A10005D4804F0E7FB80212000FDF7CBFA97E723
:104A200003229446002B08D177E73078013B013709
:104A300001311070002B00D16FE760460A003E0084
:104A40000742F2D10F2B00D878E110204042844673
:104A50009C4460460009013000010E1898468946C2
:104A600033003E003068010A10705170010C000ED6
:104A70009170D0707068010A10715171010C000EB4
:104A80009171D071B068010A10725172010C000E60
:104A90009172D072F0681036010A10735173010CD4
:104AA000000E9173D07310329A42DBD10F22494627
:104AB000664610319643100043468A190C21103780
:104AC0001840BE19194200D10CE13368190A13705D
:104AD0005170190C1B0ED370031F9170032B13D947
:104AE0007368190A13715171190C1B0ED3710300ED
:104AF000083B9171032B07D9B368190A13725172DD
:104B0000190C1B0E9172D37203218308013B9B0089
:104B1000014004320436D218F6184B1E002900D189
:104B2000FBE631781170002B00D1F6E671785170F8
:104B3000012B00D1F1E6B3789370EEE6104804F053
:104B400051FB104804F0CAFA0F4804F04BFB0B4B22
:104B500080219C460023664420003370FDF72AFA2A
:104B6000F6E6064A80219446634418702000FDF75B
:104B700021FAEDE64C050000643200202E0400000E
:104B8000205F011068600110645E011044460F2B25
:104B900036D91F00103F0F2F00D8ABE032000F3284
:104BA000121A1E2A00D8A5E032000243520700D094
:104BB000A0E03A09914601224A443700B046A24695
:104BC000AB460400654616008446019301353868FB
:104BD0007968BA68FB6820606160A260E3601037A2
:104BE0001034B542F2D34646604654465D46019BBA
:104BF00010360F2213404A46103012018018B618A2
:104C0000032B14D9326802601A1F032A07D971686E
:104C1000416019000839032901D9B1688160032175
:104C200092089200043004360B408018B618002B0E
:104C300000D172E632780270012B00D16DE67278F5
:104C40004270022B00D168E6B378837065E60823D2
:104C50000F009C4613681E0A3B707E701E0C1B0ED4
:104C6000FB706346BE70082B08D153681A0A3B716B
:104C70007A711A0C1B0EBA71FB71EFE5032398468B
:104C8000634640460340381D9B4681466346404686
:104C9000161D184200D1E1E55B4610793871012BF1
:104CA00000D1DBE5053290467A1D5F469446023F0F
:104CB000434662461B781370002F00D1CEE54A466A
:104CC000B3789370CAE5072332009C464F1CC1E7B6
:104CD000062332009C468F1CBCE7052332009C460D
:104CE000CF1CB7E70100431E18E7042332009C469F
:104CF0000F1DAFE732003E093701B1461600BC4632
:104D00001036B444674601009C463B0017680F60AC
:104D100057684F6097688F60D7681032CF60103146
:104D20009A42F3D1634664E74B1D9946931D98461A
:104D30008B1D9C46537901274B71B9E71800032B53
:104D400000D9C2E6013BECE68B1D9946D31D98467F
:104D5000CB1D9C4693798B71AAE7C04610B57F2482
:104D60000C4063001B19054C9B0044431B19044C69
:104D70001B59002B00D0984710BDC0464C050000C1
:104D8000F436002010B57F240C4063001B19054C3D
:104D90009B0044431B19044C1B59002B00D098471F
:104DA00010BDC0464C050000543700200D4A70B5B8
:104DB00050430D4C0D0004190021200002F0B4FAFC
:104DC00091238022DB00E3181A709223074ADB004C
:104DD000E3181A609E23DB009C46054BA5616444E2
:104DE000236070BD4C05000064320020A93B001018
:104DF000794600100C4B0D4A9C46424330B5C30027
:104E00000B4C1B1AA2181B0162441818157883005A
:104E10001B1A5B190D33FF339B000D76E418013527
:104E20001570616030BDC046840400004C05000070
:104E3000643200200023CB5630B50D784C68002B2F
:104E400011DB13496A0048435219124B92001018A3
:104E500018189D23DB00C3181D709E23DB009C46A1
:104E60006044046030BD7F2129404A00521808493F
:104E7000084B4143920052189B189122D2009A1875
:104E800015709222D200944663441C60EAE7C04643
:104E90004C050000643200204BB2002B08DB0A4AAC
:104EA0004B0042435B189B009A18084BD05A70473E
:104EB0007F220A4053009B18034A9B0042439B18E1
:104EC000034A985AF3E7C0464C0500004E370020CD
:104ED000EE360020034B044A4343985C431E98413E
:104EE000C0B270474C05000090360020F0B5C646B1
:104EF000040000B5002809D0194804F073F91948D6
:104F000004F0ECF8184804F06DF9FEE7174B184E62
:104F10005960A9230020DB00F250FCF7ABFE154FCF
:104F2000154BF25D8046F518002A0FD02B68002B38
:104F300007D0DB68002B04D000220B21002098470B
:104F4000F25D0134E4B204359442EFD3A923DB00CF
:104F5000F3580B2100209847404680BCB846F0BD6E
:104F6000205F011084600110645E0110B0370020E2
:104F7000643200208404000034040000094A8300E5
:104F80009A1810B514684022544080322240064CD2
:104F9000C000A44663441A60044B9C4660444160D0
:104FA00010BDC04604C0014004D001400040014093
:104FB000074B8000C3181B68C90092000A435A407F
:104FC0000C231340034A9446604403607047C04674
:104FD00004C0014004D001408000002905D0064BE8
:104FE0009C460223604403607047044B9C460223A6
:104FF00060440360F8E7C04604E0014004F001406B
:10500000D0231B061B6830B50500584243412F20B2
:105010005B4283430E48EC0884460720284080000A
:10502000814020000B4D3C3063448000A40041517E
:105030001B19002A05D0802292019446634419600E
:1050400030BDC0229201944663441960F8E7C0461F
:105050003041014000400140D023F0B5C6461B0658
:1050600098461B680C4F9B001600FA5804000D0070
:1050700000B5104209D1290014430D203200FC5024
:1050800000F068F980BCB846F0BD01F095FB4346DE
:105090001B689B00FA58EEE720D8002010B50400EA
:1050A0000D2000F051FAD0231B061B6802499B001B
:1050B0005A58A2435A5010BD20D800200123D022B4
:1050C0008340120693629361094A83009A1811681B
:1050D0004022514080320A400649C0008C46634459
:1050E0001A60054B9C460523604443607047C046E8
:1050F00004C0014004D00140004001400FB400B59D
:10510000084883B003F0EAFF049B002B07D005A9F1
:105110001800019103F0B0FD034803F0DFFF012008
:1051200003F0C2FD94600110A05E0110EFF3108047
:1051300072B6034A1368002BFCD0BFF35F8F704731
:105140002C0100D0BFF35F8F0022024B1A6080F366
:10515000108870472C0100D070B5EFF3108C72B638
:105160000D4D2B68002BFCD0BFF35F8F0724CB08BD
:10517000C618C05C01230C40A3401C00044003423D
:1051800007D118433070BFF35F8F2C608CF3108809
:1051900070BD1000FFF7B2FF2C0100D0F8B54746F4
:1051A000CE46884680B5EFF3108C72B61C4D2C6845
:1051B000002CFCD0BFF35F8F9A4222D80721012632
:1051C000894602E00132934218D34D46370015401C
:1051D000AF40D4080119045D2742F3D110003C43CD
:1051E0000C70BFF35F8F00220D4B1A608CF3108898
:1051F00000280EDBC0BCB946B046F8BD01204042D5
:10520000EFE7BFF35F8F00232B608CF31088012042
:1052100040424346002BEDD00898FFF76FFFC04691
:105220002C0100D030B5EFF3108C72B60A4C236815
:10523000002BFCD0BFF35F8F072301220B409A4065
:10524000CD08435D93434355BFF35F8F0023236035
:105250008CF3108830BDC0462C0100D0044A107871
:10526000431CDBB2172B00D9102313707047C046C4
:105270007C0700200021044B044ABFF35F8F02C368
:105280009342FAD17047C046000100D0800100D09F
:10529000054B064A1360064A136053609360D3605F
:1052A00013615361936170478080808000E400E067
:1052B00004E400E01F2318401E3B8340002905D072
:1052C000C021044A490053501360704780220149AD
:1052D0008B50FAE700E100E001228240034B1B689B
:1052E00013405A1E9341D8B27047C04600E100E017
:1052F00001238340014A13607047C04600E200E08A
:1053000070B50D00EFF3108672B60F4A1368002BCC
:10531000FCD0BFF35F8F0D4B10309B6884001B598E
:105320000B4A934203D09D4201D001F045FA074B4E
:105330009B681D51BFF35F8FBFF35F8F0022024B4D
:105340001A6086F3108870BD240100D000ED00E0E3
:10535000CD010010F0B557464E46DE464546E0B555
:1053600085B0060000911700EFF3108B72B66A4A01
:105370001368002BFCD0BFF35F8F0025674B5D5790
:105380009A46002D00DAA9E06B00654C01935B1989
:105390009B009846A146C1444B4652469B79103625
:1053A0001370604BB6009B6899590B1B2F2B33D998
:1053B0005D4B994200D0ACE0019B42469C465B4B62
:1053C0006544AD0063535A4B0232A218043B9B1A4A
:1053D0001B05584A5B0D651913436B80564B012121
:1053E000AB80FF23AB71009BEF71AB604B460B436F
:1053F00019004C4B9B689951BFF35F8FBFF35F8FD0
:105400000022454B1A608BF3108805B0F0BCBB46F8
:10541000B246A946A046F0BD01200A008243D379D6
:105420008C46BB4231D84546130044491B1B5B41A7
:105430005943090D3D4B63533D4B02356519043B00
:105440005B1B1B053B4D5B0D2B43AA464D466B80FA
:105450000425AC465546E044131F44441B1B1B0562
:105460005B0D1D434B46997100999D80996049469B
:10547000DF71334B01431360BBE75800C018800055
:105480002018C179B9422FD902000623D356002B28
:10549000F3DA02932B4B61460393131D9A460423C0
:1054A0005B429C46E14450464B461B1A1B055B0D74
:1054B0009C46204B95719846634640460343938033
:1054C000019B5A199200039BA418A380029B1C4ABB
:1054D000A371009B2260E771A3608AE701F06CF979
:1054E000002553465D574FE7908802934005131DF2
:1054F0009A46031561469C464046D44463460430B0
:105500002018181AE0230005400D1B0218430390D1
:10551000C5E701F051F94FE7240100D0050D012046
:105520008007002000ED00E0CD01001000A1FFFF8A
:10553000B007002000E0FFFF01BDFFFFAAAA0000A6
:105540000148804701BD0000F0B5DE4657464E4693
:105550004546E0B50C0083B0EFF3108872B6634A9D
:105560001368002BFCD0BFF35F8F614B61499A68D1
:10557000030010339F00D55901938D4243D0A542BB
:1055800054D05D4EAA1B2F2A3DD85C4B9B461B680E
:10559000994601231A009C4682404B4613401F2225
:1055A00099466346024093409A4680225B465046A5
:1055B0009850BFF35F8FEFF305839B46002B37D0E6
:1055C000019B5B4501D001F0F7F801232A009A43C3
:1055D0009068844208D176E04B005B189B00F3187A
:1055E0009868844236D01A00062151560029F3DA11
:1055F000844254D04B46002B27D0C02251463F4B0B
:105600005200995019603A4B9B68DD51BFF35F8F90
:10561000BFF35F8F0022354B1A6088F3108803B008
:10562000F0BCBB46B246A946A046F0BD0D00EAE775
:105630002A0063469A4390688442D5D106201056CA
:10564000130000280ADA0D0031E0802351462B4A6E
:10565000D150D8E706201856002821DB4200111847
:10566000890074188B46A1689960E179D971062187
:1056700061569971002924DBA488F11A6405241568
:105680005C44091909051E4C490D214399801318E2
:105690001C4A9B001178F31899711070AAE7130047
:1056A0005946002914D1FF3191711749918015494C
:1056B0000A789A71154A9B1B5B415A43120D0A7076
:1056C00098E71149E2E70620105613000028C5DAD2
:1056D0000F4A1049D21A083A5002400D01439980EE
:1056E0000D4952080A43DA8084E7C046240100D0FD
:1056F00000ED00E0CD0100108007002000E100E097
:1057000000E0FFFF050D012001BDFFFFAAAA000078
:10571000BA07002000F0FFFF00F8FFFF10B5830874
:10572000040003202040FF24054AC0009446844022
:1057300081409B0063441A68A2430A431A6010BD6B
:1057400000E400E070B501240443EFF30581EFF3BA
:10575000108C72B6214A1368002BFCD0BFF35F8F08
:105760001F4B05001F4AED1A6D416A43120D1E4D75
:105770008900AE6852B27658A6421CD0062159560E
:1057800091421CD012215956914222D01E215956C5
:10579000914220D02A2159560324914210D0134B14
:1057A00019781A708171BFF35F8F00220B4B1A605A
:1057B0008CF3108870BDAB680D4C5C50EFE7002493
:1057C0006100091989005B18FF21997109499980C5
:1057D000E5E70124F4E70224F2E7C046240100D003
:1057E00080070020AAAA000000ED00E0050D0120BE
:1057F000CD01001001BDFFFF1F2110B5091A02489D
:10580000FFF710FD10BDC046080D012010B5084B74
:10581000084C82B001000093002205232000FFF70E
:10582000BDFC002801DB1F23181A02B010BDC046C2
:10583000A4600110080D012070B504000E001500D1
:10584000FFF70CFD0100200000F006F8A680E580BF
:10585000BFF35F8F70BDC046024B9C466144890018
:10586000016070474000003470B5114C114DAC42DE
:105870000FD2FF262368002B0CD0FFF7EFFC0100AE
:105880002000FFF7E9FFA680BFF35F8F0834AC422A
:10589000F0D370BDFFF7E2FC01002000FFF7DCFF52
:1058A0002671BFF35F8F0834AC42E3D3F1E7C04603
:1058B000000F0020100F002010B50400FFF7CEFCF1
:1058C00001002000FFF7C8FFFF232371BFF35F8FA4
:1058D00010BDC04610B50400FFF7C0FC0100200059
:1058E000FFF7BAFFFF23A380BFF35F8F10BDC04651
:1058F0000A4B1968EFF3108072B60A68002AFCD0D0
:10590000BFF35F8F1B68BFF35F8F00221A6080F3C5
:10591000108840BF002000217047C0466409012064
:10592000F0B5DE4657464E464546E0B587B0EFF344
:105930000583032201251A40954091008846A94617
:10594000B34B03925C58B34B1D60B34B04934B466F
:10595000B24843630823E55E002D37DAA3881BB203
:10596000002B00DBADE0A379002B00D0EEE0082394
:10597000E05E002820DB430062691B18DB00D318BF
:105980009E68DD68731C00D111E1A4480100414408
:10599000826A0B69B71A9B1A9F4215D30123026AC8
:1059A000039883401A420FD09C4800F0BDFC8D4202
:1059B00002DCCCD18642CAD940BF07B0F0BCBB469E
:1059C000B246A946A046F0BD0E61EDE762696B00E4
:1059D00092465B19DB009A4453469E68DF6800F0EC
:1059E000A3FC8F42BADC00D103E1002F00DAE8E02B
:1059F0005246534652691B699346049A934200D11A
:105A0000D9E052460821605E52880004594610438E
:105A10009847009001910099019A0B0010001343E0
:105A200000D1CEE013000A00B61A9F41002806DB21
:105A30007A4800F079FC009E019F36184F4153468A
:105A40009E60DF6000229A5E002A00DA86E753003B
:105A500099186069C900411802938B68C9689B4610
:105A6000B94200DD7AE702D1B34200D976E70823D4
:105A70009C46A444059565462281A446029B2C00C1
:105A800006E053009918C90041188D68C968AB46F3
:105A90009B18DB00C318B94206DC00D1B3E01C0040
:105AA0000023E25E002AECDA230064469C4653465B
:105AB0001A806346059D1D80A3881BB2002B00DA67
:105AC00051E72269EFF3108172B61368002BFCD006
:105AD000BFF35F8F0123A7885B42A3803FB2236996
