:020000041000EA
:1000000000B5324B212058609868022188439860DF
:10001000D860186158612E4B002199600221596106
:100020000121F02299502B49196001219960352056
:1000300000F044F80222904214D00621196600F024
:1000400034F8196E01211966002018661A6600F04E
:100050002CF8196E196E196E052000F02FF8012189
:100060000842F9D1002199601B49196000215960AB
:100070001A491B48016001219960EB211966A021F2
:10008000196600F012F800219960164914480160C1
:100090000121996001BC002800D000471248134993
:1000A000086003C880F30888084703B5996A0420EC
:1000B0000142FBD001200142F8D103BD02B5186610
:1000C0001866FFF7F2FF186E186E02BD00000240BE
:1000D000000000180000070000035F00212200005C
:1000E000F4000018222000A00001001008ED00E03C
:1000F00000000000000000000000000074B24E7A12
:1001000000200420F7010010C3010010C5010010F9
:10011000C1010010C1010010C1010010C101001097
:10012000C1010010C1010010C1010010C701001081
:10013000C1010010C1010010C9010010CB01001065
:10014000CD010010CD010010CD010010CD01001037
:10015000CD0100102D190010CD010010CD010010AF
:10016000CD010010CD010010CD010010CD01001017
:10017000CD010010CD010010CD010010CD01001007
:10018000CD010010CD010010CD010010CD010010F7
:10019000CD010010CD010010CD010010CD010010E7
:1001A000CD010010CD010010CD010010CD010010D7
:1001B000CD010010CD010010CD010010CD010010C7
:1001C00000BE00BE00BE00BE00BE00BEEFF3058054
:1001D000103800BEF2EB887140D304105CD30410D9
:1001E0003402001090A31AE700201F49086006C8D7
:1001F00081F3088810471D48006800282FD10DA4FE
:100200000ECC002902D000F012F8F9E71849194A7B
:10021000002000E001C19142FCD1174988471749ED
:1002200088471749884700BEFDE701C901C29A42C5
:10023000FBD370475CD30410C0000020B81200202C
:1002400054E50410000004200000042054E50410CC
:10025000001004200010042000000000704709482E
:1002600006F00EFC0047000008ED00E0000000D0A2
:10027000B8120020EC0F012091520010D905001097
:10028000B95300105756000006005250ABB36053EC
:100290001849011006005250861C0302284901101B
:1002A000060052505422A29D3449011005005250BC
:1002B000DE65F46854E50410F8B5C0460448054B03
:1002C00010B5834203D0044B002B00D0984710BDDB
:1002D000B8120020B81200200000000006480749AC
:1002E000091A8B10C90FC91810B5491003D0044B57
:1002F000002B00D0984710BDB8120020B812002083
:100300000000000010B5074C2378002B09D1FFF73F
:10031000D5FF054B002B02D0044800E000BF0123AD
:10032000237010BDB015002000000000D03F011068
:10033000054B10B5002B03D00449054800E000BF71
:10034000FFF7CCFF10BDC04600000000B415002030
:10035000D03F0110F0B5DE464E4645465746E0B563
:10036000684885B000F020FD07F020FB08F0F4F9A4
:10037000654B664D9B46664B664C994604F01EFAEB
:100380002A686B68121A8B41002BF7DA80231B0155
:10039000E658002E66D0BE2200215F4807F05EF8C6
:1003A000BE220021584607F059F80622002148468F
:1003B00007F054F80023594A771E13708333FF3334
:1003C0009F4200DD1F00BE21002349009C46002201
:1003D00000208A46B046039309E0002A0DD1BD2BC8
:1003E00055DD8C46012103910133BB420FDCE15CFA
:1003F0002029F2D100200132F3E7012A3DD15345F3
:10040000EFDA5E46013331540130BB42EFDD464640
:10041000039988469E4215D9BE2149008A4609E0C3
:10042000002A38D1BD2B02DC3B4F39540130013357
:100430009E4207D9E15C2029F2D10133002001322C
:100440009E42F7D84346002B08D06246334B1A70C1
:10045000582A36D0592A47D05A2A4BD08023002216
:100460001B01E25004F0AAF900232D4A80185941DB
:10047000002922DB2860696080E7022AB1D1C12609
:100480007600B342ADD04E4631540130ACE7224E37
:1004900031540130A8E7012A05D15345C7DA5F4638
:1004A00039540130C3E7022AC1D1C1277F00BB42C2
:1004B000BDDA4F4639540130B9E7012019494042AD
:1004C000D8E7002118480CF069FB184B124A186055
:1004D000124B174901934B46164800935B4606F0B2
:1004E00065FA154B1860B9E700220021002004F0DE
:1004F0006FFEB3E7114806F0C3FA002103000020A5
:100500009847C046D8070020801800200814002013
:10051000100B0120F8F20020A01900202824002050
:1005200040420F00FFFFFF7FD01A00202C24002044
:10053000D03F0110500C0120D80F0120554200007F
:10054000F0B5C64600B5204C0E00A544002934D0B5
:100550001E4B0D0098461F3508AC18AF20002A78B6
:100560004146023406F022FA0135BC42F6D15A2344
:10057000F35E5822B25C16490792727E19A8069261
:10058000327E0592F27D0492B27D0392727D0292D8
:10059000327D01925422B25A009208AA06F006FA5D
:1005A0000C4919AA48A806F001FA48A80EF096F8D6
:1005B00048A90200022000F08FFC002092231B01BA
:1005C0009D4480BCB846F0BDE0F6FFFFF43F01104B
:1005D000FC3F011048400110F0B5DE4657464E463C
:1005E0004546E122E0B5D74C99B0002120005200E9
:1005F00006F034FFE12200215200D34806F02EFF1E
:10060000E122D24B52001968CF4806F02DFFE122BB
:100610002000CD49520006F027FFCD4BCD4A019373
:10062000CD4BCE490093C848CD4B0DF0B5FFCD481A
:1006300008F04EF908F01AF9CB4BCC49180099464E
:100640000BF0D2FFCA4900200CF006FEC94808F0A2
:100650005DF8C94BC94F00205C681B680293039486
:100660003B607C600CF0CEFC01238340C44CC54A47
:100670002060C54913600B2003F0BEF801210B2058
:1006800003F08CF82368C14CC14ADB0223401343BA
:100690009046C04A012013600CF0B4FCBE4B1860B9
:1006A0004346C00220401843BC4B186001200CF0A8
:1006B000A9FCBB4B1860BB4BC00220401843BA4B8F
:1006C000186001200CF09EFCB84BB94A1860C302B8
:1006D000234013439046B74A012013600CF092FC6C
:1006E000B54BB64A1860C302234013439246B44A3E
:1006F000012013600CF086FC4246B24B1860C30226
:1007000023401343B04A012013600CF07BFCAF4B35
:1007100018605346C00204401C43AD4B1C600023CC
:100720009A46AC4B9B46AC4B98465B461B78002BDD
:1007300000D09EE004F042F8029A039B121A8B410B
:10074000002B00DAADE004F039F83A687B68121A41
:100750008B41002BE9DA7F480DF0C0FF002834D030
:1007600001237C49013898430B0002339B4CC0188D
:1007700012E01D00613D052D00D88DE01D00413DBA
:10078000052D22D8373B551C1FD0120113430231CF
:1007900023700134884218D00B781A00303AD5B251
:1007A000092D09D9313A052A78D91A00413A052A82
:1007B00000D927E1373B1A004B781D00303DEEB2DF
:1007C000092ED6D82B00551CDFD165480DF086FFC9
:1007D000002833D001236249013898430B000233CB
:1007E0007F4CC01811E01D00613D052D77D91D001B
:1007F000413D052D22D8373B551C1FD01201134314
:10080000023123700134814218D00B781A00303A3B
:10081000D5B2092D09D9313A052A62D91A00413ACF
:10082000052A00D98BE0373B1A004B781D00303D7C
:10083000EEB2092ED7D82B00551CDFD1444B1B78C4
:10084000372B66D0352B78D0332B00D1DDE0302B21
:1008500000D1EDE003F0B2FF0023624A8018594155
:10086000002952DB5B461B7838607960002B00D191
:1008700060E701F025FC041E00D156E70123028940
:1008800000210093030048460BF04EFE43461860DB
:10089000200007F0E7FB48E7573B74E7573B1A0097
:1008A0008AE75346002B1FD04A464F4BD358012BA3
:1008B00000D148E703F082FF00234C4A80185941D9
:1008C000002203000C00924602930394002900DBEF
:1008D00039E70123464C5B420293039433E7573BCD
:1008E0008AE7573B1A00A0E74C22002105A806F032
:1008F000B5FD002248463F4B05A90CF06BF80028D7
:1009000000D084E001239A461DE701203849404287
:10091000A8E7394A3249314807F0B6FF4346186024
:100920000B4B0C4A01930C4B0C49009306480C4BA3
:1009300006F03CF8314B18608CE7314AEAE70122B7
:10094000524272E7140E0120500C0120E0070020F3
:1009500028240020A0190020100B0120D03F0110F6
:1009600080180020494E0000D01A002020101100ED
:10097000D807002055030010F0450110081400208E
:100980005018002004240050150C0010FDFF1FFF1C
:1009900035801F0048180020541800204C180020F3
:1009A0001424002025801F0014A00020042400200F
:1009B00031801F0028160020FC23002039801F00F2
:1009C000241600200C2400202C1600201C240020BB
:1009D0004C0C0120E80F01202C240020601A00207C
:1009E00040190020809698006808000080841E004E
:1009F000FFFFFF7F4105001006004000D80F0120D7
:100A00000400400001225242D6E60A4A82E703F07F
:100A1000D5FE0023084A801859410290039100290D
:100A200000DB90E60123054C5B42029303948AE6C7
:100A300000226FE70200200080841E00FFFFFF7F7E
:100A4000014B18687047C046380C012070B51A4C2D
:100A50002378002B0ED1E122184D194829005200AD
:100A600013F04EFA01232370002804D10121002045
:100A700007F036FF70BDEFF3108672B607F092FEF6
:100A80008021A0204901400313F06AFA8022A020AF
:100A900029009200400313F03BFA07F0B9FE86F3F9
:100AA00010880020217807F01BFF00220021002081
:100AB00004F08EFBDEE7C046E80F0120500C012059
:100AC000140E012070B5184C2378002B09D0174B59
:100AD0001B78582B06D0002300210020237007F03C
:100AE000FFFE70BD00232370EFF3108572B607F090
:100AF00059FE8021A0204901400313F031FA8022E1
:100B0000A0200B499200400313F002FA07F080FE88
:100B100085F310880020217807F0E2FE00220021F2
:100B2000002004F055FBDCE7E80F0120282400201A
:100B3000500C0120F8B5304E1D00336814009A01A6
:100B4000A023DB059C4680236244D2685B041A42E2
:100B500035D0A021C9058C46284EA1B23268920139
:100B60006244D2681A420DD0C1220020520007F020
:100B7000B9F9234C4560206001F062FB206807F062
:100B800071FAF8BDC1220020520007F0ABF91D4FE9
:100B90003860E3072CD4A021C9058C46336842682D
:100BA0009B0163441D605A60174A640812689C6088
:100BB000DA6001F045FB386807F054FAE1E7C1223A
:100BC0000020A1B2520007F08DF9104B1860E30726
:100BD00010D4A021C9058C46336842689B01634448
:100BE0001D605A600A4A640812689C60DA60C8E7AF
:100BF0000134D0E70134ECE75018002054180020ED
:100C000020A0002028A000204C18002024A00020B4
:100C10004818002010B5084C206801F011FB20682E
:100C200007F020FA054BA0211A6801239340044ADB
:100C3000C9058B5010BDC04624A0002050180020CC
:100C40000C040000F8B51500022948D0032923D070
:100C50008023334E0421320000201B0100F072FD7E
:100C6000002D12D030002F4A2F4B7719D1582F4B1F
:100C700054189C46013103786444490501302370BF
:100C8000490D8742F3D1284BD1502B0032008421EB
:100C9000002000F097FCF8BD8023254C00202200A6
:100CA0001B0100F04FFD002D12D0224B1D4A671989
:100CB000D1582300204E5018B44601311E786044AC
:100CC000490501330670490D9F42F3D1194BD150AC
:100CD0002B0022008321002000F074FCDBE780263B
:100CE000164C360133002200002000F02BFD002DB1
:100CF0000ED021000B4A9359661908780131D0545F
:100D000001335B055B0D8E42F7D180210901535001
:100D10002B0022008221002000F054FCBBE7C046DB
:100D2000F8EA0020F8F2002008180000081000007F
:100D3000F8E200200410000004080000F8DA0020A7
:100D400010B5072900D010BD80230C4C1B012200D8
:100D50000539002000F0F6FC80231B01E218032176
:100D6000002000F0EFFC80235B01E21880230421C7
:100D70001B01002000F0E6FCE5E7C046F8DA0020A1
:100D800010B5930601D1002A03D10022044B1A703A
:100D900010BD00230022002000F014FCF8E7C0463C
:100DA000E60F01207047C04610B5040082B0002055
:100DB000334902F093FA85238122012100943148BE
:100DC00001F0C6FB0100002002F0ACFA852381226D
:100DD000012100942C4801F0BBFB0100002002F02F
:100DE000A1FA2A49002000F08DFE0100002002F047
:100DF00099FA2749002000F085FE0100002002F04A
:100E000091FA0020234902F0ADFA0020224902F0B5
:100E1000A9FA2249002000F075FE0100002002F02E
:100E200081FA1F49002000F06DFE0100002002F051
:100E300079FA00201B4902F095FA00201A4902F0C5
:100E400091FA1A49002000F05DFE0100002002F036
:100E500069FA1749002000F055FE0100002002F059
:100E600061FA0020134902F07DFA0020124902F0D5
:100E700079FA124A1249002002F0CAFA02B010BDF3
:100E800050400110883A0020A43A0020C03A0020C7
:100E9000DC3A0020FC070020E4070020F83A00209C
:100EA000143B002004080020EC070020303B002009
:100EB0004C3B00200C080020F4070020410D0010DE
:100EC00000001150034B002A02D001221A70704713
:100ED0001A70FCE7E50F012010B50F4B1B78002BB3
:100EE0000FD001230D4C237013000A00022809D0F3
:100EF00003280CD08421002000F064FB2378002B11
:100F0000FCD110BD8221002000F05CFBF6E78321BC
:100F1000002000F057FBF1E7E50F0120E60F01206C
:100F200070B54369040082B0002B29D00588264B98
:100F300026493F351D400B685A19C3610A60920665
:100F400035D1234E5E4080235B019E4223D8214849
:100F500006F020FD3200E36929001F4806F01AFD63
:100F60001E4806F017FDA37800209B061E43A02311
:100F70001B061E4301966369019A1A6002B070BD98
:100F8000174806F007FD174806F0D2FB134806F095
:100F900001FD0020F2E7144806F0FCFC134806F0BF
:100FA000C7FB0E4806F0F6FC02204042E6E70E487A
:100FB00006F0F0FC0E4806F0BBFB084806F0EAFC21
:100FC00001204042DAE7C046C0FF000018A0002020
:100FD00000001050584201106842011010420110E8
:100FE000EC410110FC410110184201104442011073
:100FF00028420110F8B5CE46474680B5836941794D
:1010000005001C68802900D169E0A405A40D002911
:101010004BD04BB2002B00DB7AE00F200840C4001D
:10102000A14E23189B00F3181A699D88AA4200D884
:1010300065E0D968521B4F1959691A614919DF6077
:1010400059612B00954200D913009BB29D4200D9F3
:10105000A8E08022D2001A43914621188900711815
:101060004D7A4A467F2D00D9ACE023189B00F31837
:1010700024331B78002B02D0802189010A432418D5
:10108000A400361931000120243143400B70874BF6
:10109000F16913400B60FFE7FFE7FFE7FFE7FFE7BA
:1010A000FFE7FFE7F3691A6015E093237E4D9B008D
:1010B000E85814332200E95806F0D6F995239B002E
:1010C000EA580020A218EA50043BE9580C1BEC50E7
:1010D000002102F0EBF8C0BCB946B046F8BD724B37
:1010E000734A9A5CD209012A4FD01A78002AF2D0AA
:1010F0001A787049D2B20A6000221A70EBE7586978
:101100008446002062445A61186102F0B7F8E2E7B1
:101110000F270B003B40D900C9189323624E89006A
:1011200071189B00CB18186898239B009C4661445B
:101130002200096806F098F99322697992000F401D
:10114000FB009846DB199B00F318981802681219E7
:1011500002609522920098180268A21802609420FA
:10116000800084469C44604665460068001B2860F9
:101170009125AD00AC4663441B88A34201D80028EA
:101180003FD1002002F092F8A5E71A6998888242C0
:101190000DD9121A1A615A6982185A61002002F098
:1011A0006DF898E78822D2011A43914655E75969AC
:1011B00000208C460021624419615A61803102F09E
:1011C0005DF888E7002F17D03B4D2A68002A5DD1D3
:1011D0000A6A3A499446A022D205904662460968B6
:1011E0009B088901414401330F604A608B60344B96
:1011F0001B68CB6001232B6080234A461B021A43E5
:1012000033E71A00834200D9020092B2934239D8E0
:101210008023DB00134342462A49D2198C469200B0
:10122000B218624412787F2A02D980221202134334
:101230009921424689008C46D2199200B218624424
:101240001278002A02D0802189010B433D009921A8
:1012500001204544AD0076198900711842400A709A
:10126000972292009446114A664431681A400A60F7
:10127000FFE7FFE7FFE7FFE7FFE7FFE7FFE732688A
:10128000136028E78823DB011343C4E7A022D205BB
:1012900094460A4D096A2D689B08AD0165440133E7
:1012A0002F606960EB61A7E798300020FFFBFFFF2C
:1012B0008404000000001150202400201C24002081
:1012C0004C0C0120490200000021194A10B51948B0
:1012D00006F0C4F88022184B52041A60174B1849C4
:1012E0001A6010008B689843FBD1164C9C22002199
:1012F000200006F0B3F8802200215201124806F0C7
:10130000ADF8092363670333A3670B3B2364802392
:101310009B05E36490230D4A0020E2500C4A703B89
:1013200013600C4A136080220B4B5202DA6410BD2A
:101330008C0400009830002000E0004000F00040E5
:1013400000C00040000011500000105010D00100FB
:1013500080E200E000E100E000201150002901D00F
:10136000014B197000207047983000207F22F8B59B
:10137000CE464746130080B58D783B482B402A4225
:1013800008D19622982492008350384AA400025132
:10139000836102626AB2002A2FDBDA009446D71812
:1013A0009122920090460A79BF0091464C464A79B4
:1013B000C619B0441202224344465205520D2280FF
:1013C0002B4AC978B41803220A402270294A012105
:1013D000B218157092229200B21811709721264A05
:1013E0008900624471180A6000211160002B2AD123
:1013F0000020C0BCB946B046F8BDDA009446D71804
:101400000A79BF00904644464A79C619120222431F
:101410005205520DB2800322C97875720A40B2712A
:10142000012200213272154A6244F2611160002BE0
:10143000DED0134A6346944604376344B361C0194F
:10144000FFF76EFDD5E79622920094460D4A66445A
:101450009446DB006344336091239B009C466744C1
:10146000C019FFF75DFDC4E798300020000110505F
:101470004602000049020000840010508000105015
:1014800000001050040010507F230B4049B270B58B
:1014900000291FDBDC00E318194C9B00E4189123A2
:1014A0009B00E3181D88174B3F351D4098239B0078
:1014B000E3182A001868002105F0D0FF124B1A68C3
:1014C000551B1D6092239B009C460023644423709F
:1014D000002070BDDD00EB18094D9B00ED18AC88B5
:1014E000084B3F341C4022000021286A05F0B6FF5B
:1014F000054B1A68141B1C6000232B72E8E7C046DA
:1015000098300020C0FF000018A0002080230A00AF
:101510009A43130049B2002A04D1CA430E48D20F9D
:1015200001328266DA0000290DDBD2180B4B9200E3
:101530009B18972292009446802263441B681201F4
:101540001A6000207047D318044A9B00D3188022E9
:10155000DB6912011A60F4E7002011509830002076
:1015600000228023080082B00192984316D049B22D
:10157000002916DBC100104B091889005B1899215E
:10158000890059180A7097229200944663441A6899
:1015900013680A490B400193019B1360002002B0BD
:1015A0007047C1000B1804499B00CB181900243167
:1015B0000A70DA69ECE7C04698300020FFF7FFFFB9
:1015C00000207047F0B57F20CE464746160080B514
:1015D0000140002A00D172E0C800554D4418A40013
:1015E0002C19227A002A00D19CE00022E6602361B7
:1015F0006261002B00D16FE0A28814009A4259D892
:10160000A3B29A422ED88022D2001A43914644189F
:10161000A4002C19677A4A467F2F2ED843189B00C6
:10162000EB1824331B78002B02D08024A401224322
:1016300040188000281801000124243163400B70F9
:101640003C4BC16913400B60FFE7FFE7FFE7FFE793
:10165000FFE7FFE7FFE7C36900201A60C0BCB94697
:10166000B046F0BD8822D2011A4391464418A40026
:101670002C19677A4A467F2FD0D92F4F3A68002A13
:1016800042D1226A2D4C9446A022D2059046624651
:1016900024689B08A4014444013326606260A3606F
:1016A000274B1B68E36001233B6080234A461B02F3
:1016B0001A43B3E71C00A3B29A42D3D8A3E7002B86
:1016C00033D1C8001A4D42189200AA18147A002C7F
:1016D00028D0D3601361536143189B00EB189B889B
:1016E000002B0CD1842480222402D20043189B00BA
:1016F000EB185B7A7F2B00D890E722008EE7C4249A
:1017000088222402D201F1E7A022D20594460B4F91
:10171000246A3F689B08BF01674401333E607C60D8
:10172000FB61C2E70220404298E70120404295E772
:1017300098300020FFFBFFFF202400201C24002005
:101740004C0C0120F0B57F20CE464746160080B5F0
:101750000140002A00D16AE09222C8006D4D441871
:10176000A4002C199200A2181278002A00D1CAE015
:1017700093229200A218166094229200A21813607D
:10178000952200279200A2181760002B00D168E074
:101790009122920094466444228814009A4241D8CF
:1017A000A3B29A4239D88022D2001A4391464418F3
:1017B000594FA4002C19E7193F784A467F2F00D9CA
:1017C0006EE09924A400A44643189B00EB186344E0
:1017D0001B78002B02D08024A401224340189921B9
:1017E0000124800028188900411863400B7097235A
:1017F0009B009C46494B6044016813400B60FFE727
:10180000FFE7FFE7FFE7FFE7FFE7FFE703680020E9
:101810001A60C0BCB946B046F0BD8822D2011A4356
:101820009146C4E71C00A3B29A42F6D8BBE7002B4E
:101830006CD19224C800374D42189200AA18A40017
:1018400014192478002C5ED09324A400141923606A
:101850009424A400141923609524A400A44662448F
:10186000136091229200944643189B00EB18634446
:101870001B88002B0FD1842480222402D200264E04
:101880004318B4469B00EB1863441B787F2B00D8A9
:1018900097E7220095E7C42488222402D201EEE7CC
:1018A0001F4F3A68002A1CD1982292009446644443
:1018B00022681C4C9446A022D205904662462468B9
:1018C0009B08A4014444013326606260A360164B68
:1018D0001B68E36001233B6080234A461B021A43D6
:1018E0006FE7A022D205944698220E4F92003F68DF
:1018F0009B08BF01674494466444246801333E60FA
:101900007C60FB61E8E70220404282E70120404220
:101910007FE7C0469830002049020000FFFBFFFF30
:10192000202400201C2400204C0C0120F8B5982312
:101930005B4ACE46D658883B47461C0080B53440AB
:10194000334200D07CE080256D02F30360D4802315
:101950005B011E423AD01C430023514A0020136011
:10196000504A9360D360504A9360D3604F4A93606B
:10197000D3604F4A9360D3604E4A9360D3604E4A1F
:101980009360D3604D4A9360D3604D4A9360D360B7
:101990004C4A9360D3604C4A9360D3604B4A936047
:1019A000D3604B4A9360D3604A4A9360D3604A4AFB
:1019B0009360D360494A9360D360494B494A1A60A7
:1019C00001F072FB8022484B12031A658023DB0171
:1019D0001E4203D010221C43434B1A6580231B0276
:1019E0001E4204D080221C433F4B12011A65B442B0
:1019F0000AD03E4805F0CEFF21003D48714005F079
:101A0000C9FF3C4805F0C6FFC0BCB946B046F8BDAA
:101A100039493A4B234ACB1811CA11C30123242256
:101A20008B54992292008B54344B00209C46614485
:101A300001F09CFB80222C4B92022C001A6586E759
:101A4000976D00240125002F1BD0274B99462A4B68
:101A5000984603E06D000134202C12D0E3B22F42EF
:101A6000F8D04A465B089565E2070DD4D800C01847
:101A7000800004304044FFF7BDFAAF436D00002FF3
:101A8000E9D110241E4D60E7D800C01891239B00B7
:101A90009C46800060444044FFF7ACFAEDE7C04646
:101AA000000011500000105008001050100010509D
:101AB0001800105020001050280010503000105016
:101AC0003800105040001050480010505000105086
:101AD00058001050600010506800105070001050F6
:101AE00018A0002080011050003011505842011001
:101AF000944201101042011098300020840400002C
:101B000010000100034B08000B6000234B608B604A
:101B1000CB607047411B00107047C04680210023F6
:101B200049421170043151709A3191701639D37055
:101B300091715371137170477047C0467047C0462A
:101B4000F0B5C64600B50C001D000B7949780600BB
:101B50001700984682B022291BD013D8202937D0ED
:101B6000212928D119006A46FFF7D8FF07226946C4
:101B7000386805F079FC072300202B6002B080BC98
:101B8000B846F0BD232916D11900FFF7D7FF002072
:101B9000F4E70125A278E4781900240214432A000E
:101BA0002240FFF78FF96208300041462A40FFF7D4
:101BB000C3FF0020E2E70E4805F0ECFE61780D4817
:101BC00005F0E8FE0C4805F0E5FE01204042D5E7AF
:101BD000E279A37912021A433968684605F044FC99
:101BE00030006A464146FFF797FF0020C6E7C0462F
:101BF000EC410110A8420110104201107047C0468C
:101C000010B5012910D007290DD10023084A002062
:101C10001360084A1360084A5360084B084A197851
:101C2000084BFFF78FFD10BD034B5960FBE7C04623
:101C3000642A002094300020583A0020180B01201C
:101C4000342400202C06000013000D4A0D491068B2
:101C500010B50A60012802D15068984206D90A4B93
:101C600000201978094BFFF76DFD10BD936808330C
:101C7000D3180B60D268064B1A60FFF793F8F4E7AD
:101C800034240020602A0020180B01202C060000BC
:101C9000642A002070B50D00140001F091FB0100D2
:101CA000200004F047FF002901D1002C03D10022BD
:101CB000044B1A6070BD0023002229000020FFF7AA
:101CC00081FCF7E79430002070B5497882B0002994
:101CD0000BD0012906D10020CD4911604A681A6055
:101CE00002B070BD01204042FAE716683468082C43
:101CF00000D993E0C74AA300D3589F46C44BB268AB
:101D000010219A600022C448DA6018605960C34C00
:101D100008320021200005F0A1FB01232370C04BF5
:101D20002200197C00200823FFF74CFC0020D7E795
:101D3000B74BB268342101249A600022B948B74DEC
:101D400018605960B849DA615A61DA6059629A627A
:101D5000DA621A631C619C611C62B44B0021083278
:101D600028001C7705F07AFBAD4B2C70197C2A00FB
:101D700008230020FFF726FC0020B1E70023A44A37
:101D800000205360A94A1377AAE7A14DA84BA94A9E
:101D90002B60B368AB6010236B610023EB60F368CA
:101DA000934247D03CD8A44A94466344152B65D847
:101DB000A24A9B00D3589F46954DB368A04AAB609A
:101DC00010232A606B6000239E4AEB60F368934205
:101DD00014D000D9B3E09C4A934200D09EE033690E
:101DE000032B00D8FDE073699C466644B2688F4BB4
:101DF0009A60002A00D1F1E002221A770822874C6B
:101E000087E71021824B914800221860596000201A
:101E100001219860D960854B1A7778E700205FE749
:101E20008B4A93421CD88B4A934200D99DE08A4A40
:101E3000934223D100237A4EAB611C332C61774C43
:101E4000082200216B60200005F008FB01232370AD
:101E500022000020317C0733FFF7B4FB00203FE76E
:101E60007E4A93421FD000D89FE07D4A934200D122
:101E7000B1E07C4A94466344022BDBD97A4B7B4821
:101E8000EB6005F087FDF168794805F083FD79483E
:101E900005F080FD00241823614ECFE7764B604E9D
:101EA000AB611C23CAE701235D4EAB611B33C5E761
:101EB000280074227149183005F0D6FA74248C2356
:101EC000574EBBE76E4A6F4B0A2403CB03C21B7805
:101ED000534E13702223B1E76B4B514EAB611C2361
:101EE000ACE74F4E0020317801F06AFA402800D864
:101EF00089E0664BAB611C23A0E74C4B484E5B6806
:101F0000AB611C239AE7624B454EAB611C2395E7FE
:101F1000464B434E9B68AB611C238FE75D4A93425F
:101F200000D16BE7504B5148EB6005F033FDF16891
:101F30004F4805F02FFD4F4805F02CFD5EE7464A5F
:101F400093422DD1340073690834E418474805F0F2
:101F500021FD2069E3686268216800904E4805F021
:101F600019FD444805F016FD48E74C4A9446634481
:101F7000032B42D84A4A9B00D3589F462B4B284EEE
:101F80005B69AB611C2359E7284B254E1B69AB618C
:101F90001C2353E7254B224E9B69AB611C234DE765
:101FA000404A934200D129E7BCE73F4A93420ED80A
:101FB0003E4A934200D861E728001C4906221830A7
:101FC0001D3105F051FA06241E23154E36E7354A19
:101FD000934200D052E7364BEB602BE701221A7791
:101FE0000CE7224805F0D6FC324805F0A1FB214859
:101FF00005F0D0FC304BEB6000E70C4B084EDB6883
:10200000AB611C231AE72D4BAB611C2316E7C046BE
:10201000101400205843011008000080041600200E
:10202000180B0120020000802C060000583A002006
:102030000400008002020100FFFEFEFF7C4301104D
:1020400005000080120101000E0101000600008061
:1020500005010200000102001B0201000401010150
:1020600005010101FFFEFDFE010000C0EC41011071
:10207000DC42011010420110DC050000E4430110B5
:1020800028140020D0420110FFFF0000003E49004C
:10209000160600000F01010004430110FEFEFDFFC3
:1020A000D4430110030101010201010100010101FA
:1020B000BB0000C048430110150001C0C0D401009E
:1020C000F0B5C646504D00B52B68002B00D174E02A
:1020D000C1222968002089B2520005F003FF041EC6
:1020E0006BD003210F004268484B174018682B68DB
:1020F0000A4217D004261900F61BB34200D96FE03C
:10210000434EB0463668002E59D0A027FF05BC4686
:10211000404E3668B601664430607260F161521814
:1021200040185B1A3C4E9F083168002933D0A02626
:10213000F605B446394909688901614408604A6076
:10214000CF6103210E001E40194215D08B43D218D7
:10215000C3183348016800294AD1A027FF05BC46AF
:1021600030490968890161440B602F4B4A601B6844
:102170008E60CB60012303602B6800206381002305
:102180002B602A4B2A4A19782A4BFFF7DBFA2000EA
:1021900080BCB846F0BD2149096889018846A02164
:1021A000C9058C464146614408604A608F60224FF1
:1021B0003F68CF6001213160C3E70024E7E7A02733
:1021C000FF05BC46134E1D4F3668B60166443060AD
:1021D00072603F68B160F760012647463E609EE747
:1021E00031000B4EB0463668002E00D08DE7E6E792
:1021F000A020C00584460B490968890161440B6031
:102200004A60CE61B8E7C046642A0020602A0020F8
:10221000082400200424002000240020FC230020A7
:10222000102400200C2400202C160020180B012064
:10223000342400202C06000024160020281600203C
:10224000F0B5DE4657464E4645460023E0B58FB012
:102250000CAA9380AB4B09901A68002A00D03AE18F
:10226000A94A1268920111000A92A0228C46D20556
:1022700062440DA91160A54951600B91172191602D
:10228000A3490968D16001221A60A24B5B68012B47
:1022900000D134E1A04B1B68002B00D02CE1099940
:1022A0009E4B0A899A4200D913E1A022D205944696
:1022B00090469B4B03251B68099A0193994B1B6819
:1022C0009B019C44984B1B680793984B1B6899464D
:1022D000974B1968974B89011B6841440693964BAD
:1022E0001B680293954B1B689B019844944B1B6899
:1022F00008930023059304930393924B00E0D9467F
:1023000028005689184082469B4630005468009346
:102310002B421BD057460420B246C71BBE4200D9F1
:10232000BA46019F002F00D0CDE0674650463C6082
:102330007B60B8600798F8600120039001901F004F
:1023400050465744BB4600975444301A8708BA4653
:102350004F460C60002F6BD15F464F6057468F6031
:10236000069FCF600127BB4604972F000740BA465F
:10237000054211D0009FA8433F182018029C002C52
:102380005CD1444620606760404654468460089CA7
:10239000C46001200590029012689B19002A57D052
:1023A00048460028ABD0032489462BE06146079FAE
:1023B0000D604B608860CF60012103910191191875
:1023C0008A462D180091301A494657460D604F60D5
:1023D0008708CF612700074004420FD00099A0432F
:1023E00009182818029D002D68D1454628606960AB
:1023F00001210898AF600591E860029112689B196D
:10240000002A25D0270056899A46300055681F407B
:1024100000932342D8D00421C81BB04200D9300019
:1024200001990029C2D061460D604B60C861C6E7C2
:102430005F464F605746CB46CF6196E744462060E3
:102440006760404654461268C4619B19002AA7D1B0
:10245000039B002B02D0324B019A1A60049B002B85
:1024600002D05A46314B1A60059B002B02D0324BEA
:10247000029A1A60344B80219C460A9A49046244AD
:1024800013680B42FCD101230B9824210360099BA4
:102490001A8981601300C2601F4A2C3313604360A5
:1024A00013682A4A117A02000020FFF78BF80FB058
:1024B000F0BCBB46B246A946A046F0BD45462860E2
:1024C0006960EF619AE76046574604604360C76100
:1024D00035E70B81E9E60C4B1A6893011A000A9361
:1024E000A0239446DB0563440DAA1A60074A5A608C
:1024F0000B921622DA61C8E606204042D7E7042094
:102500004042D4E71824002014240020682A002028
:1025100014A00020583A0020943000202C0600001F
:102520000824002004240020281600200024002075
:10253000FC23002024160020102400200C2400205E
:102540002C160020942A002010000050180B0120A7
:10255000F0B51A4CC6460500200000B588461700A5
:10256000069906221D301E0004F07EFF0123236021
:1025700063604346124C00202370124B21006360BD
:10258000114B2772E360114B2674636100F0EAFE81
:1025900021000020083100F0E5FE2100002010316C
:1025A00000F0E0FE0A4B28002B6000236B60AB605C
:1025B000084BEB6080BCB846F0BDC046583A0020DE
:1025C000180B0120491C0010951C0010FD1B001069
:1025D000C91C0010011C0010130070B5104C114DE7
:1025E000444329198A68CE68D218F31A8A60CB60EE
:1025F00011D10A7D002A0BD1CB88002B0ED0635D50
:102600007F2B0BD9002300220021FFF79BF805E068
:102610000B75002200238021FEF7D4FF70BDC04659
:102620003405000024350020F0B557464E46454697
:10263000DE466024E0B59A460B7806000D001700D0
:102640008BB01C40202C0DD0402C4DD00022934646
:10265000002C30D058460BB0F0BCBB46B246A94661
:10266000A046F0BD03221340012B00D19FE0022BB6
:1026700019D1CA4ACA4B94464343CA4CE118614433
:10268000087800280FD0C84A9A1800231219116838
:10269000002903D04C68002C00D042E10133DBB2AA
:1026A00004329842F3D1C14805F074F9C04805F0EE
:1026B0003FF8C04C65E003321A409146012A00D130
:1026C000E7E0022A00D198E0002A00D1C4E06B784C
:1026D000062B04D16988C023DB00994264D0B3483B
:1026E00005F058F9B448E2E7AE4B9846AC4B43438B
:1026F0004344DA69002A00D1B7E049781379994256
:1027000000D116E1A54AA64B944673434344634463
:102710001A780024F300002A2BD09B199B009B19E8
:102720009B46D90043468B44B946A8465F463500D0
:102730001E003B190B33FF339B00F3185B68002B23
:1027400012D09B689B46002B0ED053464A4641460A
:102750002800D847002800D198E0904A904B944632
:102760006B43F31863441A780134E4B2A242E0D810
:1027700045468E4E8F4C300005F00CF98F4804F022
:10278000D7FF200005F006F98D4805F003F9E88829
:102790006B886A7829780190A8880090894805F0AC
:1027A000F9F8200005F0F6F800239B4652E77B4A33
:1027B0007B4B944643437B4CE118614408780028E6
:1027C00000D170E7FF21784A8C469A18B046002362
:1027D000B94612191168002909D00C68002C06D0DE
:1027E00067460E7EA98839408E4200D197E00133BA
:1027F000DBB204328342EDD155E7694A694B42436B
:102800009B188522D200944663441B78002B00D18C
:102810005DE74B780C79012B00D195E1032B00D1BA
:102820008BE1002B00D053E706AB9C460F25654497
:102830002A002100FEF7C4FE2B78002B00D1DDE139
:1028400001233A68137000223B685A7002235246F3
:102850001360013B9B46FDE66B784988092B00D944
:1028600036E759489A00825897461B6A002B00D1D8
:1028700048E749789A79914200D043E7AA88072A25
:1028800070D11A683A6052469B88136001239B46B8
:10289000E0E6444B9846424B43431A000493852399
:1028A0004244DB00D3181B78002B00D10FE72B79B3
:1028B00049880393936918006B780A2B00D157E17C
:1028C00000D9F7E0002B00D15BE1062B00D006E732
:1028D0000B0A212B00D16BE2222B00D0FBE6304B00
:1028E0002E4A5E43434694469B1963441878002859
:1028F00000D1F0E62C4B9C46664433008C4603998D
:1029000043441A68002A03D0167E8E4200D160E349
:102910000134E4B204338442F3D16146DBE6464637
:102920004F4653463A0029003000A0470028ADDA50
:10293000B9E6AB88042B21D0052B13D16B88D26864
:102940009B009A583A60537811781B025B18917873
:10295000D278090412065B189B18524613600123B3
:102960009B4677E6114E300005F014F8174804F046
:10297000DFFE104C200005F00DF8FCE69268E1E760
:10298000012900D152E100235246136001339B46D6
:1029900060E63000C9B2FEF7E1FCF4E76C04000029
:1029A00034050000243500202C04000018420110DA
:1029B00084440110104201106045011014450110BB
:1029C000584201109C44011078450110FC4401104C
:1029D00000233A681370CB4BCB4A98469446CB4BB6
:1029E0007343434463441B78002B04D001213A68AD
:1029F00013780B431370C64AC44B94467343434445
:102A000063441B78002B00D11DE702213A6813783C
:102A10000B43137017E7FF231A000A400B4200D044
:102A200018E18521C9008C46B84B5E43B54B9B1914
:102A300063441A7053461A6001239B460AE68521B7
:102A4000C9008C46B14B3A685E43AE4B9B19634458
:102A50001B781370012352469B461360FAE50B0A5C
:102A600099461800CCB2032B00D16FE10F2B00D197
:102A70008EE1032B00D92EE6A24B9846A34B73435D
:102A800043449B691A78002A00D1DEE100218C467C
:102A90002900250064468C4604E09B181A78002A19
:102AA00000D1D0E159788142F7D1A54200D1D9E1D6
:102AB0000134F2E70B2B00D011E6CBB2069303787A
:102AC000002B00D1D8E100220592FF32934632005C
:102AD00007940025002704005E4691460AE0022A7A
:102AE0001AD0E4182378ED18BD4201D3002F4DD140
:102AF000002B4BD06278042A14D0052AEFD1039A18
:102B0000B242EED1069BA1785B4500D178E1484600
:102B1000FEF7BAFC2378E4E7E778A1783F020025C6
:102B20000F43DEE7E278A6789346039AB242D8D103
:102B3000069A5A45D5D10594D3E74B88002B61D02E
:102B4000002352461360CAE54B88002BF8D1714828
:102B500004F020FF2100704804F01CFF6F4804F0CF
:102B600019FF21003000FEF7FBFC01239B4671E5B5
:102B70005A463B681A7053464A461A6001239B46E0
:102B800068E55A463B681A703B685EE65F4F4E4602
:102B90003B00634A73439446434463441A78079C5A
:102BA000002A00D1EFE60599F300002900D16AE17F
:102BB0009B199D00AD194646EB00ED182B190B3300
:102BC000FF339B00F3185968002912D0CB68002B03
:102BD0000FD00598097E807888420AD1059A08218D
:102BE000484698474B464E4A7B439446F318634405
:102BF0001A780134E4B29442E0D3C4E600233A6880
:102C0000137020E6434804F0C5FE2100454804F057
:102C1000C1FE424804F0BEFE21003000FEF776FC03
:102C200053465A461A6001239B4613E5374A7243BE
:102C3000032B00D161E10021324B30009B18344A54
:102C40009A181170A622D200944663441B680A3178
:102C5000984798E6CBB203932A4B98462B4B734385
:102C6000059343449C692378002B00D18BE000211D
:102C70008B46FF310022FF20049149460027B146D0
:102C8000069106005946D346AA4615000AE0022AD4
:102C90004ED0E4182378FF18AF4201D3002D69D13C
:102CA000002B67D06278042A4DD0052AEFD1039A11
:102CB000B242EED1049A002AEBD10223E356A17866
:102CC000002B00DA8EE16279237912021A430C2379
:102CD0004B4305998C4614496344434458185105A5
:102CE000490D018011498C46D2046344920F1A7039
:102CF00021004846FEF73AFB414241412378C9B2E0
:102D0000C7E7C04624350020290400003405000030
:102D10002B04000018420110584401101042011009
:102D20006C04000070440110D2040000D1040000C3
:102D30006679039AB242ACD1E578A2782D020027D9
:102D400001211543A5E7E2780492A2E7EE2C00D01A
:102D500092E6AE487043AE4E3618F369002B00D1B0
:102D6000BDE41A683A601B6852461B781360012361
:102D70009B466FE4069B4E4655469946DA468B467F
:102D8000002900D0C7E00023524613606B789FE40F
:102D90009E4870439E4E3618736A002B00D19EE405
:102DA0001A685B683A605246136001239B4651E4FF
:102DB00002780300002A00D191E4FF24AC460021F0
:102DC00025000020039C0AE0022E11D09B181A78DF
:102DD0008918814201D3002833D1002A31D05E788E
:102DE000042E0BD0212EEFD1A542EFD13B60BBE7E3
:102DF000D8789978000208430021E7E79D78E5E755
:102E00000223E356002B64DB6279237912021A4312
:102E10004B005B1804999B008C467E4963444344F5
:102E200058185105490D01807B498C460321D21267
:102E300063440A401A7021004846FEF797FA237847
:102E40004FE665464BE42C006546744804F0A2FD4D
:102E500022004946724804F09DFD724804F09AFD34
:102E60006B7835E4022800D19AE051460A603B6055
:102E700001239B46FFF7EEFB6B4B9C4662441278A6
:102E8000002A00D17FE5F3009D19AD00AD19EB00DC
:102E9000ED184346B0462E001D005C4F33190B332E
:102EA000FF339B00EB185B68002B0DD0DB68002B19
:102EB0000AD0002208214046984743465A4A7B439D
:102EC0009446EB1863441A780134E4B29442E5D393
:102ED00059E56279237912021A437F2319404B0086
:102EE0005B1804999B008C4650496344434458182E
:102EF0005105490D01804E4997E7454B30009B181D
:102F00004C4A9A181170A622D200944663441B685A
:102F10000831984737E5434685223C4C0399744372
:102F2000D2001B199A1811703F4A944663441A78CC
:102F3000F300002A24D09D19AD00AD19EB00ED1867
:102F400043464F46B0462E0025001C00F3190B33B4
:102F5000FF339B00E3185B68002B06D0DB68002B77
:102F600003D000220721404698472F4A6319944610
:102F7000634401371B78FFB2BB42E7D84646A04600
:102F8000A622D2009446214B072173434344634455
:102F90001B6830009847002352461360FFF75AFB26
:102FA000DA78997812020A4351463F200A60174A9C
:102FB0005643214A4644B118DA798243501E824171
:102FC0000A701E4A9446DA7966449206D20F32702D
:102FD0004DE7136952693B6053461A6001239B46D3
:102FE000FFF738FB6279237912021A437F230B40E3
:102FF0000C214B4305998C460C49634443445818B3
:103000005105490D01800A496DE6C04634050000AE
:1030100024350020D2040000D10400001842011021
:103020002C450110104201106C04000072040000D5
:10303000710400002B040000290400002A04000091
:1030400070B513000400002A1FD01548154D6043C9
:1030500029188A68CE68D218F31A8A60CB6015D115
:10306000030028335B1902008B6003000832103321
:1030700020005B195219FFF7D7FA00280BD0002364
:10308000002280212000FEF79DFA70BD0021200063
:10309000FEF758FBF9E780212000FEF737FAF4E746
:1030A0003405000024350020F0B5C64600B50021E7
:1030B00082B00500FEF752F9284B00261C006C4335
:1030C000274F98460D3B3C19FF3BE3186A461E709C
:1030D00040239380234B6946280096710093FEF7A6
:1030E00045F96B46694628009E70FEF73FF91E4B76
:1030F000EE009C46644422780024002A1ED07619F3
:10310000B6007619F300F61833190B33FF339B0022
:10311000FB185B68002B0DD0DB68002B0AD0002267
:1031200001212800984743460F4A6B439446FB18F9
:1031300063441A780134E4B29442E5D3074B012189
:103140006B43FF18A623DB009C46674428003B68BE
:10315000984702B080BCB846F0BDC04634050000B8
:1031600024350020070580006C040000F0B53E4CBB
:103170003E4E444337190822050083B0380004F05E
:1031800073F98022FB88D20093423DD9325D7F2AB9
:1031900056D92200FB603B6100232832B218BA6086
:1031A0003B7501922300103339002800F31801AA5F
:1031B000FFF73AFA002852D02B4B6B43F3181A69E9
:1031C000DB88934233D88022274CD2006C433419D9
:1031D000E360934234D8A0680199884203D01A0072
:1031E00004F042F9E3682049280069437618B26880
:1031F0008021FEF7E7F93369F2889A422DD99B06C0
:103200002BD10123337528E0220000212832B21887
:10321000BA60FB603B6139750192002BC2D0315D11
:103220007F29BFD800212800FEF78CFA15E0130093
:1032300080220D4CD2006C433419E3609342CAD90A
:103240000B4804F0A7FB0B4804F072FA0A4804F09C
:10325000A1FB80212800FEF759F903B0F0BD8021C1
:103260002800FEF753F9F8E7340500002435002064
:1032700018420110A04501101042011010B57F2422
:103280000C4063001B19074C9B0044431B19064C60
:10329000E3188F24E400A44663441B68002B00D08D
:1032A000984710BD340500002435002010B57F2458
:1032B0000C4063001B19074C9B0044431B19064C30
:1032C000E3189B24E400A44663441B68002B00D051
:1032D000984710BD34050000243500200D4A70B514
:1032E00050430D4C0D0004190021200004F0B6F8E5
:1032F0008E238022DB00E3181A708F23074ADB003D
:10330000E3181A609B23DB009C46054BA5616444CF
:10331000236070BD3405000024350020D92500103D
:103320004130001070B50C4B04009C460B4A0C4E0B
:103330004243C0000019B218800062440019157899
:10334000C300C01840190B30FF3080000D763018D4
:1033500001351570416070BD6C040000340500003B
:10336000243500200023CB5610B50A78002B12DB41
:10337000114C530060439B189B0018180F4B1818F2
:103380009A23DB00C3181A709B23DB009C464B6812
:103390006044036010BD7F24144063001B19064C79
:1033A0009B0060431818054B18188E23DB00C318C8
:1033B0001A708F23E9E7C046340500002435002049
:1033C0004BB2002B0CDB4B0059180D4B89005843B6
:1033D0000C4B09189C460C484118614408887047FA
:1033E0007F2319404B005B1805499B004843181880
:1033F000064B05499C46081860440088EFE7C04624
:1034000034050000D20400002435002072040000BE
:10341000F8B5041E09D01A4804F0BCFA194804F0A3
:1034200087F9194804F0B6FAFEE7184B184D5960B1
:10343000A623DB00EA500020FDF746FF154E0700EB
:10344000AA5D002A13D023000B33FF339B00EB1837
:103450005B68002B07D0DB68002B04D000220B2117
:1034600000209847AA5D0134E4B29442EBD3A6232E
:10347000DB00EB580B21002098473800F8BDC04610
:1034800018420110BC450110104201107C3A002086
:10349000243500206C040000094A83009446402231
:1034A000634410B51C68C0006240C02414408022F0
:1034B000520113431C60034B9C466044416010BDA5
:1034C00004C00140004001400A4B80009C46042398
:1034D0006044002901D00C230821002A00D10B00F0
:1034E000026853400C221A4080235B01184302609B
:1034F0007047C04604C00140084B80009C466044B1
:10350000002905D080239B011843022303607047E4
:10351000C0239B01184302230360F8E704C0014065
:10352000D0231B061B6830B50500581E83410F4889
:103530005C42844607203023284023408000EC086A
:10354000814020000A4D3C3063448000A40041517A
:103550001B19002A04D0802292011343196030BD48
:10356000C022920113431960F9E7C04600410140AF
:1035700000400140D023F0B5C64604001B06984623
:103580001B680C4F9B00F8580D00160000B5044254
:1035900009D1044332002900FC500D2000F056F9F7
:1035A00080BCB846F0BD01F03DFF43461B689B0060
:1035B000F858EEE7F0DA002010B504000D2000F016
:1035C00039FAD0231B061B6802499B005A58A243B4
:1035D0005A5010BDF0DA00200123D0228340120699
:1035E00093629361094A83009446402263441968B8
:1035F000C0004A40C021114080225201134319608B
:10360000034B9C46052360444360704704C001405F
:1036100000400140024B18688007C00F7047C04649
:1036200000C00640EFF3108072B6034A1368002B07
:10363000FCD0BFF35F8F70472C0100D0BFF35F8FCA
:103640000022024B1A6080F3108870472C0100D0D2
:1036500070B5EFF3108C72B60D4D2B68002BFCD0BB
:10366000BFF35F8F0724CB08C618C05C01230C4052
:10367000A3401C000440034207D103433370BFF34F
:103680005F8F2C608CF3108870BD100001F0B2FECB
:103690002C0100D0F8B54746CE46884680B5EFF3FA
:1036A000108C72B6214D2C68002CFCD0BFF35F8FBC
:1036B0009A422CD8D4080727055D06190124174023
:1036C000BC402C421FD007210127894609E0D408BD
:1036D000055D06194C4639001440A1400C002942F2
:1036E00011D001329342F2D201204042BFF35F8FEA
:1036F00000220E4B1A608CF3108800280FDBC0BC30
:10370000B946B046F8BD2C4310003470EEE7BFF365
:103710005F8F00232B608CF31088012040424346CA
:10372000002BECD0089801F065FEC0462C0100D0BB
:1037300030B5EFF3108C72B60A4C2368002BFCD026
:10374000BFF35F8F07230122CD0819408A40435DF4
:1037500093434355BFF35F8F002323608CF310889E
:1037600030BDC0462C0100D00021044B044ABFF3F9
:103770005F8F02C39342FAD17047C046000100D068
:10378000800100D0044A1078431CDBB2172B00D90B
:10379000102313707047C046140800200123834093
:1037A000002904D0034A1360034A13607047034A98
:1037B0001360FBE780E200E000E100E080E100E070
:1037C00001228240034B1B6813405A1E9341D8B21A
:1037D0007047C04600E100E001238340014A1360C6
:1037E0007047C04600E200E0024B10309B6880004A
:1037F000C058704700ED00E070B50D00EFF3108683
:1038000072B60F4A1368002BFCD0BFF35F8F0D4BCD
:1038100010309B6884001B590B4A934203D09D4291
:1038200001D001F0FFFD074B9B681D51BFF35F8F77
:10383000BFF35F8F0022024B1A6086F3108870BDC1
:10384000240100D000ED00E0CD010010F0B5574696
:103850004E46DE464546E0B585B0060002911700AB
:10386000EFF3108B72B6674A1368002BFCD0BFF3DE
:103870005F8F0025644B5D579A46002D00DAA4E067
:103880006B00624C03935B199B009846A146C144B0
:103890004B4652469B79103613705D4BB2009B68C5
:1038A000019299580B1B2F2B34D95A4B994200D0B7
:1038B000A4E0039B584A9C46584B6544AD006353B3
:1038C000434602336519E418554B0121043B1B1B89
:1038D0001B055B0D13436B80524BEF71AB80FF23D5
:1038E000AB71029BAB604B460B431900484B019AEE
:1038F0009B689950BFF35F8FBFF35F8F0022414BEE
:103900001A608BF3108805B0F0BCBB46B246A946DE
:10391000A046F0BD01200A008243D379BB422FD8D4
:1039200045464E46130040491B1B5B415943090D58
:103930003A4B63533A4B02356519043B5B1B1B053D
:10394000354D5B0D2B4373800426B446E04444445C
:10395000131F1B1B4C46A17102991B05A160494610
:103960005B0D2B43A380314BE77101431360BDE72F
:103970005800C01880002018C679BE422BD902001A
:103980000623D356002BF3DA101D824628488046C2
:1039900004267642B446E14450464E46361A300577
:1039A000400D824656461C48957106439680039A00
:1039B000944665441D4AAD00641922604246A371D5
:1039C000029BA280E771A36090E701F02BFD002528
:1039D00053465D5754E7101D8246908840050015F8
:1039E00084464046D444664604302018301AE02607
:1039F0000005400D360230438046C9E701F012FD54
:103A000057E7C046240100D0E70F01201808002026
:103A100000ED00E0CD01001000E0FFFF00A1FFFF7E
:103A20004808002001BDFFFFAAAA00000148804706
:103A300001BD0000F0B5DE4657464E464546E0B5AE
:103A40000C0083B0EFF3108972B6584A1368002B4C
:103A5000FCD0BFF35F8F564B9A68030010339F0072
:103A6000D559544A9046954232D0A54243D0524E41
:103A7000AA1B2F2A2CD801228240924651464F4A37
:103A800012681140019151464D4A1160BFF35F8F9A
:103A9000EFF305829346002A33D101232A009A438B
:103AA00093689C4208D177E04B005B189B00F318A9
:103AB0009968A1422AD01A00062151560029F3DA4A
:103AC000019B002B19D052463E4B1A603B4B1A60AB
:103AD000374B9B68DD51BFF35F8FBFF35F8F0022D1
:103AE000324B1A6089F3108803B0F0BCBB46B24673
:103AF000A946A046F0BD1500EAE75246304B1A60D1
:103B0000E6E79342C9D001F08DFCC6E7062159567D
:103B1000002921DB4A005018800034188046A06834
:103B20009860E079D871062020569871002824DB2F
:103B3000A488F01A6405241544440019E024000503
:103B4000400D24022043988052181F4B9200B61853
:103B50001A781970B271B3E7594600290FD1FF31B5
:103B600091711A49918018490A789A71184A9B1BD9
:103B70005B415A43120D0A70A2E71648E3E7164A62
:103B80001649D21A083A5002400D0143998014494F
:103B900052080A43DA8093E70621515613000029A0
:103BA000B8DA5A46002AEAD14546DCE7240100D0BB
:103BB00000ED00E0CD0100101808002000E100E059
:103BC00080E100E080E200E0E70F012001BDFFFF9F
:103BD000AAAA000001BD00005208002000F0FFFF6B
:103BE00000F8FFFF032310B50400074A184094466D
:103BF000C0009C43FC3383406444226881409A4364
:103C000013000B43236010BD00E400E070B5EFF338
:103C1000058101240443EFF3108C72B6214A136826
:103C2000002BFCD0BFF35F8F1F4B05001F4AED1A1E
:103C30006D416A43120D1E4D8900AE6852B276582E
:103C4000A6421CD00621595691421CD01221595629
:103C5000914222D01E215956914220D02A215956F4
:103C60000324914210D0134B19781A708171BFF35D
:103C70005F8F00220B4B1A608CF3108870BDAB680D
:103C80000D4C5C50EFE700246100091989005B18B6
:103C9000FF21997109499980E5E70124F4E702249D
:103CA000F2E7C046240100D018080020AAAA0000AC
:103CB00000ED00E0E70F0120CD01001001BDFFFF86
:103CC000054B064A1360064A136053609360D36045
:103CD00013615361936170478080808000E400E04D
:103CE00004E400E01F2110B5091A0248FFF720FD87
:103CF00010BDC046EB0F012000B5074B83B001009B
:103D00000093002205230548FFF7C4FC002801DBCF
:103D10001F23181A03B000BDCC450110EB0F012082
:103D200070B504000E001500FFF72CFD0100200007
:103D300000F006F8A680E580BFF35F8F70BDC04637
:103D4000024B9C466144890001607047400000348A
:103D500010B50400FFF716FD01002000FFF7F0FF8B
:103D6000FF232371BFF35F8F10BDC04610B5040061
:103D7000FFF708FD01002000FFF7E2FFFF23A3800B
:103D8000BFF35F8F10BDC04683680B4810B58446F3
:103D900061446244090112019A18591854684B6829
:103DA00001209C4201D802D00020C0B210BD126890
:103DB0000B689A42F9D8F7E7FFFFFF0F0A4B196823
:103DC000EFF3108072B60A68002AFCD0BFF35F8F51
:103DD0001B68BFF35F8F00221A6080F3108840BF1A
:103DE000002000217047C046340C0120F8B557462A
:103DF0004E464546DE46E0B599460CAB1C780DAB09
:103E00001B78060090469A460768002C11D1BC7BAF
:103E1000002C42D065003B682D19033D59194B78A1
:103E2000BB73002B00D1FB7300238B704B700B70A6
:103E300004E065003B682D19033D5919B2682A4B0F
:103E400094464246E3181B0163441A604A465A608E
:103E50000A9A9A600B9ADA6000238B704B700B7091
:103E60007B7B9B46002B2BD022005946B8687B6891
:103E700098473A68002816D05B4658465B005B447A
:103E80005519033BA870D118D35C002B00D06B7080
:103E90005B460C707B73A34513D0F0BCBB46B246A7
:103EA000A946A046F8BD5B465B005B44033BD318C4
:103EB0009C705119525D002A00D05A705B460B70FD
:103EC0007C7342464B46307D00F002FD051E06D055
:103ED0005346002B03D12100306800F075FF0E9B84
:103EE000002BDAD01D70D8E7FFFFFF0FF0B5DE46DC
:103EF00057464E4645460023E0B58BB00893674BC6
:103F00008200D45800239B46099000F057FC626859
:103F100006000F00EFF3108572B61368002BFCD07B
:103F2000BFF35F8F23689C465B7B9946002B00D1D3
:103F300069E0A2685A4B90464B441B0198444346A3
:103F40001A685B6810001900801BB941002900DC69
:103F500063E0099800F0BCFC00230022984600238F
:103F60000692079300239A466368BFF35F8F5A4611
:103F70001A6085F310885346002B08D10028C4D15D
:103F80000BB0F0BCBB46B246A946A046F0BD089BAC
:103F9000414618024B461843D047626806000F009E
:103FA000EFF3108572B61368002BFCD0BFF35F8F60
:103FB000002F50DB33003B4302D02369002B61D13B
:103FC0002368D97B002907D04A00521819688C460B
:103FD00049466244033A51709A7B002A01D14A460D
:103FE0009A734A46DA734B46E168013BCA5C013278
:103FF000CA545B4623616368BFF35F8F5A461A60F9
:1040000085F3108881E7002300229846002306925A
:104010000793002300209A46A6E7002902D1002832
:1040200000D096E70021604600F04CFE43461A6837
:104030005B680692079343469B689A464346DB6853
:104040009846E3684B44013B1B7808931B020343EB
:104050002361002088E72369002BB1D0069A079BD3
:10406000921BBB41002B15DB5946049101210391A2
:104070004946029141460191514620000091FFF7C7
:10408000B5FEB6E700F09AFB32003B0012184B4138
:10409000002BE9DA0122034B5242E5E72CA0002075
:1040A000FFFFFF0FFFFFFF7F10B5144C6368002B6D
:1040B00004D00A211248FFF743FE10BD2300114A25
:1040C0001021206800F00EFD032000F053FB0320B8
:1040D00000F068FC03200C4900F0B4FBFFF752FB32
:1040E0000A4B9C4603232375D0231B061B686044A0
:1040F0006375074B80006060DC60DAE760080020D1
:10410000340C0120893D0010ED3E001040000034C9
:104110002CA00020004870476008002070B5050002
:10412000182003F045F9164904000200280000F0A9
:10413000A9FC10212060280003F058F90121A0609B
:10414000280003F053F9E060012000F027FB050090
:1041500000F028FC28000B4900F074FBFFF712FB6D
:10416000094B25759C46D0231B061B68604463756C
:10417000064BAD0080006060EC50200070BDC04672
:10418000893D0010ED3E0010400000342CA00020BE
:104190000E4B10B50400984217D00021037D0C4A45
:1041A0009B009950006800F0BBFC0021207D00F0CE
:1041B00049FB207D00F0EAFAE06803F037F9A068D7
:1041C00003F034F9200003F031F910BD600800203D
:1041D0002CA00020F0B54E464546DE465746E0B5D9
:1041E00085B0019310AB1B7806000393002399461A
:1041F000984600927268EFF3108B72B61368002B2A
:10420000FCD0BFF35F8F3568AC7B002C3DD06700DE
:104210002B683F19033FDB195A78AA73002A00D193
:10422000EA73B168474A8C4600980199A2181201B6
:104230006244106051600E9991600F99D1604246BE
:104240009A705A701A706B7B9A46002B67D02200C6
:104250001900A8686B6898472A68002852D053460E
:1042600050465B005344D719033BB870D118D35C58
:10427000002B00D07B7053460C706B7354454FD0AD
:10428000F3681B19013B187800E000207368BFF346
:104290005F8F42461A608BF31088002C4FD04B463C
:1042A000002B08D10002204305B0F0BCBB46B2464B
:1042B000A946A046F0BD039B002B3ED00E9B0020DC
:1042C0000F999847030004000D000B4335D00029D7
:1042D0000ADA009A019B121BAB4100920193002B5A
:1042E0000ADB039B994685E700F068FA24184D41E4
:1042F00000940195002DF4DA0123134C5B420093E6
:104300000194EEE753465B005344033BD3189C7083
:10431000D119D25D002A00D05A7053460B706C73CD
:10432000307D009A019B00F0D3FA81460028A7D087
:104330002100306800F048FDA2E70020B4E701202A
:104340004042B1E7FFFFFF0FFFFFFF7FF0B5574689
:104350004546DE464E46E0B50400170083B0984659
:104360004268EFF3108A72B61368002BFCD0BFF3DB
:104370005F8F2668B57B002D3FD06B005B19033B38
:104380009C463268019362445378AB46B373002B6A
:1043900000D1F373A168354B8C464146EB181B01E5
:1043A000634459600C991F6099600D99D96000238E
:1043B000937053701370737B9946002B48D02A007A
:1043C0001900B068736898473268002832D04B46AD
:1043D00048465B004B44033BD1188C460199511869
:1043E0008870D35C002B00D04B7063461D704B4629
:1043F000002073734D4531D12BE0002300269B46EE
:1044000000206368BFF35F8F00221A608AF3108870
:10441000002D28D0002809D15B463002184303B094
:10442000F0BCBB46B246A946A046F0BD207D00F0D8
:10443000D7FAF1E74B465B004B44033B0198D31896
:104440009D701118125C002A00D05A704B460B70F8
:1044500075733A004346207D00F03AFAE3685B1931
:10446000013B1E78CDE701204042D8E7FFFFFF0F58
:1044700070B50400002933D04268EFF3108572B69E
:104480001368002BFCD0BFF35F8F2068CEB2437B54
:10449000B34216D0FF230B405A00D318026894464B
:1044A0006344033B9B78002B0BD12269914219D0C6
:1044B00000206368BFF35F8F00221A6085F31088C5
:1044C00070BDFF230A0A0B40E168D2B28C466344F8
:1044D000013B19789142EBD1310000F075FCE8E71F
:1044E0000020EDE72361E3E7407D7047F0B504006D
:1044F0000D0006267642F717C64636196F4100B5FD
:1045000084B08F4214D811D000F058F932003B002B
:10451000121A8B41002B15DC002B3ED02000290005
:1045200000F080F904B080BCB846F0BD8642EBD9FB
:104530000026002700F042F932003B00121A8B419E
:10454000002BE9DD002302930193154B3200009309
:1045500014483B00FFF73EFE0028DFDB00239846AF
:10456000BC46114A114F7B6A9C4504D8B96A8E42F9
:10457000D4D99C45D2D11168EFF3108072B60B6884
:10458000002BFCD0BFF35F8F1368BFF35F8F4146F2
:10459000196080F3108820BFE5E7002ABED0D1E77C
:1045A000BD3D001060080020340C01200040054093
:1045B00070B5060000F002F9FA2204000D00002395
:1045C00030000021920002F069FE001969410029C3
:1045D00002DBFFF78BFF70BD012001494042F8E785
:1045E000FFFFFF7FF0B5EFF30583CE46474680B56A
:1045F00005000C0085B0002B12D02C4A0020536A15
:104600009C4203D8926A0130AA4204D305B0C0BCD0
:10461000B946B046F0BDE01A421E9041C0B2F5E77F
:10462000234E02930193234B0200009330000B00B2
:10463000FFF7D0FD031EE0DD20BF7168EFF31087A8
:1046400072B60A68002AFCD0BFF35F8FDAB29446D4
:104650003068427B62451DD0FF221A4051008946D6
:1046600001689144884649464144033989780029C4
:1046700013D0F1681B0A88464244013A1278DBB233
:104680009A420FD07368BFF35F8F00221A6087F3DE
:104690001088B2E7FF221A40EBE732699342F1D16A
:1046A0003161EFE7614600F08FFBEBE7004005402A
:1046B00060080020BD3D0010F0B5EFF30582D6463E
:1046C0004F4646461000C0B51038EFF3108872B65A
:1046D000214C2368002BFCD0BFF35F8F012319000E
:1046E00081401E4D1F006963AA461D4D29601D4D66
:1046F0002E78AC463500C5402F402B4209D1BFF380
:104700005F8F276088F31088E0BCBA46B146A846A0
:10471000F0BD5346144D5F6A83005D59AF420ED31E
:10472000124A8E439B5862461670BFF35F8F002279
:10473000226088F31088002BE6D09847E4E70C4B02
:1047400092009C46624413681360BFF35F8F00239E
:10475000236088F31088D7E7280100D00040054087
:104760003C700540EA0F01203C0C0120141600208B
:10477000D03F054010B50100024A0348FEF768FF2C
:1047800010BDC046F8450110E30F012010B501002F
:104790000148FEF7CDFF10BDE30F012000B5054B2A
:1047A00083B001000093002203230348FEF772FF49
:1047B00003B000BD1C460110E30F0120034B596AF2
:1047C0000A00986A596A8A42FAD170470040054047
:1047D00070B504000D00124A536A1900966A536AB4
:1047E0008B42FAD13000190024184D41AB4211D848
:1047F0000ED02B000A494A6A9A42FCD307D1084AD4
:1048000002E0516A994202D1916AA142F9D370BD86
:10481000A642EED9012301246442E5175B42E9E791
:1048200000400540064A536A9942FCD807D1044B20
:1048300002E05A6A914202D19A6A8242F9D37047E1
:104840000040054070B504000D00EFF3108672B60D
:104850001A4A1368002BFCD0BFF35F8F002D1BD0CA
:104860002000FEF7C1FF164981420AD02000FEF762
:10487000C3FF01212000FEF791FF0123A340114A4D
:104880001360114BA400E550BFF35F8F00220B4B68
:104890001A6086F3108870BD0B4BA200D550012220
:1048A000A2400A4920000B7893430B700449FFF79C
:1048B000C1F800212000FEF771FFE5E7280100D0D4
:1048C000B94600103860054014160020EA0F012098
:1048D000F0B54F46D6464646C0B507002C4C616A37
:1048E0000D00A66A616AA942FAD18B4208D805D0A8
:1048F0000120E0BCBA46B146A846F0BDB242F7D9A5
:10490000EFF3108A72B6234801680029FCD0BFF388
:104910005F8F0125BD4020491D4C88460978894696
:104920002943C9B28C46414660460870391D1B4870
:10493000890065630A51B9000B50216A00202942A1
:1049400019D0616A0800A66A616A8142FAD18B4275
:1049500019D801D1B24216D8CC4516D00C4B1F2025
:104960001D625D6301230740BB400D4A1E38136082
:1049700043464A461A70BFF35F8F0022054B1A6008
:104980008AF31088B5E70020F5E70120F3E7C04679
:1049900000400540280100D0EA0F01203C0C012016
:1049A00080E200E0EFF3108C72B60A490B68002B2E
:1049B000FCD0BFF35F8F01238340074A074813628F
:1049C00002789A430270BFF35F8F00230B608CF371
:1049D00010887047280100D000400540EA0F0120F0
:1049E000EFF3108C72B60A490B68002BFCD0BFF3B2
:1049F0005F8F01238340074802781A430270BFF398
:104A00005F8F00220A608CF31088034A136070479E
:104A1000280100D0EA0F01203C60054070B5050078
:104A200014001600002915D00C00002A12D080684E
:104A30006B689847296800280ED073009B196200A4
:104A4000033B1219CB18033A9C7088188A5C002A21
:104A500015D10670200070BD63001B197200033B66
:104A60009219CB18033A9E7088188A5C002A02D1EA
:104A700004703400EEE75A7004703400EAE75A70AC
:104A80000670E7E7F0B5C6460600884600B5102177
:104A90000120170002F0AAFC03210500300002F0FB
:104AA000A5FC43466B600023F4B26B7301332860AE
:104AB0002C73AF60AB73EC73012C06D9421C01332D
:104AC000DBB2137003329C42F9D1FF231E40730006
:104AD0009E190023801903384370280080BCB84613
:104AE000F0BDC04630B583600023CCB243730133C0
:104AF000047342608373C4730D000068012C06D9EF
:104B0000421C0133DBB2137003329C42F9D1FF2106
:104B100029404B005918002340180338437030BD1A
:104B200010B50400006802F081FC200002F07EFC59
:104B300010BDC046F8B5CE46474606000C0080B50D
:104B4000002907D04D0003686D18033D5A195778A6
:104B5000002F04D12000C0BCB946B046F8BD790092
:104B6000C919033988464344597889460021597048
:104B7000517073683A0021008068984733680028B4
:104B800014D042469A18947059195B5D002B00D0DE
:104B900053700F70270049463000FFF7CBFF3900F4
:104BA00002003000FFF73AFF0400D3E742464146D7
:104BB0005D19AF709A185B5C002B00D06B7014709D
:104BC000E9E7C046F0B557464546DE464E46E0B5F5
:104BD0000D006B0001685B19DF1E0400C85D83B027
:104BE0000192CA19002850D043001B18033BCB1870
:104BF0005E78B446002E1AD1019E002E42D0E67B8C
:104C0000002E04D073009B19CB18033B5D70A37B6F
:104C1000002B00D1A573E57300282FD1002353701A
:104C200003B0F0BCBB46B246A946A046F0BD720038
:104C30006244033A89184A78904600224A709146A5
:104C40005A70010032002000FFF7E8FE434682461A
:104C5000002B07D05B0021684344033BCB185A78F4
:104C6000002A16D1424651462000FFF7D7FE2168A0
:104C7000019BCA19002BC2D10028CFD043001B18BA
:104C8000033BCB1800219970C8E7019B002BB6D1DC
:104C9000C4E750008018033809184878834648460E
:104CA0004870587041462000FFF7B8FE59468046CC
:104CB0002000FFF73FFF414602002000FFF7AEFE55
:104CC0008046CFE7F0B557464546DE464E46E0B54E
:104CD00083B00191457B04006B0000685B19DF1E07
:104CE000C15DC219002952D04B005B18033BC318A9
:104CF0005E78B446002E1CD1019E002E44D0E67B87
:104D0000002E04D073009B19C318033B5D70A37B76
:104D1000002B00D1A573E573002931D100232800B1
:104D20005370617303B0F0BCBB46B246A946A046BF
:104D3000F0BD72006244033A801842789046002227
:104D4000427091465A7020003200FFF767FE4346DA
:104D50008246002B07D05B0021684344033BCB18FD
:104D60005A78002A17D1424651462000FFF756FED6
:104D7000019B01002068C219002BC0D10029CDD0B1
:104D80004B005B18033BC31800209870C6E7019BDB
:104D9000002BB4D1C2E750008018033809184878B6
:104DA000834648464870587041462000FFF736FE5B
:104DB000594680462000FFF7BDFE41460200200014
:104DC000FFF72CFE8046CEE770B5040000292CD0FA
:104DD000437B8B422ED005684800401803382818C2
:104DE0008278002A21D053009B18033BEA5CEE181E
:104DF0008A4202D11BE0002A08D053009B18033BD3
:104E0000EB185A788A42F6D142785A700023012270
:104E1000837043702000FFF7D5FE617B0200200005
:104E2000FFF7FCFD6073012000E0002070BD4378B7
:104E30003370EBE701221900FFF7C4FE6073012015
:104E4000F4E7C04630B50C2083B000F0B9F9FEF7A6
:104E5000E1FB00280ED0994B994A1A605A609A607B
:104E6000DA601A615A619A61DA611A62954A5A6285
:104E700003B030BD944CA06700F0F6F90122934BCB
:104E80001A60636C012BFCD10322914B1A608E4A8D
:104E9000936B012BFCD1013301218E4A8E48009384
:104EA000043300F03DF905238C4A009301218C481E
:104EB00000F036F98B4B5A68FF2A02D88022520044
:104EC0005A6080227D4C824B21691201854D1A6007
:104ED000002907D0606901F02DFE431C5800C0185E
:104EE0000338FDD2E0217F4B02201A681140802256
:104EF00052012A43116019684840032101401160A2
:104F000004219A681142FCD08022802192012A4318
:104F100009011160802252005A60734B2361734B68
:104F20005968FF2900D85A600321684A6F4B116005
:104F300002399A681142FCD0E0201A6810408022A1
:104F400052011A43106018684840032101400220B2
:104F5000116066498A681042FCD080229201134396
:104F6000802212011A608022614B52004A60636104
:104F7000604B5968FF2900D85A6080225E4BE16976
:104F800012015C4D1A60002907D0606901F0D2FD62
:104F9000431C5800C0180338FDD2E02255490B6865
:104FA0001A4080235B012B431A60802380229B01DF
:104FB0002B4312011A608022414B52004A60E36188
:104FC0004E4B5968FF2900D85A6080224C4B216A09
:104FD00012014A4D1A60002907D0606901F0AAFD4C
:104FE000431C5800C0180338FDD2E02243490B6827
:104FF0001A4080235B012B431A60802380229B018F
:105000002B4312011A60802380225B004B602C4BE3
:10501000D20223623B4B5968914200D25A608022EF
:10502000394B616A1201374D1A60002907D0606957
:1050300001F080FD431C5800C0180338FDD2E02267
:1050400030490B681A4080235B012B431A60802390
:1050500080229B012B4312011A608023DB024B60EC
:10506000184B6362294B5A68FF2A02D880225200EB
:105070005A608022264BA1691201244D1A60002932
:1050800007D0606901F056FD431C5800C018033872
:10509000FDD2E0221D490B681A4080235B012B439F
:1050A0001A60802380229B012B4312011A60802307
:1050B0005B004B600E4BA361DAE6C0465818002037
:1050C000006CDC021BB70000008000403CB00040D8
:1050D00030B00040002F685900800240008C8647A5
:1050E00000C0024030800040001BB7003C80004000
:1050F000405973075480004054B000406080004025
:1051000060B000406C8000406CB0004048800040BF
:1051100048B00040014B8000C0587047581800202C
:10512000F8B5040021481D0017000E0001F002FD33
:105130000100380001F0FEFC069B29041B03194303
:105140002368002B20DB1A4B1A4DE21853425A41B8
:1051500080235B019C461203174B62441A60174B75
:105160001A601700AB689F43FBD1C022231D920138
:105170001A4321232660A06013602368002BFCDA09
:105180000823E1601360F8BD3F2322681340B34257
:10519000D9D1A3681B051B0D8342D4D1EE22E3684D
:1051A000D20213408B42CED1EDE7C046001BB700C0
:1051B0000040FDBF00C0004000E0004000F00040A3
:1051C0008023024A9B000343D3627047008005405E
:1051D00010B5140080221B4BD2051A6000281AD08B
:1051E0000123194A1843194BDA61194A42401A62DD
:1051F000596298628022134BD2051A601549164AEB
:105200001160E022D2041A60002C07D18022134BD7
:1052100012061A6010BD0D4BD861EBE763011B1B32
:105220009A008023121912015B049A4200D30C4A9F
:105230000C4B1A60054B5A608022084BD2051A604D
:10524000E8E7C04600B00540D3C007B00080054085
:105250002D3FF84FFCFF01000820014000A0054051
:10526000FFFFFF00703B0020AA23064A1B011360CA
:105270002F230549D360054B19605368002BFCDAD6
:105280007047C0460040024000B0FA000060024093
:105290002C4B2D4A70B51A602C4A2D4B2D491A60A3
:1052A00014008B689C43FBD12B4D2C4EB54208D289
:1052B000013E761BB60808CD984723000134B3425F
:1052C000F9D1FFF7BFFD264A214B1A60214A9368A6
:1052D000DB43DB01DD09002BF9D14022214B224CBD
:1052E000224E9A675A671A67DA66B44208D2236870
:1052F0002000002B20D00834FEF738FDB442F6D34E
:105300001B4E1C4CC022A168300002F0ADF8A66014
:10531000FEF72AFAFEF7D4FCFEF7C6FE164C174E2F
:10532000B44208D2013E361BB60808CC98472B0081
:1053300001359E42F9D170BD0834FEF709FDB44233
:10534000D5D3DDE700E00040BFCDFBFEFE7F3C0093
:1053500000F0004000C00040A0120020B012002069
:10536000FFFFFF0100F0014090120020A01200207A
:105370000000002000ED00E0B0120020B812002074
:1053800000BEFDE7094A03001068002805D008495F
:10539000C3188B4207D81360704706480449C318E6
:1053A00010608B42F7D901204042F5E7843A002093
:1053B00000000420EC0F012010B5FFF7E1FFC0460C
:1053C00010B50C0082B01900002A0AD0064B0192D9
:1053D000009302002300054801F00CFB0120FFF7B9
:1053E000CFFF034B1A00F2E7304601104046011090
:1053F000904201100FB400B5084883B002F098F94C
:10540000049B002B07D005A91800019101F012FBA5
:10541000034802F08DF90120FFF7B2FF704601103A
:10542000CC42011010B50148FFF7E4FF804601109F
:105430009A4200D2885470477047C046F8B5574624
:105440004E464546DE46E0B599460A9B07009A4619
:105450000D9B8846934615000B9E9B0710D10C9B15
:105460009E420DD29D1B14000E005D4422004B464F
:10547000013431002020B847A542F7D1B0460B9E39
:10548000002E27D0444675195346AA1B013E985D4D
:1054900021004B46B847002EF6D123002C00984639
:1054A0000D9B9B070FD55B46E51A0C9BAB420AD9B7
:1054B0004646984622004B46310020200135B84729
:1054C0000134A845F6D82000F0BCBB46B246A94638
:1054D000A046F8BD2C00E3E7F0B54F464646D64659
:1054E000C0B584B098460EAB1B78129F994694467F
:1054F0000D9C109B119EBA0725D4002E4BD19C42C7
:1055000000D3BFE001223A4092461F2C00D9B8E0F8
:105510000C9A551E302201E0202C03D001342A556C
:10552000A342F9D85246002A0DD0A6420BD9202C0E
:1055300044D00C9A551E302201E0202C3ED001347C
:105540002A55B442F9D1FA064DD57A053FD4002C3C
:1055500039D10F9B102B00D179E00F9B022B00D18A
:105560008AE030230C9A012413704B46002B3FD065
:105570002D230C9A135501340C9B6246009303971C
:10558000434602960194FFF759FF04B0E0BCBA46C7
:10559000B146A846F0BD012215003D40AA463A4258
:1055A0002FD04A46002A02D10C323A4200D0013EA6
:1055B0009C42BAD21F2CABD9202E27D92024FA0620
:1055C000DAD57A0503D4A3422DD0A6422BD00F9B67
:1055D000102B32D0022B20D0202CCDD030220C9B8F
:1055E0001B191A700134202CC6D04B46002BBFD19A
:1055F0007B070DD43B07BFD520230C9A13550134EC
:10560000BAE79C429FD21F2C00D881E720249AE75A
:105610002B230C9A13550134AEE7202CACD00C9BF5
:105620001B1901343AE0631E012C92D00F9A102A04
:105630002AD0022A2FD01C00D0E7BB060ED4202C83
:105640009AD00C9B1A19013478231370C4E7BB0657
:105650000DD478230C9A01241370BFE7202C00D1BD
:105660008AE758220C9B1B191A700134B4E758239F
:105670000C9A01241370B1E70C9A60330124137063
:10568000ACE7202400265EE7023CBA06E9D40C9A77
:1056900012191C00D8E70C9A9246534462221A70E1
:1056A0009AE7C04610B5002800D110BD01F0F4FF04
:1056B000FBE7C0460B0010B5002802D049681B6804
:1056C000984710BDF0B5DE4657464E464546E0B514
:1056D0009BB09B46249B89469846259B0B900C9239
:1056E0004046424619009A4601F0E5FC002800D0E9
:1056F000D8E0012240465146774B524201F0D6FC99
:10570000002800D0CEE0012240465146734B524261
:1057100001F0B6FC002800D0C4E00022002340467F
:10572000514601F0ADFC002800D0B9E14246534695
:105730000A9209938023289ADB001A400E92289A35
:105740001A4201D1062326930A9A099B1600134395
:1057500000D0C7E0289B002500261B0500D49BE154
:1057600000230D93269A0D9B9A4200DC9FE1D01AEC
:10577000431E26938023289ADB001A430023002728
:1057800028920D93279B0024BB4200D9DC1B0223E7
:10579000289A1A400E92289A134203D07B427B41EA
:1057A0005B421C400D9B002B07D00A9809992A00E8
:1057B000330001F004FC0A900991002200234046C6
:1057C000514601F05DFC002805D08020000684468B
:1057D000099961440991289A414B0B9D1340049308
:1057E000269B0A9A0293099B0394009201934946CF
:1057F0005B4628000C9A00F08BF90400002F62D061
:10580000289B220098061F23C0179843631C9846C4
:1058100049465B466530A8470D9B0025DA179C1862
:10582000DB0F9A465440013F01E0202D13D00AAA15
:1058300094461F23200063440A2101355E1901F0BC
:1058400079F93031317020000A2101F073F9260016
:105850000400092EE9D805230693002304930A3394
:105860000393534605970B9F029312AB0093424656
:105870005B46494638000195FFF72EFE0E9B04005B
:10588000002B20D00C9BC51A279BAB421BD91E00B6
:1058900022005B46494620200135B8470134AE421C
:1058A000F6D810E0289B42460493279B4946039371
:1058B000269B0B9802935346009201935B460C9AE9
:1058C00000F026F9040020001BB0F0BCBB46B24635
:1058D000A946A046F0BDC046FFFFEF7FFFFFEFFFE8
:1058E000FFF7FFFF734B099F9C467800400D604413
:1058F00001F0F4FB704A714B01F07BFB704A714B75
:1059000001F058FB3B03704A1B0B1A4304000D00C7
:10591000300011006D4B002201F047FB6C4A6D4BCB
:1059200001F067FB02000B002000290001F042FBA0
:1059300001F0ECFB0D9001F0D1FB674A674B0400CE
:105940000D0001F056FB0022654B01F033FB01F026
:10595000DDFB644A0600644B2000290001F049FB8E
:10596000040030000D000F9601F0B8FB5F4A604B59
:1059700001F03FFB02000B002000290001F015FBA5
:1059800002000B0006000F0001F033FB32000400A0
:105990000D003B003000390001F00CFB002210909C
:1059A0001191544B2000290001F009FB0022524BB9
:1059B00001F000FB02000B002000290001F0FFFABB
:1059C00000224E4B01F0F6FA02000B0020002900E5
:1059D00001F0F5FA0D008021040032003B000020A8
:1059E000C90501F0E2FA02000B002000290001F0D5
:1059F000E1FA02000B001098119901F0E0FA002280
:105A0000314B01F0D7FA3E4B0F9C9C466444002278
:105A1000230501F0EEFA05000E0002000B000A98C3
:105A2000099901F02DFB00280AD00D9B2800013BAD
:105A300031000D930022304B01F0C1FA05000E0039
:105A4000C6270D992B0063318F42BF4128997F42B1
:105A50000437090500D495E6334300D182E6099C5A
:105A6000284A2100284B0A9801F018FB002808D08A
:105A700000222100254B0A9801F002FB002800D0EB
:105A800070E6269B002B00D17CE60E9B5A1E9341AC
:105A9000269AD31A269375E6002304270D9371E600
:105AA00043460A9380231B065344099342E600238E
:105AB00026935FE601FCFFFFFB799F501344D33F21
:105AC000B3C8608B288AC63F0000F03F0000F83F53
:105AD00061436F63A787D23F71A379094F930A404F
