:020000041000EA
:1000000000B5324B212058609868022188439860DF
:10001000D860186158612E4B002199600221596106
:100020000121F02299502B49196001219960352056
:1000300000F044F80222904214D00621196600F024
:1000400034F8196E01211966002018661A6600F04E
:100050002CF8196E196E196E052000F02FF8012189
:100060000842F9D1002199601B49196000215960AB
:100070001A491B48016001219960EB211966A021F2
:10008000196600F012F800219960164914480160C1
:100090000121996001BC002800D000471248134993
:1000A000086003C880F30888084703B5996A0420EC
:1000B0000142FBD001200142F8D103BD02B5186610
:1000C0001866FFF7F2FF186E186E02BD00000240BE
:1000D000000000180000070000035F00212200005C
:1000E000F4000018222000A00001001008ED00E03C
:1000F00000000000000000000000000074B24E7A12
:1001000000200420F7010010C3010010C5010010F9
:10011000C1010010C1010010C1010010C101001097
:10012000C1010010C1010010C1010010C701001081
:10013000C1010010C1010010C9010010CB01001065
:10014000CD010010CD010010CD010010CD01001037
:10015000CD010010E1C10010CD010010CD01001053
:10016000CD010010CD010010CD010010CD01001017
:10017000CD010010CD010010CD010010CD01001007
:10018000CD010010CD010010CD010010CD010010F7
:10019000CD010010CD010010CD010010CD010010E7
:1001A000CD010010CD010010CD010010CD010010D7
:1001B000CD010010CD010010CD010010CD010010C7
:1001C00000BE00BE00BE00BE00BE00BEEFF3058054
:1001D000103800BEF2EB8871B8320510D432051029
:1001E0003402001090A31AE700201F49086006C8D7
:1001F00081F3088810471D48006800282FD10DA4FE
:100200000ECC002902D000F012F8F9E71849194A7B
:10021000002000E001C19142FCD1174988471749ED
:1002200088471749884700BEFDE701C901C29A42C5
:10023000FBD37047D4320510C0000020BC0E002054
:10024000D04005100000042000000420D04005101C
:10025000001004200010042000000000704709482E
:1002600004F0D8FA0047000008ED00E0000000D0DC
:10027000C00E0020D80C0120992E00109905001006
:10028000BD2F00105756000006005250ABB360530C
:10029000103B011006005250861C0302203B011047
:1002A000060052505422A29D2C3B011005005250D2
:1002B000DE65F468D0400510F8B5C0460648074929
:1002C000091A8B10C90FC91810B5491003D0044B77
:1002D000002B00D0984710BDBC0E0020BC0E0020A3
:1002E00000000000054B10B5002B03D00449054861
:1002F00000E000BFFFF7E2FF10BDC04600000000B5
:10030000189D0020B8350110F0B5DE4645464E4632
:100310005746E0B5002687B005F006F906F038F834
:10032000694B6A4C98466A4B6A4D9B466A4B0393ED
:100330006A4B04936A4B059301F0F6FF22686368E9
:10034000121A8B41002BF7DA80231B01EF58002F84
:1003500055D0BE220021404604F02CFFBE220021D1
:10036000584604F027FF06220021039804F022FFDC
:100370000023049A13707B1E9C46C1235B009C459E
:1003800000DD9C4600230022994600200294E95C8F
:10039000202966D0002A4ED1BD2B6DDD0E00012133
:1003A000894601336345F2DD9C46029C674517D9B7
:1003B000BE2149008C46A24609E0002A2FD1BD2B60
:1003C00002DC44462154013001339F4207D9E95CE5
:1003D0002029F2D10133002001329F42F7D8544640
:1003E0004B46002B07D0049F3E70582E48D0592E04
:1003F0005CD05A2E60D0802300221B01EA5001F00D
:1004000093FF0023374A12184B41802109068B4283
:1004100002D30122344B5242226063608CE7012AEE
:1004200019D0022AD0D1C1246400A342CCDA039CA3
:1004300021540130C8E7012A16D0022AAED1C124C6
:100440006400A3422ED184230E000121FF339C4679
:100450008946029CAAE76345B6DA5C46215401301E
:10046000B2E70020013299E7BE246400A34295DA86
:100470005C462154013094E744462154013090E712
:10048000002105980AF0C2F9184B42461860039BF8
:100490001749009317485B46019704F04FF9164B34
:1004A0001860A8E7039C215401307AE7002200215C
:1004B000002002F08FFC9EE7104804F0ABF9002109
:1004C000030000209847C046142D0020801D002006
:1004D000F42B002000F000201808012074370020C1
:1004E000442E002040420F00FFFFFF7F7C3700209A
:1004F000B83501103C090120C40C01205542000010
:10050000F0B5C64600B5204C0E00A544002934D0F5
:100510001E4B0D0098461F3508AC18AF20002A78F6
:100520004146023404F00AF90135BC42F6D15A239F
:10053000F35E5822B25C16490792727E19A80692A1
:10054000327E0592F27D0492B27D0392727D029218
:10055000327D01925422B25A009208AA04F0EEF8B9
:100560000C4919AA48A804F0E9F848A80EF018FBAD
:1005700048A90200022000F0E5FB002092231B01A5
:100580009D4480BCB846F0BDE0F6FFFFDC350110AD
:10059000E435011064360110F0B5DE4657464E468C
:1005A0004546E0B5A7B0D64813AB12AA11A900F092
:1005B00029FC0A90002803D1D248D14902F01EFD3F
:1005C000139A1299119800F0E1FBE122CE4C002120
:1005D0002000520004F0EEFDE122CC4B0021180077
:1005E00052001D000B9304F0E5FDE122C84B2800EA
:1005F0001968520004F0E4FDE122290020005200B5
:1006000004F0DEFDC34B28009A46C34B9B46C34B08
:100610005A4619000C93C24B06930193C14B0D939C
:10062000009353460EF0BAF9BF4805F067FF05F096
:1006300031FFBE4BBE491800049309F001FEBD4CCA
:10064000002021000AF058FC200000F0E3FABA482C
:1006500005F072FEB94BBA4F1C685D680023059324
:10066000B84B3C607D600F93B74B029403950793A2
:10067000B64BB74E0893B74B9946B74B0E933378AA
:10068000002B00D0BAE001F04FFE029A039B121A31
:100690008B41002B00DAD0E001F046FE3A687B681F
:1006A000121A8B41002BEADA58460EF079FA00282C
:1006B0003FD00123013898435B46844602335A46B3
:1006C000B046079D9C4409971CE00300613B052B45
:1006D00000D8A7E00300413B052B28D83738092E66
:1006E0001DD921006139052900D8A4E02100413934
:1006F00005291CD8373C0301234302322B700135F6
:10070000944514D01078547803002100303B3039E0
:10071000DFB2CEB2092FD8D81800092EE1D80C00CC
:100720000301234302322B7001359445EAD146463A
:10073000099F50460EF034FA00283FD001230138BB
:1007400098435346804602335246B446089D984427
:1007500009971CE00300613B052B00D88AE00300E9
:10076000413B052B28D83738092E1DD92100613986
:10077000052900D886E02100413905291CD8373CDD
:100780000301234302322B700135904514D01078B9
:10079000547803002100303B3039DFB2CEB2092F4C
:1007A000D8D81800092EE1D80C00030123430232E7
:1007B0002B7001359045EAD16646099F069B1B7850
:1007C000372B71D0352B00D195E0332B00D194E03D
:1007D000302B00D1D0E001F0A7FD00235F4A801844
:1007E000594180231B06994202D301205C494042B3
:1007F000337838607960002B00D144E70CF064F85E
:100800008046002800D13AE70123028900210093A5
:100810000300049809F0B4FC4B461860404605F00C
:10082000D5F92CE75738092E00D878E7210061392F
:10083000052900D95AE7573C5DE7059B002B23D0DB
:10084000484B049AD358012B00D125E701F06CFDE9
:100850000023454A801859418023029003911B06CA
:10086000994204D301233E4C5B420293039400233C
:10087000059311E75738092E96D9210061390529CA
:1008800000D978E7573C7BE74C22002113A804F0FD
:1008900091FC00220F9B049813A909F0D3FE0028B5
:1008A00016D10A9B0593F7E6304A0899079805F098
:1008B000FFFD4B461860069B5A4601930D9B0C9911
:1008C00000930B98534603F039FF0E9B186082E7A4
:1008D00001F02AFD0023244A801859418023029008
:1008E00003911B06994200D2D6E601231C4C5B42C1
:1008F00002930394D0E61E4AD7E71E4AD5E7C046C6
:10090000400D030030360110000B01203C0901208E
:10091000F0060020F42B0020142D0020B835011023
:100920007437002018080120494E0000442E002092
:1009300020101100E80600200903001030380110D3
:10094000801D002001050010D42D0020B42C0020B3
:10095000D40C01207C370020C40C01208096980024
:10096000FFFFFF7F6808000080841E000600400033
:100970000400400002002000002296E7014B1868A6
:100980007047C0462809012070B51A4C2378002B07
:100990000ED1E122184D1948290052000EF028F816
:1009A00001232370002804D10121002005F0AEFDB1
:1009B00070BDEFF3108672B605F010FD8021A02007
:1009C0004901400312F0C8FD8022A02029009200B6
:1009D000400312F099FD05F033FD86F310880020E6
:1009E000217805F093FD00220021002002F0F2F9A9
:1009F000DEE7C046D40C01203C090120000B012099
:100A000070B5184C2378002B09D0174B1B78582B46
:100A100006D0002300210020237005F077FD70BD73
:100A200000232370EFF3108572B605F0D7FC802108
:100A3000A0204901400312F08FFD8022A0200B4925
:100A40009200400312F060FD05F0FAFC85F3108877
:100A50000020217805F05AFD00220021002002F03C
:100A6000B9F9DCE7D40C0120743700203C090120DF
:100A700070B51D000C4B9A4200D970BD94B2C122D2
:100A800021005200002004F0E1FF084E220029005E
:100A9000306005F0E7F830680CF090F8306805F049
:100AA00095F800233360E8E7DC050000309D002066
:100AB000F8B51500022948D0032923D08023334EEE
:100AC0000421320000201B010BF0AEFA002D12D0E1
:100AD00030002F4A2F4B7719D1582F4B54189C4672
:100AE000013103786444490501302370490D874280
:100AF000F3D1284BD1502B003200842100200BF081
:100B0000EFF9F8BD8023254C002022001B010BF0DB
:100B10008BFA002D12D0224B1D4A6719D1582300A1
:100B2000204E5018B44601311E7860444905013307
:100B30000670490D9F42F3D1194BD1502B00220072
:100B4000832100200BF0CCF9DBE78026164C360120
:100B50003300220000200BF067FA002D0ED0210098
:100B60000B4A9359661908780131D05401335B055B
:100B70005B0D8E42F7D18021090153502B002200DA
:100B8000822100200BF0ACF9BBE7C04600E8002052
:100B900000F00020081800000810000000E000200D
:100BA000041000000408000000D8002010B5072938
:100BB00000D010BD80230C4C1B0122000539002001
:100BC0000BF032FA80231B01E218032100200BF006
:100BD0002BFA80235B01E218802304211B010020F3
:100BE0000BF022FAE5E7C04600D8002010B59306C6
:100BF00001D1002A03D10022044B1A7010BD00233A
:100C0000002200200BF06CF9F8E7C046D20C01205E
:100C10007047C04610B5040082B0002033490CF084
:100C200089FF852381220121009431480CF05AF973
:100C3000010000200CF0C0FF8523812201210094D7
:100C40002C480CF04FF9010000200CF0B5FF2A49A8
:100C500000200BF083FB010000200CF0ADFF2749C2
:100C600000200BF07BFB010000200CF0A5FF002012
:100C700023490CF0C1FF002022490CF0BDFF22499E
:100C800000200BF06BFB010000200CF095FF1F49CA
:100C900000200BF063FB010000200CF08DFF002012
:100CA0001B490CF0A9FF00201A490CF0A5FF1A49B6
:100CB00000200BF053FB010000200CF07DFF1749D2
:100CC00000200BF04BFB010000200CF075FF002012
:100CD00013490CF091FF002012490CF08DFF124ACD
:100CE000124900200DF002F802B010BD6C36011060
:100CF00088370020A4370020C0370020DC370020D0
:100D00001C07002014070020F837002014380020AA
:100D10000C07002004070020303800204C38002049
:100D2000FC060020F4060020AD0B0010000011505E
:100D3000034B002A02D001221A7070471A70FCE798
:100D4000D10C012010B50F4B1B78002B0FD00123C5
:100D50000D4C237013000A00022809D003280CD080
:100D6000842100200BF0BCF82378002BFCD110BDAF
:100D7000822100200BF0B4F8F6E7832100200BF06D
:100D8000AFF8F1E7D10C0120D20C0120F0B583B00F
:100D900005000E00140000F0F5F9002801D003B0A2
:100DA000F0BD154F01223B0001210097053001F0F5
:100DB000C7FD33002A0000940121104801F0B2FF62
:100DC00021002800714303F07FFD04000C4B00223A
:100DD00000930221042001F0B3FD23000022012131
:100DE0000094052001F0ACFD3B0002220021009799
:100DF000062001F0A5FDD2E7006CDC020080024075
:100E0000001BB700F0B54E4691467D4A45469046D8
:100E1000A0225746DE465200E0B5170042460600C3
:100E20008A4683B000920193009B764A934209D987
:100E3000754A009B9446013F634400930F2FF3D102
:100E400000206EE01D00714B31219C466544280056
:100E500003F03AFD864200D1BCE00724631EB84689
:100E60009B4637002E005D4665433000290003F0A5
:100E70002BFD874246D0A31E9B46022C00D1ADE03D
:100E80002D1B2900300003F01FFD874250D0E31EC8
:100E90009B46032C52D02D1B2900300003F014FD7B
:100EA000874253D0231F9B46042C55D02D1B29006D
:100EB000300003F009FD874259D0631F9B46052C83
:100EC0005BD02D1B2900300003F0FEFC87425CD074
:100ED000062C5ED03000E91F03F0F6FCB84263D068
:100EE000242130000624242503F0EEFC874261D043
:100EF00005239B465D4665433000290003F0E4FC72
:100F00008742B8D10029B6D15D46D346C246019B7F
:100F100052463F49012051435A4611604A461460E7
:100F20001D6003B0F0BCBB46B246A946A046F0BD6A
:100F30000029E9D0E31E9B46032CACD102240425F2
:100F4000B3089F4236D001239B468CE70029DBD0B3
:100F5000231F9B46042CA9D1092130000324092515
:100F600003F0B2FC874225D002239B467BE7002991
:100F7000CAD0631F9B46052CA3D104241025330936
:100F80009F4217D003239B466DE70029BCD0062C57
:100F9000A0D1192130000524192503F095FC8742C2
:100FA00008D004239B465EE7002923D005230624AE
:100FB0009B4658E7AB4635003E0047465946280059
:100FC00003F082FC002900D048E7D3462500BA464A
:100FD000019B9DE7312307249B46EFE735003E0048
:100FE0004746B54200D023E7D3460124C246012537
:100FF000019B8DE7D3460724C2460125019B87E765
:1010000050262F0050F80C0020D1FFFFB0710B00CC
:10101000001BB700094A10B594464024830063447E
:101020001A68C00062408034144080225201134389
:101030001C60034B9C466044416010BD04C00140ED
:1010400000400140074B80009C4660440368C90093
:1010500092000A435A400C231A4080235B01034349
:101060001A60704704C00140084B80009C466044F1
:10107000002905D0802302229B0103431A60704798
:10108000C02302229B0103431A60F8E704C0014019
:10109000D0231B061B6830B50500584243412F2062
:1010A0005B4283430D48EC088446072028408000BB
:1010B000814020000A4D3C3063448000A40041512F
:1010C0001B19002A04D0802292011343196030BDFD
:1010D000C022920113431960F9E7C0463041014034
:1010E00000400140D023F0B5C6461B0698461B6859
:1010F0000C4F9B001600FA5804000D0000B510427A
:1011000009D1290014430D203200FC5000F056F99B
:1011100080BCB846F0BD01F089FF43461B689B00C8
:10112000FA58EEE7F8D7002010B504000D2000F0C3
:1011300035FAD0231B061B6802499B005A58A2436C
:101140005A5010BDF8D700200123D0228340120648
:1011500093629361094A40219446830063441A686C
:10116000C0004A408031114080225201134319606F
:10117000034B9C46052360444360704704C0014014
:1011800000400140024B18688007C00F7047C046FE
:1011900000C00640EFF3108072B6034A1368002BBC
:1011A000FCD0BFF35F8F70472C0100D0BFF35F8F7F
:1011B0000022024B1A6080F3108870472C0100D087
:1011C00070B5EFF3108C72B60D4D2B68002BFCD070
:1011D000BFF35F8F0724CB08C618C05C01230C4007
:1011E000A3401C000440034207D118433070BFF3F2
:1011F0005F8F2C608CF3108870BD100001F0FEFE34
:101200002C0100D0F8B54746CE46884680B5EFF3AE
:10121000108C72B6214D2C68002CFCD0BFF35F8F70
:101220009A422CD8D4080727055D061901241740D7
:10123000BC402C421FD007210127894609E0D40871
:10124000055D06194C4639001440A1400C002942A6
:1012500011D001329342F2D201204042BFF35F8F9E
:1012600000220E4B1A608CF3108800280FDBC0BCE4
:10127000B946B046F8BD254310003570EEE7BFF320
:101280005F8F00232B608CF310880120404243467F
:10129000002BECD0089801F0B1FEC0462C0100D024
:1012A00030B5EFF3108C72B60A4C2368002BFCD0DB
:1012B000BFF35F8F072301220B409A40CD08435DA7
:1012C00093434355BFF35F8F002323608CF3108853
:1012D00030BDC0462C0100D00021044B044ABFF3AE
:1012E0005F8F02C39342FAD17047C046000100D01D
:1012F000800100D0044A1078431CDBB2172B00D9C0
:10130000102313707047C046240700200123834038
:10131000002904D0034A1360034A13607047034A4C
:101320001360FBE780E200E000E100E080E100E024
:1013300001228240034B1B6813405A1E9341D8B2CE
:101340007047C04600E100E001238340014A13607A
:101350007047C04600E200E0024B10309B688000FE
:10136000C058704700ED00E070B50D00EFF3108637
:1013700072B60F4A1368002BFCD0BFF35F8F0D4B82
:1013800010309B6884001B590B4A934203D09D4246
:1013900001D001F04BFE074B9B681D51BFF35F8FDF
:1013A000BFF35F8F0022024B1A6086F3108870BD76
:1013B000240100D000ED00E0CD010010F0B54E4654
:1013C0004546DE465746E0B583B00600009190469C
:1013D000EFF3108B72B6654A1368002BFCD0BFF395
:1013E0005F8F0025624B5D579A46002D00DA79E049
:1013F00052466B005F4C5F19BF000193E319994699
:101400009B79103613705C4BB6009B6899590B1B87
:101410002F2B33D9594B994200D07CE0019B0237E6
:101420009C46574B6544AD006353564BE719043B4C
:10143000DB1B554A1B055B0D651913436B80534B32
:101440000121AB80FF23AB714346EB71009BAB6086
:101450004B460B431900484B9B689951BFF35F8F74
:10146000BFF35F8F0022414B1A608BF3108803B0EB
:10147000F0BCBB46B246A946A046F0BD01200A001A
:101480008243D379434549D9BC464746884607E05D
:101490005800C01880002018C179B94228D902002C
:1014A0000623D356002BF3DA9A46131D9C46414679
:1014B000B846374F484663460438C01A0005324BD9
:1014C000400D1843019B908095715A195346920024
:1014D000A418A37143462F4AE371009B2260A780A2
:1014E000A360B8E701F0A2FD002553465D577FE7F2
:1014F0009A464146131DB84667469C469088043775
:1015000040050015E7196044C01BE0270005400DA9
:101510003F020743CEE701F089FD7FE713001E4934
:101520001B1B5B415943090D154BBD1CE353154B68
:101530006519043B5B1B1B05134D5B0D2B43AC4630
:101540004D466B8065460437131FE719DB1B1B05EF
:101550005B0D1D434B4699714146D97100999D80A1
:10156000996049460B4B0143136074E7240100D096
:10157000D30C01202807002000ED00E0CD01001071
:1015800000A1FFFF5807002000E0FFFF01BDFFFFA3
:1015900001BD000001488047AAAA0000F0B5DE4660
:1015A00057464E464546E0B50C0083B0EFF3108831
:1015B00072B65D4A1368002BFCD0BFF35F8F5B4BA4
:1015C0005B499A68030010339F00D5598D4239D08A
:1015D000A5424AD0574EAA1B2F2A33D80122924641
:1015E000824091464846544A12681040019048464D
:1015F000524A1060BFF35F8FEFF305829346002AD3
:1016000035D0934201D001F011FD2A0053469A4390
:101610009068844208D175E04B005B189B00F3187A
:101620009868A04234D01A00062151560029F3DAF6
:10163000844253D0019B002B26D04A46404B1A606F
:101640003D4B1A60394B9B68DD51BFF35F8FBFF391
:101650005F8F0022344B1A6088F3108803B0F0BC0F
:10166000BB46B246A946A046F0BD0D00EAE72A00F7
:1016700053469A4390688442D6D1062010561300F0
:10168000002809DA0D0031E04A462C4B1A60D9E7F0
:1016900006201856002822DB420011188900741811
:1016A0008A46A1689960E179D971062161569971DC
:1016B000002925DBA488F11A64052415544409196E
:1016C000E0240905490D24022143998013181D4A7D
:1016D0009B001178F31899711070ABE7130059460D
:1016E000002914D1FF3191711749918015490A7869
:1016F0009A71164A9B1B5B415A43120D0A7099E777
:101700001349E2E70620105613000028C4DA114AF4
:101710001149D21A083A5002400D014399800F49ED
:1017200052080A43DA8085E7240100D000ED00E08A
:10173000CD0100102807002000E100E080E100E07A
:1017400080E200E0D30C012001BDFFFFAAAA000047
:1017500001BD00006207002000F0FFFF00F8FFFF5E
:10176000032310B50400074A18409446C0009C4368
:10177000FC3383406444226881409A4313000B4346
:10178000236010BD00E400E070B5EFF30581012493
:101790000443EFF3108C72B6214A1368002BFCD07F
:1017A000BFF35F8F1F4B05001F4AED1A6D416A435F
:1017B000120D1E4D8900AE6852B27658A6421CD05A
:1017C0000621595691421CD012215956914222D0DD
:1017D0001E215956914220D02A2159560324914264
:1017E00010D0134B19781A708171BFF35F8F0022EC
:1017F0000B4B1A608CF3108870BDAB680D4C5C50BD
:10180000EFE700246100091989005B18FF21997135
:1018100009499980E5E70124F4E70224F2E7C0468C
:10182000240100D028070020AAAA000000ED00E053
:10183000D30C0120CD01001001BDFFFF054B064A6E
:101840001360064A136053609360D3601361536161
:10185000936170478080808000E400E004E400E051
:101860001F2110B5091A0248FFF71AFD10BDC04626
:10187000D70C012010B5084B084C82B00100009332
:10188000002205232000FFF7BDFC002801DB1F23F9
:10189000181A02B010BDC04608380110D70C01203C
:1018A00070B504000E001500FFF724FD01002000B4
:1018B00000F006F8A680E580BFF35F8F70BDC046DC
:1018C000024B9C466144890001607047400000342F
:1018D00010B50400FFF70EFD01002000FFF7F0FF38
:1018E000FF232371BFF35F8F10BDC04610B5040006
:1018F000FFF700FD01002000FFF7E2FFFF23A380B8
:10190000BFF35F8F10BDC04683680B4810B5844697
:10191000614462441201090159189B185C684A68C5
:101920000120944201D802D00020C0B210BD1A6834
:101930000B689A42F9D8F7E7FFFFFF0F0A4B1968C7
:10194000EFF3108072B60A68002AFCD0BFF35F8FF5
:101950001B68BFF35F8F00221A6080F3108840BFBE
:10196000002000217047C04624090120F8B55746E1
:1019700045464E46DE46E0B598460CAB1C780DABAE
:101980001B78070091469A460568002C5AD1AC7B1B
:10199000002C3BD0660029683619033E89194B7824
:1019A000AB73002B00D1EB7300238B704B700B706B
:1019B0002B4BE218BB6812019B184A461A6042463C
:1019C0005A600A9A9A600B9ADA6000238B704B7007
:1019D0000B706B7B9B46002B27D022006B6859460F
:1019E000A86898475B465B005B442A68033B002875
:1019F00012D058469619B070D118D35C002B00D085
:101A000073705B460C706B735C450FD0F0BCBB46CB
:101A1000B246A946A046F8BDD3189C709119925DB4
:101A2000002A00D05A705B460B706C734A464346DE
:101A3000387D00F0D9FC051E0AD10E9B002BE5D0A5
:101A40001D70E3E7660029683619033E8919AFE780
:101A50005346002BF1D12100386800F035FFECE748
:101A6000FFFFFF0FF0B5DE4657464E4645460023C2
:101A7000E0B58BB00893684B8200D45800239B4696
:101A8000099000F051FC02000B006068EFF3108A2F
:101A900072B6564601680029FCD0B246BFF35F8F8C
:101AA00021684F7B8C46002F2ED0A5685B49A94644
:101AB00079180901894449460868496805000E00FB
:101AC000AD1A9E41002E5FDD02000B00099800F068
:101AD0008BFC0023002299460023069207930023E3
:101AE00098466368BFF35F8F5A461A608AF310887E
:101AF0004346002B12D10028C3D10BB0F0BCBB462B
:101B0000B246A946A046F0BD002300229946002314
:101B100006920793002300209846E2E7089B494677
:101B200018023843C047626805000E00EFF3108AC0
:101B300072B61368002BFCD0BFF35F8F002E41DB21
:101B40002B00334302D02369002B56D12368D97B65
:101B5000002905D01A68480041185218033A5770F6
:101B60009A7B002A00D19F73DF73E268013FD35D47
:101B70000133D3555B4623616368BFF35F8F5A46D9
:101B80001A608AF310887CE7002E02D1002D00D065
:101B90009AE70021604600F015FE4B461A685B6824
:101BA000069207934B469B6898464B46DB689946DE
:101BB000E368DB19013B1B7808931B020343236195
:101BC00000208EE72369002BC0D0069A079B802156
:101BD000521BB34109068B4202D30122104B5242E1
:101BE00000210491013103914946019141462000B1
:101BF00002970091FFF7BAFEBCE700F095FB2A00C0
:101C0000330012184B41802109068B42E8D3012290
:101C1000034B5242E4E7C046349D0020FFFFFF0F14
:101C2000FFFFFF7F10B5144C6368002B04D00A211E
:101C30001248FFF745FE10BD2300114A102120680D
:101C400000F0D2FC032000F047FB032000F034FC3E
:101C500003200C4900F082FBFFF74CFB0A4B9C462B
:101C600003232375D0231B061B6860446375074B51
:101C700080006060DC60DAE7700700202409012042
:101C800009190010651A001040000034349D00202E
:101C9000004870477007002070B50500182003F059
:101CA00013FA164904000200280000F06DFC102110
:101CB0002060280003F026FA0121A060280003F02C
:101CC00021FAE060012000F01DFB050000F0F4FBAC
:101CD00028000B4900F042FBFFF70CFB094B257570
:101CE0009C46D0231B061B6860446375064BAD0001
:101CF00080006060EC50200070BDC04609190010E3
:101D0000651A001040000034349D00200E4B10B5C1
:101D10000400984217D00021027D0C4B920000680D
:101D2000D15000F07FFC0021207D00F017FB207DCA
:101D300000F0DEFAE06803F025FAA06803F022FA6A
:101D4000200003F01FFA10BD70070020349D002012
:101D5000F0B557464E464546DE46E0B585B00193A0
:101D600010AB1B780600039300239A469846009216
:101D70007268EFF3108B72B61368002BFCD0BFF3C0
:101D80005F8F3568AC7B002C00D16EE067002B685C
:101D90003F19033FDB195A78AA73002A00D1EA736E
:101DA000484AA118B26809015218009801991060B8
:101DB00051600E9991600F99D16042469A705A70A5
:101DC0001A706B7B9946002B00D16BE022006B6888
:101DD0004946A86898474B465B004B442A68033B3A
:101DE000002856D04846D719B870D118D35C002BBC
:101DF00000D07B704B460C706B734C4553D0F3682E
:101E00001B19013B18787368BFF35F8F42461A6055
:101E10008BF310885346002B08D10002204305B0F5
:101E2000F0BCBB46B246A946A046F0BD039B002BC2
:101E300046D00E9B00200F99984703000B433FD0DC
:101E400004000D1E1ADA009A019B121BAB4100928E
:101E5000019380221206934204D301231A4C5B4261
:101E600000930194039B9A4682E77368BFF35F8FE8
:101E70001C608BF3108801204042D0E700F054FA38
:101E80008022001969411206009001919142E9D324
:101E9000E3E7D3189C70D119D25D002A00D05A70A4
:101EA0004B460B706C73307D009A019B00F09CFADE
:101EB00082460028A3D02100306800F005FD9EE78F
:101EC0000020ACE7FFFFFF0FFFFFFF7FF8B557468D
:101ED0004E46DE4645469246E0B5040099464268C5
:101EE000EFF3108772B61368002BFCD0BFF35F8F3F
:101EF0002668B57B002D3DD06B005B19033B9846EF
:101F0000316841444B78B373002B00D1F373334BEA
:101F1000EA18A36812019B1852461A604A465A6092
:101F20000A9A9A600B9ADA6000238B704B700B70E0
:101F3000737B9B46002B36D02A0073685946B068E5
:101F400098475B465B005B443268033B00281FD028
:101F5000D11840468C46594610188170D35C002B2E
:101F600000D0437063461D705B46002073735D456F
:101F70001FD119E06368BFF35F8F1D6087F310887E
:101F800001204042F0BCBB46B246A946A046F8BD7F
:101F900041464046D3189D705118125C002A00D06B
:101FA0005A705B460B70757352464B46207D00F0AD
:101FB0001BFAE3685B19013B1E786368BFF35F8F10
:101FC00000221A6087F31088002802D130022843CB
:101FD000D8E7207D00F08EFAF8E7C046FFFFFF0F3C
:101FE000F8B5040000292FD04268EFF3108572B6CF
:101FF0001368002BFCD0BFF35F8FFF222068CFB2A5
:10200000437B0A40BB4213D003685600B6189B19A5
:10201000033B9B78002B0BD12269914216D0002004
:102020006368BFF35F8F00221A6085F310880CE0AD
:10203000E6680B0AB218013A1278DBB29A42EED186
:10204000390000F041FCEBE70020F8BD2361E6E732
:10205000407D7047F0B504000D0006267642F71764
:10206000C64636196F4100B584B08F4214D811D0DE
:1020700000F05AF932003B00121A8B41002B15DC9C
:10208000002B3ED02000290000F058F904B080BC9D
:10209000B846F0BD8642EBD90026002700F044F98F
:1020A00032003B00121A8B41002BE9DD0023029322
:1020B0000193154B3200009314483B00FFF748FE94
:1020C0000028DFDB00239846BC46114A114F7B6A8B
:1020D0009C4504D8B96AB142D4D29C45D2D111688A
:1020E000EFF3108072B60B68002BFCD0BFF35F8F4C
:1020F0001368BFF35F8F4146196080F3108820BFDB
:10210000E5E7002ABED0D1E73D1900107007002096
:10211000240901200040054070B5060000F004F9D4
:10212000FA2204000D00002330000021920002F08A
:102130007DFF8023001969411B06994202D30120CB
:1021400002494042FFF786FF70BDC046FFFFFF7F98
:10215000F0B5EFF30583CE46474680B505000C0089
:1021600085B0002B12D02A4A0020536AA34203D321
:10217000926A0130AA4204D305B0C0BCB946B04649
:10218000F0BD1B1B5A1E9341D8B2F5E7214E0293B6
:102190000193214B0200009330000B00FFF7D8FDA4
:1021A000031EE0DD20BF7168EFF3108772B60A6886
:1021B000002AFCD0BFF35F8FDAB29446FF2230686A
:1021C0001A40417B61450FD001688946510088461D
:1021D00049469044414403398978002904D1326941
:1021E000934209D1316107E0F1681B0A8A18013A6C
:1021F0001278DBB29A4207D07368BFF35F8F002278
:102200001A6087F31088AEE7614600F05DFBF3E7E4
:1022100000400540700700203D190010F0B5EFF3B5
:102220000582D6464F4646461000C0B51038EFF33B
:10223000108872B6214C2368002BFCD0BFF35F8F4F
:102240000123190081401E4D1F006963AA461D4DE0
:1022500029601D4D2E78AC463500C5402F402B42DD
:1022600015D053465F6A194B8500EB589F4218D32F
:102270006246174B8E43EB581670BFF35F8F0022F8
:10228000226088F31088002B06D0984704E0BFF343
:102290005F8F276088F31088E0BCBA46B146A84635
:1022A000F0BD0C4B92009C46624413681360BFF370
:1022B0005F8F0023236088F31088EDE7280100D0AA
:1022C000004005403C700540D60C01202C0901203F
:1022D000CC290020D03F054010B5034B0100180069
:1022E000024AFEF76DFF10BDCF0C012038380110F7
:1022F00010B5034B01001800FEF7D2FF10BDC04619
:10230000CF0C012010B5064B064C82B001000093A3
:10231000002203232000FEF775FF02B010BDC04667
:102320005C380110CF0C0120034B596A0A00986AEF
:10233000596A8A42FAD1704700400540064A536AFA
:102340009942FCD807D1044B02E05A6A914202D16B
:102350009A6A8242F9D370470040054070B5040084
:102360000D00EFF3108672B61A4A1368002BFCD0EA
:10237000BFF35F8F002D1BD02000FEF7EDFF164945
:1023800081420AD02000FEF7EFFF01212000FEF776
:10239000BDFF0123A340114A1360114BA400E55077
:1023A000BFF35F8F00220B4B1A6086F3108870BD5D
:1023B0000121A1400A4BA200D5500A4B20001A78F7
:1023C0008A4305491A70FFF7E9F800212000FEF75B
:1023D0009DFFE5E7280100D01D2200103860054070
:1023E000CC290020D60C0120F0B54F46D6464646F3
:1023F000C0B507002B4C616A0D00A66A616AA9424C
:10240000FAD18B4208D805D00120E0BCBA46B146CB
:10241000A846F0BDB242F7D9EFF3108A72B622484F
:1024200001680029FCD0BFF35F8F0125BD401F4923
:102430001C4C8846097889462943C9B28C464146D6
:1024400060460870391D890065630A511849B80053
:102450004350216A0020294219D0616A0800A66A07
:10246000616A8142FAD18B4219D801D1B24216D8A1
:10247000CC450BD00B4B1F221D625D6301233A40FC
:1024800093400C4A136043464A461A700120BFF33A
:102490005F8F0022044B1A608AF31088B5E7002092
:1024A000F5E7C04600400540280100D0D60C0120C9
:1024B0002C09012080E200E0EFF3108C72B60A498B
:1024C0000B68002BFCD0BFF35F8F01238340074ACA
:1024D0000748136202789A430270BFF35F8F0023AC
:1024E0000B608CF310887047280100D00040054035
:1024F000D60C0120EFF3108C72B60A490B68002B42
:10250000FCD0BFF35F8F01238340074802781A4352
:102510000270BFF35F8F00220A608CF31088034AB9
:1025200013607047280100D0D60C01203C600540A4
:1025300070B506000D00140000291DD0002A12D02D
:1025400073688068984762006B0012195B193168E4
:10255000033A033B002808D08A189570C818CB5C52
:10256000002B0BD10470280070BDCB189C7088180C
:102570008A5C002A05D105702000F5E753700470CD
:10258000F1E75A700570F7E7F0B5CE4607008946C7
:1025900000B510210120160002F0B4FD0321050052
:1025A000380002F0AFFD4B466B600023FCB26B734A
:1025B000013328602C73AE60AB73EC73012C06D929
:1025C000421C0133DBB2137003329C42F9D1FF236A
:1025D0003B405A00D318C6180023033E28007370EE
:1025E00080BCB946F0BDC04610B583600023CCB2B4
:1025F00043730133426004738373C4730068421CE5
:10260000012C05D90133DBB2137003329C42F9D19E
:10261000FF230B405A00D318C0180023033843701F
:1026200010BDC04610B50400006802F0ABFD2000EC
:1026300002F0A8FD10BDC04670B505000C1E07D005
:10264000630001681B19033BCB185A78002A01D19B
:10265000200070BD500080180338091800204E7803
:102660004870210058702800FFF762FF3100040015
:102670002800FFF7E1FF0600002C20D00028E7D05B
:10268000320021006B68A8689847720063009219B5
:102690001B192968033A033B002808D08A18947054
:1026A000C818CB5C002B00D053700670D0E7CB1855
:1026B0009E7088188A5C002A00D05A70047034001A
:1026C000C6E7C046F0B557464546DE464E46E0B53D
:1026D0000D006F0001687F19033F0400C85D83B0DF
:1026E0000192CA19002850D043001B18033BCB1895
:1026F0005E78B446002E1AD1019E002E42D0E67BB1
:10270000002E04D073009B19CB18033B5D70A37B94
:10271000002B00D1A573E57300282FD1002353703F
:1027200003B0F0BCBB46B246A946A046F0BD72005D
:102730006244033A8A1851788846002151708946CC
:102740005970320001002000FFF7F2FE4346824636
:10275000002B07D05B0021684344033BCB185A7819
:10276000002A16D1424651462000FFF7E1FE2168BB
:10277000019BCA19002BC2D10028CFD043001B18DF
:10278000033BCB1800219970C8E7019B002BB6D101
:10279000C4E7500080180338091848788346484633
:1027A0004870587041462000FFF7C2FE59468046E7
:1027B0002000FFF741FF414602002000FFF7B8FE6E
:1027C0008046CFE7F0B557464546DE464E46E0B573
:1027D00083B00191457B04006F0000687F19033FBF
:1027E000C15DC219002952D04B005B18033BC318CE
:1027F0005E78B446002E1CD1019E002E44D0E67BAC
:10280000002E04D073009B19C318033B5D70A37B9B
:10281000002B00D1A573E573002931D100232800D6
:102820005370617303B0F0BCBB46B246A946A046E4
:10283000F0BD72006244033A82185078804600204E
:1028400050708146587032002000FFF771FE4346F9
:102850008246002B07D05B0021684344033BCB1822
:102860005A78002A17D1424651462000FFF760FEF1
:10287000019B01002068C219002BC0D10029CDD0D6
:102880004B005B18033BC31800209870C6E7019B00
:10289000002BB4D1C2E750008018033809184878DB
:1028A000834648464870587041462000FFF740FE76
:1028B000594680462000FFF7BFFE41460200200037
:1028C000FFF736FE8046CEE770B5050000292CD014
:1028D000437B8B422ED04C0000686418033C0419E3
:1028E000A278002A21D053009B18033BC25CC61873
:1028F0008A4202D11BE0002A08D053009B18033BF8
:10290000C3185A788A42F6D162785A70002301229D
:102910002800A3706370FFF7D5FE697B02002800D2
:10292000FFF706FE6873012000E0002070BD6378A9
:102930003370EBE701221900FFF7C4FEF2E7C0464F
:10294000F0B545464E46DE465746E0B583B0160024
:102950000C9A050088469A4200D973E01A0E9346F5
:102960001B0218000193594600230C9A01F0EAFF5C
:10297000354B6C009C466419A400644463680700EE
:10298000834200D260602B1FDBB29946C0234A46C7
:102990009B012343012A33D9802212011A602B4B59
:1029A000AD0059599A46002907D0586901F08CFFAB
:1029B000013043001B18033BFDD2226873015340D2
:1029C000E0221A4080235B0123431A604A46012A11
:1029D0002BD9802380229B01234312011A60594680
:1029E00000233A000198676001F0ACFF534658514C
:1029F000012003B0F0BCBB46B246A946A046F0BDDC
:102A00004246012AC8D102321A60023AA3681A4229
:102A1000FCD0226873015340E0221A4080235B01FE
:102A200023431A60094AAD0092464246216851404C
:102A300003220A401A60012243469A40A3681A42C0
:102A4000FCD0C6E70020D4E700800040081C00202E
:102A500010B50C2082B000F0B5F9FEF793FB00280A
:102A600010D08B4B8B488B498B4A1860596098600B
:102A7000D960186159619861D961186259625A62C6
:102A800002B010BD854CA06700F0F2F90122844B22
:102A90001A60636C012BFCD10322824B1A607F4ABF
:102AA000936B012BFCD1013301217F4A7F480093B6
:102AB000043300F037F905237D4A009301217D4856
:102AC00000F030F97C4B5A68FF2A02D8802252006D
:102AD0005A608022734B6E4C12011A6021690029E2
:102AE00007D0606901F0F0FE013043001B18033B82
:102AF000FDD2E022704B714819680A400260022240
:102B00001968514001320A40042102609A6811425A
:102B1000FCD080216A4A09011160802252005A606B
:102B2000684B2361684B5968FF2900D85A6003221B
:102B300001215B4B1A60644A93681942FCD0E02380
:102B40001068034061480360126803234A40022171
:102B500013405D4A036093681942FCD080215C4BAE
:102B60000901196080215B4B4900516063615A4B38
:102B70005A68FF2A00D859608022584B12011A6007
:102B8000E169002907D0606901F09EFE0130430031
:102B90001B18033BFDD2E0234F4A11680B405049FC
:102BA0000B6080214F4B090119608021394B49008E
:102BB0005160E3614C4B5A68FF2A00D8596080226B
:102BC0004A4B12011A60216A002907D0606901F09E
:102BD0007BFE013043001B18033BFDD2E023424A39
:102BE00011680B4042490B608021424B090119607A
:102BF00080235B0053608022264BD20223623E4B2F
:102C00005968914200D25A6080223C4B12011A60EE
:102C1000616A002907D0606901F056FE0130430067
:102C20001B18033BFDD2E023334A11680B403449A3
:102C30000B608021334B090119608023DB02536054
:102C4000154B6362304B5A68FF2A02D8802252002B
:102C50005A6080222D4B12011A60A169002907D009
:102C6000606901F031FE013043001B18033BFDD2C7
:102C7000E023254A11680B4025490B608021254B34
:102C80000901196080235B005360124BA361F7E6D2
:102C9000081C0020006CDC021BB700000080004014
:102CA0003CB0004030B00040002F68590080024026
:102CB000008C864700C002403080004030900040C9
:102CC00030A00040001BB7003C8000403C9000401A
:102CD0003CA00040405973075480004054B000406D
:102CE0005490004054A000406080004060B000401C
:102CF0006090004060A000406C8000406CB00040DC
:102D00006C9000406CA000404880004048B00040FB
:102D10004890004048A00040014B8000C0587047D8
:102D2000081C0020F8B5040021481D0017000E0003
:102D300001F0CAFD0100380001F0C6FD069B290420
:102D40001B0319432368002B20DB1A4B1A4DE21892
:102D500053425A4180235B019C461203174B624445
:102D60001A60174B1A601700AB689F43FBD1C02253
:102D7000231D92011A4321232660A060136023685B
:102D8000002BFCDA0823E1601360F8BD3F232268C2
:102D90001340B342D9D1A3681B051B0D8342D4D184
:102DA000EE22E368D20213408B42CED1EDE7C0465B
:102DB000001BB7000040FDBF00C0004000E0004025
:102DC00000F000408023024A9B000343D362704717
:102DD0000080054010B580241C4BE4051C600028D1
:102DE0001AD001231A4C18431A4BDC611A4C444088
:102DF0001C62596298628021144BC90519601748FA
:102E000017490860E021C9041960002A07D180220F
:102E1000144B12061A6010BD0E4BD861EBE753013C
:102E20009B1A9B009A18802312015B049A4209D2D4
:102E300013000D490B60074B5A608022094BD205E5
:102E40001A60E8E7094B1A00F3E7C04600B00540F6
:102E5000D3C007B0008005402D3FF84FFCFF0100B4
:102E60000820014000A0054070380020FFFFFF004F
:102E7000AA23064A1B0113602F230549D360054B83
:102E800019605368002BFCDA7047C04600400240CE
:102E900000B0FA00006002402B4B2C4A70B51A605B
:102EA0002B4A2C4B2C491A6014008B689C43FBD195
:102EB0002A4D2B4EB54208D2013E761BB60808CDEE
:102EC000984723000134B342F9D1FFF7C1FD254AE9
:102ED000204B1A60204A9368DB43DB01DD09002B9D
:102EE000F9D14022204B214E214C9A675A671A672C
:102EF000DA66B44208D2236820000834002B1FD0C1
:102F0000FEF7F4FCB442F6D31A4C1B4EC022B16853
:102F1000200002F055F9B460FEF7DEF9FEF78EFCF2
:102F2000FEF780FE154C164EB44208D2013E361B09
:102F3000B60808CC98472B0001359E42F9D170BDE8
:102F4000FEF7C6FCD5E7C04600E00040BFCDFBFE63
:102F5000FE7F3C0000F0004000C00040A40E0020B6
:102F6000B40E0020FFFFFF0100F00140A40E00207E
:102F7000940E00200000002000ED00E0B40E0020C0
:102F8000BC0E002000BEFDE7094A030010680028BF
:102F900005D00849C3188B4207D81360704706480C
:102FA0000449C31810608B42F7D901204042F5E76D
:102FB0008437002000000420D80C012010B5FFF752
:102FC000E1FFC04630B50D0083B01900002A0BD0D8
:102FD000074B084C0192009302002B00200001F0E7
:102FE000D3FB0120FFF7CEFF034B1A00F1E7C046E9
:102FF00070380110803801102CBB04100FB400B5DC
:10300000084883B002F0AAF9049B002B07D005A959
:103010001800019101F0D8FB034802F09FF901204C
:10302000FFF7B0FFB038011068BB041010B50148BD
:10303000FFF7E4FFC03801109A4200D2885470476D
:103040007047C046F8B557464546DE464E46E0B5A1
:1030500098460A9B06009A460D9B0F009346150062
:103060009B0710D10B9B0C9A93420CD213005C4629
:103070000B9A9D1A5D4422004346013439002020FA
:10308000B047A542F7D10B9C6319002C09D01D0055
:1030900053462A1B013C185D39004346B047002CBB
:1030A000F6D10D9B9B070ED55B46EC1A0C9BA342F9
:1030B00009D999462A004346390020200134B047F7
:1030C0000135A145F6D82800F0BCBB46B246A9465A
:1030D000A046F8BDF0B54F464646D646C0B584B0CA
:1030E00098460EAB1B7894469946129B0D9C109FF8
:1030F000119E9A0724D4002E6AD1BC4220D201220C
:103100001A409246202C00D1D2E00C9A551E302253
:1031100001E0202C30D001342A55A742F9D852467C
:10312000002A0DD0B4420BD20C9A551E3022202C0E
:1031300002D126E0202C63D001342A55B442F9D1C3
:10314000DA0634D55A0564D4002C5ED10F9A102AC1
:1031500000D197E0022A00D1A8E030220C9C227016
:1031600001244A46002A5ED15A0700D483E02B226C
:103170000C9D2A5501341CE05246002A02D0202E14
:103180003ED92024DA0614D55A0512D4202F00D1B6
:10319000A1E0202E3DD120261F2234000F9D102DAE
:1031A00000D18BE0022D52D030250C9FBD54202C35
:1031B000D7D103930C9B6246009302964346019439
:1031C000FFF740FF04B0E0BCBA46B146A846F0BDE8
:1031D000012215001D40AA461A4229D04A46002A5B
:1031E00039D10C321A4236D1BC429BD2202C00D0AD
:1031F0008BE710221A40202EC3D8002AA2D1D8E78C
:103200002024DA06D5D55A0503D4A74225D0B442E6
:1032100023D00F9A102A25D0022A14D0202CC8D0EF
:1032200022000134C0E72D220C9D2A550134C0E74D
:10323000BC4200D384E7202C00D066E710221A405D
:10324000002AE0D1B5E7202CB3D02200013462255A
:103250000C9FBD54E2E7013EC6E7621E012C00D17F
:1032600074E79BE79A0616D4202CA2D078220C9DF6
:103270002A550134D2E71A079BD520220C9D2A55E6
:10328000013496E79A060FD478220C9C22703022E3
:103290006270022465E7202C00D18AE758250C9A39
:1032A000121915700134B9E75822EEE76222ECE7F3
:1032B000102255461A40002D9FD1C1E7023C9D06C1
:1032C00004D478250C9F3D551400A9E758250C9F80
:1032D0003D551400A4E71F2260E7C04610B5002842
:1032E00000D110BD01F0EEFFFBE7C0460B0010B5AA
:1032F000002802D049681B68984710BDF0B55746B2
:103300004E464546DE46E0B599B08246894690462F
:103310000893229A239B1000190001F096FD0028C3
:1033200000D0CDE0229823990122D94B524201F0DE
:1033300087FD002800D0C3E0229823990122D54BB5
:10334000524201F067FD002800D0B9E0229823998D
:103350000022002301F05EFD002800D0F1E1229E52
:10336000239F8023269ADB001A400D92269A1A4248
:1033700001D1062324938023269A1B011A403B0087
:1033800093460996334300D0B3E0002A00D0C2E14F
:10339000002300240A930B94002304250993259B02
:1033A0000024AB4200D95C1B0223269A1A400C92DF
:1033B000269A134203D06B426B415B421C40099B2F
:1033C000002B07D00A9A0B9B3000390001F0C1FC9A
:1033D00006000F00229823990022002301F01AFD15
:1033E000002803D0802109067B181F00269AAA4BCB
:1033F000009601971340089E0493249B0394029324
:10340000424633004946504600F0AAF90400002D18
:1034100067D02020269A4946024013005A42534161
:103420005B42621C18400A92330022004530D047AC
:10343000099A6F1ED317D4185C40D30F9B46002502
:1034400001E0202D13D008AA94461F2320006344D6
:103450000A2101355E1901F037FA30313170200050
:103460000A2101F031FA26000400092EE9D80523CB
:103470000693002304930A3303935B46089E02934A
:1034800010AB0A9A009349463300504605970195C0
:10349000FFF720FE0C9A0400002A22D04246851A2B
:1034A000259AAA421DD9B046574616002200434627
:1034B000494620200135B8470134AE42F6D810E025
:1034C000269B42460493259B49460393249B5046E2
:1034D0000293229B239C00930194089B00F040F9E7
:1034E0000400200019B0F0BCBB46B246A946A04675
:1034F000F0BD6A4B78009C46400D604401F0B8FC7A
:10350000674A684B01F03FFC674A684B01F01CFCBE
:10351000674A3B031B0B1A4304000D000998110076
:10352000644B002201F00BFC634A644B01F02BFC5E
:1035300002000B002000290001F006FC01F0B0FCA5
:10354000099001F095FC5E4A5E4B04000D0001F00D
:103550001AFC00225C4B01F0F7FB01F0A1FC5B4A76
:103560005B4B29000C90200001F00DFC04000C982E
:103570000D0001F07DFC574A574B01F004FC02009E
:103580000B002000290001F0DAFB04000D0002000E
:103590000B000A940B9501F0F6FB04000D000A984D
:1035A0000B9902000B0001F0CFFB00220E900F914F
:1035B0004A4B2000290001F0CCFB0022484B01F0CF
:1035C000C3FB02000B002000290001F0C2FB002217
:1035D000444B01F0B9FB02000B002000290001F070
:1035E000B8FB0A9A0B9B0D0080210400C90500203E
:1035F00001F0A5FB02000B002000290001F0A4FB54
:1036000002000B000E980F9901F0A3FB0022284B3B
:1036100001F09AFB344B0C9C9C4664442305002229
:1036200001F0B1FB04000D0002000B003000390076
:103630000A940B9501F0EEFB00285DD123002A00CF
:10364000C625099963318D42AD4159466D42043515
:10365000002900D1A3E6134363D030003900234A88
:10366000234B01F0E5FB002807D000223000390091
:10367000204B01F0CFFB002853D1249B002B00D11D
:103680008DE60D9B5A1E9341249AD31A249386E605
:10369000FFFFEF7FFFFFEFFFFFF7FFFF01FCFFFFE3
:1036A000FB799F501344D33FB3C8608B288AC63F31
:1036B0000000F03F0000F83F61436F63A787D23FEF
:1036C00071A379094F930A400000E03F1655B5BB3E
:1036D000B16B0240EF39FAFE422EE63F00002C406B
:1036E0000000244000001840FF0300002D431CEBA5
:1036F000E2361A3F80842E41099B0022013B099348
:103700002000164B290001F024FB0A0001000300F1
:103710000A910B9294E7002300240A930B94002350
:103720000993249A099B9A4214DDD31A013B2493EE
:103730008023269ADB001A43002300252692099352
:103740002DE6802212069446229B1E00239B634492
:103750001F0006E600232493EAE7C0460000244049
:10376000F0B54546DE464E465746E0B595B08B4629
:10377000904699461E9A1F9B0A9019001000209DA2
:1037800001F063FB002800D0B0E11E981F990122D0
:10379000C74B524201F03EFB002800D037E11E9893
:1037A0001F990122C34B524201F04AFB002800D06E
:1037B000A7E01E981F990022BF4B01F041FB002893
:1037C00000D088E01E981F990022BC4B01F022FB1C
:1037D000002800D07FE01E981F990022002301F0EE
:1037E00019FB002800D0FAE000230B938023229CD1
:1037F000229ADB001C401A4200D102E1092D00D8B8
:103800007EE106A98C462C00172200233021093CBA
:1038100062440133D154EF1A202B00D132E1A3428C
:10382000F7D10022A44B069207931E981F9901F02E
:1038300037FB050001F01CFB02000B001E981F99CE
:1038400001F07DFA069A079B01F09DFA0890099114
:1038500001F04AFB060001F007FB02000B0008988C
:10386000099901F06CFA0022954B0890099101F03A
:10387000E7FA002800D1D2E00136300001F0F4FA76
:10388000069A079B01F0D4FA002801D000260135E2
:10389000AA46002F00D098E0280001F0E9FA0200C3
:1038A0000B001E981F9901F04AFA854B0022060072
:1038B0000F0001F0AFFA0CAB9A46002845D1002268
:1038C000300039007E4B01F0BBFA00283DD1EB07F8
:1038D0003BD5013539E0229B42460493219B594652
:1038E00003930A981E9B1F9C0295009301944B46DC
:1038F000FFF704FD15B0F0BCBB46B246A946A04692
:10390000F0BD229B5B0767D403226E4B2299019284
:10391000039121990291009342464B4659460A98D9
:10392000FFF790FBE6E706AA9446172328006344B6
:103930000A2101341E1900F09FFF30312800317038
:103940000A2100F099FF051E76D0202CEBD103232D
:10395000229A1340012B1DD1219B002B1AD00B9BC7
:10396000002B00D0BBE0229A0C33134200D0B6E00B
:10397000219BA34200D887E006AB9C461722302348
:10398000624404E02199013413558C4259D0202C13
:10399000F8D12024229B01940393219B0293534648
:1039A000B9E706AA944617230A216344300001347C
:1039B0001D1900F089FF3031297030000A21013FC4
:1039C00000F082FF092E46D90600202CE9D1554689
:1039D0000CAB20249A46B8E704223B4B96E71E9A8C
:1039E0001F9B0020002101F0AAF901230B938023E3
:1039F000229C229ADB001E901F911C401A4200D08C
:103A0000FCE60022314B0627069207930DE7229B26
:103A10000393219B0293042301932D4B7BE7002208
:103A200008980999264B01F0F5F9002800D02FE7F6
:103A3000002E4FD101362BE70323229A1340012B8E
:103A400068D0202CA6D00B9B002B1FD02D235246D4
:103A5000135501349EE75546202CB9D030223B192E
:103A6000002F4BD0172006A9013409180A55202C25
:103A7000AED09C42F6D10CAA92462E2251465C1C36
:103A8000CA5462E72024CCE6202C83D0229B5B071B
:103A900008D4229B1B0700D47CE7202352461355F1
:103AA000013477E72B2352461355013472E7C046A1
:103AB000FFFFEFFFFFFFEF7F65CDCD4165CDCDC1AE
:103AC0000000E03FD4380110CC38011080842E4132
:103AD000DC380110F30700D4DAE60136D8E6219B82
:103AE000013B2193A34200D946E7AAE7229B039317
:103AF000219B029303230193084B0CE72300BAE7B1
:103B0000074BEA009B185C681B682F00069307941C
:103B100000248AE6219B002B93D020E7D83801109F
:103B2000803A0110F0B54546DE4657464E46E0B5B0
:103B3000A1B01D002A9B90460B93D04AD04B8346E0
:103B40008A461A60002900D1A4E10023287899460A
:103B5000002800D1A6E1CB4B5E460993CA4B4C46E8
:103B6000D34647460D930AE0631C984622003B006B
:103B70005946B04744462878002800D1CDE00135A9
:103B80002528F1D108239A46043B9946023B9846E2
:103B9000013B00229C460C942878691C0300203BC2
:103BA000DBB2102B03D8099C9B00E3589F4603000F
:103BB000303B0C9C0A92092B7FD9002398462A2877
:103BC00000D1C1E000239A462E2800D190E00300E6
:103BD000683BDBB2122B1ED8AC4A9B00D3589F46E1
:103BE00063460D001A43D7E743460D001A43D3E757
:103BF0004B460D001A43CFE710230D001A43CBE7C5
:103C000053460D001A43C7E780235B000A9A687881
:103C10001A430A9201310D0067280AD82428A3D933
:103C20000300253BDBB2422B9ED80D9A9B00D35854
:103C30009F4601006939C9B20F2995D801238B40ED
:103C40009C46934B994663464A4613400C93624602
:103C50004B461A4200D05EE20A2900D124E107292E
:103C600082D10B9B02CB9846002900D19BE12120F9
:103C70000A9A0243914610AB9C461F220F234046EE
:103C800062440B959C46A04615000C9B0A9002E0EE
:103C9000202B0CD0110064460C4020003730092C3A
:103CA00000D807380133E8540A090F29F0D80C93DB
:103CB0000A9B44460B9D984685E1002398460A9B43
:103CC00045469C4600E00131AB005B195B001D18C6
:103CD0000878303D0300303B092BF4D963460A9342
:103CE0000023A8469A460D0001312E2800D06EE729
:103CF00080200A9AC00002430A923022524294461F
:103D000068780B0084446246092A00D82EE12A28EC
:103D100000D13DE10D00013159E7DA46A146B34635
:103D2000B846C84503D801235B42434499464346FD
:103D30004A4651460020D847200021B0F0BCBB467F
:103D4000B246A946A046F0BD0B9B04CB9046002A84
:103D500004DB68780B930D00013133E70A9A2838A9
:103D600002430A9242465242687890460D000B93F5
:103D7000013127E7672800D1C7E1472800D114E2C5
:103D8000452800D116E20A9A0721049242460B9B6D
:103D90000392073352468B43190002920CC930003C
:103DA000009201930B9122003B005946FFF7A6FABF
:103DB0000400E0E680239B0028E76878682800D1AB
:103DC0001BE280230A9A01311A430A9223E768789A
:103DD0006C2800D109E280230A9A5B001A430A92F8
:103DE000013118E7462800D18AE10A9A0721049296
:103DF00042460B9B0392073352468B4319000292B3
:103E00000CC93000009201930B9122003B005946EF
:103E1000FFF7A6FC0400AEE6631C984622003B00B8
:103E200059462520B0474446A5E60B9B04330C9326
:103E3000631C99460A9B9A0700D4E7E10B9B22007A
:103E4000187859463B00B04743464444012B00D8FC
:103E5000B8E22B00B84625005F464C469946220042
:103E60004346013439002020B047AC42F7D12C0042
:103E7000BB464D4647460C9B0B937CE6253B00100A
:103E800068380020E4380110743901102839011015
:103E900041900000DC4B28789B460023994600287F
:103EA00000D058E600243CE70B9B02CB12930B7822
:103EB0009C4618005346002B00D09CE0002812D0EE
:103EC00002235B420133994689444A460B008946E6
:103ED000110001E08B4203D05A780133002AF9D156
:103EE00049465B1A0C938023DB0099460A9A1340DB
:103EF0000B934B461A4204D00C9B534501D95346B1
:103F00000C93022399460A9A13400A934B46134294
:103F100000D1B5E16346002B00D197E10B9B002B4C
:103F200000D14CE1D1460B1B9A462B00A1444D46D3
:103F30002200B9465F469B4609E04B463900541CB7
:103F4000B0475346185D002800D158E12200954241
:103F5000F3D15B46BB464F46A9461D004C460A9B23
:103F6000002B00D072E1129B0B9304E655460A9A8F
:103F7000A9004919490001330D181878303D010096
:103F800030390929F4D9AA460A921D00591C1EE6A7
:103F90000B9BA87804CB0235D143C9170A4092463F
:103FA0000B93691C13E60A9B10211A008A43100028
:103FB00011310843814680201A00C00002401100E0
:103FC000034200D157E64B4608220693534605921A
:103FD00008320392002204930C9B0292019318ABC7
:103FE0002200009359463B003000FFF773F8434628
:103FF00004000B93BFE5002800D174E75346013B52
:1040000060E7622800D1DFE1582800D1ECE10A998D
:1040100080230A00DB001A4010000A00194200D178
:10402000BDE111239A430C920C9A802311009B004E
:1040300019408C461A4200D046E1802311005B00F3
:10404000194089460B9904310A911A4200D08FE237
:1040500013005B0600D59EE113001B0600D426E387
:104060000B9B00229B5ED9175A184A4092B2D90F77
:104070000B91002B00D177E2100010AA9446424623
:104080001F23129252466344AA4614944D460400DC
:10409000B946B0461F00139201E0202D0FD020003A
:1040A0000A2100F011FC01357E19303131702000F9
:1040B0000A2100F009FC26000400092EEDD8129B0D
:1040C00046469846139B4F46A94655469A46149C29
:1040D0000C9B069343460593534604930A2303938C
:1040E0000B9B02934B46019318AB22000093594659
:1040F0003B003000FEF7EEFF0A9B04000B933AE50D
:1041000020230A9A1A430A926FE680230A9A1B0117
:104110001A430A9237E6782800D0AFE10A98802344
:104120000200DB001A4011000200184200D1D0E268
:104130000D239A43100003330A93802302009B004F
:104140001A409446184200D0ACE1802302005B0084
:104150001A4091460B9A04320C92184200D04AE25F
:10416000430600D493E20B9B1B780893002B00D0EE
:104170004BE110339843002900D146E100239946D2
:1041800043460593534604930A9B069003930023EA
:1041900002934B46019318AB2200009359463B0013
:1041A0003000FEF797FF040065E680230A9A1B01A2
:1041B0001A430A9220230A9A1A430A92E3E50B1B38
:1041C0009A460C9B99462B005D469B4622003B007D
:1041D0002900B04753460134185D0028F6D14B46FC
:1041E0000C935B46AB461D00B9E6C0239B000A9AC0
:1041F000A8781A430A92E91C0DE5C023F7E75D464B
:10420000BB464F46ABE6C046413000104346012B4B
:1042100000D8D1E0631E4344B9461D005F46A24664
:104220008B4622004B46013439002020B047AC4277
:10423000F7D15D46BB464F46A14654460B9B4A46C6
:10424000187859463B004444B04714E60C9BA146FD
:10425000984500D887E64444E41A2B00B846250068
:104260005F464C46994622004346013439002020DF
:10427000B047AC42F7D12C00BB464D46474672E6EC
:104280000C98804500D81CE243461A19131A994627
:104290002B004D46B9465F469B460C9122004B468B
:1042A000013439002020B047AC42F7D143460C9985
:1042B00001330C930B785D469C46BB464F466046E7
:1042C000002800D02AE64EE607220B9B07339343D3
:1042D000013294469C4462460B920CCBD90F0A9152
:1042E000110019435FD0D9171191109151400E91CF
:1042F000119959400F910E980F99109A119B801A9D
:1043000099410E900F9110AA002394464246994677
:10431000129252461F336344B046AA464E46149446
:10432000B9460E9C0F9D1F00139201E0202E10D065
:10433000200029000A22002300F004FB013630325D
:104340002B00BA550D0022000400002BEED1092AE3
:10435000ECD8129B4F46B14646469846139B0E94A6
:104360000F9555469A46149C0C9B0693434605931D
:10437000534604930A2303930A9B02934B460193EB
:1043800018AB2200009359463B003000FEF7A2FE16
:104390000400FFF7F0FB0B9B1B781A0067E6102365
:1043A0009A430C9240E6002399460028DCD1002273
:1043B00000230E920F93A6E70B9B22001878594614
:1043C0003B00B0474C4656E50A9880230200DB00CC
:1043D0001A401100184200D15FE102000D239A43F8
:1043E0000B3B10000A93A8E60A9880230200DB002A
:1043F0001A4011000200184200D166E10D2320206E
:104400009A43033310430A9397E66123820600D54B
:104410004123DBB20A3B0B93434610A91F228C4673
:10442000129353466244AA46149415974C4680460C
:10443000B14617000A9E089D139308E03033DBB2A3
:1044400001343B55B5420ED3202C0CD00500310071
:10445000280000F039FACBB20929EFD90B9A94461B
:104460006344DBB2ECE7129B40469846139B4E46F2
:104470005546A1469A46149C159F81E66F2800D0A8
:1044800037E10A990C230A009A43802310000A009E
:10449000DB001A4011000A9A1A4200D021E10823D9
:1044A0000A934AE60B9AFA3BFF3B07329A430133E1
:1044B0009C46944463460B931368526808931343D5
:1044C00012921A1E05D100231032994690430029FA
:1044D00041D16122810600D54122D2B20A3A0C9222
:1044E0004246002310A9139252468C4699461492D4
:1044F0001F330A9A6344AA46159417964C46904671
:10450000B946089E1F00129D16900AE03032D2B2C2
:10451000002301343A55AB4211D0202C11D00600B3
:104520000D00424600233000290000F00BFAD2B201
:10453000092AEBD90C9B9C466244D2B2E8E7B0450D
:10454000EBD9139B55469846149B4F469A46A14675
:104550001698179E159C43460593534604930A9B51
:1045600006900393002308E7002800D0B0E584E517
:104570000B9B1B68DA0F1100002B00D194E0DA17B7
:104580009818504010AA914642461F231292524654
:104590004B44A046AA4614970400B14665461F0046
:1045A0000B91139201E0202D0FD020000A2100F082
:1045B0008BF901357E193031317020000A2100F06D
:1045C00083F926000400092EEDD8129B4446984634
:1045D0000B9BAC461900139B55464E469A46149FBA
:1045E0000C9B0291069343460593534604930A237A
:1045F0000393634677E50B9B1B680893002B03D15D
:1046000010339843002937D16123820600D5412316
:10461000DBB20A3B0B93434610A989461F22129333
:1046200053464A44AA46B1461494159764468046B8
:104630001700089D0A9E139308E03033DBB2013463
:104640003B55B5420ED3202C0CD00500310028007C
:1046500000F03AF9CBB20929EFD90B9A944663449A
:10466000DBB2ECE7129B40469846139B55464E46FC
:104670009A46A446159F149C4346059353460493BB
:104680000A9B0690039300230293634682E5030688
:1046900013D50B9B1B88089368E502000C239A43F3
:1046A0000A3B10000A9348E5002899D16AE70B9B62
:1046B0001B68D9175A184A40D9E40B9B1B6808930A
:1046C00054E5030001330C93F9E520230A9A1A43B9
:1046D0000A920C230A9A00219A43043310000A9389
:1046E0002BE50A9B0C9308230A930D230C989843FF
:1046F00023E510230A9A9A430C9269280AD10A9951
:1047000080230A00DB001A4010000A00194200D181
:104710008AE486E40A991C230A009A438023100045
:104720000A00DB001A4011000A9A1A4202D10A2339
:104730000A9302E50A230A93D7E7C0460EB4012282
:1047400030B584B007AC08CC064D010000942800B9
:1047500052420394FFF7E6F904B030BC08BC03B042
:104760001847C0463930001000B585B003910121CB
:1047700002900093034813004A4202A9FFF7D2F9BE
:1047800005B000BDED3200100FB430B50C4985B056
:1047900008AA08CA0D680392002D0CD000920122CD
:1047A000084C5242200002A9A847012005B030BCA5
:1047B00008BC04B01847180000F0D0FD0020F5E751
:1047C00068380020DD32001010B5094A0300146873
:1047D00084B0002C08D0012200910648524203A95F
:1047E000A047012004B010BD00F0B8FD0020F9E79B
:1047F00068380020DD32001001480421014B1847C1
:10480000A007002035480010014B9B6818470000A6
:10481000A0070020142310B50100188804331B885A
:10482000984710BD162310B50100188802331B8865
:10483000984710BDF8B54746CE4680B50F1E19D033
:1048400014239946043304000025012698464B465C
:104850001888434621681B88984701C4431E984125
:10486000013540420640AF42F1D13000C0BCB946EC
:10487000B046F8BD0126F8E7124A936F9B0815D29F
:104880009066D166002905D0FFE7FFE7FFE7516F8B
:10489000106F704704B580210906C21751400028E7
:1048A00000D0C8430EF040FE002104BDF0B5146EE8
:1048B000556E576F166FFFF7E3FF1466556657671F
:1048C0001667F0BD000000D0114A936F9B0813D209
:1048D00010665166002905D0FFE7FFE7FFE7516F3B
:1048E000106F704704B5002801D00020C0430EF0BF
:1048F0001BFE002104BDC046F0B5146E556E576F07
:10490000166FFFF7E5FF1466556657671667F0BD2B
:10491000000000D094464A4A926F9208624601D243
:1049200028E0C046F0B5464E346E756E776F366F30
:1049300000F020F89446424A146655665767166799
:104940006246F0BD94463E4A926F9208624601D29A
:1049500054E0C046F0B53A4E346E756E776F366FE0
:1049600000F04CF89446364A146655665767166749
:104970006246F0BD002B24DB11D000293EDA00B5E1
:10498000C943404200D1013100F038F8C9434042E8
:1049900000D10131DB43524200D1013300BD002A76
:1049A000EBD1002801D1002905D00020C90FC9078B
:1049B00001D1C043410800B50EF09EFD0022002346
:1049C00000BD00B500290ADBDB43524200D10133B0
:1049D00000F014F8C943404200D1013100BDC94381
:1049E000404200D10131DB43524200D1013300F09B
:1049F00005F8DB43524200D1013300BD002923D129
:104A0000002B18D1002A0CD0BC460D4F38667A66B0
:104A100000210023FFE7FFE7FFE77A6F386F674663
:104A20007047002801D00748010000B50EF064FD72
:104A30000022002300BD02000B000020002170476F
:104A4000000000D0FFFFFFFF002B00D0BFE0130CE1
:104A500028D1002AE7D080B4114F39667A66FFE783
:104A6000FFE730B4040C7B6F396F1B0423433B66B4
:104A70007A66FFE7FFE7FFE7C04684B27B6F3D6FD2
:104A80001B0423433B667A66FFE7FFE7C04600232B
:104A90002C042D0C7A6F386F00196941B0BC704737
:104AA000000000D0F0B594460025140E01D112028A
:104AB0000835140F01D112010435940F01D1920071
:104AC0000235D40F01D152000135D40B0134254FEA
:104AD0007C66254C3C660E0C93B2FFE7FFE7FFE7D0
:104AE0003C6F6643360C7703BE467343DF0B5B04B3
:104AF000C01AB941130C7343DB18C91ACE086643B8
:104B0000360CB64493B273431F0F1B01C01AB94150
:104B1000130C73431F0B1B05C01AB941860D8F027E
:104B20003E436643360C092D24DB520A7243801A39
:104B30007703460A6643360C16235B1BDE40DF40D4
:104B4000BF1964466643821B704604350633010074
:104B5000D940A840C01900D30131A24206D2002397
:104B6000F0BD0000000000D0FFFFFFFF121B01306E
:104B7000F3D3F1E709277F1BFE406446A2B27243DC
:104B8000801A00D20139220C7243130C1204821ACB
:104B900099410B007046043513370100F940A840D5
:104BA000801900D30131002B02D1A2420AD2F0BDFC
:104BB000013000D30131121BFAD2013BF8D1A242DD
:104BC00000D2F0BD013000D30131121BF7E7F0B580
:104BD0001C0C00D080E00CB400251C0A04D11B0280
:104BE000160E3343120208351C0B04D11B01160F9D
:104BF0003343120104359C0B04D19B00960F3343C1
:104C000092000235DC0B02D192185B4101351C0089
:104C1000971864410134464F7C66464C3C660E0C46
:104C2000FFE7FFE7FFE7C0463C6F6643360C7703BC
:104C3000BE4697B27743C01B00D20139C01B00D2D9
:104C400001399FB27743C91BC91B170C77437E04F8
:104C5000FF0B801BB941CE086643360C0C2D33DBAD
:104C6000B644120B1F053A431B0B97B27743C01B88
:104C700000D201399FB27743C91B170C77433E041A
:104C80003F0C801BB941860D8F023E4366432927A6
:104C90007F1BFE400C3D7746AF40BF1930BCA2B22F
:104CA000ABB272437343801A9941220C7243130CC6
:104CB0001204801A994102000B000137001BA94120
:104CC000F9D2781E0021F0BD0C277F1BFE407746ED
:104CD0007F0BAF40FF19E0E700245D1C07D0144FA5
:104CE0007D663966FFE7FFE7FFE7FFE73C6F95B2B8
:104CF0009EB265436643401BB141150C1E0C6543D3
:104D0000664336042F0C3E432D04401BB1419942AB
:104D100004D202000B0020000021F0BD01D190421E
:104D2000F7D3801A994101349942F2D3F6E7000093
:104D3000000000D0FFFFFFFF48404140484018B44A
:104D4000134B5B68019308BD18B4114B1B680193AA
:104D500008BD94460F4A926F920805D2624618B475
:104D60000B4BDB68019308BD0A4AF0B5146E556E13
:104D7000576F166F6246FFF7F2FF064A14665566D4
:104D800057671667F0BD18B4014B9B68019308BDC7
:104D9000881D0020000000D0FFB550404240504028
:104DA00059404B40594000E0FFB5154F4C00640D91
:104DB00003D0BC4204D10C0314D80020090D09050E
:104DC0005C00640D03D0BC4204D11C030AD800224D
:104DD0001B0D1B0501264B4009D44B4003D58B42CC
:104DE00000D18242FFBD9942FCD19042FFBD0B43EE
:104DF000DB1803431343F5D0C9434918FFBD000036
:104E0000FF07000000B5FFF7CFFF01D0002000BD75
:104E1000012000BD00B5FFF7C7FF804100BDC046BF
:104E200000B5FFF7C1FF01D9002000BD012000BD82
:104E300000B5FFF7B1FF01D9002000BD012000BD82
:104E400000B5FFF7A9FF804100BD012040054A00E1
:104E5000121804D85A00121801D8002070470120F7
:104E600070470020704700000021002805D17047DE
:104E7000C1174840401AFAD0C90713B5064B1B6842
:104E800098470CBC441CA2401005120B0349091B97
:104E900009051943114310BD200801201F0400001B
:104EA00010B54C00620D8023D218DB00D21A5B05CE
:104EB0007E2A10DD9E3A13DACC17090349081943FC
:104EC0005242D140640001341532202A05DAD04024
:104ED0000843604310BD002010BD0846604310BD6C
:104EE000C80FC018013810BD18B4024B5B6A01939B
:104EF00008BD0000881D002018B4024BDB6D019333
:104F000008BD0000881D0020C94211D300B549002A
:104F10004908002200F014F8002904D4002240427D
:104F20008A41114600BD80210906002000BD000015
:104F300018B4024BDB6E019308BD0000881D0020F1
:104F400018B4024B9B6F019308BD0000881D002020
:104F500018B4024BDB6F019308BD0000881D0020D0
:104F600010B50148FEF74AF8D03A0110132370B586
:104F70001D78012D15D010DD1B48FFF753FC1B4C8D
:104F800001008022200000F01BF9022D06D01848F5
:104F9000FFF740FC174B186070BD144C164BA36410
:104FA000F5E7164B114C23606360A360E360236157
:104FB0006361A361E36123626362A362E3622363CB
:104FC0006363A363E36323646364A364E3642365AB
:104FD0006365A365E36523666366A366E36623678B
:104FE0006367A367E367D9E753440000881D002087
:104FF0004C3300002008012001500010614F0010C8
:1050000007B5604601880A0A0230DF2AFAD1C9B220
:10501000820804D3028840880004104300E000683E
:10502000014A5050039007BD881D0020514343435F
:10503000C9188C46110C83B24B4310B4040C614365
:1050400092B280B2504362431C041B0C001910BC86
:1050500059411304120CC0185141614470470000BB
:1050600010B50148FDF7CAFF2CBB0410132310B57F
:1050700010481C78FFF7D6FB0100012C0AD003DD95
:1050800080220D4800F09CF80C48FFF7C3FB0C4B46
:10509000186010BD084C5422200000F091F8220046
:1050A000084980322368002B00D1216004349442E7
:1050B000F8D1E9E753460000240801204C330000F2
:1050C000200801206150001070B504000A4E300025
:1050D0000EF062FA200008F0F7FE050030000EF036
:1050E00003FA002D05D0054B2C199C4201D828004D
:1050F00070BD0348FDF782FF940E002000000420DD
:10510000E83A011070B505000C000B4E30000EF0AF
:1051100043FA2800210008F077FE050030000EF069
:10512000E3F9002D05D0054B2C199C4201D828002D
:1051300070BD0348FDF762FF940E002000000420BC
:10514000E83A011070B505000C000B4E30000EF06F
:1051500023FA2800210009F0BDF9050030000EF007
:10516000C3F9002D05D0054B2C199C4201D828000D
:1051700070BD0348FDF742FF940E0020000004209C
:10518000E83A011070B50400054D28000EF004FA4D
:10519000200008F0A3FE28000EF0A6F970BDC0465E
:1051A000940E002001480421014B1847B00700204D
:1051B00035480010014B1B6818470000B00700205D
:1051C000014B5B6818470000B0070020F0B5C646E9
:1051D00000B5437D07000D001600002B38D0002AD3
:1051E0002EDD00216A1E90466A5C037D4C1C002067
:1051F0000A2A0CD0A64216D043461B5D21000D3B67
:105200005A4253416A5CDBB24C1C0A2AF2D1002B91
:10521000F0D1814217DC022110483B689847A64232
:1052200007D02000E8E7864203DD311A3B682818E2
:105230009847AD19013D2B780D3B5A4253413B75C0
:1052400080BCB846F0BD091A3B6828189847E2E7C9
:105250000368110028009847F2E7C0465C3B011044
:10526000F0B5C6460B6806000C0000B5802B06D0D2
:105270005A1C2260E418267180BCB846F0BD0F4B62
:105280001D68002D16D00B1D98460D4F02E02D69AC
:10529000002D0FD02B68002BF9D03B68002B01D0DC
:1052A000AB42F4D1280041462268FFF78FFF2D69F9
:1052B000002DEFD101220023DBE7C046703700202C
:1052C00080370020F0B5CE46474680B583B06B46A8
:1052D0000600DD1D2870FDF727F800231A4A121872
:1052E0004B41802109068B4202D30122174B5242C7
:1052F0001749080088460EF03FF9164B81461C6896
:10530000002C14D0144F02E02469002C0FD0236825
:10531000002BF9D03B68002B01D0A342F4D1200030
:1053200001222900FFF752FF2469002CEFD14B46E0
:10533000002B05D1300003B0C0BCB946B046F0BD6B
:1053400040460EF0D1F8F5E740420F00FFFFFF7F27
:105350009C0E00207037002080370020F0B5DE461C
:1053600057464E464546E0B585B0070009F018FCA3
:105370000600FCF7D9FF00232B4A12184B4180216D
:1053800009068B4202D30122284B524228490800C9
:105390008B460EF0F1F8274B01901C689A46002CC2
:1053A0003BD0254B984602ABDD1D0A23994602E00F
:1053B0002469002C17D02368002BF9D043461B68C2
:1053C000002B01D0A342F3D1200032003900FFF7B7
:1053D000FDFE4B462000012229002B70FFF7F6FE50
:1053E0002469002CE7D1019B002B18D153461C687F
:1053F000002C06D06368002B0BD098472469002C42
:10540000F8D1300005B0F0BCBB46B246A946A04674
:10541000F0BD2469002CEDD1F3E70028F1D0584607
:105420000EF062F8E2E7C04640420F00FFFFFF7F48
:105430009C0E00207037002080370020F0B5CE464B
:10544000474680B5A3B004000D00FCF76DFF0023B4
:10545000294A12184B41802109068B4202D30122AE
:10546000264B5242264F38000EF086F800230600E5
:10547000019322002B00234801A9FFF775F9019B36
:105480008046002B14D1204B1C68002C06D063688A
:10549000002B0BD098472469002CF8D1002E25D181
:1054A000404623B0C0BCB946B046F0BD2469ECE725
:1054B000154B1D689946002D1CD0144C02E02D6937
:1054C000002D0FD02B68002BF9D02368002B01D0C2
:1054D000AB42F4D12800019A02A9FFF777FE2D69AB
:1054E000002DEFD14B4601951C68CEE738000DF03A
:1054F000FBFFD5E70195D1E740420F00FFFFFF7F9B
:105500009C0E002061520010703700208037002070
:105510000FB400B583B004A901C90191FFF78EFF54
:1055200003B008BC04B0184710B500F0F1FB00F060
:105530000DF800F0A3F900F02FFA00F089FC00F05C
:1055400037FC10BD40BA80B27047C046032200212C
:10555000094B9343094A19711360094A094998187C
:10556000086001211A6001710749995007490B60D1
:105570009221074B5A5270474F9D0020449D0020B6
:10558000983A0000489D0020983A983A6C380020DC
:1055900080380020F8B5CE46474680B5002860D058
:1055A000830700D06CE00400434D083C2B68A34205
:1055B0005BD8424E0C303168814256D32279002AA2
:1055C00000D171E022883E486788824256D88742DF
:1055D00054D8E01A80B2B84202D0DF5B87424DD186
:1055E0009B18994202D05B88834247D100232371E4
:1055F000344B99461B68A34201D94B461C60942743
:10560000B846314BDF5BBF1ABC4647466044D853AF
:10561000A14237D92B6899188C4211D008790028FB
:105620000ED1306881420BD04A46126891423DD07B
:105630000A88234922808A4202D0E11A98184180C0
:10564000608819188C420CD00D79002D09D14D4677
:105650002D68AC422DD00A8019498A4201D09B188E
:105660005880C0BCB946B046F8BD1848FFF750FF97
:105670009821154B5A5A01325A52F2E71448F5E76D
:105680001448F3E71448FFF743FF2379002B02D0B7
:105690001248FFF73DFF2288094B9A42BAD91048B9
:1056A000FFF736FF2288B5E70E48DFE74A46146069
:1056B000BEE74C462160CEE7449D0020489D002077
:1056C000983A00006C38002080380020843B01109C
:1056D000C83B0110603B0110FC3B0110183C01105D
:1056E000343C0110A03B0110F0B5DE4657464E4653
:1056F0004546E0B583B0002831D0564BC51C1D404F
:105700000B2D34D9544B9D4229D8A84227D8534B4E
:10571000514C01931B68601B9B46514B8146196895
:1057200098465B465A1A93B21204120C904211D951
:105730000820404284468C181E0027798B5A10009E
:105740001A00002F04D16746381AC018A84210D298
:105750009945F0D89021434B5A5A01325A520020B1
:1057600003B0F0BCBB46B246A946A046F0BD0C252E
:10577000CBE72A00143290421FD2942001228046A7
:105780002271384A105A861B40469B1996269BB2B6
:105790001352905B984200D2935308239946A94430
:1057A000314B1D685C453BD04B46E3189D4233D3DB
:1057B000A3072AD120000830D2E708229146A94445
:1057C0004A46B21892B29246234A924537D0524680
:1057D0008A181380002053461071568023800123BD
:1057E000237113881C4A934202D05246CB185A8028
:1057F00094261C4A935B0833EB1896259BB293536F
:10580000565B9E42CCD25353CAE71848FFF780FE3E
:105810001748FFF77DFECDE71648FFF779FEC7E78B
:10582000230004E01B88CB181A79002A04D0AB426D
:10583000F8D1019B1D60B7E7019A1360B4E70E48E9
:10584000FFF766FE42461168019A23881268934664
:10585000BDE7C046FCFF0000983A00006C3800200D
:10586000449D002080380020489D0020DC3C011031
:105870000C3D0110AC3C0110983C01101F4B204A1C
:10588000F0B59446454600229846182357464E46A2
:10589000DE4692469B46033204249146E0B5194EFB
:1058A000194F1A4BB3446146504632680860494666
:1058B00003338B43002C0CD095880021002200E09C
:1058C00003000132196058191900A242F8DB624640
:1058D000136043467C80043680C39846B34506D0A7
:1058E0003268D36817689C46D4889368DBE7F0BCBD
:1058F000BB46B246A946A046F0BDC0461C390020B2
:10590000109D0020883D0110F09C0020309C00205C
:1059100070B5052819D8104B8000C558EB681C6875
:10592000002C0ED022681A60A30710D12A68938831
:10593000D18801339BB29380994200D2D38020005A
:1059400070BD2A681388013313800024F7E70348E9
:10595000FFF7DEFDEAE7C046883D0110303D01104B
:1059600070B50C0005280ED800290CD0084B80001B
:10597000C5588B0708D12A689388013B9380EB6850
:105980001A6822601C6070BD0248FFF7C1FDF2E793
:10599000883D0110683D01107047C046F8B5CE46FD
:1059A00047460400002580B500282BD0244B022652
:1059B0009946244B984609E02369002B35D02000F6
:1059C00098470135EDB2002F1CD03C00A37B002B83
:1059D0001DD0013BDBB2A373002B13D1637B27687F
:1059E000227B1E42E8D10F231340022B18D0012B3B
:1059F00020D0002B10D120000135FFF7CBFDEDB2F8
:105A0000002FE2D12800C0BCB946B046F8BD4846D8
:105A1000FFF77EFDA37BDCE74046FFF779FDD0E78B
:105A200021000520FFF79CFFCBE70748FFF770FD3B
:105A30002369C4E721000420FFF792FFC1E7C046B5
:105A4000003E01103C3E0110183E01100023F0B54D
:105A50004F4699460B040B43D64646469846C1230B
:105A6000C0B582460D00170004005B009A4242D088
:105A70000AD81400433BFF3B9C43012C27D03B48F2
:105A8000FFF746FD002630E0A0239B009A42F6D1A6
:105A90000300032403330335A343A5435B199BB2DF
:105AA0001800103080B2AB42ECD38542EAD8FFF741
:105AB0001BFE061E19D04B4603605346C7184346CB
:105AC000133783602A4BA7434760C3600DE004206F
:105AD000FFF71EFF061E08D04B4603604360434697
