:020000041000EA
:1000000000B5324B212058609868022188439860DF
:10001000D860186158612E4B002199600221596106
:100020000121F02299502B49196001219960352056
:1000300000F044F80222904214D00621196600F024
:1000400034F8196E01211966002018661A6600F04E
:100050002CF8196E196E196E052000F02FF8012189
:100060000842F9D1002199601B49196000215960AB
:100070001A491B48016001219960EB211966A021F2
:10008000196600F012F800219960164914480160C1
:100090000121996001BC002800D000471248134993
:1000A000086003C880F30888084703B5996A0420EC
:1000B0000142FBD001200142F8D103BD02B5186610
:1000C0001866FFF7F2FF186E186E02BD00000240BE
:1000D000000000180000070000035F00212200005C
:1000E000F4000018222000A00001001008ED00E03C
:1000F00000000000000000000000000074B24E7A12
:1001000000200420F7010010C3010010C5010010F9
:10011000C1010010C1010010C1010010C101001097
:10012000C1010010C1010010C1010010C701001081
:10013000C1010010C1010010C9010010CB01001065
:10014000CD010010CD010010CD010010CD01001037
:10015000CD010010CD010010CD010010CD01001027
:10016000CD010010CD010010CD010010CD01001017
:10017000CD010010CD010010CD010010CD01001007
:10018000CD010010CD010010CD010010CD010010F7
:10019000CD010010CD010010CD010010CD010010E7
:1001A000CD010010CD010010CD010010CD010010D7
:1001B000CD010010CD010010CD010010CD010010C7
:1001C00000BE00BE00BE00BE00BE00BEEFF3058054
:1001D000103800BEF2EB8871D43F0310F03F0310DB
:1001E0003402001090A31AE700201F49086006C8D7
:1001F00081F3088810471D48006800282FD10DA4FE
:100200000ECC002902D000F012F8F9E71849194A7B
:10021000002000E001C19142FCD1174988471749ED
:1002200088471749884700BEFDE701C901C29A42C5
:10023000FBD37047F03F0310C0000020440F0020A4
:10024000744E03100000042000000420744E0310BC
:10025000001004200010042000000000704709482E
:1002600002F0E8F90047000008ED00E0000000D0CF
:10027000480F002040A000209D240010890300109A
:10028000A12500105756000006005250ABB3605332
:10029000F000011006005250861C030200010110FC
:1002A000060052505422A29D100101100500525028
:1002B000DE65F468744E0310F8B5C0460448054B7B
:1002C00010B5834203D0044B002B00D0984710BDDB
:1002D000440F0020440F002000000000064807499A
:1002E000091A8B10C90FC91810B5491003D0044B57
:1002F000002B00D0984710BD440F0020440F002071
:100300000000000010B5074C2378002B09D1FFF73F
:10031000D5FF054B002B02D0044800E000BF0123AD
:10032000237010BD4811002000000000D8FD00100F
:10033000054B10B5002B03D00449054800E000BF71
:10034000FFF7CCFF10BDC046000000004C1100209C
:10035000D8FD0010D0231B065A68920104D48022D5
:1003600092045A6102487047802292049A61F9E728
:10037000D8FD001010B5034802F05CF9002103001D
:10038000002098475542000010B500F057F800F0E3
:10039000E7F800F0DBF80FF05BFB022109480FF0F3
:1003A00071FB192000F02EFDD02380221B06920441
:1003B0005A6201200021404203F02CF800F0B0F80E
:1003C000F7E7C04600FE0010074B0F22038500230D
:1003D000C3613133C254054B4386054B8361054BE2
:1003E000436100207047C046EA0500004558000000
:1003F00001040010F903001010B50DF051FA10BD02
:1004000010B50C0002F07AFF002802D1082040420B
:1004100010BD02F07BFF0028F8D1208903F0D4FF43
:10042000002805D101200021404202F0F3FFE9E756
:100430002000002103F0CEFF0020E9E710B584B0D2
:1004400004F014F804F03AF90D4C30232000062291
:100450000C492A30E25402F043FC2F230122E254DB
:10046000094B0A4A02930A4B0A49019300232000D0
:100470000093094B04F066FD04F0E0FD04B010BDEC
:10048000048B002010FE0010E1E8001038FE001080
:10049000C903001034FE001030FE001010B5044CEB
:1004A0002068002803D004F0A1FF0023236010BDC2
:1004B00088980020F8B50D4E050033680C00002028
:1004C000002B00D0F8BD002901D10120FAE7C1229C
:1004D0000020520004F028FE071EF6D0220029005A
:1004E000406802F0FDFB01203760EBE788980020B0
:1004F00070B506000C000025002903D10EE0246829
:10050000002C0BD030006289616802F0E9FB63893E
:1005100022895D19F618ADB29A42F0D1280070BD5B
:1005200010B5084C2068002809D007490EF054FE89
:10053000206804F05BFF0023236003F051FD09F005
:10054000BFFB10BD88980020048B002010B5034C21
:10055000200000F0BBFA0028FAD110BD18FE0010F0
:100560003123034AD35CDB0700D4FEE77047C04663
:10057000048B002000487047A4FE0010012803D817
:10058000024B8000C05870470020FCE79CFE001022
:1005900030B583B0002824D003285AD0052826D0AF
:1005A000042800D99DE0514B8000C55828000FF069
:1005B0003FFB04001F284AD8002800D193E0002305
:1005C0004B48821CE95C0133118002329C42F9D80D
:1005D000C023013464009B001C43A4B2048003B018
:1005E00030BDC1244248434BA4004380F6E7424952
:1005F000424B0C783E4822099A5C42800F221440FC
:100600001C5D84804C78250914401C5D5D5D04816F
:100610008C78C580250914401C5D5D5D8481CC7893
:100620004581250914401C5D5D5D04820C79C581FE
:10063000250914401C5D497984820A400C091C5D1F
:100640005D5D9B5CC48245822D4C0383C6E71F24FD
:10065000B2E7684602F09CFC6B461978274B0A0902
:1006600023489A5C42800F221140595C8180694680
:1006700049780C091140595C1C5D01816946C480B0
:1006800089780C091140595C1C5D8181694644815F
:10069000C9780C091140595C1C5D01826946C4810E
:1006A00009790C091140595C1C5D818269464482BC
:1006B00049790C091140595C1C5D01836946C4826B
:1006C00089790C091140595C1C5D8183694644831A
:1006D000C9790C090A401C5D9B5CC4830384094CE6
:1006E0007CE700207BE7084C014877E75CFF0010BF
:1006F000C4150020090400003CFE001044FE001058
:100700001A0300002203000002030000F0B5CE46E9
:10071000474680B51F00352304250370343B83B062
:10072000437099463533C3700B9B0400817005718B
:1007300001A9160005300422019302F0D1FA3323F7
:1007400063720A9B20001B0EE3720A9B04221B1497
:1007500023730A9BA5721B1263730A9B2574A373F0
:100760004B46E3730D9B113001A9019302F0B8FAD7
:100770000C9B002B1ED125001535002E0FD030000C
:100780000FF056FA0F232B70AB1C99466870804609
:100790000200310018004D4602F0A2FA4544002F35
:1007A00016D1FF232B700135281B03B0C0BCB946FE
:1007B000B046F0BD03232000A575250063750C9B92
:1007C000042201A9173001931B3502F089FAD4E7FE
:1007D00006232B70023B6B70A81C042201A9019711
:1007E000063502F07DFADCE7F0B5DE4657464E46A8
:1007F0004546E0B58BB014AB1B8806910793D07BC0
:10080000160004F021FC812305907289A84F9B00FB
:100810009A4200D91A007168380002F061FAF12397
:10082000A44989244D1CAC468A25F85C002202307C
:100830000300804664006D0006E01A0063469B5C7E
:100840009B180233AB4205DA88188A5C352A08D037
:10085000A342F2DB0BB0F0BCBB46B246A946A046B1
:10086000F0BD43468046180043469B78012B1AD0C2
:10087000032B14D189228A240023B44652004D1C34
:10088000640005E00300285CC0180230A04205DACD
:10089000CE18CB5C322B65D09042F3DB664630003D
:1008A00004F0A4FDD6E7844B1B6898461B690493AB
:1008B000002BF4DD43465B69B3469A461C007F4B30
:1008C00000251E0005E0049B013510349D4200D137
:1008D000D7E0062231002000A1460FF02DFA0028B3
:1008E000F1D102233B700023BB604B469B683C0068
:1008F0003B61734BF0341A68EC23FA501422002148
:100900002000FF3202F0E6F94346424605999B6813
:100910008868D26804900390404600685E46029062
:100920004968200001914946C96800910221FFF7FA
:10093000EDFEC122812136205200890004F0F4FB33
:10094000041EACD0812239009200406802F0C8F940
:100950002100079B5B4A069809F03CFC200004F04C
:1009600045FD9CE7B24653465B786646042B96D11C
:1009700002239C46504BE2441B6899461B699846EB
:10098000002B18DD4B465C694C4BB34600251E001E
:1009900004E001351034454500D187E006223100DE
:1009A00020000FF0C9F90028F3D106220021200011
:1009B0005E4602F08FF90422514609A802F090F930
:1009C0004B461A690999002A00DC68E75C69002334
:1009D00004E001331034934200D160E7A068814203
:1009E000F7D10622210038480FF0A6F9051E00D0E5
:1009F00055E7380004225146103002F071F9022305
:100A00003B702F4BBD601A68EC233D00FA50142256
:100A1000F03500212800FF3202F05CF94B464A46CF
:100A200005999B688868D2680490039048460068DE
:100A30000290496828000191E16800910521FFF7C3
:100A400065FEC122812136205200890004F06CFB32
:100A5000051E00D123E73900062220001C3102F0D8
:100A60003FF9812239006868920002F039F92900C3
:100A7000079B144A069809F0ADFB280004F0B6FC69
:100A80000DE70024104D260054469A4603E0013637
:100A90001034564508D0062221002800A1460FF048
:100AA0004BF90028F3D11CE75E46F8E65E4682E784
:100AB000EC190020DC1A00207C190020081A002004
:100AC000480E00207C05011070FF001070B5060074
:100AD00009F02AF9124C2068002803D009F0F0FB35
:100AE0000023236009F00AFC2060002815D0B2889A
:100AF0000C4909F035FA051E206807D0002803D0FC
:100B000009F0DEFB00232360280070BD00220649A7
:100B100009F0D0FB054B1E60F6E701256D42F3E7B7
:100B2000CC8B002078050110E90700107C1900200B
:100B300000B5904B83B018600368082B0DD88E4A1F
:100B40009B00D3589F468D4B0360102343600023C6
:100B5000C36008218A4803F053FA03B000BD894BF3
:100B60000122036034234360002302618261026238
:100B7000854A4361C360C36142628362C3620363A7
:100B800008217F4803F03CFAE7E7C3687F4A9342B5
:100B900038D04CD87E4A94466344152B00D980E067
:100BA0007C4A9B00D3589F467B4AC3680260102250
:100BB00042600022C260794A9342CAD04AD8784A39
:100BC000934253D10100436908310422C918754882
:100BD00002F086F8BDE7744B0821036010234360E0
:100BE000002383600133C360654803F009FAB4E76A
:100BF0006E4A934206D03CD96D4A934202D06D4A68
:100C000093424ED16C4A002302601C224260183A83
:100C100002610C324261C360019318300C3A01A9A1
:100C200002F05EF80821564803F0EAF995E7634AB6
:100C30009342DDD8624A934200D984E0614A9342EC
:100C4000E0D0614A94466344042B2AD85F4A9B0053
:100C5000D3589F465B4A934200D17AE75C4A93425D
:100C600000D176E75B4A934200D172E75A4BC360EA
:100C70006FE75A4A93427AD0594A93420ED10023E1
:100C800001934D4B042203601C234360183B036116
:100C90000C334361534BC3601830C0E74C4A934256
:100CA000EDD0454B08210360182343600023036106
:100CB00010334361484BC360314803F0A1F94CE75E
:100CC000494B01933C4B042203601C234360183BB7
:100CD00003610C3343610023C36018309FE7434B2B
:100CE000EFE7354B0822036020234360183B036184
:100CF0000833436100233E49C360183001F0F0FF20
:100D000008211F4803F07CF927E73A4BD9E73A4B13
:100D1000D7E7244B1B68D4E780235B01D1E7264B40
:100D20005822036070234360183B0361483B4361D2
:100D300000233249C360183001F0D2FF0821104867
:100D400003F05EF909E71C4B062203601E23436093
:100D5000183B03610A33436100232949C3601830FB
:100D600001F0BEFF0821064803F04AF9F5E6012329
:100D7000A7E7C046241C002078FF00100800008070
:100D80004C0E002002000080160600000202010046
:100D9000FFFEFEFF9CFF0010050000800F01010018
:100DA0000E010100C88B0020060000800101020135
:100DB000020102010301020104000080020101019D
:100DC000000101011B020100FFFEFDFFF4FF001006
:100DD0000301010112010100010000C00401010131
:100DE00005010101BB0000C0EA050000FFFFFF0094
:100DF00058FE0010C0D40100DC05000008000110FE
:100E00003CFE00100123D0228340120693629361BE
:100E1000094A83009446402263441968C0004A404E
:100E2000C02111408022520113431960034B9C469C
:100E3000052360444360704704C001400040014006
:100E4000024B18688007C00F7047C04600C00640BC
:100E500070B5EFF3108C72B60D4D2B68002BFCD0E3
:100E6000BFF35F8F0724CB08C618C05C01230C407A
:100E7000A3401C000440034207D103433370BFF377
:100E80005F8F2C608CF3108870BD100001F08CFB1C
:100E90002C0100D0F8B54746CE46884680B5EFF322
:100EA000108C72B6214D2C68002CFCD0BFF35F8FE4
:100EB0009A422CD8D4080727055D0619012417404B
:100EC000BC402C421FD007210127894609E0D408E5
:100ED000055D06194C4639001440A1400C0029421A
:100EE00011D001329342F2D201204042BFF35F8F12
:100EF00000220E4B1A608CF3108800280FDBC0BC58
:100F0000B946B046F8BD2C4310003470EEE7BFF38D
:100F10005F8F00232B608CF31088012040424346F2
:100F2000002BECD0089801F03FFBC0462C0100D00C
:100F30000021044B044ABFF35F8F02C39342FAD1EE
:100F40007047C046000100D0800100D0044A1078EC
:100F5000431CDBB2172B00D9102313707047C04617
:100F6000540E002000B5054B83B0010000931822F9
:100F70001F230348FFF78EFF03B000BD6000011080
:100F80007819002001238340002904D0034A13600C
:100F9000034A13607047034A1360FBE780E200E0F6
:100FA00000E100E080E100E0024B10309B6880002F
:100FB000C058704700ED00E070B50D00EFF31086EB
:100FC00072B60F4A1368002BFCD0BFF35F8F0D4B36
:100FD00010309B6884001B590B4A934203D09D42FA
:100FE00001D001F0F9FA074B9B681D51BFF35F8FE9
:100FF000BFF35F8F0022024B1A6086F3108870BD2A
:10100000240100D000ED00E0CD010010F0B55746FE
:101010004E46DE464546E0B585B006000291170013
:10102000EFF3108B72B6674A1368002BFCD0BFF346
:101030005F8F0025644B5D579A46002D00DAA4E0CF
:101040006B00624C03935B199B009846A146C14418
:101050004B4652469B79103613705D4BB2009B682D
:10106000019299580B1B2F2B34D95A4B994200D01F
:10107000A4E0039B584A9C46584B6544AD0063531B
:10108000434602336519E418554B0121043B1B1BF1
:101090001B055B0D13436B80524BEF71AB80FF233D
:1010A000AB71029BAB604B460B431900484B019A56
:1010B0009B689950BFF35F8FBFF35F8F0022414B56
:1010C0001A608BF3108805B0F0BCBB46B246A94647
:1010D000A046F0BD01200A008243D379BB422FD83D
:1010E00045464E46130040491B1B5B415943090DC1
:1010F0003A4B63533A4B02356519043B5B1B1B05A6
:10110000354D5B0D2B4373800426B446E0444444C4
:10111000131F1B1B4C46A17102991B05A160494678
:101120005B0D2B43A380314BE77101431360BDE797
:101130005800C01880002018C679BE422BD9020082
:101140000623D356002BF3DA101D8246284880462A
:1011500004267642B446E14450464E46361A3005DF
:10116000400D824656461C48957106439680039A68
:10117000944665441D4AAD00641922604246A3713D
:10118000029BA280E771A36090E701F025FA002599
:1011900053465D5754E7101D824690884005001560
:1011A00084464046D444664604302018301AE0266F
:1011B0000005400D360230438046C9E701F00CFAC5
:1011C00057E7C046240100D036A00020580E00206A
:1011D00000ED00E0CD01001000E0FFFF00A1FFFFE7
:1011E000880E002001BDFFFFAAAA00000148804729
:1011F00001BD0000F0B5DE4657464E464546E0B517
:101200000C0083B0EFF3108972B6584A1368002BB4
:10121000FCD0BFF35F8F564B9A68030010339F00DA
:10122000D559544A9046954232D0A54243D0524EA9
:10123000AA1B2F2A2CD801228240924651464F4A9F
:1012400012681140019151464D4A1160BFF35F8F02
:10125000EFF305829346002A33D101232A009A43F3
:1012600093689C4208D177E04B005B189B00F31811
:101270009968A1422AD01A00062151560029F3DAB2
:10128000019B002B19D052463E4B1A603B4B1A6013
:10129000374B9B68DD51BFF35F8FBFF35F8F002239
:1012A000324B1A6089F3108803B0F0BCBB46B246DB
:1012B000A946A046F0BD1500EAE75246304B1A6039
:1012C000E6E79342C9D001F087F9C6E706215956EF
:1012D000002921DB4A005018800034188046A0689D
:1012E0009860E079D871062020569871002824DB98
:1012F000A488F01A6405241544440019E02400056C
:10130000400D24022043988052181F4B9200B618BB
:101310001A781970B271B3E7594600290FD1FF311D
:1013200091711A49918018490A789A71184A9B1B41
:101330005B415A43120D0A70A2E71648E3E7164ACA
:101340001649D21A083A5002400D014399801449B7
:1013500052080A43DA8093E7062151561300002908
:10136000B8DA5A46002AEAD14546DCE7240100D023
:1013700000ED00E0CD010010580E002000E100E07B
:1013800080E100E080E200E036A0002001BDFFFF28
:10139000AAAA000001BD0000920E002000F0FFFF8D
:1013A00000F8FFFF70B5EFF3058101240443EFF36C
:1013B000108C72B6214A1368002BFCD0BFF35F8FEC
:1013C0001F4B05001F4AED1A6D416A43120D1E4D59
:1013D0008900AE6852B27658A6421CD006215956F2
:1013E00091421CD012215956914222D01E215956A9
:1013F000914220D02A2159560324914210D0134BF8
:1014000019781A708171BFF35F8F00220B4B1A603D
:101410008CF3108870BDAB680D4C5C50EFE7002476
:101420006100091989005B18FF21997109499980A8
:10143000E5E70124F4E70224F2E7C046240100D0E6
:10144000580E0020AAAA000000ED00E036A00020FF
:10145000CD01001001BDFFFF054B064A1360064A8F
:10146000136053609360D36013615361936170475D
:101470008080808000E400E004E400E0024B9C46B1
:1014800061448900016070474000003410B50400D9
:10149000FFF75CFD01002000FFF7F0FFFF23237141
:1014A000BFF35F8F10BDC04610B50400FFF74EFDBF
:1014B00001002000FFF7E2FFFF23A380BFF35F8F4F
:1014C00010BDC04610B504000120FFF74BFD044BD2
:1014D0009C46604480002060BFF35F8F10BDC04613
:1014E0004000003483680B4810B584466144624470
:1014F000090112019A18591854684B6801209C423E
:1015000001D802D00020C0B210BD12680B689A4208
:10151000F9D8F7E7FFFFFF0F0A4B1968EFF31080C8
:1015200072B60A68002AFCD0BFF35F8F1B68BFF356
:101530005F8F00221A6080F3108840BF00200021D6
:101540007047C046A0990020F8B557464E4645461C
:10155000DE46E0B599460CAB1C780DAB1B78060057
:1015600090469A460768002C11D1BC7B002C42D0D3
:1015700065003B682D19033D59194B78BB73002B4F
:1015800000D1FB7300238B704B700B7004E065007F
:101590003B682D19033D5919B2682A4B94464246BF
:1015A000E3181B0163441A604A465A600A9A9A601B
:1015B0000B9ADA6000238B704B700B707B7B9B4621
:1015C000002B2BD022005946B8687B6898473A68B0
:1015D000002816D05B4658465B005B445519033B18
:1015E000A870D118D35C002B00D06B705B460C70D8
:1015F0007B73A34513D0F0BCBB46B246A946A046B8
:10160000F8BD5B465B005B44033BD3189C705119EB
:10161000525D002A00D05A705B460B707C734246C4
:101620004B46307D00F004FB051E06D05346002BD0
:1016300003D12100306800F01FFD0E9B002BDAD093
:101640001D70D8E7FFFFFF0FF0B5DE4657464E4648
:1016500045460023E0B58BB00893674B8200D45811
:1016600000239B46099000F093FA626806000F0081
:10167000EFF3108572B61368002BFCD0BFF35F8FB9
:1016800023689C465B7B9946002B00D169E0A268E9
:101690005A4B90464B441B01984443461A685B687A
:1016A00010001900801BB941002900DC63E0099893
:1016B00000F0BEFA0023002298460023069207930A
:1016C00000239A466368BFF35F8F5A461A6085F31A
:1016D00010885346002B08D10028C4D10BB0F0BCB1
:1016E000BB46B246A946A046F0BD089B414618023B
:1016F0004B461843D047626806000F00EFF3108591
:1017000072B61368002BFCD0BFF35F8F002F50DB45
:1017100033003B4302D02369002B61D12368D97B7E
:10172000002907D04A00521819688C46494662447D
:10173000033A51709A7B002A01D14A469A734A466D
:10174000DA734B46E168013BCA5C0132CA545B461E
:1017500023616368BFF35F8F5A461A6085F3108870
:1017600081E7002300229846002306920793002376
:1017700000209A46A6E7002902D1002800D096E76B
:101780000021604600F0F6FB43461A685B6806924B
:10179000079343469B689A464346DB689846E3684E
:1017A0004B44013B1B7808931B0203432361002039
:1017B00088E72369002BB1D0069A079B921BBB4197
:1017C000002B15DB594604910121039149460291F2
:1017D00041460191514620000091FFF7B5FEB6E762
:1017E00000F0D6F932003B0012184B41002BE9DA29
:1017F0000122034B5242E5E7D08B0020FFFFFF0F91
:10180000FFFFFF7F10B5144C6368002B04D00A2142
:101810001248FFF733FE10BD2300114A1021206843
:1018200000F0C2FA032000F0A7F9032000F06AFAE2
:1018300003200C4900F0B6F9FFF788FB0A4B9C46E1
:1018400003232375D0231B061B6860446375074B75
:1018500080006060DC60DAE7A00E0020A099002024
:10186000E51400104916001040000034D08B002011
:10187000F0B54E464546DE465746E0B585B0019385
:1018800010AB1B78060003930023994698460092FC
:101890007268EFF3108B72B61368002BFCD0BFF3A5
:1018A0005F8F3568AC7B002C3DD067002B683F19FB
:1018B000033FDB195A78AA73002A00D1EA73B16892
:1018C000474A8C4600980199A218120162441060A0
:1018D00051600E9991600F99D16042469A705A708A
:1018E0001A706B7B9A46002B67D022001900A868FB
:1018F0006B6898472A68002852D0534650465B00D0
:101900005344D719033BB870D118D35C002B00D0D7
:101910007B7053460C706B7354454FD0F3681B19A2
:10192000013B187800E000207368BFF35F8F4246E8
:101930001A608BF31088002C4FD04B46002B08D137
:101940000002204305B0F0BCBB46B246A946A04603
:10195000F0BD039B002B3ED00E9B00200F999847B3
:10196000030004000D000B4335D000290ADA009A69
:10197000019B121BAB4100920193002B0ADB039BDE
:10198000994685E700F004F924184D41009401952B
:10199000002DF4DA0123134C5B4200930194EEE72F
:1019A00053465B005344033BD3189C70D119D25D5E
:1019B000002A00D05A7053460B706C73307D009A29
:1019C000019B00F035F981460028A7D0210030683E
:1019D00000F052FBA2E70020B4E701204042B1E74B
:1019E000FFFFFF0FFFFFFF7FF0B5EFF30583CE464C
:1019F000474680B505000C0085B0002B12D02C4A5C
:101A00000020536A9C4203D8926A0130AA4204D350
:101A100005B0C0BCB946B046F0BDE01A421E9041C8
:101A2000C0B2F5E7234E02930193234B02000093CB
:101A300030000B00FFF71CFF031EE0DD20BF7168C4
:101A4000EFF3108772B60A68002AFCD0BFF35F8FED
:101A5000DAB294463068427B62451DD0FF221A40BC
:101A600051008946016891448846494641440339FA
:101A70008978002913D0F1681B0A88464244013A4C
:101A80001278DBB29A420FD07368BFF35F8F0022E7
:101A90001A6087F31088B2E7FF221A40EBE7326939
:101AA0009342F1D13161EFE7614600F0E5FAEBE7EF
:101AB00000400540A00E002019150010F0B5EFF30E
:101AC0000582D6464F4646461000C0B51038EFF3A3
:101AD000108872B6214C2368002BFCD0BFF35F8FB7
:101AE0000123190081401E4D1F006963AA461D4D48
:101AF00029601D4D2E78AC463500C5402F402B4245
:101B000009D1BFF35F8F276088F31088E0BCBA4625
:101B1000B146A846F0BD5346144D5F6A83005D5937
:101B2000AF420ED3124A8E439B5862461670BFF3E3
:101B30005F8F0022226088F31088002BE6D0984740
:101B4000E4E70C4B92009C46624413681360BFF3B9
:101B50005F8F0023236088F31088D7E7280100D027
:101B6000004005403C7005403DA00020A4990020A5
:101B700078170020D03F054010B50100024A034805
:101B8000FFF766F910BDC0467C00011032A00020AE
:101B9000034B596A0A00986A596A8A42FAD1704717
:101BA0000040054070B504000D00EFF3108672B6DA
:101BB0001A4A1368002BFCD0BFF35F8F002D1BD097
:101BC0002000FFF7F1F9164981420AD02000FFF703
:101BD000F3F901212000FFF7D5F90123A340114AB1
:101BE0001360114BA400E550BFF35F8F00220B4B35
:101BF0001A6086F3108870BD0B4BA200D5500122ED
:101C0000A2400A4920000B7893430B700449FFF768
:101C1000F1FA00212000FFF7B5F9E5E7280100D02F
:101C2000BD1A001038600540781700203DA0002044
:101C3000F0B54F46D6464646C0B507002C4C616A03
:101C40000D00A66A616AA942FAD18B4208D805D074
:101C50000120E0BCBA46B146A846F0BDB242F7D971
:101C6000EFF3108A72B6234801680029FCD0BFF355
:101C70005F8F0125BD4020491D4C88460978894663
:101C80002943C9B28C46414660460870391D1B483D
:101C9000890065630A51B9000B50216A002029426E
:101CA00019D0616A0800A66A616A8142FAD18B4242
:101CB00019D801D1B24216D8CC4516D00C4B1F20F2
:101CC0001D625D6301230740BB400D4A1E3813604F
:101CD00043464A461A70BFF35F8F0022054B1A60D5
:101CE0008AF31088B5E70020F5E70120F3E7C04646
:101CF00000400540280100D03DA00020A49900200C
:101D000080E200E0EFF3108C72B60A490B68002BFA
:101D1000FCD0BFF35F8F01238340074A074813625B
:101D200002789A430270BFF35F8F00230B608CF33D
:101D300010887047280100D0004005403DA00020D9
:101D400070B5050014001600002915D00C00002AFB
:101D500012D080686B689847296800280ED07300FD
:101D60009B196200033B1219CB18033A9C70881828
:101D70008A5C002A15D10670200070BD63001B1913
:101D80007200033B9219CB18033A9E7088188A5C44
:101D9000002A02D104703400EEE75A700470340057
:101DA000EAE75A700670E7E730B583600023CCB2EB
:101DB00043730133047342608373C4730D0000687E
:101DC000012C06D9421C0133DBB2137003329C4252
:101DD000F9D1FF2129404B0059180023401803383E
:101DE000437030BDF8B5CE46474606000C0080B5BE
:101DF000002907D04D0003686D18033D5A19577824
:101E0000002F04D12000C0BCB946B046F8BD79000F
:101E1000C9190339884643445978894600215970C5
:101E2000517073683A002100806898473368002831
:101E300014D042469A18947059195B5D002B00D05B
:101E400053700F70270049463000FFF7CBFF390071
:101E500002003000FFF774FF0400D3E7424641461A
:101E60005D19AF709A185B5C002B00D06B7014701A
:101E7000E9E7C046F0B557464546DE464E46E0B572
:101E80000D006B0001685B19DF1E0400C85D83B0A4
:101E90000192CA19002850D043001B18033BCB18ED
:101EA0005E78B446002E1AD1019E002E42D0E67B09
:101EB000002E04D073009B19CB18033B5D70A37BED
:101EC000002B00D1A573E57300282FD10023537098
:101ED00003B0F0BCBB46B246A946A046F0BD7200B6
:101EE0006244033A89184A78904600224A70914623
:101EF0005A70010032002000FFF722FF434682465D
:101F0000002B07D05B0021684344033BCB185A7871
:101F1000002A16D1424651462000FFF711FF2168E2
:101F2000019BCA19002BC2D10028CFD043001B1837
:101F3000033BCB1800219970C8E7019B002BB6D159
:101F4000C4E750008018033809184878834648468B
:101F50004870587041462000FFF7F2FE594680460F
:101F60002000FFF73FFF414602002000FFF7E8FE98
:101F70008046CFE7F0B557464546DE464E46E0B5CB
:101F800083B00191457B04006B0000685B19DF1E84
:101F9000C15DC219002952D04B005B18033BC31826
:101FA0005E78B446002E1CD1019E002E44D0E67B04
:101FB000002E04D073009B19C318033B5D70A37BF4
:101FC000002B00D1A573E573002931D1002328002F
:101FD0005370617303B0F0BCBB46B246A946A0463D
:101FE000F0BD72006244033A8018427890460022A5
:101FF000427091465A7020003200FFF7A1FE43461E
:102000008246002B07D05B0021684344033BCB187A
:102010005A78002A17D1424651462000FFF790FE19
:10202000019B01002068C219002BC0D10029CDD02E
:102030004B005B18033BC31800209870C6E7019B58
:10204000002BB4D1C2E75000801803380918487833
:10205000834648464870587041462000FFF770FE9E
:10206000594680462000FFF7BDFE41460200200091
:10207000FFF766FE8046CEE770B5040000292CD03D
:10208000437B8B422ED0056848004018033828183F
:102090008278002A21D053009B18033BEA5CEE189B
:1020A0008A4202D11BE0002A08D053009B18033B50
:1020B000EB185A788A42F6D142785A7000230122EE
:1020C000837043702000FFF7D5FE617B0200200083
:1020D000FFF736FE6073012000E0002070BD4378FA
:1020E0003370EBE701221900FFF7C4FE6073012093
:1020F000F4E7C04630B50C2083B000F0B3F9FEF72A
:102100009FFE00280ED0994B994A1A605A609A6037
:10211000DA601A615A619A61DA611A62954A5A6202
:1021200003B030BD944CA06700F0A4F90122934B9A
:102130001A60636C012BFCD10322914B1A608E4A0A
:10214000936B012BFCD1013301218E4A8E48009301
:10215000043300F037F905238C4A009301218C48A1
:1021600000F030F98B4B5A68FF2A02D880225200C7
:102170005A6080227D4C824B21691201854D1A6084
:10218000002907D0606900F0AFFA431C5800C0185E
:102190000338FDD2E0217F4B02201A6811408022D3
:1021A00052012A431160196848400321014011601F
:1021B00004219A681142FCD08022802192012A4396
:1021C00009011160802252005A60734B2361734BE6
:1021D0005968FF2900D85A600321684A6F4B116083
:1021E00002399A681142FCD0E0201A68104080221F
:1021F00052011A4310601868484003210140022030
:10220000116066498A681042FCD080229201134313
:10221000802212011A608022614B52004A60636181
:10222000604B5968FF2900D85A6080225E4BE169F3
:1022300012015C4D1A60002907D0606900F054FA61
:10224000431C5800C0180338FDD2E02255490B68E2
:102250001A4080235B012B431A60802380229B015C
:102260002B4312011A608022414B52004A60E36105
:102270004E4B5968FF2900D85A6080224C4B216A86
:1022800012014A4D1A60002907D0606900F02CFA4B
:10229000431C5800C0180338FDD2E02243490B68A4
:1022A0001A4080235B012B431A60802380229B010C
:1022B0002B4312011A60802380225B004B602C4B61
:1022C000D20223623B4B5968914200D25A6080226D
:1022D000394B616A1201374D1A60002907D06069D5
:1022E00000F002FA431C5800C0180338FDD2E02267
:1022F00030490B681A4080235B012B431A6080230E
:1023000080229B012B4312011A608023DB024B6069
:10231000184B6362294B5A68FF2A02D88022520068
:102320005A608022264BA1691201244D1A600029AF
:1023300007D0606900F0D8F9431C5800C018033872
:10234000FDD2E0221D490B681A4080235B012B431C
:102350001A60802380229B012B4312011A60802384
:102360005B004B600E4BA361DAE6C046801900208B
:10237000006CDC021BB70000008000403CB0004055
:1023800030B00040002F685900800240008C864722
:1023900000C0024030800040001BB7003C8000407D
:1023A000405973075480004054B0004060800040A2
:1023B00060B000406C8000406CB00040488000403D
:1023C00048B00040F8B5040021481D0017000E0079
:1023D00000F08AF90100380000F086F9069B290414
:1023E0001B0319432368002B20DB1A4B1A4DE218FC
:1023F00053425A4180235B019C461203174B6244AF
:102400001A60174B1A601700AB689F43FBD1C022BC
:10241000231D92011A4321232660A06013602368C4
:10242000002BFCDA0823E1601360F8BD3F2322682B
:102430001340B342D9D1A3681B051B0D8342D4D1ED
:10244000EE22E368D20213408B42CED1EDE7C046C4
:10245000001BB7000040FDBF00C0004000E000408E
:1024600000F000408023024A9B000343D362704780
:1024700000800540AA23064A1B0113602F2305494B
:10248000D360054B19605368002BFCDA7047C046D7
:102490000040024000B0FA00006002402C4B2D4A80
:1024A00070B51A602C4A2D4B2D491A6014008B68A8
:1024B0009C43FBD12B4D2C4EB54208D2013E761BDE
:1024C000B60808CD984723000134B342F9D1FFF78D
:1024D00011FE264A214B1A60214A9368DB43DB0137
:1024E000DD09002BF9D14022214B224C224E9A6764
:1024F0005A671A67DA66B44208D223682000002BB4
:1025000020D00834FEF7D0FFB442F6D31B4E1C4C4B
:10251000C022A168300000F0E3FBA660FEF708FDD2
:10252000FEF79AFFFFF76EF9164C174EB44208D229
:10253000013E361BB60808CC98472B0001359E4259
:10254000F9D170BD0834FEF7A1FFB442D5D3DDE761
:1025500000E00040BFCDFBFEFE7F3C0000F00040ED
:1025600000C000402C0F00203C0F0020FFFFFF01A7
:1025700000F00140240F00202C0F0020000000205C
:1025800000ED00E03C0F0020440F002010B5034890
:1025900000F050F800210300002098475542000049
:1025A00010B5FFF7F3FFC0460FB400B5084883B07D
:1025B00000F0C8FC049B002B07D005A9180001916E
:1025C00000F018F8034800F0BDFC0120FFF7DEFF23
:1025D000A0000110B000011010B50148FFF7E4FFA2
:1025E000B400011010B5002800D110BD00F05EFC51
:1025F000FBE7C04610B5094A0300146884B0002CFC
:1026000008D0012200910648524203A9A0470120A8
:1026100004B010BD00F096FC0020F9E75420002023
:10262000E525001001480421014B1847D00E002079
:1026300055260010142310B50100188804331B8898
:10264000984710BD162310B50100188802331B8867
:10265000984710BDF8B54746CE4680B50F1E19D035
:1026600014239946043304000025012698464B465E
:102670001888434621681B88984701C4431E984127
:10268000013540420640AF42F1D13000C0BCB946EE
:10269000B046F8BD0126F8E7124A936F9B0815D2A1
:1026A0009066D166002905D0FFE7FFE7FFE7516F8D
:1026B000106F704704B580210906C21751400028E9
:1026C00000D0C8430DF048FB002104BDF0B5146EE6
:1026D000556E576F166FFFF7E3FF14665566576721
:1026E0001667F0BD000000D0114A936F9B0813D20B
:1026F00010665166002905D0FFE7FFE7FFE7516F3D
:10270000106F704704B5002801D00020C0430DF0C1
:1027100023FB002104BDC046F0B5146E556E576F03
:10272000166FFFF7E5FF1466556657671667F0BD2D
:10273000000000D094464A4A926F9208624601D245
:1027400028E0C046F0B5464E346E756E776F366F32
:1027500000F020F89446424A14665566576716679B
:102760006246F0BD94463E4A926F9208624601D29C
:1027700054E0C046F0B53A4E346E756E776F366FE2
:1027800000F04CF89446364A14665566576716674B
:102790006246F0BD002B24DB11D000293EDA00B5E3
:1027A000C943404200D1013100F038F8C9434042EA
:1027B00000D10131DB43524200D1013300BD002A78
:1027C000EBD1002801D1002905D00020C90FC9078D
:1027D00001D1C043410800B50DF0A6FA0022002344
:1027E00000BD00B500290ADBDB43524200D10133B2
:1027F00000F014F8C943404200D1013100BDC94383
:10280000404200D10131DB43524200D1013300F09C
:1028100005F8DB43524200D1013300BD002923D12A
:10282000002B18D1002A0CD0BC460D4F38667A66B2
:1028300000210023FFE7FFE7FFE77A6F386F674665
:102840007047002801D00748010000B50DF06CFA70
:102850000022002300BD02000B0000200021704771
:10286000000000D0FFFFFFFF002B00D0BFE0130CE3
:1028700028D1002AE7D080B4114F39667A66FFE785
:10288000FFE730B4040C7B6F396F1B0423433B66B6
:102890007A66FFE7FFE7FFE7C04684B27B6F3D6FD4
:1028A0001B0423433B667A66FFE7FFE7C04600232D
:1028B0002C042D0C7A6F386F00196941B0BC704739
:1028C000000000D0F0B594460025140E01D112028C
:1028D0000835140F01D112010435940F01D1920073
:1028E0000235D40F01D152000135D40B0134254FEC
:1028F0007C66254C3C660E0C93B2FFE7FFE7FFE7D2
:102900003C6F6643360C7703BE467343DF0B5B04B4
:10291000C01AB941130C7343DB18C91ACE086643B9
:10292000360CB64493B273431F0F1B01C01AB94152
:10293000130C73431F0B1B05C01AB941860D8F0280
:102940003E436643360C092D24DB520A7243801A3B
:102950007703460A6643360C16235B1BDE40DF40D6
:10296000BF1964466643821B704604350633010076
:10297000D940A840C01900D30131A24206D2002399
:10298000F0BD0000000000D0FFFFFFFF121B013070
:10299000F3D3F1E709277F1BFE406446A2B27243DE
:1029A000801A00D20139220C7243130C1204821ACD
:1029B00099410B007046043513370100F940A840D7
:1029C000801900D30131002B02D1A2420AD2F0BDFE
:1029D000013000D30131121BFAD2013BF8D1A242DF
:1029E00000D2F0BD013000D30131121BF7E7F0B582
:1029F0001C0C00D080E00CB400251C0A04D11B0282
:102A0000160E3343120208351C0B04D11B01160F9E
:102A10003343120104359C0B04D19B00960F3343C2
:102A200092000235DC0B02D192185B4101351C008B
:102A3000971864410134464F7C66464C3C660E0C48
:102A4000FFE7FFE7FFE7C0463C6F6643360C7703BE
:102A5000BE4697B27743C01B00D20139C01B00D2DB
:102A600001399FB27743C91BC91B170C77437E04FA
:102A7000FF0B801BB941CE086643360C0C2D33DBAF
:102A8000B644120B1F053A431B0B97B27743C01B8A
:102A900000D201399FB27743C91B170C77433E041C
:102AA0003F0C801BB941860D8F023E4366432927A8
:102AB0007F1BFE400C3D7746AF40BF1930BCA2B231
:102AC000ABB272437343801A9941220C7243130CC8
:102AD0001204801A994102000B000137001BA94122
:102AE000F9D2781E0021F0BD0C277F1BFE407746EF
:102AF0007F0BAF40FF19E0E700245D1C07D0144FA7
:102B00007D663966FFE7FFE7FFE7FFE73C6F95B2B9
:102B10009EB265436643401BB141150C1E0C6543D4
:102B2000664336042F0C3E432D04401BB1419942AD
:102B300004D202000B0020000021F0BD01D1904220
:102B4000F7D3801A994101349942F2D3F6E7000095
:102B5000000000D0FFFFFFFF10B50148FFF724FD84
:102B6000C0000110132370B51D78012D11D035DD83
:102B70001C48FFF767FD1C4C01008022200000F07C
:102B8000AFF8022D27D01948FFF754FD184B1860F5
:102B900070BD184B144C23606360A360E360236135
:102BA0006361A361E36123626362A362E3622363FF
:102BB0006363A363E36323646364A364E3642365DF
:102BC0006365A365E36523666366A366E3662367BF
:102BD0006367A367E367084BA364D4E7024C064B23
:102BE000A364D0E753440000481000204C33000099
:102BF0009C980020592B0010FD2B001007B5604653
:102C000001880A0A0230DF2AFAD1C9B2820804D345
:102C1000028840880004104300E00068014A5050D8
:102C2000039007BD4810002051434343C9188C4608
:102C3000110C83B24B4310B4040C614392B280B2C6
:102C4000504362431C041B0C001910BC594113046F
:102C5000120CC018514161447047000010B5014882
:102C6000FFF7A2FCA4050110132310B510481C782F
:102C7000FFF7E8FC0100012C0AD003DD80220D489B
:102C800000F02EF80C48FFF7D5FC0C4B186010BD77
:102C9000084C5422200000F023F82300084A803317
:102CA0002168002900D122600434A342F8D1E9E769
:102CB00053460000A09800204C3300009C98002050
:102CC0005D2C001001480421014B1847E00E002044
:102CD00055260010014B1B6818470000E00E00202D
:102CE000014B5B6818470000E00E0020030010B5A0
:102CF000080011001B68984710BDC046F0B5464655
:102D00004F46D646C0B5437D80460E001700002BC7
:102D100046D0002A3FDD4B1E9946244B0125002456
:102D200000209A460DE04B461B5D0D3B5A42534135
:102D3000325DDBB20A2A0BD02B00013401359F42F1
:102D40001ADD002CEFD14346325D1B7D0A2AF3D1F8
:102D5000002BF1D1A04204DA4346211A1B68301837
:102D60009847434650461B68022198470134280083
:102D70002B0001359F42E4DC874204DD4346391ACB
:102D80001B6830189847F619013E33780D3B5A42BC
:102D9000534142461375E0BCBA46B146A846F0BD61
:102DA0000368110030009847F5E7C0464001011064
:102DB000F0B5DE4657464E464546E0B585B01700AD
:102DC0001C0006000D00FEF7E3FE0023304A121837
:102DD0004B41002B58DB2F4908008A460CF0CCFFF2
:102DE00001906B1C03D130000CF022FF0500002C79
:102DF00025D1294B9846294B1C68002C15D0002F53
:102E000020D1274F02E02469002C0ED02368002B2C
:102E1000F9D03B68002B01D0A342F4D120002A0056
:102E20003100C0472469002CF0D1019B002B27D131
:102E300005B0F0BCBB46B246A946A046F0BD194B52
:102E40009846D8E7164B994602ABDF1D0A239B46EE
:102E500002E02469002CE8D02368002BF9D04B460F
:102E60001B68002B01D0A342F3D12A0031002000BF
:102E7000C0475B460122390020003B70C047E8E7AD
:102E800050460CF049FFD3E70122074B5242A2E71C
:102E900040420F00240F0020FD2C00101C1C0020BD
:102EA000281C0020ED2C0010FFFFFF7FF0B5CE4660
:102EB000474680B583B06B460600DD1D2870FEF7DF
:102EC00067FE00231A4A12184B41002B2BDB1949CD
:102ED000080088460CF050FF174B81461C68002CF8
:102EE00014D0164F02E02469002C0FD02368002B69
:102EF000F9D03B68002B01D0A342F4D1200001227D
:102F00002900FFF7FBFE2469002CEFD14B46002B74
:102F100005D1300003B0C0BCB946B046F0BD404654
:102F20000CF0FAFEF5E70122054B5242CFE7C0460E
:102F300040420F00240F00201C1C0020281C0020F1
:102F4000FFFFFF7F70B504000CF072FE002301004C
:102F5000050001222000FFF72BFF084B1C68002C06
:102F600006D06368002B05D098472469002CF8D15F
:102F7000280070BD2469002CF3D1F9E71C1C002047
:102F800010B5024800F00CF810BDC0469098002023
:102F900010B508220149FFF7A3FE10BD909800204C
:102FA00030B5002589B004000922002101A8009550
:102FB000FFF790FE0922002105A80495FFF78AFE7D
:102FC0004B236A466846137004A90D220CF09CFE40
:102FD0001521082220006944FFF782FE09B030BDA8
:102FE00010B501210520FDF7CDFF10BD10B5002261
:102FF0000021024800F05AF910BDC0464C1C0020C8
:103000008022024B5202DA647047C0460020115001
:10301000F0B5C64600B5060000F022F90C231B4DA2
:10302000FF22AB6705201A49FDF7F0FF40239846C1
:10303000184C402200212000FFF74CFE4346012798
:10304000238321210023144A6770A2601360635414
:103050005F31618441462187053963540F4A104925
:103060006360E260A1620B606362E2620CF094FE56
:1030700080239B052F64EB6490230A4A3000EA50BA
:10308000FFF7BEFF80BCB846F0BDC046000011503F
:10309000B50400202C1C00208400105000011050AA
:1030A0008000105010D001000B785B0602D14B78E5
:1030B000052B00D070478A78014B1A60FAE7C046AA
:1030C00000001150F0B5C64600B54B790C791B02D3
:1030D00088782343CC787F21A4070140C509A20F3B
:1030E0004F001400324E7A195201B218907001202C
:1030F0006840507000205B055B0DD0701383D47660
:103100008046CA00012D33D02A4884468801624493
:103110008446B4446046826040461060002933D043
:10312000254AC90090466246414451603F223F33E0
:103130009343022C00D15B0020487A1901685201A8
:10314000B218D1601E4ACB18036051405340802210
:1031500088465201934228D84346A4061C43802344
:103160007F197F011B06F6191C4373681C6011E070
:1031700014488446880162448446B44460468262AE
:1031800040461060002909D100236D017619736053
:103190000D4BF360012080BCB846F0BD084AC90061
:1031A0009046624641445162C0E7FFF715FAD3E703
:1031B0002C1C00208400105004001050488B00206C
:1031C00000001050800010500001105010B50CF09D
:1031D000E3FD10BD10B57F200C0020404000E40945
:1031E000110000191A00034B4001C01800F05EF8EE
:1031F000012010BD2C1C00207F22130010B50B40B5
:103200000A420BD0C90980225800401806494001E3
:103210004018120100210CF0D7FD10BD0222034816
:10322000C909521A8266EEE72C1C002000201150BA
:103230007F22100010B508400A4200D110BD0023C3
:10324000C9094000401804494001081800220349F8
:10325000C3700CF0B9FDF1E72C1C0020FFF7FFFF55
:1032600080220D4B520410B51A600C4B0C491A60A9
:1032700010008B689843FBD10A4C9C22002120004F
:10328000FFF728FD8022002152010748FFF722FDA9
:103290000923636710BDC04600E0004000F0004015
:1032A00000C00040000011500000105070B5837E37
:1032B00004000D001600002B17D10023E382013318
:1032C0002000A682A37625610CF076FD002804D0AC
:1032D00080219023084A8902D15020000CF034FD4F
:1032E000002805D00123237770BD0CF05DFDE4E7D5
:1032F00020000CF049FDF7E700201150024B5878F0
:10330000431E9841C0B2704758160020024B1878EF
:103310004007C00F7047C04658160020034B18786E
:10332000FF38431E9841C0B27047C046140F0020BA
:10333000F8B5CE46474680B52C4E050033780120BF
:10334000FF2B03D0C0BCB946B046F8BD53220021C4
:103350002748FFF7BFFC274C2000FEF797F8264BC5
:103360001C60264C20001430FEF7ACF8200001F061
:1033700071F9234B234F1C60234B9846002B04D03C
:10338000380000E000BF214B1860424600243B7823
:10339000002A23D01E4A90461C4A9146A34212D8C6
:1033A0000FD14346984701343B78E4B2A342F5D2AB
:1033B00028003570FFF72CFE2800FFF711FE0120D2
:1033C000C0E70020BEE74A461268630094461B1916
:1033D000DB006344002BF4D01B68E3E700F022FE1F
:1033E0003B780020002BADD1E2E7C046140F00204F
:1033F0005816002010160020AC160020F80E0020F1
:10340000B01600202EA0002000000000AC15002007
:1034100025400010F0B5DE4657464E464546E0B51D
:103420008BB001F029F8002800D10EE1C84BC94F3C
:103430009A46C94D07AC3E687269EFF3108172B6C7
:103440001368002BFCD0BFF35F8FB1613000210007
:1034500001F06CF87269B369BFF35F8F00211160EE
:1034600083F31088002800D1EFE06378082BE2D8BE
:1034700052469B00D3589F466368002BDBD0A06860
:103480009847D8E77F222179B34E0A40500036187A
:10349000B046CB099844404601263030C378B34348
:1034A000C370C3780336B343C370002A00D1F1E080
:1034B0004346AA4ADB7C002A06D0A94A12789342E6
:1034C00000D261E19B1ADBB2002B00D0BDE0A54E1B
:1034D00062792078A368B047ADE701222B780121FB
:1034E00013432B7033230420EA5C8A43EA54EA5CDA
:1034F0008243EA540133EA5C8A43EA54EA5C824339
:10350000EA54237800209B4600F0D8FC60222379FF
:103510001A40602A0DD0402A00D1C1E0DB06DB0E44
:10352000012B00D13BE1022B00D1D6E0002B00D1D2
:10353000C5E020780021FFF75FFE80212078FFF7AB
:103540005BFE78E7844E3378DB0700D473E7864B65
:10355000002B00D16FE700E000BF6CE77E4E3378B0
:10356000DB0700D467E7814B002B00D163E730789D
:103570000007C00F00E000BF5DE72378774A984658
:10358000774B002699461B78002A00D17AE0784ACA
:103590009346B34260D819D1764B404698474B4684
:1035A00001361B78F6B2B342F3D26B4E53220021A0
:1035B0003000FFF78FFB1022FF21F01CFFF78AFB82
:1035C00030002022FF211330FFF784FB00F06CFC59
:1035D000694B002B00D12EE700E000BF2BE72378DA
:1035E0005E4A98465E4B002699461B78002A1FD0FB
:1035F0005F4A93469E423AD321D15E4B404698475C
:103600004B4601361B78F6B2B342F3D2524E5322E8
:1036100000213000FFF75EFB1022FF21F01CFFF7B6
:1036200059FB30002022FF211330FFF753FB07E046
:10363000404600F001FD4B461B78002BE6D0464E7D
:1036400000F032FC2379B370F5E60BB0F0BCBB465A
:10365000B246A946A046F0BD5A4612687300944689
:103660009B19DB006344002BB0D05B6895E75A469A
:103670001268730094469B19DB006344002BDED074
:103680005B68BBE7404600F0D7FC4B461B78002B3D
:103690009CD18AE762792078A36800F023FCCAE60F
:1036A0003648002800D144E700F008FC01215846C4
:1036B00008AA00E000BF002800D0BCE639E7202AB5
:1036C00000D1A1E0002A00D033E76379092B00D9AB
:1036D0002FE72B4A9B00D3589F467023217A0B4239
:1036E00000D026E70F330B405B00E818CE090093AB
:1036F0001A4B8019C07C002B06D0194B1B789842BE
:1037000000D2A4E0C01AC0B2002800D099E0002A7C
:1037100000D057E11B4B984663791A009946022363
:103720009A43012A00D151E14B46002B00D000E71B
:10373000009B06AAEB189E193036F37802329B07DD
:10374000DB0F13805846022308A900F04FFB72E6F6
:10375000AC010110B0160020581600200000000037
:103760002EA00020DD42001000000000000000003C
:10377000AC150020394000100000000000000000DF
:10378000D0010110380201105A00D318BB4ADB00E7
:103790001268D318002B00D157E71E6998E6237AE8
:1037A0000F2B00D9C5E6B64AEB18DB78002A05D006
:1037B000B44A1278934263D39B1ADBB2002B00D039
:1037C000B7E6B148B14E00F079FB01215846F368E5
:1037D00008AA9847002800D02DE660221600237919
:1037E0001E401A4200D0A4E663790A3B012B00D99F
:1037F0009FE600F063FB63790A2B00D135E1584660
:1038000008A900F0DBFA16E6237A0F2B00D990E620
:103810009B4AEB18DB78002A06D09A4A127893422A
:1038200000D2F6E09B1ADBB2002B00D081E696486E
:10383000964E00F043FB01215846F36808AA9847CA
:1038400039E7002A00D074E60023984664E7430075
:1038500098468A4B40441B68C00098468044002A22
:1038600000D159E74346002B00D162E6D86800F04A
:1038700025FB434601215846DB6808AA98471AE70A
:103880007E4A5E00F3181668DB00F618002E00D1A1
:103890004FE6F06897E7A37900931A006B789A4295
:1038A00007D06B78002B00D056E1009B002B00D096
:1038B000F8E0009B584608A96B7000F07FFABAE563
:1038C0006B7806AA023213705846012308A900F04B
:1038D0008DFAB0E5E088030AC0B20F2B00D928E6C4
:1038E0006B499A008A58974608A800F0EDFA5846A6
:1038F000A179FFF77BFB02222B7813432B709AE50B
:10390000E388012B00D014E608222B785846934315
:1039100008A92B7000F052FA8DE50220297806AB39
:103920009A1C8B068908DB0F01400B4309E7E388EB
:10393000012B00D0FDE508222B785846134308A937
:103940002B7000F03BFA76E5524B002B00D1F0E5EE
:1039500000E000BF021E00D1EBE5D37891781B0296
:103960000B43584608A900F041FAA4E64A4B002B45
:1039700000D1DEE500E000BF021E00D1D9E55846C7
:10398000137808A900F032FA95E62189FCF700FEC9
:10399000021EF4D1CDE5022B00D11BE13F4B002BE1
:1039A00000D1C6E500E000BF0200002A00D1C0E55A
:1039B000D3E7FCF7DFFD1223020008A9584600F008
:1039C00015FA78E6314B3048984650E7E288002AED
:1039D00009D14B46012B27D0009BEB189E1930369E
:1039E000F3789B0734D54346002B00D123E5D868F4
:1039F00000F064FA43460121DB6808AA584698475C
:103A0000002000F05BFA3423EB5CDB0700D512E505
:103A1000F5E61A4A5E00F3181668DB00F618002E69
:103A200000D186E5F06804E7009BEB189E1930365C
:103A3000F3789B07D7D51A4B1878FFF7F9FB0222CA
:103A4000F37893434A46F370F3789343F370CAE7ED
:103A5000134B1878FFF7D0FB0222F37813430122AF
:103A6000F370F3781343F370BDE706AB9A1C584626
:103A7000012308A9167000F0B9F9DCE4AC150020A8
:103A8000000000002EA00020694100103802011043
:103A9000F80101100000000000000000000000001C
:103AA000140F0020581EC0B2FCF768FD002800D19A
:103AB0003FE54378022B00D03BE50121C279931109
:103AC00052110B400A4012015B0113432A782F3137
:103AD0008A4313432B700923994681444E46C37889
:103AE00082781B021343C3180293029BB34200D88F
:103AF000ADE00122737803920B2B03D1F37803938B
:103B00003378F6187378042B00D012E50021029B5D
:103B1000554A9B1B9BB20193544B884604931B78D8
:103B20008A4268D032000E0090469E4256D300D0A2
:103B3000FFE44F4B019A4146584691469847082862
:103B400003D94B46834200D388E0049B01361B789F
:103B5000F6B2B342E9D2ECE45846FFF737FBAB7854
:103B6000414A0193414B002699461B78002A0ED00A
:103B7000404A90469E4223D31FD13F4B5846984718
:103B80004B4601361B78F6B2B342F3D206E05846F4
:103B900000F052FA4B461B78002B0ED15322002125
:103BA0002800FFF797F81022FF21E81CFFF792F892
:103BB0002022FF213148FFF78DF8019BAB7074E69E
:103BC000424618231268734394466344002BF4D092
:103BD0005B68D3E7FCF7D2FC0200E6E6254B1B68E6
:103BE00005931823059A734394466344002B00D130
:103BF0009FE49B689EE731005846019A00F026FA40
:103C00008146082800D894E4019B834200D290E4C6
:103C1000002240460AE0B378D318DBB2EB18D9781B
:103C2000FF2900D085E40132D870D2B2039B9A42BA
:103C3000F1D18046030031004A46104800F05CFC98
:103C4000049B4E441B78434500D34EE771E40C4B74
:103C5000002B00D12DE600E000BF2AE64346814656
:103C6000B0461E00D4E7C046000000002EA0002091
:103C70004D400010AC150020394000106B1600209C
:103C800000000000F8B557464E46DE4645460C009B
:103C9000E0B516001F00002A3CD0702398461E4B4A
:103CA00000259B461D4B9A461AE05B461B78200078
:103CB00099465346997800F0E3FB00281CD0210078
:103CC0004846FFF7FFF9002816D0A378DA09012A41
:103CD00019D00A9A013513702378E418B54219DA1D
:103CE0006378052B08D1E3789B079B0FBB4203D178
:103CF0004246A3781A42D8D00020F0BCBB46B24658
:103D0000A946A046F8BD0B9A013513702378E41834
:103D1000B542E5DB0120F0E7140F00205816002023
:103D2000702270B58B780C001A4201D0002070BD53
:103D3000064B20001D78064B997800F0A1FB002867
:103D4000F4D021002800FFF7BDF9F0E7140F0020A0
:103D5000581600207F2070B508400F4C4000CD0958
:103D6000241864193034E5780020ED0700D570BDC3
:103D70000126E578094835430078E570FFF72AFA0F
:103D80000028F4D10122E3789343E370E37803320F
:103D90009343E370EBE7C04658160020140F002051
:103DA0007F22CB090A40044952008918C9183031D2
:103DB000C878C007C00F70475816002070B50A4E6B
:103DC0000500300008220C00FEF78AFF00237F2147
:103DD000F3602278B36091425B412800D901002250
:103DE0000023FFF7B7FF70BDB0150020F8B5CE4631
:103DF000474691462A4E80B50822070030000D0044
:103E00009846FEF76DFF4B46B3600023F381EC79D3
:103E1000A97924020C43231C444500D943469AB295
:103E20009046B381002C13D0002A1FD04B46002BA4
:103E300034D0131C402A1FD89BB2984633787F2B6E
:103E400020D80021174A43463800FFF783FF09E0D6
:103E50007F222B7838009A42644100230022E1013E
:103E6000FFF778FFC0BCB946B046F8BD33787F2B6A
:103E700011D980210022E6E740239BB2984633788F
:103E80007F2BDED9074C424649462000FEF728FF2B
:103E900080212200D7E700210022D4E70020E1E7BB
:103EA000B01500201816002010B514220021024879
:103EB000FEF710FF10BDC046B0150020014B186181
:103EC0007047C046B015002010B5054C010008220F
:103ED0002000FEF705FF0023A360E36010BDC0468D
:103EE000B0150020F8B53B4C1D0023780600DA0918
:103EF000C9098A4213D00020002D00D0F8BD364BEE
:103F0000002B03D021003000FFF7CEF82369002BEF
:103F100044D022000321300098470120EEE77F2B98
:103F200006D8A068002837D02A002C49FEF7D8FE12
:103F3000A368E28959195219E38892B2E281A1601B
:103F4000934214D03F2D12D9A589A81A071C80B21C
:103F500040282FD82378BFB27F2B2DD80021AA422A
:103F600035D01E4A3B003000FFF7F4FEC6E7236958
:103F7000002B05D0220002213000984700280FD0E6
:103F80007F220021237830009A42494100230022F9
:103F9000C901FFF7DFFEB1E70020AFE70120ADE781
:103FA00000213000FFF728F930008021FFF724F9C5
:103FB0000120A3E74027CDE7AA4207D0074C3A00EB
:103FC0002000FEF78DFE80212200CBE78021002219
:103FD000C8E7C046B0150020A93000101816002010
:103FE00010B5044B00201979034A044BFFF7B2FEC9
:103FF00010BDC04604160020449200204206000076
:1040000070B5074E04000D000020B178FFF7C8FE20
:10401000002804D12B002200B178FFF79BFE70BD71
:104020000416002010B50C2200210248FEF752FEB3
:1040300010BDC0460416002010B50C220021024815
:10404000FEF748FE10BDC04604160020F0B5C64677
:1040500000B54B798046160082B0E02B09D0022BC8
:1040600002D18B79062B0CD0002002B080BCB84660
:10407000F0BD8B79012BF7D1CB79032BF4D1002242
:1040800003E0CB790122002BEED1334FBB78002B1C
:10409000EAD17A718B783B700C780C196378242BF9
:1040A00057D1082EE0D9092501E0AE42DCD32378B0
:1040B000E418ED186378ADB2242BF6D0052B12D09E
:1040C000042BD1D17B79002B09D11AE02378E41895
:1040D000ED186378ADB2042B34D1AE42C4D363790A
:1040E0000A2BF3D0C0E721004046FFF719FE002855
:1040F000BAD0A378BB702378ED18E4186378ADB21A
:10410000DEE763790A2BAFD121786D1861184B78FF
:10411000ADB2052BA8D1FB1C01933B1D00930222DD
:1041200002234046FFF7AEFD00289DD0FCF7B6F90C
:1041300001220A4B00201A703979094B094AFFF70E
:1041400009FE03E0052B00D08EE7BC600E35A8B257
:104150008BE70925B2E7C0460416002031A00020F5
:104160004206000044920020F0B50600140083B01F
:1041700001291DD0022903D00125280003B0F0BD7C
:1041800013781F229343202BF6D14E4A637920796E
:1041900011781B0203439942EED15379002BEBD1E6
:1041A000E179A379090248481943FCF7C1FCE3E728
:1041B000127853069B0F2BD0012B34D1414F6379DA
:1041C000207939781B02034399422CD17D79002D47
:1041D0002BD06378432BCFD1002321000022300065
:1041E000FFF704FE384C002110222000FEF772FD7C
:1041F000364B002023603B78A380B978FFF7D0FDD1
:104200000028B9D108232200B978FFF7A3FDB4E74D
:1042100063780A2B40D00B2B05D12A4F22793B78AB
:10422000013393420ED00025A7E77F2A41D9264AC1
:104230005368782BF7D8210030009BB2FFF7D6FDEA
:1042400001259AE7A378012BEDD87D79002DEAD0DE
:104250007B70002B1BD0FB783A79134317D1B968D8
:104260000029E0D0FB1C01933B1D009302231A00A0
:10427000FFF708FD0028D6D0FCF710F90122144BF7
:1042800000201A703979134B134AFFF763FD2100A0
:104290003000FFF793FD70E70A4A21791378013364
:1042A0008B42C0D1012321000132FFF79FFD012580
:1042B00063E7782321003000034AFFF797FD0125CB
:1042C0005BE7C04604160020508B0020A1000100CF
:1042D00031A000204206000044920020F8B5334D82
:1042E0001E002B790C008B421ED0EB78A34207D026
:1042F0006B79002B02D0AB78A34225D00120F8BD0A
:10430000002E0DD03F231A003240334208D1284BF3
:1043100021001A70002000230022FFF71BFDE7E7B1
:104320000122234B1A70E3E76B79002B23D0214F36
:10433000B1B23800FCF7BEF80028D6D13A0029798E
:104340001D4BFFF707FDD0E7082ED7D11B4F1C4BA5
:1043500021003B601B4B0020BB60FB602B78FE8084
:10436000BB80FFF71DFD0028C8D110233A00A978B3
:10437000FFF7F0FCC2E72B2E14D90E4F00213B684B
:104380003800012BD6D17B689E42D3D3BB68FA6834
:104390009C469B1808339E42CCD3604608303818A0
:1043A00091B2C7E7034F00213800C3E7041600208D
:1043B00031A000204492002042060000508B0020D3
:1043C000A12A000000709400014B18787047C04685
:1043D00031A00020F0B5C6461F4D0A002978030021
:1043E00000B5002917D01D4E7179002916D11C483F
:1043F000190007002C24FCF77BF8737924182C3F54
:10440000A4B2002B15D000232B703A00230000200B
:10441000F178FFF79FFC80BCB846F0BD114F190042
:104420003800FCF765F8002473792418A4B2002B37
:10443000E9D10D4B1C22984618000021FEF74AFCDA
:1044400040460123103803602333836023002C3B54
:104450004460C360D7E7C04631A0002004160020A6
:10446000049A0020D8990020E899002010B5002077
:10447000FEF75EFF10BDC04610B5FEF74FFF10BD42
:1044800010B5437904791B0223435B055A0DC378A9
:104490009B079B0F022B05D0032B15D00020012B6F
:1044A00008D010BD02291CD0002040239342404177
:1044B000C0B2F6E702394B4259410D4B9C4661446C
:1044C00091424041C0B2ECE702394B425941F023DE
:1044D000002049429B001940403191424041C0B206
:1044E000DFE7044BD3185A425341D8B2D9E7C0464C
:1044F000FF03000000FEFFFF8A1870B5914207D24B
:104500007F264C78052C04D00C7809198A42F8D8FB
:1045100070BD34008D782C4064000419ED0963559A
:104520000C7809198A42ECD8F2E7C04670B504004D
:1045300000690E00002803D0012149420BF014FC51
:1045400025896089A288A9B283B285422CD3CD1A6D
:10455000ADB2002D2ED0AA4208D2914231D38B1A8F
:104560009BB263819A4203D89B1A9BB29A42FBD9B1
:10457000E28821685204520C53433000C918FEF7F8
:10458000AFFB618901254B1C9BB2A288994214D9CB
:10459000002352009B1A9BB220696381002801D03E
:1045A0000BF0BAFB280070BD5500ED1A4D19ADB2E5
:1045B000002DD0D1002563899BB252009342EBDBE2
:1045C000E8E789188BB26381CCE7C046F8B50400F0
:1045D000C0680E00002803D0012149420BF0C4FB43
:1045E000258920896189A288ADB283B28FB28842C1
:1045F00028D3DB1B9BB29A4209D8E779FF0906D181
:10460000E068002801D00BF087FB3800F8BD2B00D4
:10461000954203D39B1A9BB29342FBD2E288216856
:104620005204520C5343C8183100FEF759FBA288BC
:104630006B1C9BB252009D4209D99B1A9BB2012769
:104640002381DDE75100C91B5B189BB2D3E793427E
:10465000F5DBF2E710B50400C068002803D00121A3
:1046600049420BF081FB2069002803D00121494217
:104670000BF07AFB0023E06863812381002801D0DE
:104680000BF04AFB2069002801D00BF045FB01200C
:1046900010BDC046002070477047C04610B5FDF7FA
:1046A00077FA002905D0FA2200239200FEF75AF883
:1046B00010BDFA218900FEF717F8F9E710B501F0EF
:1046C00083F800F05DF900F04DFB00F0D7FB05F03A
:1046D0002BFB01F003F905F0B7FA10BD40BA80B228
:1046E0007047C04600BA7047F0B5C646040000B532
:1046F0000800884616000BF09BFA05002000002DEC
:104700001AD02378002B1AD0A6196219964216D314
:104710004246177806E063780134002B0FD0621907
:1047200096420CD39F42F6D12A00414620000BF05E
:10473000ADFA0028EFD1200080BCB846F0BD0020C3
:10474000FAE7C046F0B583B06B469D1D00232B8071
:1047500001331F000740184205D0002930DD0378DF
:1047600001396B70013001292ADD8E1E34000121D0
:10477000821C8C431419030000221988023352183A
:104780009C42FAD171084B1C5B004900C018711A99
:10479000012901D103782B702B889B181A0C1B045C
:1047A0001B0CD218100C1204120C8018002F04D00D
:1047B000030600041B0C000E184380B203B0F0BDCA
:1047C0000022E5E7F0B54F46D6464646C0B59146CD
:1047D0001A68089B8A46196804000B041B0C090C14
:1047E0005B181104090C5918130C5B18180C1B04E6
:1047F0001B0CC318180C1B041F0CC719002C21D04C
:10480000FF2300260125984661896068FFF79AFF1B
:10481000C019030C0004070CDF1963891D4207D07F
:1048200042463B06380A1B0C104003431F006E40F3
:104830002468002CE8D1002E04D03B063F041B0C5A
:104840003F0E1F43534698B2FFF748FF0400484607
:10485000FFF744FF2018C019030C0004000C1818BF
:10486000030C0004000C1818C04380B2E0BCBA4628
:10487000B146A846F0BDC04610B582B0049C009475
:10488000FFF7A0FF02B010BDF0B583B06B469D1DD1
:1048900000232B8001331F000740184205D0002958
:1048A00032D0037801396B70013001292EDD8E1E64
:1048B00034000121821C8C43141903000022198842
:1048C000023352189C42FAD171084B1C5B0049001C
:1048D000C018711A012901D103782B702B889B18FD
:1048E0001A0C1B041B0CD218100C1204120C80188A
:1048F000002F03D1C04380B203B0F0BD0306000413
:104900001B0C000E1843F5E70148F5E70022E1E72C
:10491000FFFF0000F0B5C646040000B500282AD00D
:10492000FF23002600270125984661896068FFF76C
:1049300009FFC019030C0004070CDF1963891D422D
:1049400007D042463B06380A1B0C104003431F00A9
:104950006E402468002CE8D1002E09D03B063804B4
:104960001B0C000E1843C04380B280BCB846F0BD9B
:10497000F84380B2F9E70148F7E7C046FFFF0000BF
:1049800003220B4B0021033393430A4A0A48136066
:10499000C822D20019719918016001201A600871AB
:1049A0000649995006490B60AA230649CA52704726
:1049B000E88B0020E08B0020E48B002040064006BE
:1049C000582000205C200020F0B5DE4657464E46B9
:1049D0004546E0B583B000282BD0830720D10300E3
:1049E0003F4A083B12689A421AD83E490C300C687C
:1049F000844215D31979002912D0C8211888C9001A
:104A000088420DD85E8801968E4209D89D1AAFB2B1
:104A10009119BB468C46B74212D00988B9420FD0D3
:104A2000FFF738FEB02230498B5A01338B52FFF723
:104A300033FE03B0F0BCBB46B246A946A046F0BD6B
:104A40001618B44202D071885945E9D10021197174
:104A50002649009109688846994202D998460099EA
:104A60000B6021498A46AC21894651464D464F4646
:104A7000495B5546091A5944E953B34214D0317978
:104A8000002911D1B4420FD0464520D0C824308827
:104A9000E40018803188A14206D05C4651184C8051
:104AA0005988019151188C466345C2D061460979F5
:104AB0000029BED143450ED061460880C8211B881D
:104AC000C9008B42B5D0D218019B5380B1E7009941
:104AD00098460B60DAE7644600990C60ECE7C04644
:104AE000E08B0020E48B00205C2000205820002078
:104AF000F0B5D6464F464646494BCA1C0400C0B5E1
:104B000013400B2B4AD9C822D200934249D899426C
:104B100047D8444A1268A24245D843490968A1428D
:104B200041D9082149428C46A44460460788614621
:104B30003E00891A083EB0B289B2451AADB282462B
:104B40009D422ED320009D4237D0D619B1463679EA
:104B5000002E37D148460088344F804608003D6813
:104B60000830181880B24D4556D015184646002713
:104B70002E8066462F71C827698030802D88FF00FF
:104B8000BD4201D052195080AC2255462848491BDD
:104B9000865A76189B19835220000EE00C23994206
:104BA000B7D9002009E0FFF775FDB02220498B5AE4
:104BB00001338B52FFF770FD2000E0BCBA46B146CE
:104BC000A846F0BD1426B04698444646B6B2B54253
:104BD000F3D30800154E08301818B04680B2366876
:104BE0001518AE4201D94646356000262E7166463C
:104BF0002F80C827698030802D88FF00BD4201D0FA
:104C000052195080AC2255460948491B865A7118E2
:104C10005B1883522000D0E715183D60A6E7C04618
:104C2000FCFF0000E08B0020E48B002058200020D7
:104C30005C200020F0B5CE46474680B500283CD029
:104C40004349C31C19400B2934D9C823DB009942BE
:104C500033D8884231D83F4BC82299461B68D200CE
:104C60009C463D4B521A1D6863465B1B9EB21B045B
:104C700090461B0C934213D208277F4208E0048819
:104C8000FB1A1B198B421AD223002600984507D91C
:104C9000E8180279002AF2D0068833009845F7D840
:104CA000A82200202D498B5A01338B52C0BCB94633
:104CB000B046F0BD0C218842CDD90020F6E714277C
:104CC000B84688444746BFB2BB421ED30B000833E8
:104CD000F3189BB2EF183A7101223C80C8247E8001
:104CE000038002713A88E400A24201D0AA185380DE
:104CF000AC241A4B1A5B08328918AE2289B21953B8
:104D00009C5A8C420FD299520DE00123AC21134AD8
:104D10000371535AE3189B1B9BB253520231545AEE
:104D20009C4200D25352844501D00830BEE70C4B60
:104D30001968030004E01B88EB181A79002A05D0D3
:104D40008B42F8D14B4608301960AFE71900F9E7FC
:104D5000FCFF000058200020E08B00205C20002099
:104D6000E48B00201F4BF0B50022454698462823CF
:104D70005746DE464E469B469246033204249146F1
:104D8000194BE0B5194F9C46194D1A4BBB4451467F
:104D90003A682960494603338B43002C0BD0968830
:104DA0000021002200E00300013219609819190067
:104DB0002B60A242F7DB634662465C8043460437C1
:104DC00004C39846BB4506D03A681168D5688C463E
:104DD0009368D488DBE7F0BCBB46B246A946A04640
:104DE000F0BDC04610210020888A0020F00201108A
:104DF000E88A00206C83002070B5092818D8104B71
:104E00008000C558FFF746FCEB681C68002C11D0E9
:104E100022681A602A689388D18801339BB29380F4
:104E2000994203D3FFF738FC200070BDD380F9E727
:104E30000024F9E72A68138801331380F2E7C0469B
:104E4000F002011070B50C00092810D800290ED00E
:104E5000074B8000C558FFF71DFC2A689388013B6B
:104E60009380EB681A6822601C60FFF715FC70BD28
:104E7000F00201100C2040427047C0467047C04607
:104E8000F0B5C64600B504000D0016001F0082B044
:104E900000293DD0002E39D0002F35D02B68002BB3
:104EA00015D1012162688846002A33D13368A2688F
:104EB000934200D0A3603B68E268934200D0E36075
:104EC0004346002B06D002B080BCB846F0BD00239C
:104ED0009846EBE763682A689A42F4D0684601A9CD
:104EE0000093019201F02CFE684601A905F014FA26
:104EF000684601A900F048FC6946200001AA0AF0B2
:104F000025F92B686360DEE70D4FC7E70C4EC3E75A
:104F10000B4DBFE7684601A90193009201F010FE16
:104F2000684601A905F0F8F9684601A900F02CFCD3
:104F30006946200001AA0AF009F92B686360B5E709
:104F400078050110F0B54F464646D6460400C0B578
:104F500090460F009946002859D0099B002B56D047
:104F6000002956D04346002B57D04B46002B59D032
:104F70002E4B002663610022312320000021666051
:104F8000A660E66026852030E2540822FDF7A2FEE6
:104F9000089B274DE36134239A4652462B78200024
:104FA000A3540A9B4246236139004B46A663FFF790
:104FB00067FF2000099B9847002828D11D4B002738
:104FC0009C461E685346E15C3430FF2901D1002124
:104FD0002754002E0BD0330002E01B68002B06D0B4
:104FE0001A5C8A42F9D10131C9B22154EDE7FE2998
:104FF0000BD00131C9B263462000266029701C60C5
:10500000E0BCBA46B146A846F0BD0021F3E7002057
:10501000F6E74346084F002BA7D1074B98464B466F
:10502000002BA5D1044B9946A2E7C046754E00104F
:1050300037A00020448B002078050110014B186038
:105040007047C046408B0020021E0ED0084B1868E7
:10505000002809D0342102E00068002804D0435C15
:105060000133DBB29342F7D170470020FCE7C04622
:10507000448B0020F0B5C6460500002600B5002888
:1050800029D00F230227984607E028002B6998476C
:105090000136F6B2002C1ED02500FFF7FBFAAC7BE0
:1050A000013CE4B2AC73FFF7F7FA002C13D16B7B31
:1050B0002C681F42E9D142462B7B1340022B0ED0B5
:1050C000012B11D0002BE3D128000136FFF77CFC27
:1050D000F6B2002CE0D1300080BCB846F0BD29000B
:1050E0000920FFF7AFFED3E729000820FFF7AAFE4B
:1050F000CEE7C04610B5FFF7CDFA0022084B1A7074
:10510000FFF7CAFA074B1868002803D107E0C06808
:10511000002804D0436F002BF9D001F05FFD10BDD3
:1051200038A00020B4990020F0B5C1234F46464670
:10513000D6468046C0B50D00170084B25B009A4287
:105140003FD00CD81400433BFF3B9C43012C29D09B
:1051500000263000E0BCBA46B146A846F0BDA02308
:105160009B009A42F4D1E31C0324CA1CA343A2432C
:105170009B189BB21800103080B29342E8D3824251
:10518000E6D8FFF757FD061EE3D000230360434631
:10519000C71813372B4B2904A7430D43476085607D
:1051A000C360D6E70820FFF727FE061ED1D00023F4
:1051B00029040D4303604360856007734373C48112
:1051C000C7E700239846204B00269A460023032772
:1051D000994607E043466D1AADB21860002DB8D06D
:1051E000804600240920FFF707FE00281BD0524606
:1051F000E31CBB43D31A1A1C9BB2AB4200D92A1C36
:105200004B46041903601334104BBC4391B2446005
:1052100005814281C360002EDCD16D1AADB206005B
:10522000002DDDD195E7FFF735FA0122084B1A7002
:10523000FFF732FA002E00D18AE73000FFF71AFF9D
:1052400086E7C04680000100EC05000082000100F6
:1052500038A0002070B5032604AC20CC0330B04346
:1052600024880E18A6420FD8002D00D02D18180043
:10527000002303600B04194302234373013B456081
:1052800081600273C38170BD0020FCE770B504002B
:105290000089884226D9638999422CD921812468C2
:1052A000CB1A9DB26389081A80B2AB4208D2228918
:1052B000ED1A821822812468ADB26389AB42F6D31D
:1052C000227B120704D19D4202D0637B9B070AD543
:1052D0002B0420682B43A360002801D0FFF7CAFEEF
:1052E0000023236070BD63682000191B691889B210
:1052F000FFF7FEFBECE70D00E2E7C046030030B528
:1053000000281CD080225202914218D2002918D0C5
:1053100002898CB2A21892B2944210D8057B012067
:105320007F2D0DD95D68691A1D001035A94207D37C
:1053300059605989002064185C811A8100E00120BD
:1053400030BD0020FCE7C04610B5002814D08023F3
:105350005B02994210D2002910D043898AB29A4246
:105360000AD844689B1AA4464381038961449A1A67
:1053700041600281002000E0012010BD0020FCE718
:1053800010B500291DDB002819D000292BD0038976
:105390008AB2D3189BB29A4211D8047B7F2C08D8CA
:1053A0004468611A4160418903815218428100209A
:1053B00006E04468611A04001034A142F2D20120D0
:1053C00010BD49420028FAD043898AB29A42F6D8E1
:1053D00044689B1AA4464381038961449A1A416038
:1053E00002810020ECE70020EAE7C04610B5002863
:1053F00002D0FFF73FFE10BD0020FCE703000020B5
:10540000002B04D01B68013080B2002BFAD170470A
:1054100010B5041E06D0FFF73DF9A37B0133A3733B
:10542000FFF73AF910BDC04610B5002811D0002989
:105430000FD00368002B07D002890C891219028152
:1054400018001B68002BF7D10A89038901609B189B
:10545000038110BD10B50C00002819D0002916D00A
:105460000368002B07D00289218952180281180095
:105470001B68002BF7D12289038904609B180381E4
:10548000FFF708F9A37B0133A373FFF705F910BDFC
:105490000029FCD0F4E7C046F0B54646D6464F4654
:1054A0009246C0B581460E1E984600D17FE00B891A
:1054B000934200D27BE0002800D178E04346028985
:1054C00053449A4200DA72E0002744890BE0728963
:1054D00033899A4244D04B465C891B899C4234D024
:1054E0005346002B49D042467389A41ADB1B9C42C9
:1054F00000D91C005546A24500D925004B465868E6
:1055000073682A00D9194044FDF7EAFB5346A844C2
:105510007F195D1BABB29A464B465C897389BB42CF
:1055200003D836680027002E1ED04445CFD14B4605
:105530001B689946002B22D0002E2ED100239846BE
:105540004B465C891B899C42CAD14B461B68002B89
:10555000C6D006204042E0BCBA46B146A846F0BDDF
:105560003368002BF5D1B6E75346002B1FD14445D5
:1055700016D04B461B899C42E7D00020EBE75346F0
:10558000002B14D1002EF8D0328973899A42F4D1BD
:105590003368002BDDD10020DDE70023984696E735
:1055A0004B461B689946002BC8D10020D3E710203A
:1055B0004042D0E710B5002904D000230A89FFF744
:1055C0006BFF10BD10204042FBE7C046F0B5C64659
:1055D0000500884616001900002700B5002828D0CD
:1055E0004346002B25D0002A05D122E02D68091B57
:1055F00089B2002D1DD06C89002901D0A142F5D2BD
:10560000641AA4B2321CA64200D9221C4346D819FF
:105610006B6894B29C46361B22006144E719B6B20F
:10562000FDF75EFBBFB22D68002E02D00021002DD9
:10563000E1D1380080BCB846F0BDC0460B0070B563
:10564000150011891A00FFF76FFD041E04D0002316
:1056500029002A89FFF720FF200070BDF8B54546D4
:10566000DE4657464E468046E0B5444F3968786975
:1056700009F00AFC43465B685D7A414B1C68994619
:10568000002C6CD0002832D1012300269B4604E078
:10569000E3682600002B24D01C00237CAB42F7D10A
:1056A000227A002A4BD12368002B02D07A699342D8
:1056B000EED15A46637C1A4203D063683A6993423A
:1056C000E6D163699A46002BE2D0424621002D4B79
:1056D000A069D047002844D1E36826000230002B9F
:1056E000DAD1F0BCBB46B246A946A046F8BD0123BC
:1056F000002000269B4604E0E3682600002BF0D043
:105700001C00237CAB42F7D1227A002A1FD12368E8
:10571000002BF1D15A46637C1A4203D063683A6980
:105720009342E9D163699A46002BE5D042462100B5
:10573000144BA069D047002813D10220DCE73423A2
:105740007968CB5C0133DBB29342A1D1ABE7342360
:105750007968CB5C0133DBB29A42CDD1D7E7002028
:10576000BFE7002E08D0E3680120F3604B461B68BA
:10577000E3604B461C60B4E70120B2E73C20002008
:105780003C9200204C20002010B5002811D0026867
:10579000002A0ED000290CD00B68002B09D0094B31
:1057A0001B68002B05D01C68944203D0DB68002BDB
:1057B000F9D110BD0A681A60DB68002BF9D00268C5
:1057C000F1E7C0463C9200207047C04610B5037D0B
:1057D0000400042B05D0072B0FD00020032B00D092
:1057E00010BD200003F02CFB00280AD105232375EF
:1057F000200003F0EDFD0020F2E703F021FB00287C
:1058000007D0431CECD10822638B00201343638331
:10581000E6E709232375EBE770B50600806F0028E3
:1058200003D0FFF7E3FD0023B367746F002C18D09B
:105830006068256800280CD0FFF7D8FD21000420FF
:10584000FFF700FB002D0AD02C00606825680028B7
:10585000F2D121000420FFF7F5FA002DF4D1002346
:1058600073670123F46E5B423386002C16D06068A8
:10587000256800280CD0FFF7B9FD21000420FFF7B0
:10588000E1FA002D0AD02C00606825680028F2D1CA
:1058900021000420FFF7D6FA002DF4D1346F002C3C
:1058A00016D06068256800280CD0FFF79FFD210006
:1058B0000420FFF7C7FA002D0AD02C006068256885
:1058C0000028F2D121000420FFF7BCFA002DF4D10A
:1058D00000236822F3663367B35270BD7047C04639
:1058E00010B501000220FFF7ADFA10BDF8B5CE46A5
:1058F000474680B5002963D0002866D0037D002B81
:1059000060D1002A2BD0324E3700103733681B6825
:10591000002B03D113E0DB68002B10D0DC8A94420B
:10592000F9D11C68002C04D00D68002D01D0AC42C8
:10593000F1D108204042C0BCB946B046F8BD04369B
:10594000BE42E3D10B68002B00D00360214BC28222
:105950001A681860C26004F03FF90020EBE71E4BA4
:10596000802698461A881D4B194F9C46102399464D
:10597000F601B944013292B2624514D03D002B6861
:105980001B68002B03D111E0DB68002B0ED0DC8AF2
:105990009442F9D1013EB6B2002EEBD1434602202B
:1059A0001A804042C7E7C0221202E7E704354D459E
:1059B000E5D143461A80002AC4D102204042BAE70A
:1059C000074999E706204042B5E710204042B2E778
:1059D00028030110B89900201C0F0020FFFF0000D1
:1059E0007805011070B5041E30D0037D002B2DD139
:1059F0000320FFF701FA051E28D001222369036165
:105A0000E38A0275C382627D4275A2688260226861
:105A10000260002B0CD0124A13689C4204D11CE097
:105A2000DA68944214D01300002BF9D10023E3600C
:105A300021000220FFF706FA0A4BAB610A4B1A68F5
:105A40001D60EA6004F0C8F8280070BD0025FBE77F
:105A5000E268DA600023E360EAE7E3681360E5E701
:105A6000B899002031620010C09900200300F0B501
:105A7000C16A058D476A5C8E0A4E681AC019221CDD
:105A8000B44200D9321C92B2821A01D45D85F0BDB5
:105A9000C91B02D400205985F9E7002200205A854D
:105AA000F5E7C046680B0000F8B5002818D0028D55
:105AB000184B511889B2994219D91900476A458E75
:105AC000154EC46A0185FB182A1CB54209D892B24A
:105AD00012199A1A0FD4114A41851B1B93420ED8F2
