:020000041000EA
:1000000000B5324B212058609868022188439860DF
:10001000D860186158612E4B002199600221596106
:100020000121F02299502B49196001219960352056
:1000300000F044F80222904214D00621196600F024
:1000400034F8196E01211966002018661A6600F04E
:100050002CF8196E196E196E052000F02FF8012189
:100060000842F9D1002199601B49196000215960AB
:100070001A491B48016001219960EB211966A021F2
:10008000196600F012F800219960164914480160C1
:100090000121996001BC002800D000471248134993
:1000A000086003C880F30888084703B5996A0420EC
:1000B0000142FBD001200142F8D103BD02B5186610
:1000C0001866FFF7F2FF186E186E02BD00000240BE
:1000D000000000180000070000035F00212200005C
:1000E000F4000018222000A00001001008ED00E03C
:1000F00000000000000000000000000074B24E7A12
:1001000000200420F7010010C3010010C5010010F9
:10011000C1010010C1010010C1010010C101001097
:10012000C1010010C1010010C1010010C701001081
:10013000C1010010C1010010C9010010CB01001065
:10014000CD010010CD010010CD010010CD01001037
:10015000CD010010CD010010CD010010CD01001027
:10016000CD010010CD010010CD010010CD01001017
:10017000CD010010CD010010CD010010CD01001007
:10018000CD010010CD010010CD010010CD010010F7
:10019000CD010010CD010010CD010010CD010010E7
:1001A000CD010010CD010010CD010010CD010010D7
:1001B000CD010010CD010010CD010010CD010010C7
:1001C00000BE00BE00BE00BE00BE00BEEFF3058054
:1001D000103800BEF2EB8871BCD90410D8D90410D5
:1001E0003402001090A31AE700201F49086006C8D7
:1001F00081F3088810471D48006800282FD10DA4FE
:100200000ECC002902D000F012F8F9E71849194A7B
:10021000002000E001C19142FCD1174988471749ED
:1002200088471749884700BEFDE701C901C29A42C5
:10023000FBD37047D8D90410C0000020A01A0020BA
:10024000B8F304100000042000000420B8F30410E8
:10025000001004200010042000000000704709482E
:1002600004F0F8F80047000008ED00E0000000D0BE
:10027000A01A002034B30020F92C00105503001000
:10028000312E00105756000006005250ABB3605399
:10029000E85B011006005250861C0302F85B011057
:1002A000060052505422A29D085C011005005250D5
:1002B000DE65F468B8F30410F8B5C0460448054B91
:1002C00010B5834203D0044B002B00D0984710BDDB
:1002D000A01A0020A01A00200000000006480749CC
:1002E000091A8B10C90FC91810B5491003D0044B57
:1002F000002B00D0984710BDA01A0020A01A0020A3
:100300000000000010B5074C2378002B09D1FFF73F
:10031000D5FF054B002B02D0044800E000BF0123AD
:10032000237010BDF81C0020000000007056011062
:10033000054B10B5002B03D00449054800E000BF71
:10034000FFF7CCFF10BDC04600000000FC1C0020E1
:100350007056011010B50D4C200001F093FA2000EA
:1003600015F06EF90A4814F0FBFB0A4801F08AFA0E
:1003700000F04CF800F002F900F0F6F8012000213E
:10038000404205F01BF900F0C9F8F7E708B3002078
:10039000D10E001000B30020074B0F22038500236D
:1003A00083613133C254054B4386054B4361054B92
:1003B000036100207047C046DC050000455800007E
:1003C000D1030010C903001010B512F0E7FE10BDF4
:1003D00010B50C0005F072F8002802D10820404248
:1003E00010BD05F073F80028F8D1208906F07EF8DA
:1003F000002805D101200021404205F0DFF8E9E79F
:100400002000002106F078F80020E9E730B5194D0A
:1004100085B0280015F014F9174B184C1A782800ED
:1004200022705A7862709A78A270DA78E2701A793B
:1004300022715B79637115F083F806F0A9F80BF06F
:1004400035FA0F4D30232800062221002A30EA54C5
:1004500004F07CFC0B4B0C4A02930C4B0C490193AF
:100460000023280000930B4B0BF0D4FD0BF09EFEF5
:1004700005B030BD08B3002000320020201100205C
:10048000509C002025410110905601109903001046
:100490008C5601108856011010B5044C20680028B5
:1004A00003D00CF059F80023236010BD68AB002086
:1004B000F8B50D4E050033680C000020002B00D06D
:1004C000F8BD002901D10120FAE7C1220020520025
:1004D0000BF0E0FE071EF6D022002900406804F071
:1004E00035FC01203760EBE768AB002070B50600F3
:1004F0000C000025002903D10EE02468002C0BD04D
:1005000030006289616804F021FC638922895D19E9
:10051000F618ADB29A42F0D1280070BD70B50E4CFD
:100520002068002811D00D4B1B78002B10D00C4DEB
:10053000280015F085F820680CF00EF800232360E1
:1005400005F0E0FD280014F0FBFF0FF0F7FD70BD93
:10055000044914F021FAEAE768AB00202CB300202C
:1005600000B30020509C002010B5034C200000F088
:10057000D1FA0028FAD110BD705601103123034A78
:10058000D35CDB0700D4FEE77047C046509C0020D8
:10059000002070477047C04610B501F0B9FE002931
:1005A00005D0FA220023920003F0ECFF10BDFA21DF
:1005B000890003F0A9FFF9E700487047F4560110DD
:1005C000012803D8024B8000C05870470020FCE788
:1005D000EC56011030B583B0002824D003285AD03F
:1005E000052826D0042800D99DE0514B8000C5582D
:1005F000280014F0F9FD04001F284AD8002800D173
:1006000093E000234B48821CE95C013311800232E5
:100610009C42F9D8C023013464009B001C43A4B25F
:10062000048003B030BDC1244248434BA400438042
:10063000F6E74249424B0C783E4822099A5C4280D8
:100640000F2214401C5D84804C78250914405D5DA8
:100650001C5DC58004818C78250914405D5D1C5D9E
:1006600045818481CC78250914405D5D1C5DC58180
:1006700004820C79250914401C5D5D5D84824582ED
:1006800049790C090A401C5D9B5CC4822D4C038394
:10069000C6E71F24B2E7684604F05AFD6B46197896
:1006A000274B0A0923489A5C42800F221140595C6B
:1006B0008180694649780C091140595C1C5D0181B3
:1006C0006946C48089780C091140595C1C5D8181A0
:1006D00069464481C9780C091140595C1C5D01824E
:1006E0006946C48109790C091140595C1C5D8182FD
:1006F0006946448249790C091140595C1C5D0183AB
:100700006946C48289790C091140595C1C5D81835A
:1007100069464483C9790C090A401C5D9B5CC4830B
:100720000384094C7CE700207BE7084C014877E70D
:10073000AC570110641D00200904000020110020A6
:10074000945601101A030000220300000203000067
:10075000F0B5CE46474680B51F003523042503700B
:10076000343B83B0437099463533C3700B9B040010
:100770008170057101A9160005300422019304F06F
:10078000E5FA332363720A9B20001B0EE3720A9B77
:1007900004221B1423730A9BA5721B1263730A9B0A
:1007A0002574A3734B46E3730D9B113001A901938C
:1007B00004F0CCFA0C9B002B1ED125001535002E21
:1007C0000FD0300014F010FD0F232B70AB1C994696
:1007D000687080460200310018004D4604F0B6FAF9
:1007E0004544002F16D1FF232B700135281B03B081
:1007F000C0BCB946B046F0BD03232000A575250056
:1008000063750C9B042201A9173001931B3504F07A
:100810009DFAD4E706232B70023B6B70A81C0422C0
:1008200001A90197063504F091FADCE7F0B5DE4640
:1008300057464E464546E0B58BB014AB1B88069133
:100840000793D07B16000BF0B7FC812305907289CB
:10085000A94F9B009A4200D91A007168380004F031
:1008600075FAF123A54989244D1CAC468A25F85C0C
:10087000002202300300804664006D0006E01A008A
:1008800063469B5C9B180233AB4205DA88188A5C8E
:10089000352A0BD0A342F2DB30000BF05DFE0BB02B
:1008A000F0BCBB46B246A946A046F0BD43468046D2
:1008B000180043469B78012B17D0032BECD18922DB
:1008C0008A240023B44652004D1C640005E0030056
:1008D000285CC0180230A04205DACE18CB5C322B5F
:1008E00063D09042F3DB6646D6E7854B1B6898469B
:1008F0001B690493002BCFDD43465B69B3469A46E0
:100900001C00804B00251E0005E0049B01351034BF
:100910009D4200D1D9E0062231002000A14614F00A
:100920001FFE0028F1D102233B700023BB604B4621
:100930009B683C003B61744BF0341A68EC23FA501E
:10094000142200212000FF3204F0FAF94346424607
:1009500005999B684868D2680490039040460068F7
:100960005E4602900968200001914946C9680091DD
:100970000221FFF7EDFEC1228121362052008900BD
:100980000BF088FC041E00D186E78122390092001A
:10099000406804F0DBF92100079B5C4A06980FF0E1
:1009A00057FE20000BF0D8FD76E7B24653465B7841
:1009B0006646042B00D06FE702239C46504BE2446E
:1009C0001B6899461B699846002B18DD4B465C69ED
:1009D0004C4BB34600251E0004E00135103445455C
:1009E00000D187E006223100200014F0B9FD002874
:1009F000F3D10622002120005E4604F0A1F9042272
:100A0000514609A804F0A2F94B461A690999002A2F
:100A100000DC41E75C69002304E0013310349342B9
:100A200000D139E7A0688142F7D106222100384879
:100A300014F096FD051E00D02EE738000422514622
:100A4000103004F083F902233B702F4BBD601A680D
:100A5000EC233D00FA501422F03500212800FF322B
:100A600004F06EF94B464A4605999B684868D2687F
:100A7000049003904846006802900968280001919C
:100A8000E16800910521FFF763FEC1228121362034
:100A9000520089000BF0FEFB051E00D1FCE6390078
:100AA000062220001C3104F051F9812239006868C7
:100AB000920004F04BF92900079B144A06980FF0A6
:100AC000C7FD28000BF048FDE6E60024104D260087
:100AD00054469A4603E001361034564508D00622A3
:100AE00021002800A14614F03BFD0028F3D11AE7AD
:100AF0005E46D1E65E4682E7B42A0020A42B0020A1
:100B00004C210020D02A002028110020A8D9041050
:100B1000C057011070B506000FF044FB124C20685E
:100B2000002803D00FF00AFE002323600FF024FEFC
:100B30002060002815D0B2880C490FF04FFC051E2C
:100B4000206807D0002803D00FF0F8FD00232360B1
:100B5000280070BD002206490FF0EAFD054B1E601B
:100B6000F6E701256D42F3E7189D0020A4D9041093
:100B70002D0800104C21002000B5904B83B0186068
:100B80000368082B0DD88E4A9B00D3589F468D4B87
:100B90000360102343600023C36008218A4805F0E6
:100BA000C1FA03B000BD894B0122036034234360C6
:100BB0000023026182610262854A4361C360C361AE
:100BC00042628362C362036308217F4805F0AAFA88
:100BD000E7E7C3687F4A934238D04CD87E4A9446B0
:100BE0006344152B00D980E07C4A9B00D3589F4674
:100BF0007B4AC3680260102242600022C260794AC8
:100C00009342CAD04AD8784A934253D101004369EB
:100C100008310422C918754804F098F8BDE7744BF0
:100C20000821036010234360002383600133C36005
:100C3000654805F077FAB4E76E4A934206D03CD98E
:100C40006D4A934202D06D4A93424ED16C4A0023C2
:100C500002601C224260183A02610C324261C36099
:100C6000019318300C3A01A904F070F80821564895
:100C700005F058FA95E7634A9342DDD8624A9342F9
:100C800000D984E0614A9342E0D0614A94466344CB
:100C9000042B2AD85F4A9B00D3589F465B4A934255
:100CA00000D17AE75C4A934200D176E75B4A9342EF
:100CB00000D172E75A4BC3606FE75A4A93427AD029
:100CC000594A93420ED1002301934D4B04220360F5
:100CD0001C234360183B03610C334361534BC360D7
:100CE0001830C0E74C4A9342EDD0454B08210360D1
:100CF000182343600023036110334361484BC360F2
:100D0000314805F00FFA4CE7494B01933C4B042264
:100D100003601C234360183B03610C3343610023D1
:100D2000C36018309FE7434BEFE7354B0822036061
:100D300020234360183B03610833436100233E498D
:100D4000C360183004F002F808211F4805F0EAF9E2
:100D500027E73A4BD9E73A4BD7E7244B1B68D4E750
:100D600080235B01D1E7264B582203607023436048
:100D7000183B0361483B436100233249C36018308C
:100D800003F0E4FF0821104805F0CCF909E71C4BFB
:100D9000062203601E234360183B03610A3343614C
:100DA00000232949C360183003F0D0FF082106480A
:100DB00005F0B8F9F5E60123A7E7C046EC2C0020C2
:100DC000C8570110080000802C110020020000808C
:100DD0001606000002020100FFFEFEFFEC570110A4
:100DE000050000800F0101000E010100109D002090
:100DF000060000800101020102010201030102015B
:100E00000400008002010101000101011B02010038
:100E1000FFFEFDFF44580110030101011201010012
:100E2000010000C00401010105010101BB0000C077
:100E3000EA050000FFFFFF00A8560110C0D4010022
:100E4000DC05000058580110201100200122044B3D
:100E500010B51A7019780020C9B205F0E9FC10BD70
:100E60002CB300200022044B10B51A701978002012
:100E7000C9B205F0DDFC10BD2CB3002070B51D001B
:100E8000114B14009A4200D970BD91B2C1220020CA
:100E900052000BF0FFF90D4E22003060290040682F
:100EA00003F054FF3368588905F020FB002805D172
:100EB00030680BF051FB00233360E5E70021306818
:100EC00005F01AFBF4E7C046DC050000149D002085
:100ED000F0B5D6464F464646C0B5264882B005F026
:100EE0009FFC05F06BFC244B244918009A4609F03E
:100EF000A1FA002022490AF001F8224814F020FB50
:100F0000214B224C9846224B224D9946224E234F8C
:100F10002378002B19D101F0FBF92A686B68121AAB
:100F20008B41002BF4DA1E4A4146484605F054FC3A
:100F300001F0EEF900231B4A80185941002915DB06
:100F4000286069602378002BE5D0300014F078FB2E
:100F50003A68002A06D00021536850465289009111
:100F600009F008FA300014F0EBFAD1E701200E493D
:100F70004042E5E7494E0000882100202010110082
:100F80000032002008B30020B05801102CB300201C
:100F9000BC580110F01B002000B3002068AB0020FB
:100FA0000400400080969800FFFFFF7F094A8300FD
:100FB00094464022634410B51C68C0006240C024BF
:100FC00014408022520113431C60034B9C46604432
:100FD000416010BD04C00140004001400A4B800048
:100FE0009C4604236044002901D00C230821002AD8
:100FF00000D10B00026853400C221A4080235B0191
:10100000184302607047C04604C00140084B80008E
:101010009C466044002905D080239B01184302238D
:1010200003607047C0239B01184302230360F8E765
:1010300004C00140D0231B061B6830B50500581EB4
:1010400083410F485C4284460720302328402340D8
:101050008000EC08814020000A4D3C306344800051
:10106000A40041511B19002A04D08022920113438D
:10107000196030BDC022920113431960F9E7C046E0
:101080000041014000400140D023F0B5C6460400B5
:101090001B0698461B680C4F9B00F8580D00160065
:1010A00000B5044209D1044332002900FC500D2050
:1010B00000F066F980BCB846F0BD01F0D5FE4346AD
:1010C0001B689B00F858EEE718A5002010B5040037
:1010D0000D2000F049FAD0231B061B6802499B0033
:1010E0005A58A2435A5010BD18A500200123D022FF
:1010F0008340120693629361094A8300944640221A
:1011000063441968C0004A40C02111408022520146
:1011100013431960034B9C460523604443607047AA
:1011200004C0014000400140024B18688007C00F16
:101130007047C04600C00640EFF3108072B6034A05
:101140001368002BFCD0BFF35F8F70472C0100D0D9
:10115000BFF35F8F0022024B1A6080F31088704744
:101160002C0100D070B5EFF3108C72B60D4D2B68CA
:10117000002BFCD0BFF35F8F0724CB08C618C05CE0
:1011800001230C40A3401C000440034207D1034349
:101190003370BFF35F8F2C608CF3108870BD10002C
:1011A00001F04AFE2C0100D0F8B54746CE468846ED
:1011B00080B5EFF3108C72B6214D2C68002CFCD05A
:1011C000BFF35F8F9A422CD8D4080727055D061914
:1011D00001241740BC402C421FD00721012789461B
:1011E00009E0D408055D06194C4639001440A140B9
:1011F0000C00294211D001329342F2D20120404228
:10120000BFF35F8F00220E4B1A608CF3108800280A
:101210000FDBC0BCB946B046F8BD2C43100034709B
:10122000EEE7BFF35F8F00232B608CF31088012063
:1012300040424346002BECD0089801F0FDFDC0462B
:101240002C0100D030B5EFF3108C72B60A4C236835
:10125000002BFCD0BFF35F8F07230122CD0819407C
:101260008A40435D93434355BFF35F8F0023236060
:101270008CF3108830BDC0462C0100D00021044BF7
:10128000044ABFF35F8F02C39342FAD17047C0464E
:10129000000100D0800100D0044A1078431CDBB26A
:1012A000172B00D9102313707047C046341100204B
:1012B00000B5054B83B00100009318221F2303489B
:1012C000FFF772FF03B000BDC45801104821002091
:1012D00001238340002904D0034A1360034A1360AA
:1012E0007047034A1360FBE780E200E000E100E0A2
:1012F00080E100E001228240034B1B6813405A1E2C
:101300009341D8B27047C04600E100E0012383401A
:10131000014A13607047C04600E200E0024B103003
:101320009B688000C058704700ED00E070B50D006C
:10133000EFF3108672B60F4A1368002BFCD0BFF390
:101340005F8F0D4B10309B6884001B590B4A9342F2
:1013500003D09D4201D001F087FD074B9B681D51D2
:10136000BFF35F8FBFF35F8F0022024B1A6086F3DB
:10137000108870BD240100D000ED00E0CD01001008
:10138000F0B557464E46DE464546E0B585B0060008
:1013900002911700EFF3108B72B6674A1368002BA7
:1013A000FCD0BFF35F8F0025644B5D579A46002D3C
:1013B00000DAA4E06B00624C03935B199B00984633
:1013C000A146C1444B4652469B79103613705D4B83
:1013D000B2009B68019299580B1B2F2B34D95A4BA2
:1013E000994200D0A4E0039B584A9C46584B654460
:1013F000AD006353434602336519E418554B012190
:10140000043B1B1B1B055B0D13436B80524BEF71A1
:10141000AB80FF23AB71029BAB604B460B431900C3
:10142000484B019A9B689950BFF35F8FBFF35F8F62
:101430000022414B1A608BF3108805B0F0BCBB460C
:10144000B246A946A046F0BD01200A008243D379E6
:10145000BB422FD845464E46130040491B1B5B41FB
:101460005943090D3A4B63533A4B02356519043B16
:101470005B1B1B05354D5B0D2B4373800426B44667
:10148000E0444444131F1B1B4C46A17102991B05E9
:10149000A16049465B0D2B43A380314BE7710143AB
:1014A0001360BDE75800C01880002018C679BE42FE
:1014B0002BD902000623D356002BF3DA101D8246E7
:1014C0002848804604267642B446E14450464E46BB
:1014D000361A3005400D824656461C489571064323
:1014E0009680039A944665441D4AAD0064192260B3
:1014F0004246A371029BA280E771A36090E701F0CE
:10150000B3FC002553465D5754E7101D8246908872
:101510004005001584464046D444664604302018F1
:10152000301AE0260005400D360230438046C9E7F8
:1015300001F09AFC57E7C046240100D02BB30020ED
:101540003811002000ED00E0CD01001000E0FFFFA9
:1015500000A1FFFF6811002001BDFFFFAAAA000043
:101560000148804701BD0000F0B5DE4657464E46B3
:101570004546E0B50C0083B0EFF3108972B6584AC7
:101580001368002BFCD0BFF35F8F564B9A680300A3
:1015900010339F00D559544A9046954232D0A54207
:1015A00043D0524EAA1B2F2A2CD8012282409246A9
:1015B00051464F4A12681140019151464D4A1160FF
:1015C000BFF35F8FEFF305829346002A33D10123E7
:1015D0002A009A4393689C4208D177E04B005B183D
:1015E0009B00F3189968A1422AD01A00062151568F
:1015F0000029F3DA019B002B19D052463E4B1A60AA
:101600003B4B1A60374B9B68DD51BFF35F8FBFF3D5
:101610005F8F0022324B1A6089F3108803B0F0BC50
:10162000BB46B246A946A046F0BD1500EAE75246C1
:10163000304B1A60E6E79342C9D001F015FCC6E7CB
:1016400006215956002921DB4A0050188000341821
:101650008046A0689860E079D8710620205698717D
:10166000002824DBA488F01A6405241544440019DA
:10167000E0240005400D24022043988052181F4B9F
:101680009200B6181A781970B271B3E7594600295A
:101690000FD1FF3191711A49918018490A789A71D6
:1016A000184A9B1B5B415A43120D0A70A2E7164869
:1016B000E3E7164A1649D21A083A5002400D014390
:1016C0009980144952080A43DA8093E7062151565B
:1016D00013000029B8DA5A46002AEAD14546DCE769
:1016E000240100D000ED00E0CD01001038110020F1
:1016F00000E100E080E100E080E200E02BB30020A8
:1017000001BDFFFFAAAA000001BD00007211002068
:1017100000F0FFFF00F8FFFF032310B50400074AA5
:1017200018409446C0009C43FC33834064442268C4
:1017300081409A4313000B43236010BD00E400E096
:1017400070B5EFF3058101240443EFF3108C72B6FA
:10175000214A1368002BFCD0BFF35F8F1F4B05009D
:101760001F4AED1A6D416A43120D1E4D8900AE6885
:1017700052B27658A6421CD00621595691421CD02E
:1017800012215956914222D01E215956914220D001
:101790002A2159560324914210D0134B19781A70FC
:1017A0008171BFF35F8F00220B4B1A608CF310889E
:1017B00070BDAB680D4C5C50EFE700246100091967
:1017C00089005B18FF21997109499980E5E7012497
:1017D000F4E70224F2E7C046240100D038110020CB
:1017E000AAAA000000ED00E02BB30020CD010010FC
:1017F00001BDFFFF054B064A1360064A13605360A4
:101800009360D360136153619361704780808080DF
:1018100000E400E004E400E01F2110B5091A0248CA
:10182000FFF710FD10BDC04633B3002000B5074BD5
:1018300083B001000093002205230548FFF7B4FCA4
:10184000002801DB1F23181A03B000BDE058011067
:1018500033B3002070B504000E001500FFF71CFD27
:101860000100200000F006F8A680E580BFF35F8F3E
:1018700070BDC046024B9C466144890001607047C0
:101880004000003410B50400FFF706FD0100200001
:10189000FFF7F0FFFF232371BFF35F8F10BDC0463A
:1018A00010B50400FFF7F8FC01002000FFF7E2FF8D
:1018B000FF23A380BFF35F8F10BDC04610B50400A7
:1018C0000120FFF7F5FC044B9C466044800020603B
:1018D000BFF35F8F10BDC0464000003483680B48E3
:1018E00010B5844661446244090112019A185918DE
:1018F00054684B6801209C4201D802D00020C0B23D
:1019000010BD12680B689A42F9D8F7E7FFFFFF0F86
:101910000A4B1968EFF3108072B60A68002AFCD0EF
:10192000BFF35F8F1B68BFF35F8F00221A6080F3E5
:10193000108840BF002000217047C04680AC0020C6
:10194000F8B557464E464546DE46E0B599460CABDF
:101950001C780DAB1B78060090469A460768002C51
:1019600011D1BC7B002C42D065003B682D19033D92
:1019700059194B78BB73002B00D1FB7300238B707C
:101980004B700B7004E065003B682D19033D59193D
:10199000B2682A4B94464246E3181B0163441A601E
:1019A0004A465A600A9A9A600B9ADA6000238B7052
:1019B0004B700B707B7B9B46002B2BD02200594633
:1019C000B8687B6898473A68002816D05B46584646
:1019D0005B005B445519033BA870D118D35C002B06
:1019E00000D06B705B460C707B73A34513D0F0BCCA
:1019F000BB46B246A946A046F8BD5B465B005B44C9
:101A0000033BD3189C705119525D002A00D05A70C4
:101A10005B460B707C7342464B46307D00F0D8FC31
:101A2000051E06D05346002B03D12100306800F07C
:101A30004BFF0E9B002BDAD01D70D8E7FFFFFF0F86
:101A4000F0B5DE4657464E4645460023E0B58BB01E
:101A50000893674B8200D45800239B46099000F0FE
:101A600057FC626806000F00EFF3108572B613682A
:101A7000002BFCD0BFF35F8F23689C465B7B9946AD
:101A8000002B00D169E0A2685A4B90464B441B01E1
:101A9000984443461A685B6810001900801BB941DE
:101AA000002900DC63E0099800F092FC002300228A
:101AB000984600230692079300239A466368BFF373
:101AC0005F8F5A461A6085F310885346002B08D161
:101AD0000028C4D10BB0F0BCBB46B246A946A04614
:101AE000F0BD089B414618024B461843D047626838
:101AF00006000F00EFF3108572B61368002BFCD0C0
:101B0000BFF35F8F002F50DB33003B4302D02369CC
:101B1000002B61D12368D97B002907D04A005218D5
:101B200019688C4649466244033A51709A7B002AF0
:101B300001D14A469A734A46DA734B46E168013B43
:101B4000CA5C0132CA545B4623616368BFF35F8F8E
:101B50005A461A6085F3108881E7002300229846D0
:101B6000002306920793002300209A46A6E7002947
:101B700002D1002800D096E70021604600F022FE46
:101B800043461A685B680692079343469B689A46E9
:101B90004346DB689846E3684B44013B1B78089357
:101BA0001B0203432361002088E72369002BB1D087
:101BB000069A079B921BBB41002B15DB59460491EB
:101BC000012103914946029141460191514620006D
:101BD0000091FFF7B5FEB6E700F09AFB32003B003C
:101BE00012184B41002BE9DA0122034B5242E5E780
:101BF0001C9D0020FFFFFF0FFFFFFF7F10B5144C5F
:101C00006368002B04D00A211248FFF733FE10BD91
:101C10002300114A1021206800F0E4FC032000F0AA
:101C200053FB032000F03EFC03200C4900F08AFB2C
:101C3000FFF732FB0A4B9C4603232375D0231B0678
:101C40001B6860446375074B80006060DC60DAE706
:101C50008011002080AC0020DD180010411A001017
:101C6000400000341C9D0020004870478011002077
:101C700070B50500182003F00DF8164904000200A5
:101C8000280000F07FFC10212060280003F020F8DD
:101C90000121A060280003F01BF8E060012000F0A3
:101CA00027FB050000F0FEFB28000B4900F04AFB73
:101CB000FFF7F2FA094B25759C46D0231B061B68DB
:101CC00060446375064BAD0080006060EC502000FE
:101CD00070BDC046DD180010411A001040000034ED
:101CE0001C9D00200E4B10B50400984217D0002117
:101CF000037D0C4A9B009950006800F091FC002184
:101D0000207D00F01FFB207D00F0EAFAE06802F081
:101D1000FFFFA06802F0FCFF200002F0F9FF10BDF9
:101D2000801100201C9D0020F0B54E464546DE4641
:101D30005746E0B585B0019310AB1B7806000393BE
:101D400000239946984600927268EFF3108B72B6A2
:101D50001368002BFCD0BFF35F8F3568AC7B002C81
:101D60003DD067002B683F19033FDB195A78AA73EF
:101D7000002A00D1EA73B168474A8C46009801995D
:101D8000A21812016244106051600E9991600F997F
:101D9000D16042469A705A701A706B7B9A46002B3B
:101DA00067D022001900A8686B6898472A68002845
:101DB00052D0534650465B005344D719033BB8708A
:101DC000D118D35C002B00D07B7053460C706B7322
:101DD00054454FD0F3681B19013B187800E00020F0
:101DE0007368BFF35F8F42461A608BF31088002C34
:101DF0004FD04B46002B08D10002204305B0F0BC69
:101E0000BB46B246A946A046F0BD039B002B3ED080
:101E10000E9B00200F999847030004000D000B4310
:101E200035D000290ADA009A019B121BAB410092BF
:101E30000193002B0ADB039B994685E700F068FAC3
:101E400024184D4100940195002DF4DA0123134C20
:101E50005B4200930194EEE753465B005344033B1F
:101E6000D3189C70D119D25D002A00D05A70534605
:101E70000B706C73307D009A019B00F0A9FA8146CB
:101E80000028A7D02100306800F01EFDA2E7002046
:101E9000B4E701204042B1E7FFFFFF0FFFFFFF7FE4
:101EA000F0B557464546DE464E46E0B504001700FD
:101EB00083B098464268EFF3108A72B61368002B1D
:101EC000FCD0BFF35F8F2668B57B002D3FD06B0041
:101ED0005B19033B9C463268019362445378AB46DE
:101EE000B373002B00D1F373A168354B8C46414688
:101EF000EB181B01634459600C991F6099600D99A0
:101F0000D9600023937053701370737B9946002B34
:101F100048D02A001900B0687368984732680028D2
:101F200032D04B4648465B004B44033BD1188C46AD
:101F3000019951188870D35C002B00D04B70634618
:101F40001D704B46002073734D4531D12BE00023AB
:101F500000269B4600206368BFF35F8F00221A6053
:101F60008AF31088002D28D0002809D15B46300262
:101F7000184303B0F0BCBB46B246A946A046F0BD2C
:101F8000207D00F0ADFAF1E74B465B004B44033B8C
:101F90000198D3189D701118125C002A00D05A7055
:101FA0004B460B7075733A004346207D00F010FAE3
:101FB000E3685B19013B1E78CDE701204042D8E77A
:101FC000FFFFFF0F70B50400002933D04268EFF324
:101FD000108572B61368002BFCD0BFF35F8F2068AA
:101FE000CEB2437BB34216D0FF230B405A00D31826
:101FF000026894466344033B9B78002B0BD1226913
:10200000914219D000206368BFF35F8F00221A60ED
:1020100085F3108870BDFF230A0A0B40E168D2B235
:102020008C466344013B19789142EBD1310000F0BA
:102030004BFCE8E70020EDE72361E3E7407D7047D4
:10204000F0B504000D0006267642F717C64636198D
:102050006F4100B584B08F4214D811D000F058F908
:1020600032003B00121A8B41002B15DC002B3ED0B6
:102070002000290000F056F904B080BCB846F0BD3D
:102080008642EBD90026002700F042F932003B00DF
:10209000121A8B41002BE9DD002302930193154BAB
:1020A0003200009314483B00FFF73EFE0028DFDBC0
:1020B00000239846BC46114A114F7B6A9C4504D8C0
:1020C000B96A8E42D4D99C45D2D11168EFF3108001
:1020D00072B60B68002BFCD0BFF35F8F1368BFF3A1
:1020E0005F8F4146196080F3108820BFE5E7002A22
:1020F000BED0D1E7111900108011002080AC002063
:102100000040054070B5060000F002F9FA22040014
:102110000D00002330000021920002F06DFD001937
:102120006941002902DBFFF78BFF70BD01200149E7
:102130004042F8E7FFFFFF7FF0B5EFF30583CE469F
:10214000474680B505000C0085B0002B12D02C4A04
:102150000020536A9C4203D8926A0130AA4204D3F9
:1021600005B0C0BCB946B046F0BDE01A421E904171
:10217000C0B2F5E7234E02930193234B0200009374
:1021800030000B00FFF7D0FD031EE0DD20BF7168BB
:10219000EFF3108772B60A68002AFCD0BFF35F8F96
:1021A000DAB294463068427B62451DD0FF221A4065
:1021B00051008946016891448846494641440339A3
:1021C0008978002913D0F1681B0A88464244013AF5
:1021D0001278DBB29A420FD07368BFF35F8F002290
:1021E0001A6087F31088B2E7FF221A40EBE73269E2
:1021F0009342F1D13161EFE7614600F065FBEBE717
:10220000004005408011002011190010F0B5EFF3D7
:102210000582D6464F4646461000C0B51038EFF34B
:10222000108872B6214C2368002BFCD0BFF35F8F5F
:102230000123190081401E4D1F006963AA461D4DF0
:1022400029601D4D2E78AC463500C5402F402B42ED
:1022500009D1BFF35F8F276088F31088E0BCBA46CE
:10226000B146A846F0BD5346144D5F6A83005D59E0
:10227000AF420ED3124A8E439B5862461670BFF38C
:102280005F8F0022226088F31088002BE6D09847E9
:10229000E4E70C4B92009C46624413681360BFF362
:1022A0005F8F0023236088F31088D7E7280100D0D0
:1022B000004005403C70054032B3002084AC002053
:1022C000201F0020D03F054010B50100024A0348FE
:1022D000FEF748FF10BDC0460859011026B3002084
:1022E00010B501000148FEF7ADFF10BD26B3002078
:1022F00000B5054B83B0010000930022032303487F
:10230000FEF752FF03B000BD2C59011026B3002088
:10231000034B596A0A00986A596A8A42FAD170478F
:1023200000400540064A536A9942FCD807D1044B45
:1023300002E05A6A914202D19A6A8242F9D3704706
:102340000040054070B504000D00EFF3108672B632
:102350001A4A1368002BFCD0BFF35F8F002D1BD0EF
:102360002000FEF7DBFF164981420AD02000FEF76D
:10237000DDFF01212000FEF7ABFF0123A340114A3E
:102380001360114BA400E550BFF35F8F00220B4B8D
:102390001A6086F3108870BD0B4BA200D550012245
:1023A000A2400A4920000B7893430B700449FFF7C1
:1023B000DBF800212000FEF78BFFE5E7280100D0C5
:1023C0000D22001038600540201F002032B300208D
:1023D000F0B54F46D6464646C0B507002C4C616A5C
:1023E0000D00A66A616AA942FAD18B4208D805D0CD
:1023F0000120E0BCBA46B146A846F0BDB242F7D9CA
:10240000EFF3108A72B6234801680029FCD0BFF3AD
:102410005F8F0125BD4020491D4C884609788946BB
:102420002943C9B28C46414660460870391D1B4895
:10243000890065630A51B9000B50216A00202942C6
:1024400019D0616A0800A66A616A8142FAD18B429A
:1024500019D801D1B24216D8CC4516D00C4B1F204A
:102460001D625D6301230740BB400D4A1E381360A7
:1024700043464A461A70BFF35F8F0022054B1A602D
:102480008AF31088B5E70020F5E70120F3E7C0469E
:1024900000400540280100D032B3002084AC002069
:1024A00080E200E0EFF3108C72B60A490B68002B53
:1024B000FCD0BFF35F8F01238340074A07481362B4
:1024C00002789A430270BFF35F8F00230B608CF396
:1024D00010887047280100D00040054032B300202A
:1024E000EFF3108C72B60A490B68002BFCD0BFF3D7
:1024F0005F8F01238340074802781A430270BFF3BD
:102500005F8F00220A608CF31088034A13607047C3
:10251000280100D032B300203C60054070B50500B2
:1025200014001600002915D00C00002A12D0806873
:102530006B689847296800280ED073009B196200C9
:10254000033B1219CB18033A9C7088188A5C002A46
:1025500015D10670200070BD63001B197200033B8B
:102560009219CB18033A9E7088188A5C002A02D10F
:1025700004703400EEE75A7004703400EAE75A70D1
:102580000670E7E7F0B5C6460600884600B510219C
:102590000120170002F09CFB03210500300002F02F
:1025A00097FB43466B600023F4B26B7301332860E2
:1025B0002C73AF60AB73EC73012C06D9421C013352
:1025C000DBB2137003329C42F9D1FF231E4073002B
:1025D0009E190023801903384370280080BCB84638
:1025E000F0BDC04630B583600023CCB243730133E5
:1025F000047342608373C4730D000068012C06D914
:10260000421C0133DBB2137003329C42F9D1FF212B
:1026100029404B005918002340180338437030BD3F
:1026200010B50400006802F073FB200002F070FB9C
:1026300010BDC046F8B5CE46474606000C0080B532
:10264000002907D04D0003686D18033D5A195778CB
:10265000002F04D12000C0BCB946B046F8BD7900B7
:10266000C91903398846434459788946002159706D
:10267000517073683A0021008068984733680028D9
:1026800014D042469A18947059195B5D002B00D003
:1026900053700F70270049463000FFF7CBFF390019
:1026A00002003000FFF73AFF0400D3E742464146FC
:1026B0005D19AF709A185B5C002B00D06B701470C2
:1026C000E9E7C046F0B557464546DE464E46E0B51A
:1026D0000D006B0001685B19DF1E0400C85D83B04C
:1026E0000192CA19002850D043001B18033BCB1895
:1026F0005E78B446002E1AD1019E002E42D0E67BB1
:10270000002E04D073009B19CB18033B5D70A37B94
:10271000002B00D1A573E57300282FD1002353703F
:1027200003B0F0BCBB46B246A946A046F0BD72005D
:102730006244033A89184A78904600224A709146CA
:102740005A70010032002000FFF7E8FE434682463F
:10275000002B07D05B0021684344033BCB185A7819
:10276000002A16D1424651462000FFF7D7FE2168C5
:10277000019BCA19002BC2D10028CFD043001B18DF
:10278000033BCB1800219970C8E7019B002BB6D101
:10279000C4E7500080180338091848788346484633
:1027A0004870587041462000FFF7B8FE59468046F1
:1027B0002000FFF73FFF414602002000FFF7AEFE7A
:1027C0008046CFE7F0B557464546DE464E46E0B573
:1027D00083B00191457B04006B0000685B19DF1E2C
:1027E000C15DC219002952D04B005B18033BC318CE
:1027F0005E78B446002E1CD1019E002E44D0E67BAC
:10280000002E04D073009B19C318033B5D70A37B9B
:10281000002B00D1A573E573002931D100232800D6
:102820005370617303B0F0BCBB46B246A946A046E4
:10283000F0BD72006244033A80184278904600224C
:10284000427091465A7020003200FFF767FE4346FF
:102850008246002B07D05B0021684344033BCB1822
:102860005A78002A17D1424651462000FFF756FEFB
:10287000019B01002068C219002BC0D10029CDD0D6
:102880004B005B18033BC31800209870C6E7019B00
:10289000002BB4D1C2E750008018033809184878DB
:1028A000834648464870587041462000FFF736FE80
:1028B000594680462000FFF7BDFE41460200200039
:1028C000FFF72CFE8046CEE770B5040000292CD01F
:1028D000437B8B422ED005684800401803382818E7
:1028E0008278002A21D053009B18033BEA5CEE1843
:1028F0008A4202D11BE0002A08D053009B18033BF8
:10290000EB185A788A42F6D142785A700023012295
:10291000837043702000FFF7D5FE617B020020002A
:10292000FFF7FCFD6073012000E0002070BD4378DC
:102930003370EBE701221900FFF7C4FE607301203A
:10294000F4E7C04630B50C2083B000F0B9F9FEF7CB
:10295000EBFB00280ED0994B994A1A605A609A6096
:10296000DA601A615A619A61DA611A62954A5A62AA
:1029700003B030BD944CA06700F0AAF90122934B3C
:102980001A60636C012BFCD10322914B1A608E4AB2
:10299000936B012BFCD1013301218E4A8E480093A9
:1029A000043300F03DF905238C4A009301218C4843
:1029B00000F036F98B4B5A68FF2A02D88022520069
:1029C0005A6080227D4C824B21691201854D1A602C
:1029D000002907D0606901F097FD431C5800C0181A
:1029E0000338FDD2E0217F4B02201A68114080227B
:1029F00052012A43116019684840032101401160C7
:102A000004219A681142FCD08022802192012A433D
:102A100009011160802252005A60734B2361734B8D
:102A20005968FF2900D85A600321684A6F4B11602A
:102A300002399A681142FCD0E0201A6810408022C6
:102A400052011A43106018684840032101400220D7
:102A5000116066498A681042FCD0802292011343BB
:102A6000802212011A608022614B52004A60636129
:102A7000604B5968FF2900D85A6080225E4BE1699B
:102A800012015C4D1A60002907D0606901F03CFD1D
:102A9000431C5800C0180338FDD2E02255490B688A
:102AA0001A4080235B012B431A60802380229B0104
:102AB0002B4312011A608022414B52004A60E361AD
:102AC0004E4B5968FF2900D85A6080224C4B216A2E
:102AD00012014A4D1A60002907D0606901F014FD07
:102AE000431C5800C0180338FDD2E02243490B684C
:102AF0001A4080235B012B431A60802380229B01B4
:102B00002B4312011A60802380225B004B602C4B08
:102B1000D20223623B4B5968914200D25A60802214
:102B2000394B616A1201374D1A60002907D060697C
:102B300001F0EAFC431C5800C0180338FDD2E02223
:102B400030490B681A4080235B012B431A608023B5
:102B500080229B012B4312011A608023DB024B6011
:102B6000184B6362294B5A68FF2A02D88022520010
:102B70005A608022264BA1691201244D1A60002957
:102B800007D0606901F0C0FC431C5800C01803382E
:102B9000FDD2E0221D490B681A4080235B012B43C4
:102BA0001A60802380229B012B4312011A6080232C
:102BB0005B004B600E4BA361DAE6C046502100205B
:102BC000006CDC021BB70000008000403CB00040FD
:102BD00030B00040002F685900800240008C8647CA
:102BE00000C0024030800040001BB7003C80004025
:102BF000405973075480004054B00040608000404A
:102C000060B000406C8000406CB0004048800040E4
:102C100048B00040014B8000C05870475021002050
:102C2000F8B5040021481D0017000E0001F06CFCEF
:102C30000100380001F068FC069B29041B031943BE
:102C40002368002B20DB1A4B1A4DE21853425A41DD
:102C500080235B019C461203174B62441A60174B9A
:102C60001A601700AB689F43FBD1C022231D92015D
:102C70001A4321232660A06013602368002BFCDA2E
:102C80000823E1601360F8BD3F2322681340B3427C
:102C9000D9D1A3681B051B0D8342D4D1EE22E36872
:102CA000D20213408B42CED1EDE7C046001BB700E5
:102CB0000040FDBF00C0004000E0004000F00040C8
:102CC0008023024A9B000343D36270470080054083
:102CD000AA23064A1B0113602F230549D360054B25
:102CE00019605368002BFCDA7047C0460040024070
:102CF00000B0FA00006002402C4B2D4A70B51A60FB
:102D00002C4A2D4B2D491A6014008B689C43FBD133
:102D10002B4D2C4EB54208D2013E761BB60808CD8D
:102D2000984723000134B342F9D1FFF70BFE264A3E
:102D3000214B1A60214A9368DB43DB01DD09002B3C
:102D4000F9D14022214B224C224E9A675A671A67CA
:102D5000DA66B44208D223682000002B20D0083461
:102D6000FEF79EFDB442F6D31B4E1C4CC022A16858
:102D7000300001F0EBFFA660FEF780FAFEF73AFDA7
:102D8000FEF73CFF164C174EB44208D2013E361BEC
:102D9000B60808CC98472B0001359E42F9D170BD8A
:102DA0000834FEF76FFDB442D5D3DDE700E0004004
:102DB000BFCDFBFEFE7F3C0000F0004000C00040A5
:102DC000881A0020981A0020FFFFFF0100F0014040
:102DD000781A0020881A00200000002000ED00E092
:102DE000981A0020A01A002010B5034801F032FB09
:102DF000002103000020984755420000094A0300C3
:102E00001068002805D00849C3188B4207D8136002
:102E1000704706480449C31810608B42F7D9012057
:102E20004042F5E7F42C00200000042034B30020D9
:102E300010B5FFF7D9FFC0460FB400B5084883B0FE
:102E400002F0E8F8049B002B07D005A918000191B7
:102E500001F0DAFA034802F0DDF80120FFF7C4FFC1
:102E600040590110105E011010B50148FFF7E4FF52
:102E7000505901107047C046F8B557464E46454672
:102E8000DE46E0B599460A9B07009A460D9B8846A8
:102E9000934615000B9E9B0710D10C9B9E420DD2B2
:102EA0009D1B14000E005D4422004B46013431008E
:102EB0002020B847A542F7D1B0460B9E002E27D060
:102EC000444675195346AA1B013E985D21004B46A6
:102ED000B847002EF6D123002C0098460D9B9B0787
:102EE0000FD55B46E51A0C9BAB420AD9464698467D
:102EF00022004B46310020200135B8470134A84557
:102F0000F6D82000F0BCBB46B246A946A046F8BDA4
:102F10002C00E3E7F0B54F464646D646C0B584B030
:102F200098460EAB1B78129F994694460D9C109BB9
:102F3000119EBA0725D4002E4BD19C4200D3BFE08E
:102F400001223A4092461F2C00D9B8E00C9A551E37
:102F5000302201E0202C03D001342A55A342F9D8B5
:102F60005246002A0DD0A6420BD9202C44D00C9AF0
:102F7000551E302201E0202C3ED001342A55B442A7
:102F8000F9D1FA064DD57A053FD4002C39D10F9BE3
:102F9000102B00D179E00F9B022B00D18AE0302367
:102FA0000C9A012413704B46002B3FD02D230C9A12
:102FB000135501340C9B62460093039743460296D7
:102FC0000194FFF759FF04B0E0BCBA46B146A846E9
:102FD000F0BD012215003D40AA463A422FD04A4694
:102FE000002A02D10C323A4200D0013E9C42BAD2B1
:102FF0001F2CABD9202E27D92024FA06DAD57A0542
:1030000003D4A3422DD0A6422BD00F9B102B32D03D
:10301000022B20D0202CCDD030220C9B1B191A70F3
:103020000134202CC6D04B46002BBFD17B070DD4DA
:103030003B07BFD520230C9A13550134BAE79C42B5
:103040009FD21F2C00D881E720249AE72B230C9ACB
:1030500013550134AEE7202CACD00C9B1B19013466
:103060003AE0631E012C92D00F9A102A2AD0022A2D
:103070002FD01C00D0E7BB060ED4202C9AD00C9B7E
:103080001A19013478231370C4E7BB060DD47823D2
:103090000C9A01241370BFE7202C00D18AE7582234
:1030A0000C9B1B191A700134B4E758230C9A0124A5
:1030B0001370B1E70C9A603301241370ACE720243D
:1030C00000265EE7023CBA06E9D40C9A12191C00ED
:1030D000D8E70C9A9246534462221A709AE7C04687
:1030E00010B5002800D110BD01F048FFFBE7C04635
:1030F0000B0010B5002802D049681B68984710BD26
:10310000F0B5DE4657464E464546E0B59BB09B4679
:10311000249B89469846259B0B900C92404642463C
:1031200019009A4601F0A9FC002800D0D8E001223D
:1031300040465146774B524201F09AFC002800D09D
:10314000CEE0012240465146734B524201F07AFCD8
:10315000002800D0C4E0002200234046514601F080
:1031600071FC002800D0B9E1424653460A92099307
:103170008023289ADB001A400E92289A1A4201D125
:10318000062326930A9A099B1600134300D0C7E032
:10319000289B002500261B0500D49BE100230D93EE
:1031A000269A0D9B9A4200DC9FE1D01A431E26937B
:1031B0008023289ADB001A430023002728920D93CE
:1031C000279B0024BB4200D9DC1B0223289A1A400B
:1031D0000E92289A134203D07B427B415B421C40F3
:1031E0000D9B002B07D00A9809992A00330001F0A3
:1031F000D0FB0A900991002200234046514601F07D
:1032000021FC002805D080200006844609996144ED
:103210000991289A414B0B9D13400493269B0A9ACF
:103220000293099B03940092019349465B46280050
:103230000C9A00F08BF90400002F62D0289B22002A
:1032400098061F23C0179843631C984649465B465F
:103250006530A8470D9B0025DA179C18DB0F9A46AE
:103260005440013F01E0202D13D00AAA94461F23A9
:10327000200063440A2101355E1901F045F930311F
:10328000317020000A2101F03FF926000400092EC8
:10329000E9D805230693002304930A330393534686
:1032A00005970B9F029312AB009342465B4649463B
:1032B00038000195FFF72EFE0E9B0400002B20D056
:1032C0000C9BC51A279BAB421BD91E0022005B46F4
:1032D000494620200135B8470134AE42F6D810E007
:1032E000289B42460493279B49460393269B0B98B1
:1032F00002935346009201935B460C9A00F026F924
:10330000040020001BB0F0BCBB46B246A946A04654
:10331000F0BDC046FFFFEF7FFFFFEFFFFFF7FFFFAE
:10332000734B099F9C467800400D604401F0B8FB48
:10333000704A714B01F047FB704A714B01F024FB5E
:103340003B03704A1B0B1A4304000D0030001100B0
:103350006D4B002201F013FB6C4A6D4B01F033FB07
:1033600002000B002000290001F00EFB01F0B0FB71
:103370000D9001F095FB674A674B04000D0001F0CA
:1033800022FB0022654B01F0FFFA01F0A1FB644A29
:103390000600644B2000290001F015FB04003000FA
:1033A0000D000F9601F07CFB5F4A604B01F00BFBB8
:1033B00002000B002000290001F0E1FA02000B00DE
:1033C00006000F0001F0FFFA320004000D003B0080
:1033D0003000390001F0D8FA002210901191544BBE
:1033E0002000290001F0D5FA0022524B01F0CCFA5E
:1033F00002000B002000290001F0CBFA00224E4B06
:1034000001F0C2FA02000B002000290001F0C1FA0D
:103410000D008021040032003B000020C90501F0AE
:10342000AEFA02000B002000290001F0ADFA020004
:103430000B001098119901F0ACFA0022314B01F009
:10344000A3FA3E4B0F9C9C4664440022230501F0E6
:10345000BAFA05000E0002000B000A98099901F063
:10346000F1FA00280AD00D9B2800013B31000D9392
:103470000022304B01F08DFA05000E00C6270D9991
:103480002B0063318F42BF4128997F4204370905E1
:1034900000D495E6334300D182E6099C284A2100F6
:1034A000284B0A9801F0DCFA002808D000222100FD
:1034B000254B0A9801F0C6FA002800D070E6269B3A
:1034C000002B00D17CE60E9B5A1E9341269AD31AFC
:1034D000269375E6002304270D9371E643460A936D
:1034E00080231B065344099342E6002326935FE69C
:1034F00001FCFFFFFB799F501344D33FB3C8608B9F
:10350000288AC63F0000F03F0000F83F61436F6328
:10351000A787D23F71A379094F930A400000E03F8B
:103520001655B5BBB16B0240EF39FAFE422EE63FAD
:1035300000002C400000244000001840FF03000061
:103540002D431CEBE2361A3F80842E41F0B54E46E7
:10355000DE4657464546E0B597B09946209E219FE6
:10356000229B8346984607910C923B003200300024
:10357000390001F082FA002800D0A9E101223000D0
:103580003900CA4B524201F05DFA002800D0E1E058
:10359000012230003900C64B524201F069FA00287E
:1035A00000D0B7E0002230003900C24B01F060FAD1
:1035B000002800D099E0002230003900BE4B01F015
:1035C00041FA002800D090E00022002330003900AA
:1035D00001F038FA002800D0B1E000230D93249BBD
:1035E0005B0501D40623984608AB9C4617220024AD
:1035F00030234146624404E0013413550139202C44
:1036000001D00929F8D888463000390001F060FA65
:103610004346DA00A94B05009B181A685B680892BC
:10362000099301F03DFA02000B003000390001F06F
:10363000A6F9089A099B01F0C6F90A900B9101F0CE
:103640006BFA824601F028FA02000B000A980B99E7
:1036500001F095F900229A4B0A900B9101F008FABB
:10366000002800D1C0E001239C46E244504601F00E
:1036700013FA02000B000898099901F0E9F90028F3
:1036800002D000239A4601354346002B6AD008AB8E
:1036900017269C4608956644554614E001235B4274
:1036A00043440A2128009A4600F02EFF01343031AD
:1036B0003719397028000A2100F026FF092D00D89B
:1036C000D0E0D0460500202CE8D10EAB984603236D
:1036D000249A1340012B00D196E02023249A0193D1
:1036E0000392239A434602921EE0249B5846049379
:1036F000239B00960197039343460C9A02930799E4
:103700004B46FFF7FDFC17B0F0BCBB46B246A946DE
:10371000A046F0BD249B5B070ED40322694B24997D
:103720000192039123990291009358464B460C9ABB
:103730000799FFF7A1FBE6E70422634BEFE73B00A5
:1037400032000020002101F01AF9012306000F00C9
:103750000D9344E7249B0393239B0293042301933B
:103760005A4BE1E7280001F09BF902000B00300002
:10377000390001F004F9524B002206000F0001F05D
:1037800061F90EAB984600280AD1002230003900BA
:103790004B4B01F06DF9002802D1EB0700D5013544
:1037A000202C94D008AA94461723280063440A21A9
:1037B00001341E1900F080FE3031280031700A21DA
:1037C00000F07AFE051EEBD10323249A1340012B4F
:1037D0001BD0202C00D180E70D9B002B35D02D2253
:1037E0004146631C0A5579E700220A980B99344B2D
:1037F00001F028F9002800D046E75346002B51D1AC
:1038000001239C46E2443FE72024239B002BE0D089
:103810000D9B002B03D1249A0C33134202D0239B1F
:10382000013B2393239BA342D3D908AB9C46172289
:1038300030236244202C00D14FE7239901341355E3
:103840008C42C6D0202CF8D147E7249B5B0724D4B8
:10385000249A2300120700D440E720224146013376
:103860000A553BE75746089D202C00D12DE7220042
:1038700030214046002F09D00132B154202A00D116
:1038800023E7D3431B191B18002BF5D10EAB984629
:103890002E234146541C8B5482E72B224146631C45
:1038A0000A551BE7DB0700D4EEE6A9E7FFFFEFFFB1
:1038B000FFFFEF7F65CDCD4165CDCDC1585B0110D8
:1038C0000000E03F5C590110605901106C59011073
:1038D000249B0393239B029303230193004B23E731
:1038E00068590110F0B5DE464E4657464546E0B5EC
:1038F0009FB01C00289B91460993C94AC94B8B462F
:1039000008901A60002900D118E2002320789A4616
:10391000002800D11AE226001D005C460AE02A00B9
:103920006F1C4B46089D2100A8473D0001363078AA
:10393000002870D02528F2D110239B46083B9A46D8
:10394000043B9846023B00219C46721C10781600EE
:103950000300203BDBB2102B03D8B34F9B00FB5876
:103960009F460300303B092B32D900230A932A28B3
:1039700068D0002398462E283ED00300683BDBB277
:10398000122B1CD8A94A9B00D3589F460123013211
:103990001943DBE7634601321943D7E74346013257
:1039A0001943D3E75B4601321943CFE7534601324F
:1039B0001943CBE780235B0070781943013603007D
:1039C000253BDBB2532BAAD8994A9B00D3589F467C
:1039D00000270300B800C01901364000C018337832
:1039E00030381A00303A0700092AF3D90A90180033
:1039F000002398462E28C0D180237078DB0019431D
:103A00000300303B721C092B00D8A1E12A2800D109
:103A1000B2E11600B1E7A346AA462C00D14503D86F
:103A200001235B424B449A464B465246594600207E
:103A3000089DA84720001FB0F0BCBB46B246A9466F
:103A4000A046F0BD099B40CB0A96002E03DB5078C0
:103A50000993561C8DE72838014370420A90099358
:103A60005078561C85E7782800D1DFE1582800D12E
:103A70004CE26F2800D14FE3622801D100F030FC06
:103A800010230A009A430B92692801D000F0A9FC88
:103A90000A230C934B0500D5D0E10B9A802311002B
:103AA0009B0019408B461A4200D0A1E280231100EE
:103AB0005B0019408A461A4200D0B6E313005B0649
:103AC00000D5EDE2130009991B0601D400F076FC45
:103AD00008C91BB2D8171A18424092B209919346EE
:103AE000DA0F1292002B09D1802310220B99DB00F0
:103AF0000B4091430B91002B00D0E4E20B9A612321
:103B0000920600D541230EA91F228C46DBB26244E7
:103B10000A3B5F461395A34655460C9CB2460D934F
:103B200016000AE03033DBB201357355A74200D2EC
:103B3000EDE2202D00D1EAE207002100380000F07C
:103B4000E3FCCBB20929EDD90D9A94466344DBB26C
:103B5000EAE780239B007078194301362FE77078DD
:103B6000682800D1CDE180230136194327E770781A
:103B70006C2800D1BFE180235B00194301361EE7AA
:103B8000462800D19BE10722099B04910733934308
:103B90000A9A19000392424602920CC908980092B0
:103BA000019309912A004B462100FFF7CFFC013613
:103BB0000500BCE62A006F1C4B46089D210025200D
:103BC000A84701363D00B2E68B0700D4ADE1099B62
:103BD0002A009A466B1C9846534601CB21009A4610
:103BE000089F4B46C0B2B8470A9B9C466544012BD0
:103BF00000D886E2089B4746B04626004C469946C8
:103C00003A002300013731002020C847AF42F7D1E6
:103C1000A1465346340046460993013687E6C0461E
:103C2000E53800102031002074590110B8590110F6
:103C3000045A0110099B04CB9B4643460992002B72
:103C400000D1C6E013789C46002B00D1BDE343466B
:103C5000013B099A0133D0180A9F130001E0834207
:103C600003D05A780133002AF9D1099A0A979B1A8E
:103C70000B9380230A00DB001A400C92194204D0F7
:103C80000B9B434501D943460B9302231A000A407C
:103C90000D920B4200D187E16046002800D168E117
:103CA0000C9B002B00D10DE1A844C246099B57464E
:103CB0005B1B9846089BB2462A0026004C46994654
:103CC00009E023003100551CC8474346585D0028D1
:103CD00000D126E12A009742F3D1A1463D003400ED
:103CE00056460D9B002B00D043E15B4601360993FD
:103CF0001DE6099B1A0008CA9246002B48D02122D3
:103D000011438B460EA884461F2161440995002269
:103D10000F27A4460D0002E0202A0CD00B003C0027
:103D20001C4020003730092C00D807380132A85435
:103D300019090F2BF0D86446099D32E0DC4B20783E
:103D4000089300239A46002800D0E4E5002465E6A5
:103D5000434606000A9F9800C018013240008019AF
:103D60001678030030003038303B0928F3D9300092
:103D7000984616000A9700E6099B023604CB904647
:103D8000D2434046D2171040804609933078F4E57C
:103D90001022080090431132104383460022490547
:103DA000B0D55B460693082305934346049310233E
:103DB00003930023029316AB019200932A004B4613
:103DC00021000898FFF7A6F853460500013609932D
:103DD000ADE513789C46002B00D1F7E202235B424D
:103DE00037E7202302009A43472A04D180231B018E
:103DF000194302239843452801D120231943072260
:103E0000099B0491073393430A9A1900039242468F
:103E100002920CC908980092019309912A004B461E
:103E20002100FFF76DF90136050080E510230C93A2
:103E30000C230A009A430B924B0503D501230B9ADE
:103E40009A430B92692800D127E6642800D124E622
:103E50000B9A802311009B0019408B461A4200D018
:103E600066E1802311005B0019408A461A4200D0A7
:103E700039E213005B0600D53CE113001B0600D4B9
:103E8000A6E2099B04CB1204120C934609935B46ED
:103E9000002B00D09AE10B9A1033110099430B913B
:103EA000520500D492E100239A460B9B06930A9B8D
:103EB0000593434604930C9B039300230CE12023BA
:103EC000194360E6099B0A9A5B1B98464B4691464C
:103ED0001F00B2462600089C2A003B003100A04784
:103EE00043460135585D0028F6D14A463400B946AC
:103EF00056460A92F5E6C0239B00B0781943023675
:103F00005DE5C023B0781943023658E50C230A005A
:103F10009A4314331A43103B0B920C934B058DD4E8
:103F200096E7A14634005646DBE60A9A012A00D8F5
:103F300053E26B1E9F18089BB04626004C469946DC
:103F40002A002300013531002020C847BD42F7D1A7
:103F5000A14634004646099B3A0001CB2100984611
:103F60007D1C4B46089FC0B2B847434601360993B3
:103F7000DDE40B9B0A9AA8469A4200D8B5E694461F
:103F80006544ED1A089B4746B04626004C469946C4
:103F90003A002300013731002020C847AF42F7D153
:103FA000A14634004646A0E60B9A0A99531C91425A
:103FB00000D814E24B199B1A1F00089BB24626003A
:103FC0004C4699462A002300013531002020C8477D
:103FD000BD42F7D10A9BA14601330B93099B3400E4
:103FE0001B7856469C466046002800D058E67CE682
:103FF0000722099B07339343013294469C4462464F
:104000005F6809921A68FB17109311931098119921
:10401000030053400E930B007B400F9394460E9A7F
:104020000F9B121A8B410E920F93FB0F6246129355
:1040300000233A439B463DD00B9A6123920600D55C
:1040400041230022DBB20EA90A3B8C4692460D9317
:1040500043461F3262441395159655460E9E0F9F98
:10406000A24690460C9C14930CE03032D2B24346E8
:1040700001355A55BB4500D18AE1202D00D18AE196
:1040800006000F00220000233000390000F07AFA09
:10409000D2B2092AE9D90D9B9C466244D2B2E6E726
:1040A000FF23099904C913401A00099117E5C04676
:1040B000752E00100B9A1033110099430B91520585
:1040C000BAD500239A460B9B06930A9B0593434659
:1040D00004930C9B0393129B02935346019316ABDC
:1040E0002A00009321004B460898FEF713FF013683
:1040F00005001CE4FF22099B02CB11408B4609936B
:10410000C5E65346454609930136FFF710FC56466F
:104110005C46AA46139DD6E708230C930B910B9996
:10412000642800D084E60B9B5B0500D586E6B4E4EA
:104130000722099B07339343013294469C4462460D
:1041400009921A685B6810009B4613005A46134395
:1041500007D10B9A1033110099430B91520500D5EA
:10416000A1E60B9A6123920600D541230022DBB21F
:104170000EA90A3B8C4692460D9343461F32624479
:104180005F461295A34655460400B24690460C9EE3
:1041900013930DE03032D2B2434601355A55002315
:1041A000BB4200D100E1202D00D100E104000F004E
:1041B000320000232000390000F0E4F9D2B2092ACD
:1041C000E8D90D9B9C466244D2B2E5E70B9A612385
:1041D000920600D54123DBB20EA90A3B1F228C4672
:1041E0000D93230062445C461295170055469B468A
:1041F000B2460C9E08E03033DBB201357B55B44249
:104200000ED3202D0CD004003100200000F07CF9EA
:10421000CBB20929EFD90D9A94466344DBB2ECE79F
:1042200056465C46AA46129D3FE6099B1A0008CAFC
:10423000D91713925A184A409246DA0F1292002B5D
:1042400008D1802310220B99DB000B4091430B9186
:10425000002B2BD10B9A6123920600D541230EAA85
:104260001F279446DBB20A3B0D9567445D460993D0
:10427000A3465446B2460C9E08E03033DBB201350B
:104280007B55B4420ED3202D0CD004003100200009
:1042900000F03AF9CBB20929EFD9099A9446634460
:1042A000DBB2ECE756465C46AB460D9D0B9B2A0005
:1042B00006930A9B21000593434604930C9B0898A0
:1042C0000393129B013602935B46019316AB009356
:1042D0004B46FEF71FFE139B05000993FFF727FBD4
:1042E00002230C931AE7099B04CB92461293002AEF
:1042F00008D1802310220B99DB000B4091430B91D6
:10430000002B2BD10B9A6123920600D541230EAAD4
:104310001F279446DBB20A3B0D9567445D4609931F
:10432000A3465446B2460C9E08E03033DBB201355A
:104330007B55B4420ED3202D0CD004003100200058
:1043400000F0E2F8CBB20929EFD9099A9446634408
:10435000DBB2ECE756465C46AB460D9D0B9B2A0054
:1043600006930A9B21000593434604930C9B0898EF
:104370000393002302935B46019316AB00934B46D5
:10438000FEF7C8FD129B050009930136FFF7CFFA2F
:10439000B44200D871E6149B54460E960F97AA4675
:1043A0009846159E139D8EE6A64200D8FBE6139B09
:1043B00056469846AA465C46129D76E508C9D81727
:1043C0001A1842400991FFF78AFB00230B9350E42F
:1043D000099B04CB9346099359E52F00BBE50B934A
:1043E00001E6063B0C939AE600B585B003910121E6
:1043F00002900093034813004A4202A9FFF772FAA1
:1044000005B000BDF130001010B5094A0300146872
:1044100084B0002C08D0012200910648524203A922
:10442000A047012004B010BD00F0F4FD0020F9E722
:1044300020310020E130001001480421014B1847D1
:10444000B011002075440010014B9B681847000014
:10445000B0110020142310B50100188804331B8804
:10446000984710BD162310B50100188802331B8829
:10447000984710BDF8B54746CE4680B50F1E19D0F7
:1044800014239946043304000025012698464B4620
:104490001888434621681B88984701C4431E9841E9
:1044A000013540420640AF42F1D13000C0BCB946B0
:1044B000B046F8BD0126F8E7124A936F9B0815D263
:1044C0009066D166002905D0FFE7FFE7FFE7516F4F
:1044D000106F704704B580210906C21751400028AB
:1044E00000D0C84311F04CF8002104BDF0B5146EA3
:1044F000556E576F166FFFF7E3FF146655665767E3
:104500001667F0BD000000D0114A936F9B0813D2CC
:1045100010665166002905D0FFE7FFE7FFE7516FFE
:10452000106F704704B5002801D00020C04311F07F
:1045300027F8002104BDC046F0B5146E556E576FC4
:10454000166FFFF7E5FF1466556657671667F0BDEF
:10455000000000D094464A4A926F9208624601D207
:1045600028E0C046F0B5464E346E756E776F366FF4
:1045700000F020F89446424A14665566576716675D
:104580006246F0BD94463E4A926F9208624601D25E
:1045900054E0C046F0B53A4E346E756E776F366FA4
:1045A00000F04CF89446364A14665566576716670D
:1045B0006246F0BD002B24DB11D000293EDA00B5A5
:1045C000C943404200D1013100F038F8C9434042AC
:1045D00000D10131DB43524200D1013300BD002A3A
:1045E000EBD1002801D1002905D00020C90FC9074F
:1045F00001D1C043410800B510F0AAFF00220023FA
:1046000000BD00B500290ADBDB43524200D1013373
:1046100000F014F8C943404200D1013100BDC94344
:10462000404200D10131DB43524200D1013300F05E
:1046300005F8DB43524200D1013300BD002923D1EC
:10464000002B18D1002A0CD0BC460D4F38667A6674
:1046500000210023FFE7FFE7FFE77A6F386F674627
:104660007047002801D00748010000B510F070FF26
:104670000022002300BD02000B0000200021704733
:10468000000000D0FFFFFFFF002B00D0BFE0130CA5
:1046900028D1002AE7D080B4114F39667A66FFE747
:1046A000FFE730B4040C7B6F396F1B0423433B6678
:1046B0007A66FFE7FFE7FFE7C04684B27B6F3D6F96
:1046C0001B0423433B667A66FFE7FFE7C0460023EF
:1046D0002C042D0C7A6F386F00196941B0BC7047FB
:1046E000000000D0F0B594460025140E01D112024E
:1046F0000835140F01D112010435940F01D1920035
:104700000235D40F01D152000135D40B0134254FAD
:104710007C66254C3C660E0C93B2FFE7FFE7FFE793
:104720003C6F6643360C7703BE467343DF0B5B0476
:10473000C01AB941130C7343DB18C91ACE0866437B
:10474000360CB64493B273431F0F1B01C01AB94114
:10475000130C73431F0B1B05C01AB941860D8F0242
:104760003E436643360C092D24DB520A7243801AFD
:104770007703460A6643360C16235B1BDE40DF4098
:10478000BF1964466643821B704604350633010038
:10479000D940A840C01900D30131A24206D200235B
:1047A000F0BD0000000000D0FFFFFFFF121B013032
:1047B000F3D3F1E709277F1BFE406446A2B27243A0
:1047C000801A00D20139220C7243130C1204821A8F
:1047D00099410B007046043513370100F940A84099
:1047E000801900D30131002B02D1A2420AD2F0BDC0
:1047F000013000D30131121BFAD2013BF8D1A242A1
:1048000000D2F0BD013000D30131121BF7E7F0B543
:104810001C0C00D080E00CB400251C0A04D11B0243
:10482000160E3343120208351C0B04D11B01160F60
:104830003343120104359C0B04D19B00960F334384
:1048400092000235DC0B02D192185B4101351C004D
:10485000971864410134464F7C66464C3C660E0C0A
:10486000FFE7FFE7FFE7C0463C6F6643360C770380
:10487000BE4697B27743C01B00D20139C01B00D29D
:1048800001399FB27743C91BC91B170C77437E04BC
:10489000FF0B801BB941CE086643360C0C2D33DB71
:1048A000B644120B1F053A431B0B97B27743C01B4C
:1048B00000D201399FB27743C91B170C77433E04DE
:1048C0003F0C801BB941860D8F023E43664329276A
:1048D0007F1BFE400C3D7746AF40BF1930BCA2B2F3
:1048E000ABB272437343801A9941220C7243130C8A
:1048F0001204801A994102000B000137001BA941E4
:10490000F9D2781E0021F0BD0C277F1BFE407746B0
:104910007F0BAF40FF19E0E700245D1C07D0144F68
:104920007D663966FFE7FFE7FFE7FFE73C6F95B27B
:104930009EB265436643401BB141150C1E0C654396
:10494000664336042F0C3E432D04401BB14199426F
:1049500004D202000B0020000021F0BD01D19042E2
:10496000F7D3801A994101349942F2D3F6E7000057
:10497000000000D0FFFFFFFF48404140484018B40E
:10498000134B5B68019308BD18B4114B1B6801936E
:1049900008BD94460F4A926F920805D2624618B439
:1049A0000B4BDB68019308BD0A4AF0B5146E556ED7
:1049B000576F166F6246FFF7F2FF064A1466556698
:1049C00057671667F0BD18B4014B9B68019308BD8B
:1049D000F81B0020000000D0FFB55040424050407E
:1049E00059404B40594000E0FFB5154F4C00640D55
:1049F00003D0BC4204D10C0314D80020090D0905D2
:104A00005C00640D03D0BC4204D11C030AD8002210
:104A10001B0D1B0501264B4009D44B4003D58B428F
:104A200000D18242FFBD9942FCD19042FFBD0B43B1
:104A3000DB1803431343F5D0C9434918FFBD0000F9
:104A4000FF07000000B5FFF7CFFF804100BDC04663
:104A500000B5FFF7C9FF01D9002000BD012000BD4E
:104A600000B5FFF7B9FF01D9002000BD012000BD4E
:104A700000B5FFF7B1FF804100BD012040054A00AD
:104A8000121804D85A00121801D8002070470120CB
:104A900070470020704700000021002805D17047B2
:104AA000C1174840401AFAD0C90713B5064B1B6816
:104AB00098470CBC441CA2401005120B0349091B6B
:104AC00009051943114310BD7CAB00201F040000F1
:104AD00010B54C00620D8023D218DB00D21A5B05A2
:104AE0007E2A10DD9E3A13DACC17090349081943D0
:104AF0005242D140640001341532202A05DAD040F8
:104B00000843604310BD002010BD0846604310BD3F
:104B1000C80FC018013810BD18B4024B5B6A01936E
:104B200008BD0000F81B002010B50148FEF784F90D
:104B3000A85B0110132370B51D78012D11D035DD50
:104B40001C48FFF78FFC1C4C01008022200000F065
:104B5000FDF8022D27D01948FFF77CFC184B186090
:104B600070BD184B144C23606360A360E360236145
:104B70006361A361E36123626362A362E36223630F
:104B80006363A363E36323646364A364E3642365EF
:104B90006365A365E36523666366A366E3662367CF
:104BA0006367A367E367084BA364D4E7024C064B33
:104BB000A364D0E753440000F81B00204C330000EE
:104BC0007CAB0020294B0010CD4B001007B5604690
:104BD00001880A0A0230DF2AFAD1C9B2820804D356
:104BE000028840880004104300E00068014A5050E9
:104BF000039007BDF81B002051434343C9188C465E
:104C0000110C83B24B4310B4040C614392B280B2D6
:104C1000504362431C041B0C001910BC594113047F
:104C2000120CC018514161447047000010B5014892
:104C3000FEF702F9EC5D0110132310B510481C7843
:104C4000FFF710FC0100012C0AD003DD80220D4883
:104C500000F07CF80C48FFF7FDFB0C4B186010BD12
:104C6000084C5422200000F071F82300084A8033D9
:104C70002168002900D122600434A342F8D1E9E779
:104C80005346000080AB00204C3300007CAB00207A
:104C90002D4C001070B504000A4E300010F0D0FC0E
:104CA00020000FF0BDFF0500300010F049FC002D82
:104CB00005D0054B2C199C4201D8280070BD034833
:104CC000FEF7BAF8781A002000000420C05B01103B
:104CD00070B505000C000B4E300010F0B1FC280040
:104CE00021000FF063FF0500300010F029FC002DBB
:104CF00005D0054B2C199C4201D8280070BD0348F3
:104D0000FEF79AF8781A002000000420C05B01101A
:104D100070B50400054D280010F092FC20000FF043
:104D200089FF280010F00CFC70BDC046781A0020E6
:104D300001480421014B1847C011002075440010A0
:104D4000014B1B6818470000C0110020014B5B6835
:104D500018470000C0110020030010B50800110022
:104D60001B68984710BDC046F0B546464F46D6462C
:104D7000C0B5437D80460E001700002B46D0002AA8
:104D80003FDD4B1E9946244B0125002400209A4606
:104D90000DE04B461B5D0D3B5A425341325DDBB289
:104DA0000A2A0BD02B00013401359F421ADD002C5A
:104DB000EFD14346325D1B7D0A2AF3D1002BF1D19E
:104DC000A04204DA4346211A1B683018984743462C
:104DD00050461B6802219847013428002B000135FA
:104DE0009F42E4DC874204DD4346391A1B683018D1
:104DF0009847F619013E33780D3B5A4253414246DB
:104E00001375E0BCBA46B146A846F0BD0368110070
:104E100030009847F5E7C046385C0110F0B5C6464B
:104E20000C000968060000B5802906D04B1C2360E1
:104E30006418267180BCB846F0BD0F4B1D68002D6C
:104E400016D0231D98460D4F02E02D69002D0FD07E
:104E50002B68002BF9D03B68002B01D0AB42F4D17A
:104E6000280041462268FFF77FFF2D69002DEFD112
:104E700001230021DBE7C046E42C0020F02C0020B9
:104E8000F0B5DE4657464E464546E0B585B01700BC
:104E90001C0006000D00FDF73BFA0023304A1218F3
:104EA0004B41002B58DB2F4908008A4610F098FB35
:104EB00001906B1C03D1300010F096F90500002C16
:104EC00025D1294B9846294B1C68002C15D0002F62
:104ED00020D1274F02E02469002C0ED02368002B3C
:104EE000F9D03B68002B01D0A342F4D120002A0066
:104EF0003100C0472469002CF0D1019B002B27D141
:104F000005B0F0BCBB46B246A946A046F0BD194B61
:104F10009846D8E7164B994602ABDF1D0A239B46FD
:104F200002E02469002CE8D02368002BF9D04B461E
:104F30001B68002B01D0A342F3D12A0031002000CE
:104F4000C0475B460122390020003B70C047E8E7BC
:104F5000504610F0F5FAD3E70122074B5242A2E780
:104F600040420F00801A0020694D0010E42C002000
:104F7000F02C0020594D0010FFFFFF7FF0B5CE460A
:104F8000474680B583B06B460600DD1D2870FDF7EF
:104F9000BFF900231A4A12184B41002B2BDB194989
:104FA0000800884610F01CFB174B81461C68002C3B
:104FB00014D0164F02E02469002C0FD02368002B78
:104FC000F9D03B68002B01D0A342F4D1200001228C
:104FD0002900FFF7C9FE2469002CEFD14B46002BB6
:104FE00005D1300003B0C0BCB946B046F0BD404664
:104FF00010F0A6FAF5E70122054B5242CFE7C04672
:1050000040420F00801A0020E42C0020F02C0020E9
:10501000FFFFFF7F70B5040010F0E6F800230100E9
:10502000050001222000FFF72BFF084B1C68002C15
:1050300006D06368002B05D098472469002CF8D16E
:10504000280070BD2469002CF3D1F9E7E42C00207E
:10505000F0B5CE46474680B5A5B004000D00FDF77B
:1050600057F900232A4A12184B41002B49DB294EDD
:10507000300010F0B5FA00230700039322002B0044
:10508000254803A9FFF7B0F9039B8046002B14D1F4
:10509000224B1C68002C06D06368002B0BD098476D
:1050A0002469002CF8D1002F27D1404625B0C0BC80
:1050B000B946B046F0BD2469ECE7184B1D68994627
:1050C000002D22D0164C02E02D69002D11D02B6846
:1050D000002BF9D02368002B01D09D42F4D1039B13
:1050E00028001A0004A90193FFF73EFE2D69002D48
:1050F000EDD14B4603951C68CCE7300010F020FA48
:10510000D3E70122074B5242B1E70395CBE7C046F4
:1051100040420F00801A00201D4E0010E42C002099
:10512000F02C0020FFFFFF7F0FB400B583B004A96F
:1051300001C90191FFF78CFF03B008BC04B0184708
:1051400010B5024800F00CF810BDC04670AB00204E
:1051500010B508220149FFF7F9FD10BD70AB002022
:1051600030B5002589B004000922002101A800956E
:10517000FFF7E6FD0922002105A80495FFF7E0FDF1
:105180004B236A466846137004A90D2210F0D0F92B
:105190001521082220006944FFF7D8FD09B030BD71
:1051A00010B501210520FCF793F810BD10B50022C1
:1051B0000021024800F05AF910BDC046182D002009
:1051C0008022024B5202DA647047C0460020115020
:1051D000F0B5C64600B5060000F022F90C231B4DC1
:1051E000FF22AB6705201A49FCF7CAF8402398460E
:1051F000184C402200212000FFF7A2FD4346012762
:10520000238321210023144A6770A2601360635432
:105210005F31618441462187053963540F4A104943
:105220006360E260A1620B606362E26210F0F0F919
:1052300080239B052F64EB6490230A4A3000EA50D8
:10524000FFF7BEFF80BCB846F0BDC046000011505D
:10525000E1060020F82C00208400105000011050BE
:105260008000105010D001000B785B0602D14B7803
:10527000052B00D070478A78014B1A60FAE7C046C8
:1052800000001150F0B5C64600B54B790C791B02F1
:1052900088782343CC787F21A4070140C509A20F59
:1052A0004F001400324E7A195201B218907001204A
:1052B0006840507000205B055B0DD0701383D4767E
:1052C0008046CA00012D33D02A48844688016244B2
:1052D0008446B4446046826040461060002933D062
:1052E000254AC90090466246414451603F223F33FF
:1052F0009343022C00D15B0020487A1901685201C7
:10530000B218D1601E4ACB1803605140534080222E
:1053100088465201934228D84346A4061C43802362
:105320007F197F011B06F6191C4373681C6011E08E
:1053300014488446880162448446B44460468262CC
:1053400040461060002909D100236D017619736071
:105350000D4BF360012080BCB846F0BD084AC9007F
:105360009046624641445162C0E7FDF77DFDD3E7B8
:10537000F82C00208400105004001050909C002055
:1053800000001050800010500001105010B510F0B7
:105390003FF910BD10B57F200C0020404000E4090B
:1053A000110000191A00034B4001C01800F05EF80C
:1053B000012010BDF82C00207F22130010B50B40F7
:1053C0000A420BD0C9098022580040180649400102
:1053D00040181201002110F02BF910BD02220348E1
:1053E000C909521A8266EEE7F82C002000201150FD
:1053F0007F22100010B508400A4200D110BD0023E2
:10540000C909400040180449400108180022034916
:10541000C37010F00DF9F1E7F82C0020FFF7FFFF43
:1054200080220D4B520410B51A600C4B0C491A60C7
:1054300010008B689843FBD10A4C9C22002120006D
:10544000FFF77EFC8022002152010748FFF778FC1D
:105450000923636710BDC04600E0004000F0004033
:1054600000C00040000011500000105070B5837E55
:1054700004000D001600002B17D10023E382013336
:105480002000A682A376256110F0A2F8002804D09F
:1054900080219023084A8902D150200010F090F812
:1054A000002805D00123237770BD10F0B9F8E4E798
:1054B000200010F09DF8F7E700201150024B5878BB
:1054C000431E9841C0B27047F81D0020024B187867
:1054D0004007C00F7047C046F81D0020F8B547468A
:1054E000CE4680B52B4F06003B780120FF2B03D022
:1054F000C0BCB946B046F8BD532200212648FFF78C
:105500001FFC264C2000FCF7BDF9254B1C60254CE8
:1055100020001430FCF7D2F9200001F029F9224BC9
:10552000224D1C60224B002B04D0280000E000BF5D
:10553000204B1860204B002499461E4B2A78984631
:105540000FE042461268630094461B19DB00634477
:10555000002B1DD01B68984701342A78E4B2A24280
:105560000DD3A242EDD8A21A53009B18DB004B4486
:105570001B68984701342A78E4B2A242F1D2300085
:105580003E70FFF725FE3000FFF70AFE0120AFE76F
:105590000020ADE7F4110020F81D0020B01D002010
:1055A0004C1E0020D8110020501E002022B30020E5
:1055B000000000004C1D00202C5D0110F0B5DE46FF
:1055C00057464E464546E0B5C64B89B09B461B78CC
:1055D000FF2B00D10DE1C44E05AC35686A69EFF3CD
:1055E000108172B61368002BFCD0BFF35F8FA961E6
:1055F0002800210001F028F86A69AB69BFF35F8FCA
:105600000021116083F31088002800D1F1E0637855
:10561000082BE2D8B54A9B00D3589F466368002BFD
:10562000DBD0A0689847D8E77F232179B04D0B40A5
:105630005800CA092D18AD182A0001273032D07839
:10564000B843D070D0780337B843D070002B00D166
:10565000EEE0A84AEB7C1278934200D3C7E05A00F0
:10566000D218A54BD2001B689B18002B00D1C0E0BC
:105670001D6962792078A368A847AEE701229C4D96
:1056800001212B78042013432B703323EA5C8A43D7
:10569000EA54EA5C8243EA540133EA5C8A43EA54FE
:1056A000EA5C8243EA54237800209A4600F098FC92
:1056B000602223791A40602A0DD0402A00D1BDE033
:1056C000DB06DB0E012B00D1C9E0022B00D121E16A
:1056D000002B00D1F9E020780021FFF76DFE80213A
:1056E0002078FFF769FE78E7814D2B78DB0700D43F
:1056F00073E7824B002B00D16FE728780007C00FBB
:1057000000E000BF69E723787A4F98467C4B3A78EF
:105710009A46794B002599463B004746984611E04A
:105720004A4612686B0094465B19DB006344002B09
:1057300054D05B6838009847434601351A78EDB27B
:10574000AA423AD3AA42EBD8AA1A53009B18DB000C
:105750005344EEE7664D2B78DB0700D43DE7694BF9
:10576000002B00D139E700E000BF36E72378614F16
:105770009846634B3A789A465F4B002599463B0022
:105780004746984611E04A4612686B0094465B19FA
:10579000DB006344002B49D05B68380098474346E0
:1057A00001351A78EDB2AA422AD3AA42EBD8AA1A36
:1057B00053009B18DB005344EEE74D4D532200216C
:1057C0002800FFF7BDFA1022FF21E81CFFF7B8FA06
:1057D00028002022FF211330FFF7B2FA00F0F6FB79
:1057E000494B002B00D1F8E600E000BFF5E69342FC
:1057F00033D009B0F0BCBB46B246A946A046F0BDC6
:105800003B4D532200212800FFF79AFA1022FF2176
:10581000E81CFFF795FA28002022FF211330FFF73C
:105820008FFA00F0D3FB2379AB70D6E6304DF8E762
:1058300062792078A36800F0E7FBCEE633480028C1
:1058400000D148E700F0CCFB0121504606AA00E059
:1058500000BF002800D0C0E63DE7294B08E7237AC7
:105860000F2B00D937E7234AEB18DB7812789342E5
:1058700000D3B2E0204A5D00EB181568DB00ED189C
:10588000002D00D127E7E86800F0AAFB012150466F
:10589000EB6806AA9847002800D09EE66022150013
:1058A00023791D401A4200D015E763790A3B012B8A
:1058B00000D910E700F094FB63790A2B00D181E155
:1058C000504606A900F00CFB87E6202A4CD0002A9F
:1058D00000D000E76379092B00D9FCE60C4A9B0055
:1058E000D3589F46F4110020501E0020A05C0110E8
:1058F000F81D002022B300204C1D002000000000F5
:105900002C5D0110000000000000000000000000FD
:10591000C45C01107023217A0B4200D0DBE60F3308
:105920000B405B00E818CF090093C94BC019C07C3D
:105930001B7898422ED243009846C64B40441B68C1
:10594000C00098468044002A2BD04346002B00D14B
:10595000C1E64346D86800F043FB43460121504668
:10596000DB6806AA984774E7237A0F2B00D9B2E6C2
:10597000B74AEB18DB781278934233D300D0AAE60B
:10598000B54DE86800F02CFB01215046EB6806AAF3
:1059900098475EE7984200D0EDE0AF4B9846002A6A
:1059A000D7D163791A00994602239A43012A00D17C
:1059B000BEE04B46002B00D08DE6009B04AAEB18FE
:1059C000DF193037FB7802329B07DB0F138050461C
:1059D000022306A900F09CFAFFE5934200D07AE684
:1059E0009D4D50E79B4A5D00EB181568DB00ED18F4
:1059F000002D00D16FE6C4E7A37900931A006B78FD
:105A00009A420CD06B78002B00D057E1009B002B02
:105A100000D0E0E0914B002B01D000E000BF009BE4
:105A2000504606A96B7000F05BFAD6E56B7804AAC5
:105A3000023213705046012306A900F069FACCE542
:105A40000220297804AB9A1C8B068908DB0F0140E1
:105A50000B43BBE7E088030AC0B20F2B00D93AE63C
:105A60007F499A008A58974606A800F0BFFA504628
:105A7000A179FFF79BFB02222B7813432B70ACE537
:105A8000E388012B00D026E608222B7850461343EA
:105A900006A92B7000F024FA9FE5E388012B00D0C3
:105AA00019E608222B785046934306A92B7000F084
:105AB00017FA92E56B4B002B00D10CE600E000BF1B
:105AC000021E00D107E6D37891781B020B435046A3
:105AD00006A900F01DFABCE6634B002B00D1FAE5E5
