:020000041000EA
:1000000000B5324B212058609868022188439860DF
:10001000D860186158612E4B002199600221596106
:100020000121F02299502B49196001219960352056
:1000300000F044F80222904214D00621196600F024
:1000400034F8196E01211966002018661A6600F04E
:100050002CF8196E196E196E052000F02FF8012189
:100060000842F9D1002199601B49196000215960AB
:100070001A491B48016001219960EB211966A021F2
:10008000196600F012F800219960164914480160C1
:100090000121996001BC002800D000471248134993
:1000A000086003C880F30888084703B5996A0420EC
:1000B0000142FBD001200142F8D103BD02B5186610
:1000C0001866FFF7F2FF186E186E02BD00000240BE
:1000D000000000180000070000035F00212200005C
:1000E000F4000018222000A00001001008ED00E03C
:1000F00000000000000000000000000074B24E7A12
:1001000000200420F7010010C3010010C5010010F9
:10011000C1010010C1010010C1010010C101001097
:10012000C1010010C1010010C1010010C701001081
:10013000C1010010C1010010C9010010CB01001065
:10014000CD010010CD010010CD010010CD01001037
:10015000CD0100101D1A0010CD010010CD010010BE
:10016000CD010010CD010010CD010010CD01001017
:10017000CD010010CD010010CD010010CD01001007
:10018000CD010010CD010010CD010010CD010010F7
:10019000CD010010CD010010CD010010CD010010E7
:1001A000CD010010CD010010CD010010CD010010D7
:1001B000CD010010CD010010CD010010CD010010C7
:1001C00000BE00BE00BE00BE00BE00BEEFF3058054
:1001D000103800BEF2EB887128DB041044DB0410F9
:1001E0003802001090A31AE71E481F49086006C88D
:1001F00081F3088810471D480068002801D019487D
:10020000F3E70DA40ECC002902D000F012F8F9E7B4
:100210001749184A002000E001C19142FCD116495B
:100220008847164988471649884700BEFDE701C937
:1002300001C29A42FBD3704744DB0410C000002087
:10024000100F002094E90410000004200000042096
:1002500094E90410001004200010042000000000A5
:10026000704700000000000008ED00E0000000D032
:10027000100F00204C0F0120C17600100507001060
:1002800081760010F8B5C0460448054B10B583428E
:1002900003D0044B002B00D0984710BD100F002056
:1002A000100F00200000000006480749091A8B10B3
:1002B000C90FC91810B5491003D0044B002B00D04A
:1002C000984710BD100F0020100F00200000000004
:1002D00010B5074C2378002B09D1FFF7D5FF054B4C
:1002E000002B02D0044800E000BF0123237010BDA2
:1002F000401700200000000010470110054B10B50A
:10030000002B03D00449054800E000BFFFF7CCFFF5
:1003100010BDC04600000000441700201047011027
:10032000F0B5DE46454657464E460023E0B5C04888
:100330008BB0069300F006FE07F004FC08F0F0FA1C
:10034000BC4BBD4C9B46BD4BBD4D0393BD4B049375
:10035000BD4B9846BD4B0793BD4B0893BD4B0993CE
:1003600004F08EFC22686368121A8B41002BF7DAC6
:1003700080231B01EE58002E66D0BE220021584675
:1003800005F076FCBE220021039805F071FC0622E0
:100390000021049805F06CFC002342461370C12232
:1003A000731E5200934200DD13002878202859D094
:1003B00000220027BE2A0CD0791C8C4659460132F7
:1003C000C8559A4222DCA85C202809D06746BE2A7C
:1003D000F2D10132934200DAC2E0A85C2028F8D1C1
:1003E00000210132013193423EDBA85C2028F8D085
:1003F000012900D1DFE0022900D1A4E001329A42B4
:1004000000DD31E1A85C2028F8D1EAE70022E146CE
:1004100000219446DA43D217134001334F46069821
:100420009E422BD86346002B0AD0434618705828AA
:1004300000D197E0592800D1B7E05A2800D1DEE07A
:10044000802300221B01EA5004F01AFC0023824A98
:1004500080185941002902DA012080494042206079
:1004600061607DE70022BBE720200027DA43D21736
:1004700013400122013394469E42D6D9EA5C202AD9
:100480001AD0002900D0B5E08A46BD2B0DDC791CBE
:10049000894659460133CA559E42C3D9EA5C202A8F
:1004A00000D180E04F46BD2BF1DD514601339E4225
:1004B000B8D9EA5C202AF9D101339E42B2D9EA5C6C
:1004C0000131202AF8D000270597012911D0C12732
:1004D0007F00B946022900D0A1E0059F05914B4558
:1004E00024DB059901339E429CD9EA5C202AF9D18C
:1004F000E2E79246BE22520091465246059F059180
:100500004B4507DB059901339E428BD9EA5C202AD3
:10051000F9D1D1E7791C8A4603990133CA559E4225
:1005200080D9EA5C202A30D05746E9E7791C8A4610
:1005300004990133CA559E4200D873E7EA5C202A29
:1005400023D05746CBE78131FF3100278C466245E7
:100550001DD101220133022194469E428ED864E7C8
:10056000002183E7002107980CF0FCFC089B5A4609
:10057000186043460193049B394800930999039BF3
:1005800006F0D6FF374B18605AE7059994E7791CB7
:10059000894604990132C855934238DBA85C20286B
:1005A0003BD04F46D3E7514686E70022002100208A
:1005B00004F0FAFC44E7202106915D31FF31002769
:1005C0008C460100624507DB0132934214DBA85CD4
:1005D00020280DD00691F4E7781C8146039801325B
:1005E000C15593420FDBA95C202901D04F46E9E7B2
:1005F0000121F6E6059768E70800012136E70021AA
:10060000002004F059FD01220121944602E7202236
:1006100006921F3A02219446FCE60221E1E60133EC
:100620009E4200D8FEE6EA5C202A00D04DE743E770
:1006300040070020FC1D002098150020DC1C002035
:1006400068F20020800A0120302800202C1F0020A2
:10065000342800201047011040420F00FFFFFF7FA9
:10066000B00B0120380F01200027FFE6F0B5C64689
:1006700000B5204C0E00A544002934D01E4B0D00BF
:1006800098461F3508AC18AF20002A78414602343E
:1006900006F04EFF0135BC42F6D15A23F35E5822D4
:1006A000B25C16490792727E19A80692327E0592B4
:1006B000F27D0492B27D0392727D0292327D0192AC
:1006C0005422B25A009208AA06F032FF0C4919AA25
:1006D00048A806F02DFF48A80DF0B4FC48A9020078
:1006E000022000F0C7FC002092231B019D4480BC27
:1006F000B846F0BDE0F6FFFF344701103C4701105B
:10070000E0540110F0B5DE4657464E464546E1221C
:10071000E0B5DD4CA5B000212000520005F0A8FA9C
:10072000E122DA4B0021180052001D000C9305F065
:100730009FFAE122D64B28001968520005F09EFA74
:10074000E12229002000520005F098FAD14BD24E48
:100750009846D24B424619000D93D14B2800059381
:100760000193D04BD04F0E93009333000DF098FCC3
:10077000CE4808F08BF908F055F9CD4BCD4918005B
:100780009B460CF00DF9CC4900200CF059FFCB48EA
:1007900008F09AF8CA4BCB4D00205C681B680293A6
:1007A00003942B606C600CF01DFE01238340C64C4B
:1007B000C64A2060C64913600B2003F045FA0121A8
:1007C0000B2003F01BFA2268C24CD202C24B22401B
:1007D0003A4301201A600CF005FEC04B1860C002BD
:1007E000BF4B2040074301201F600CF0FBFDBD4BB9
:1007F000BD4A1860C3022340BC491A4301200A6065
:100800000CF0F0FDBA4BBB491860C302BA4A234052
:100810000B430120894613600CF0E4FDB74BB84F41
:100820001860C302B74A23403B43012013600CF019
:10083000D9FD4A46B44BC1461860C002B34B2040B4
:100840001043186001200CF0CDFDB14B1860C002C0
:10085000B04B204007431F6000239A46AE4BAF4C7D
:100860000F93AF4BAF4F0693AF4B0793AF4B0B9329
:100870002378002B00D0CCE004F002FA029A039B0C
:10088000121A8B41002B00DAE1E004F0F9F92A6832
:100890006B68121A8B41002BEADA48460DF0D2FB46
:1008A000002849D0069B01389C46012398434B46BB
:1008B000804602339844534609954A466546A24607
:1008C000B44608930A971CE01C00613C052C00D834
:1008D000B2E01C00413C052C28D8373B092E1DD91D
:1008E00001006139052900D8AFE00100413905292F
:1008F0001CD837381B01034302322B700135904559
:1009000014D0137850781F000100303F3039FCB20A
:10091000CEB2092CD8D83B00092EE1D808001B0123
:10092000034302322B7001359045EAD1089B5446AF
:1009300066469A46099D0A9F30000DF083FB002809
:1009400048D0079B01389C46012398438046B31C3E
:1009500098445346099532006546A246B44608932A
:100960000A971CE01C00613C052C00D8E8E01C0044
:10097000413C052C28D8373B092E1DD9010061398F
:10098000052900D8E5E00100413905291CD8373890
:100990001B01034302322B700135904514D01378AC
:1009A00050781F000100303F3039FCB2CEB2092C24
:1009B000D8D83B00092EE1D808001B0103430232BE
:1009C0002B7001359045EAD1089B544666469A46FD
:1009D000099D0A9F059B1B78372B00D1CBE0352B57
:1009E00000D1ECE0332B00D1EBE0302B00D1EAE07A
:1009F00004F046F900234E4A12184B41002B02DA4C
:100A000001224C4B52422A606B602378002B00D1AC
:100A100032E701F03DFB8046002800D128E70123A2
:100A2000028900210093030058460BF059FF3860FB
:100A3000404607F0DBFB1BE7573B092E00D86DE76C
:100A400001006139052900D94FE7573852E753466D
:100A5000002B00D17FE05A46374BD358012B00D1F1
:100A600013E704F00DF90023344A8018594102902D
:100A70000391002904DA01222E4B52420292039381
:100A800000239A4601E7C046740D0120B00B0120F7
:100A900048070020FC1D0020DC1C0020104701102E
:100AA00030280020800A012035801F00494E0000B8
:100AB0002C1F0020201011004007002021030010EF
:100AC000B857011098150020A41C002004240050E1
:100AD000B50D0010FDFF1FFF9C1C0020A81C00206E
:100AE000A01C00202428002025801F00849F0020B7
:100AF0001C28002031801F00781A002018280020B0
:100B000039801F00741A0020202800207C1A002041
:100B100028280020AC0B01206D060010460F012094
:100B2000BC1E0020342800209C1D0020380F01200E
:100B300080969800FFFFFF7F6808000080841E00F9
:100B4000573B092E00D837E701006139052900D944
:100B500019E757381CE74C22002111A805F088F846
:100B6000002258460F9B11A90CF018F9002815D146
:100B700001239A4689E6154A0799069807F060FF0F
:100B8000059B386001930E9B4A4600930D993300F4
:100B90000C9806F0CDFC0B9B186029E704F070F868
:100BA00000230B4A8018594102900391002900DB71
:100BB0006BE60122074B52420292039365E6064A16
:100BC000DAE7064AD8E70022D6E7C046060040002A
:100BD00080841E00FFFFFF7F040040000200200011
:100BE000014B18687047C046A80B012070B51A4C1D
:100BF0002378002B0ED1E122184D1948290052000C
:100C00000EF0B4FF01232370002804D1012100203D
:100C100007F044FF70BDEFF3108672B607F0A6FE32
:100C20008021A0204901400313F01EFD8022A02056
:100C300029009200400313F0EFFC07F0C9FE86F391
:100C400010880020217807F029FF002200210020D1
:100C500004F0AAF9DEE7C046460F0120B00B0120E0
:100C6000740D012070B5184C2378002B09D0174B58
:100C70001B78582B06D0002300210020237007F09A
:100C80000DFF70BD00232370EFF3108572B607F0DF
:100C90006DFE8021A0204901400313F0E5FC802275
:100CA000A0200B499200400313F0B6FC07F090FE21
:100CB00085F310880020217807F0F0FE0022002143
:100CC000002004F071F9DCE7460F012030280020F5
:100CD000B00B0120F8B51D00A023DB059C46802346
:100CE00014002D4E5B043268A1B292016244D268B6
:100CF0001A4234D0A020C0058446284E32689201A2
:100D00006244D2681A420DD0C1220020520007F07E
:100D1000B3F9234C4560206001F02EFB206807F0FA
:100D200065FAF8BDC1220020520007F0A5F91D4F59
:100D30003860E3072BD4A021C9058C46336842688C
:100D40009B0163441D605A60174A640812689C60E6
:100D5000DA6001F011FB386807F048FAE1E7C122D8
:100D60000020520007F088F9104B1860E30710D4F8
:100D7000A021C9058C46336842689B0163441D600D
:100D80005A600B4A640812689C60DA60C9E7013453
:100D9000D1E70134ECE7C046A41C0020A81C0020C9
:100DA000909F0020989F0020A01C0020949F00206E
:100DB0009C1C002010B5084C206801F0DDFA20686A
:100DC00007F014FA054BA0211A6801239340044A46
:100DD000C9058B5010BDC046949F0020A41C002064
:100DE0000C040000F8B51500022948D0032923D0CF
:100DF0008023334E0421320000201B0100F026FD29
:100E0000002D12D030002F4A2F4B7719D1582F4B7D
:100E100054189C460131037864444905013023701D
:100E2000490D8742F3D1284BD1502B003200842149
:100E3000002000F05BFCF8BD8023254C0020220040
:100E40001B0100F003FD002D12D0224B1D4A671933
:100E5000D1582300204E5018B44601311E7860440A
:100E6000490501330670490D9F42F3D1194BD1500A
:100E70002B0022008321002000F038FCDBE78023D8
:100E8000164C002022001B0100F0E0FC002D10D0C9
:100E9000802321000B4A1B01D358661908780131C1
:100EA000D05401335B055B0D8E42F7D180210901DF
:100EB00053502B0022008221002000F017FCBAE7DB
:100EC00068EA002068F200200818000008100000FE
:100ED00068E20020041000000408000068DA002026
:100EE00010B5072900D010BD80230C4C1B01220037
:100EF0000539002000F0AAFC80231B01E218032121
:100F0000002000F0A3FC80235B01E2188023042171
:100F10001B01002000F09AFCE5E7C04668DA0020DB
:100F200010B5930601D1002A03D10022044B1A7098
:100F300010BD00230022002000F0D8FBF8E7C046D7
:100F4000440F012010B5040082B00020334902F0A4
:100F5000DDFB8523812201210094314801F0A8FBAB
:100F60000100002002F0F6FB85238122012100947C
:100F70002C4801F09DFB0100002002F0EBFB2A4908
:100F8000002000F00FFE0100002002F0E3FB2749E3
:100F9000002000F007FE0100002002F0DBFB002033
:100FA000234902F0F7FB0020224902F0F3FB22491B
:100FB000002000F0F7FD0100002002F0CBFB1F49EC
:100FC000002000F0EFFD0100002002F0C3FB002034
:100FD0001B4902F0DFFB00201A4902F0DBFB1A4933
:100FE000002000F0DFFD0100002002F0B3FB1749F4
:100FF000002000F0D7FD0100002002F0ABFB002034
:10100000134902F0C7FB0020124902F0C3FB124A49
:101010001249002002F00EFC02B010BDE85401108D
:10102000F8390020143A0020303A00204C3A0020D1
:10103000740700206C070020683A0020843A0020E2
:10104000640700205C070020A03A0020BC3A002082
:10105000540700204C070020E10E00100000115042
:10106000034B002A02D001221A7070471A70FCE765
:10107000430F012010B50F4B1B78002B0FD001231D
:101080000D4C237013000A00022809D003280CD04D
:101090008421002000F02AFB2378002BFCD110BD16
:1010A0008221002000F022FBF6E78321002000F0DF
:1010B0001DFBF1E7430F0120440F012070B5436988
:1010C000040082B0002B29D025490588254B0A68E9
:1010D0003F351D405319C2610B609B0634D18023FC
:1010E000214E5B0156409E4222D8204806F01EFD4C
:1010F0003200E36929001E4806F018FD1D4806F07D
:1011000015FDA022A37812069B06334313430193D7
:10111000019A63691A60002002B070BD164806F09B
:1011200005FD164806F07EFC124806F0FFFCF2E7CB
:10113000134806F0FBFC134806F074FC0D4806F05B
:10114000F5FC02204042E7E70D4806F0EFFC0E48B0
:1011500006F068FC074806F0E9FC01204042DBE7A6
:10116000889F0020C0FF000000001050F4470110CD
:1011700004480110AC47011088470110984701103E
:10118000B4470110E0470110C4470110F0B5C6464E
:1011900000B58369417905001C68802900D169E0A8
:1011A000A405A40D00294BD00F273B000B409C4603
:1011B0004BB2904E002B00DB74E06346DC00E2187B
:1011C0009200B3181A699888824200D862E0D96800
:1011D0005D69121A09182D181A61D9605D61030042
:1011E000904200D913009BB2984200D9A2E080201F
:1011F000C00018436246A2189200B218557A7F2D9B
:1012000000D9A4E00100230063449B00F6183000DD
:101210002430027813005C1EA3415B030B430121C1
:101220004A400270744AF1691A400A60FFE7FFE71A
:10123000FFE7FFE7FFE7FFE7FFE7F269136016E06C
:1012400093236C4D9B00E8581433E958220004F0B6
:1012500015FD952394219B00EA588900A218EA50B5
:101260006B5800201B1B6B50002102F03BFA80BC26
:10127000B846F0BD5F4B614A9A5CD209012A4BD057
:101280001A78002AF3D01A785D49D2B20A60002297
:101290001A70ECE75869121800205A61186102F0C0
:1012A0000DFAE4E76346982193228900DB0063444A
:1012B0008C469B00F31892009A18634419681068D2
:1012C000220004F0DBFC9322697992000F40FB00BE
:1012D0009846DB199B00F3189818026812190260EF
:1012E0009522920098180268A2180260942080004B
:1012F00084469C44604665460068001B2860912532
:10130000AD00AC4663441B88A34201D8002834D109
:10131000002002F0E7F9AAE719699A885869914212
:101320000CD9891A19611218802100205A6102F023
:10133000C5F99CE78820C00118435BE70A18002123
:101340000020196180315A6102F0B8F98FE7002955
:101350000FD0A027FF05B846156A2A4A9B081268D5
:10136000013392014244116055609360264B1B6823
:10137000D36080210902014345E71900834200D967
:10138000010089B28B4231D88023DB0019434346E8
:101390001E4ADB1994469B00F31863441B787F2B8D
:1013A00002D980231B0219433B00992243449B002E
:1013B000F31892009C1820780200551EAA4152038F
:1013C0000A4301214840972189008C460A49634419
:1013D0002070186811400160FFE7FFE7FFE7FFE7B3
:1013E000FFE7FFE7FFE71B681A6040E78823DB01A0
:1013F0001943CCE7E0100020FFFBFFFF840400004E
:101400000000115028280020AC0B012049020000E8
:101410000021194A10B5194804F02AFC8022184B03
:1014200052041A60174B18491A6010000B68984351
:10143000FBD19C220021154804F01AFC80220021D7
:101440005201134804F014FC09231049114A4B6758
:1014500003338B670B3B0B6480239B05CB6490238A
:10146000CA500D4A703B13600C4A00201360802262
:101470000B4B5202DA6410BD8C040000E010002017
:1014800000E0004000F0004008C0004000001150A3
:101490000000105010D0010080E200E000E100E008
:1014A00000201150002901D0014B19700020704715
:1014B000E01000207F23F0B5C6461A0000B58D78F5
:1014C000344C2A402B4208D1962398209B00E250AE
:1014D000314B80002350A26123624B7908791B02B3
:1014E00003430320CF785B0569B25B0D0740D6004C
:1014F000002923DBB11889006018884691218900F2
:101500008C46844461460B80244BC3181F70244BC7
:10151000C3181D70922301259B00C3181D70214B19
:101520009C4697239B006644C5182E6000253560B5
:10153000002A1DD1002080BCB846F0BDB11889003A
:101540006018838001230372174B45729C46002567
:1015500066448771C6613560002AEBD0134BD20018
:101560009C460431624482616018FFF7A7FDE2E700
:1015700096239B009C460E4B60449C469123D200D0
:1015800062449B000260180040442018FFF796FD5B
:10159000D1E7C046E01000200001105046020000D4
:1015A00049020000840010508000105000001050CC
:1015B00004001050F8B57F231B4F0B4049B23E6822
:1015C00000291DDBDA00194CD3189B00E418912385
:1015D0009B00E3181D88164B3F351D4098239B0048
:1015E000E31818682A00002104F042FB92239B00B4
:1015F0009C460023761B64443E6023700020F8BDA7
:10160000DA000A4DD3189B00ED18AC88084B3F3424
:101610001C4022000021286A04F02AFB0023341B0E
:101620003C602B72EAE7C046889F0020E010002053
:10163000C0FF000080230A009A43131E0ED10F4AF8
:10164000002918D001219166D9000D4ACB189B00C2
:10165000D218D369802212011A600AE049B2002927
:10166000F2DBDA00D318074A9B009B588022120154
:101670001A600020704702219166F2E700201150A5
:10168000E01000203C13002080230A00002082B0DC
:101690009A43131E019016D049B2114A002915DB56
:1016A000D900CB189B00D318992292009A18107079
:1016B00097229200944663441A68136809490B40C4
:1016C0000193019B1360002002B07047D900CB1832
:1016D0009B00D3181A0024321070DA69EDE7C04677
:1016E000E0100020FFF7FFFF00207047F0B57F20DB
:1016F000C646014000B5002A5BD0C8004F4D4418D3
:10170000A4002C19267A002E00D191E00026E26078
:1017100023616661002B59D0A48826009C4243D8DF
:10172000B3B29C423CD88026F6001E434418A40065
:101730002C19677A7F2F14D99B0801339846A02370
:10174000DB059C464346276A3D4C2468A40164445B
:1017500022606760A3603B4B1B68E36080231B0231
:101760001E43401880002918080024300278012404
:1017700013005D1EAB41624002705B03324AC869D0
:1017800033431A400260FFE7FFE7FFE7FFE7FFE7A9
:10179000FFE7FFE7CA691360002080BCB846F0BDD0
:1017A0008826F6011E43C1E71E00B3B29C42F7D85B
:1017B000B9E7002B3FD1C800204D42189200AA186B
:1017C000147A002C34D0D3601361536143189B000A
:1017D000EB189B88002B26D180228424D20024027F
:1017E00043189B00EB185B7A7F2B00D8140040183D
:1017F00080002818010024310A7813005D1EAB41D7
:101800005B032343012462400A700F4AC1691A40F6
:101810000A60FFE7FFE7FFE7FFE7FFE7FFE7FFE714
:10182000C2691360B8E78822C424D2012402D7E732
:1018300002204042B1E701204042AEE7E010002024
:1018400028280020AC0B0120FFFBFFFFF0B57F2014
:10185000C646014000B5002A00D177E09226C800B4
:10186000694D4418A4002C19B600A6193678002E2C
:1018700000D1C3E09326B600A61932609426B600C4
:10188000A619336095260027B600A6193760002BED
:1018900000D175E09126B600B44664442488260041
:1018A0009C424ED8B3B29C4247D88026F6001E43D5
:1018B0004418564FA4002C19E7193F787F2F18D9E8
:1018C00098279B0801339846BF00A023BC46DB0540
:1018D00064449C46434627684D4C2468A4016444F4
:1018E00022606760A3604B4B1B68E36080231B0290
:1018F0001E4399220124401880002B18920098184A
:1019000001780A0061400170972189008C46551EBC
:10191000AA416344404952031868324311400160B0
:10192000FFE7FFE7FFE7FFE7FFE7FFE7FFE71B68EA
:101930001A60002080BCB846F0BD8826F6011E4320
:10194000B6E71E00B3B29C42F7D8AEE7002B58D1E1
:101950009224C8002C4D42189200AA18A400141911
:101960002478002C4AD09324A400141923609424D2
:10197000A400141923609524A400A44662441360B3
:1019800091229200944643189B00EB1863441B88F5
:10199000002B2ED180248422E40012021B4E431817
:1019A000B4469B00EB1863441B787F2B00D82200C1
:1019B00099234018800028189B00C41821780B0038
:1019C0005D1EAB415B0313430122514097229200FD
:1019D0009446114A6044217001681A400A60FFE78A
:1019E000FFE7FFE7FFE7FFE7FFE7FFE702681360B6
:1019F0009FE78824C422E4011202CFE7022040427C
:101A000098E70120404295E7E010002049020000DD
:101A100028280020AC0B0120FFFBFFFFF0B5982326
:101A20004646D6464F46544AC0B5D658883B1C0059
:101A30003440334200D06FE080256D02F30353D46D
:101A400080235B011E422CD01C4300234A4A002005
:101A500013604A4A9360D360136153619361D36109
:101A6000136253629362D362136353639363D363CA
:101A7000136453649364D364136553659365D365AA
:101A8000136653669366D366136753679367D3678A
:101A90003B4B3C4A1A6001F0E7FB80223A4B1203B1
:101AA0001A658023DB011E4203D010221C43364BF3
:101AB0001A6580231B021E4204D080221C43324B35
:101AC00012011A65B4420AD0304806F02FF82100FE
:101AD0002F48714006F02AF82E4806F027F8E0BC9F
:101AE000BA46B146A846F0BD2B492C4B234ACB1829
:101AF00011CA11C3012324228B54992292008B54C2
:101B0000264B00209C46614401F008FC80221E4BBD
:101B100092022C001A6593E7976D00250124002F8F
:101B200021D0194B99461C4B9A4602E00135202DD5
:101B300019D02300A0463B406400002BF6D04B4652
:101B400042469A65EBB25B08D800C0188000EB07EC
:101B50000CD591239B009C4660445044FFF716FB34
:101B600043469F43E2D110240D4D67E704305044B3
:101B7000FFF70CFBF4E7C0460000115000001050C6
:101B8000889F00208001105000301150F447011050
:101B900030480110AC470110E01000208404000020
:101BA00010000100034B08000B6000234B608B60AA
:101BB000CB607047E11B00107047C04680210023B6
:101BC00049421170043151709A3191701639D370B5
:101BD00091715371137170477047C0467047C0468A
:101BE000F0B5C64600B50C000F794978050090465F
:101BF0001E0082B0222928D014D8202935D02129CE
:101C000016D16A463900FFF7D9FF43460722186804
:101C1000694604F033F807233360002002B080BC2B
:101C2000B846F0BD232903D13900FFF7D7FFF4E709
:101C3000154805F07BFF6178144805F077FF1448DC
:101C400005F074FF01204042E8E70122A378E47820
:101C5000390024021C432240FFF702FAA207390090
:101C60002800D20FFFF7B8FFD7E7E279A379120275
:101C70001A4343466846196804F000F86A4639007A
:101C80002800FFF799FFC8E7884701104448011072
:101C9000AC4701107047C04610B5012911D0072983
:101CA00000D010BD0023084A00201360074A1360CB
:101CB000074A5360074B084A1978084BFFF7C6FDDF
:101CC000EFE7034B5960ECE76C2E00209C340020BA
:101CD00070150020880A01203C2800202C060000F6
:101CE00070B5497882B000290BD0012902D00120BB
:101CF000404204E0BA4911604A681A60002002B00C
:101D000070BD15682C68082CF8D8B64AA300D358C3
:101D10009F46B34BAA6810219A600022B248B34C88
:101D200018605960DA6008320021200003F0A0FF3B
:101D300001232370AE4B2200197C00200823FFF7FB
:101D4000D5FCDBE7AA68A64B342101259A60002266
:101D5000A848DA6118605960A7491D615A61DA60C4
:101D60009D611D6259629A62DA621A63A34B1D7704
:101D70009E4C00212000083203F07AFF2570D9E73D
:101D80000022974B5A609D4B1A77B7E7944E9C4BB5
:101D90009C4A3360AB68B360102373610023F36027
:101DA000EB6893423CD000D99BE0974A9446634449
:101DB000152B4DD8954A9B00D3589F46884EAB684B
:101DC000934AB3601023326073600023914AF3603A
:101DD000EB68934213D000D9A1E08F4A934200D020
:101DE000C0E02B69032B00D8D4E06B69EB189A682C
:101DF000824B9A60002A00D1C9E002221A77082299
:101E00007A4C91E7764B854A01251A6010225A6078
:101E10000022DD609A60794B1A77A9E7804BF36066
:101E20000023734DB3611C233461704C08220021E0
:101E30002000736003F01CFF012323702200297C23
:101E400007330020FFF752FC58E7764A9342E7D069
:101E5000754B7648F36005F069FEE968744805F053
:101E600065FE744805F062FE00241823604DDBE730
:101E7000714B5F4DB361D6E701235D4DB361D2E78E
:101E8000300074226D49183003F0F8FE74248C235E
:101E9000574DC9E76A4A6B4B554D11CB11C21B78A0
:101EA0000A2413702223BFE7674B514DB361BAE791
:101EB0004F4D0020297801F09FFC402800D88CE08D
:101EC000624BB361AFE74D4B494D5B68B361AAE725
:101ED0005F4B474DB361A6E7484B454D9B68B361E7
:101EE000A1E75C4A93422ED85B4A9342ADD95B4A44
:101EF00094466344032B6BD8594A9B00D3589F46A2
:101F00003E4B3B4D5B69B3618DE73C4B384D1B69E4
:101F1000B36188E7394B364D9B69B36183E7414A2A
:101F2000934230D16B694148EC1805F0FFFD6369BD
:101F3000E268A168A4694B48009405F0F7FD3D48AC
:101F400005F0F4FD5BE7484A934295D02ED9474A05
:101F5000934200D162E7464A94466344022B00D87C
:101F60005EE775E7434A934200D148E72E4B2F487E
:101F7000F36005F0DBFDE9682D4805F0D7FD2D483D
:101F800005F0D4FD3BE73C4A9342EFD137E701220D
:101F90001A7734E7254805F0C9FD384805F042FDB9
:101FA000244805F0C3FD364BF36028E7324A9342DC
:101FB00000D133E7334A934200D849E73000062284
:101FC0003149183003F05AFE06241E23084D2BE732
:101FD0000A4B074DDB68B36125E72C4BB36122E761
:101FE000A01500208456011008000080641A00200B
:101FF000880A0120020000802C06000070150020D5
:102000000400008002020100FFFEFEFFA85601103E
:1020100005000080120101000E0101000600008091
:10202000BB0000C01B020100010000C08847011076
:1020300078480110AC470110DC0500001057011072
:10204000B81500206C480110FFFF0000003E490059
:10205000160600000501020000010200FEFEFDFF61
:1020600000570110A0480110040101010501010100
:10207000FFFEFDFE0F01010003010101E448011014
:10208000150001C0000101018D150020C0D4010020
:10209000F0B54E46DE4657464546E0B5B14E83B0F4
:1020A0003368002B00D1D4E0C1223168002089B20E
:1020B000520005F0E1FF051E00D1CAE0436803218C
:1020C0009846A94B44461B68220099464F46080093
:1020D0007A4010408446336811422CD10022484691
:1020E00003270C4200D1B8E0AA46310045464E46CF
:1020F000D046894608E0B15C0134A9540130013B67
:1021000001323C4200D1A6E0002BF4D145464E46B8
:10211000336800206B8100233360944B944A197814
:10212000944BFFF793FB280003B0F0BCBB46B246CC
:10213000A946A046F0BD0320002B08D1E8E74F1CBC
:102140000978013B541C1170002B00D1E2E0220001
:1021500039000742F3D10F2B00D8FCE0102149428F
:102160008846984441460909013109018C46A44436
:10217000614638009C46A1460B0001680C0A1170AC
:1021800054700C0C090E9470D17041680C0A1171D6
:1021900054710C0C090E9471D17181680C0A117282
:1021A00054720C0C090E9472D172C16810300C0A72
:1021B000117354730C0C090E9473D17310329A423C
:1021C000DBD10F224C464146103491431000634648
:1021D00062180C241037184079181C4200D1B7E05F
:1021E0000B681C0A137054701C0C1B0ED370031F59
:1021F0009470032B13D94B681C0A137154711C0C77
:102200001B0ED3710300083B9471032B07D98B6815
:102210001C0A137254721C0C1B0E9472D37203238B
:102220000340800801388000043204311218091874
:10223000581E002B00D16BE70B781370002800D1DB
:1022400066E74B785370012800D161E78B78937073
:102250005EE7002567E745464E460F2B33D91F0042
:10226000103F0F2F5AD922000243520756D12200A5
:102270000F32121A1E2A51D93A09914601224A44B4
:102280000700B346019021006046AA46A446160006
:1022900098463C687D68BA68FB6801300C604D6008
:1022A0008A60CB60103710318642F2D864464346CC
:1022B00055465E46019810300F2213404A461034AE
:1022C0001201A4188018032B14D9026822601A1F67
:1022D000032A07D94168616019000839032901D927
:1022E0008168A160032192089200043404300B40FD
:1022F000A4188018002B00D10AE702782270012B65
:1023000000D105E742786270022B00D100E78378A4
:10231000A370FDE639002200581E8AE70200380942
:10232000070181461000BC461030844467462100F6
:102330009C463B0017680F6057684F6097688F6036
:10234000D7681032CF6010319342F3D16346B3E7C0
:102350000300581E6DE71800032B00D940E7581EF4
:102360006AE7C0466C2E0020682E0020880A0120F3
:102370003C2800202C060000F0B54E46DE465746AD
:102380004546E0B5C44B06005B6887B0012B00D121
:1023900078E1C24D2B68002B00D070E1C04B028960
:1023A0009A4200D969E10F239A46033B3100032783
:1023B0009B46BC4A049605954B68150099464E46C7
:1023C0007540AC463D40A84665464B891400180050
:1023D0002F4200D1B4E0002B08D18BE06E1C2D7889
:1023E000013B441C0570002B00D122E12000350088
:1023F0003E42F3D10F2B00D847E110256D42A8468D
:10240000984445462D0901352D01AC46A44400925F
:10241000624635009C46894613002A68110A0270FC
:102420004170110C120E8170C2706A68110A02713B
:102430004171110C120E8171C271AA68110A0272E7
:102440004172110C120E8172C272EA681035110AC3
:1024500002734173110C120E8173C27310309842D3
:10246000DBD16346504618408446454650461034FA
:10247000854360195C4610364946009A75191C421E
:1024800000D1F7E02B681C0A037044701C0C1B0E73
:10249000C3706346043B8470032B13D96B681C0A1A
:1024A000037144711C0C1B0EC3716346083B84719D
:1024B000032B07D9AB681C0A037244721C0C1B0E59
:1024C0008472C37264466346A408013CA4003B4086
:1024D0000430043500192D195C1E002B2ED02B78EA
:1024E0000370002C2AD06B784370012C26D0AB7877
:1024F0008370488909681218002900D05CE76A4C8B
:1025000028222000059D049E03F0B2FB0123221F18
:102510001360318924200B00D1602C336349536050
:1025200090602B6000202B68097AFFF7DFF807B076
:10253000F0BCBB46B246A946A046F0BD4889D9E7E3
:10254000002610004C463A4213D08C4611004A46F1
:1025500007E0955D01308D550134013B013638426D
:1025600005D0002BF5D10A0061464889C2E70A0070
:1025700061460F2B39D910256D42A94699444D4625
:102580000F2D5AD90500072625432E4255D1250087
:1025900017360F352D1AAE424FD24D462D09A9469A
:1025A00001254D44AC462600029405004446984659
:1025B000009201910390013430687168B268F36849
:1025C00028606960AA60EB6010361035A445F2D827
:1025D0004346029C009A01990398103455462B40BB
:1025E0004D4610302D0140196419032B13D925686D
:1025F00005601D1F032D07D9666846601E00083E52
:10260000032E01D9A6688660AD08AD0004300434FD
:102610003B4040196419002B90D025780570012BA0
:102620008CD065784570022B88D0A3788370488958
:1026300060E7200035005C1E4FE725004C4624096A
:10264000A1462401A4462C001034A44498466346B5
:10265000060094461A002B6833606B687360AB68A1
:10266000B360EB681035F3601036AA42F3D16246CE
:102670004346B3E763465C1E2FE7038193E60620DB
:10268000404254E70420404251E79C465C1E032B25
:1026900000D9F7E623E7C046701500209C340020DF
:1026A0002C0600009C2E0020742E0020880A012099
:1026B000F0B51A4CC6460500200000B58846170044
:1026C000069906221D301E0003F0D8FA01220123CC
:1026D000226063604346124C00202370114B21009E
:1026E0006360114B2772E360104B2674636101F045
:1026F00051F821000020083101F04CF821000020A1
:10270000103101F047F80A4B28002B6000236B6062
:10271000AB60084BEB6080BCB846F0BD7015002084
:10272000880A01203D27001091270010951C0010F9
:10273000E11C0010991C00107047C04613000E4A9F
:102740000E49106810B50A60012802D150689842FD
:1027500006D90B4B002019780A4BFFF777F810BD0C
:1027600093680833D3180B60D268074B1A60186857
:10277000FFF7E2FFF3E7C0463C280020682E002068
:10278000880A01202C0600006C2E00207047C046ED
:1027900070B500200D00140001F02EF8010020009B
:1027A00002F0CEFD002901D1002C06D1064C206894
:1027B000FFF7ECFF0023236070BD002300222900F7
:1027C0000020FEF793FFF7E79C3400204B790A794D
:1027D0001B021343022270B58A565D05DB048E7816
:1027E0006D0D9B0F002A14DB7400A419124E134ABE
:1027F0004643A400A4191219114C14192580114C38
:10280000A44662441370FEF755FE43425841C0B2DD
:1028100070BD7F2216407400A419074E074A464334
:10282000A400A4191219084C14192580074CA446B9
:1028300062441370E7E7C0464C050000A034002056
:10284000EA040000E90400008A0400008904000092
:1028500070B51400104D114E454371198A68CB684C
:1028600012191B1B8A60CB6011D10A7D002A0BD183
:10287000CB88002B0ED0AB5D7F2B0BD90023002221
:102880000021FEF7E3FF05E00B7500220023802105
:10289000FEF72CFF70BDC0464C050000A0340020A0
:1028A000F0B545464E46DE465746E0B5602589B050
:1028B00003930B7806000C0090461D40202D00D19C
:1028C0007AE0402D14D0002D6ED103221A4091469B
:1028D0004F78012A00D1CBE0022A00D108E1002A7A
:1028E00000D1FEE0062F00D0E9E060880300E1E0BF
:1028F000C74B9A46C74B43435344DA69002A00D179
:10290000A2E049781379994200D118E1C14B734391
:1029100053449B6A002B04D061781A78914200D10D
:10292000D2E1BC4BBC4A73439B46D3445A44127811
:10293000002A1ED0B94900258C46634453441F0029
:10294000039BB24699463B68002B0DD09E68002E33
:102950000AD04B46424621005046B047002800D1DD
:1029600084E0AD4B5B441A780135EDB204379542F3
:10297000E9D3AB4EAB4D300005F0D8F8AA4805F0CE
:1029800051F8280005F0D2F8A84805F0CFF8E688FD
:102990006388627821780196A488A548009405F0A0
:1029A000C5F8280005F0C2F8002009B0F0BCBB460D
:1029B000B246A946A046F0BD03221340012B20D009
:1029C000022B19D1934A9249424393488B1884466B
:1029D0006344187800280FD0904B9C460023624433
:1029E00052181168002902D04D68002D70D10133B2
:1029F000DBB204328342F4D1894805F097F88D4860
:102A000061E0844A8249424383488B188446634488
:102A100018780028F0D0814BFF279C4600236244A1
:102A2000B446060052181168002907D00D68002D21
:102A300004D0087EA1883940884248D00133DBB2F7
:102A400004329E42EFD1D7E71B6A002B00D15DE72D
:102A500049789A79914200D058E7A288072A74D120
:102A600041461A680A609B88039A136001209CE71C
:102A7000674B684A9A4642436F4B5244D3181B78BF
:102A8000002B00D12EE70B799C460A2F00D1C8E11C
:102A90004888916903000A2F00D938E1002F00D13E
:102AA000CCE1062F0BD1020A212A00D15CE2222AB6
:102AB00000D1E6E2C022D200934200D174E7584828
:102AC00005F034F85D4804F0ADFF564D59E7664611
:102AD000424621003000039BA84700288CDB0120E0
:102AE00063E74B88092FEAD85549BA008A589746B8
:102AF000484B544A43439B5C002B00D1F2E60D79CE
:102B0000012F00D17AE1032F00D170E1002F00D016
:102B1000E8E604AB9C460F24644422002900FEF73B
:102B2000E3FD43461A6823780120591E8B41137038
:102B300043464A461B685F70039B1A6035E7A388CB
:102B4000042B0ED0052B00D1DCE0354E300004F014
:102B5000EDFF3D4804F066FF324D280004F0E6FF2B
:102B600009E793684246136059781A7809021143BD
:102B70009A78DB7812040A431B061343039A012058
:102B8000136012E7012B00D18BE10023039A01208F
:102B900013600AE71F4AD9B242432C4BD154FEF7C7
:102BA00081FCF2E743461A681A4B264943435B5CB3
:102BB000012013700123039A1360F6E61D0ADFB2A9
:102BC000032D00D15AE10F2D00D10FE2032D00D9C2
:102BD00070E70F4B9A460F4B734353449B691A7827
:102BE000002A00D113E200218C462100E8B264469D
:102BF0008C4604E09B181A78002A00D106E2597826
:102C00008142F7D1A74200D111E20134F2E7C04678
:102C1000A03400204C0500008404000034040000AF
:102C2000B4470110AC470110E4490110F44701100A
:102C30006C490110544901102C040000FC4901109A
:102C400084570110CC380020CC490110CD38002029
:102C5000FF22110019401A4200D037E1C84BC94A7F
:102C600043439954039B012019609EE6434600228A
:102C70001B681A70C44BC54A9A469446C04B4343DE
:102C8000534463441B78002B05D0434601211A6846
:102C900013780B4313708622D2009446B84B7343CB
:102CA000534463441B78002B05D0434602211A6825
:102CB00013780B431370434600221B6801205A709F
:102CC0000223039A136070E6A288022A00D03CE730
:102CD0009A79597912020A43D979987809041143EB
:102CE0001A7A000212060A4359780843D9781B79E8
:102CF000090401431B060B4341460B60039B012063
:102D00001A6052E66388D2689B009B582AE70B2F13
:102D100000D0D4E6C3B298469D48634681464046FB
:102D2000D3184B4418700B78002B00D188E1002891
:102D300000D126E200200490FF3083462800B146EF
:102D4000654600220024FF275E4684460FE00228E5
:102D500004D1CC788A78240214430022C9180B7855
:102D6000D218A24201D3002C73D1002B71D0487825
:102D7000042834D00528EAD1BD42EFD1B045EDD1C9
:102D80004E4630006546FFF721FD7D4C814B744374
:102D9000A046D04443441A78002A00D1F5E6049BAB
:102DA000002B00D153E17C4B9C466444544423687F
:102DB000002B0ED0DF68002F0BD004991B7E897882
:102DC000994206D1049A08213000B847714B434418
:102DD0001A780135EDB204349542E8D3D5E68F7800
:102DE000CE78BD42BAD1B045B8D10491B6E74F888C
:102DF000002F31D00023039A136060E64B88002B2C
:102E0000F8D1664804F092FE2900654804F08EFE71
:102E1000644804F08BFE29003000FEF735FC0120E9
:102E2000C3E55B4962448C46434662441B681278A2
:102E300001201A704A46039B1A60B6E543461B6898
:102E4000039A1F7043461B6801205F7002231360C2
:102E5000ABE565464E4698E7504804F067FE29000A
:102E6000514804F063FE4F4804F060FE2900300032
:102E7000FEF7E0FB039B01201F6096E5EE2F00D0DC
:102E8000A7E63F4A404B42439B18DB69002B00D129
:102E900015E642461B68012013601B78039A1360F5
:102EA00083E5032F00D109E1354A374B42439B1894
:102EB00086220021D2009A181170A922D2009446CD
:102EC00063441B680A31300098475EE6DBB29846DF
:102ED0002D4B9A462A4B434353449D692B78002B34
:102EE0003DD000229346FF32310005920492220029
:102EF00046465C46002700209346884614E0022A96
:102F000009D16A790492964205D100270120EC7814
:102F1000AA7824021443ED182B78FF18A74201D396
:102F2000002C15D1002B13D06A78042A0DD0052A65
:102F3000E5D1049A9642EED1059A002AEBD12900F8
:102F40004046FFF743FC2B78E5E7EA780592E2E795
:102F500043465C46B0461E00002800D0BEE0002379
:102F6000039A13606778BDE40B78002B00D1A6E5C7
:102F70000200002560460026FF27944626E0C04652
:102F80004C050000CC380020A03400202E040000A6
:102F9000740400008404000034040000B4470110ED
:102FA00028490110AC47011040490110022A04D100
:102FB0000025CE788A7836021643C9180B78ED18AA
:102FC000B54201D3002E2FD1002B2DD04A78042AF0
:102FD0000AD0212AEAD18742EFD1434619600B7803
:102FE000039A01201360E0E48F78E6E77A4A7B4B8E
:102FF00042439B185B6A002B00D160E541461A688A
:103000005B680A60039A01201360CEE4644674484A
:1030100004F08CFD3A002900724804F087FD7248E4
:1030200004F084FD67785DE46046030042E5022D0C
:1030300000D185E003990A60424601201360B4E4A0
:103040006A4B9C4662441278002A00D19DE5624B8F
:10305000674973435C1853441F0054442368002B92
:1030600009D0DB68002B06D00022082130009847E9
:103070005E4BFB181A780135EDB20434AA42EDD844
:1030800083E55A4952468946534B7343D2184A4402
:103090001178002900D112E5554A674691464B4404
:1030A00053441A68002A02D0167EBE4260D0013511
:1030B000EDB204338D42F4D10300FBE44649474AA4
:1030C000414352188621C90051180B70A923DB0017
:1030D0009C46624409211368984756E53E4C424697
:1030E0005C4353461D19434B4F46EB181A700022A0
:1030F000414BEB181A703D4BEB181A783C4B9C4631
:1031000064445444002A11D02368002B09D0DB68A2
:10311000002B06D00022072130009847334BEB18D4
:103120001A780137FFB204349742EDD3A922D200B6
:103130009446294B07217343534463441B68C2E6FA
:103140000120DA78997812020A4303990A60224A28
:103150002A49724352445418D97989110140217087
:1031600027498C46D979624449110140117063E7BF
:103170004146136901200B605369039A1360FFF7FE
:1031800014FC0022FF241000049211E0022F04D14D
:10319000C8788A78000210430022C9180B78D21828
:1031A000824202D3002800D0EFE5002B00D1ECE5ED
:1031B0004F78042F08D0052FE8D1A445EDD1300079
:1031C0008978FEF7F7F9E0E58C78A445E5D1CF786A
:1031D000002FE2D10491E0E74C050000A03400206C
:1031E000B4470110F4480110AC47011084040000FA
:1031F000340400002C040000310400002E04000000
:103200002F04000070B50500141E1ED01448154E82
:10321000684331188A68CB6812191B1B8A60CB601F
:1032200014D103002C339B198B600300083010333A
:1032300082199B192800FFF733FB00280BD00023CD
:10324000002280212800FEF751FA70BD00212800DD
:10325000FEF7FCFAF9E780212800FEF7EBF9F4E726
:103260004C050000A0340020F0B5C64600B50600AD
:1032700082B00021FEF716F985230022224D234F4C
:103280007543DB00EB18DB191A806A4640230024E3
:1032900093801F4B6946300094710093FEF70AF942
:1032A0006B4669463000043F9C70FEF703F97B19BA
:1032B0009846184B43441A78002A16D0164B00241F
:1032C0009C466544ED192B68002B09D0DB68002B68
:1032D00006D000220121300098470E4B43441A7853
:1032E0000134E4B204359442EDD3A922D2009446CD
:1032F000054B01217343FB18634430001B6898475A
:1033000002B080BCB846F0BD4C050000A4340020DB
:10331000070580008404000034040000F0B5DE4698
:1033200057464E464546E0B5CE4ECF4C4643A719CC
:103330000822050085B0380002F0A0FC8022FB883E
:10334000D200934267D9A25D7F2A00D87FE0320085
:10335000FB603B6100232C32A218BA603B750392DC
:10336000103639002800A31903AAFFF799FA00289C
:1033700000D10EE1BB4B6B43E3181A69DB88934223
:103380005CD88021B74AC9006A43A218D3608B4237
:103390005DD892689046039A90452CD0032641460A
:1033A0001000B24648400640B44656461700064252
:1033B00061D1002103278B46404651461600B9468D
:1033C000084200D1EBE02700594614004246B846B7
:1033D00009E0675C013057544F460136013B01312B
:1033E000384200D1DAE0002BF3D144469D4B6B43C9
:1033F000E3189A68DB6880212800FEF777F9994B7B
:103400006B43E4182369E2889A422DD99B062BD19D
:103410000123237528E0320000212C32A218BA6063
:10342000FB603B6139750392002B99D0A15D7F2928
:1034300096D800212800FEF709FA15E01300802134
:10344000884AC9006A43A218D3608B42A1D9874831
:1034500004F06CFB864804F0E5FA864804F066FB4D
:1034600080212800FEF7E6F805B0F0BCBB46B24666
:10347000A946A046F0BD03229446002B08D1B5E72B
:103480003078013B771C511C1070002B00D1E5E017
:1034900060460A003E000742F2D10F2B00D807E138
:1034A0001020404284469C446046000901300001DF
:1034B0000E189846894633003E003068010A1070A5
:1034C0005170010C000E9170D0707068010A10717B
:1034D0005171010C000E9171D071B068010A107227
:1034E0005172010C000E9172D072F0681036010A10
:1034F00010735173010C000E9173D07310329A4205
:10350000DBD10F22494666461031964310004346F0
:103510008A190C2110371840BE19194200D1C5E094
:103520003368190A13705170190C1B0ED370031FE6
:103530009170032B13D97368190A13715171190C07
:103540001B0ED3710300083B9171032B07D9B3689D
:10355000190A13725172190C1B0E9172D372032344
:103560008108013989000432043603405218761864
:10357000591E002B00D139E733781370002900D190
:1035800034E773785370012900D12FE7B378937033
:103590002CE780212800FEF74DF865E744460F2B05
:1035A00034D91F00103F0F2F66D902003243520753
:1035B00062D102000F32921B1E2A5DD93A09914650
:1035C0000122019363464A4437000100B446804615
:1035D0001600AA46A34618003C687D68BA68FB68D6
:1035E00001300C604D608A60CB601037103186422C
:1035F000F2D86646404655465C46019B10360F227F
:1036000013404A46103012018018B618032B14D903
:10361000326802601A1F032A07D9716841601900D5
:103620000839032901D9B168816003219208920009
:10363000043004360B408018B618002B00D1D5E6B4
:103640003278591E0270012B00D1CFE67378437097
:10365000012900D1CAE6B3788370C7E63E000A00AC
:1036600086E7C0464C050000A0340020B447011096
:10367000144A0110AC47011032003E093701B1462F
:103680001600BC461036B444674601009C463B0019
:1036900017680F6057684F6097688F60D76810325F
:1036A000CF6010319342F3D16346A8E703005FE790
:1036B0001800591E032B00D932E75DE710B57F24AF
:1036C0000C4063001B19054C9B0044431B19044C20
:1036D0001B59002B00D0984710BDC0464C05000078
:1036E0003039002010B57F240C4063001B19054CB5
:1036F0009B0044431B19044C1B59002B00D09847D6
:1037000010BDC0464C050000903900200D4A70B530
:1037100050430D4C0D0004190021200002F0A8FABE
:1037200091238022DB00E3181A709223074ADB0002
:10373000E3181A609E23DB009C46054BA561644498
:10374000236070BD4C050000A034002051280010FB
:10375000053200100C4B0D4A9C46424330B5C30065
:103760000B4C1B1AA2181B01624418181578830011
:103770001B1A5B190D33FF339B000D76E4180135DE
:103780001570616030BDC046840400004C05000027
:10379000A03400200023CB5630B50D784C68002BA8
:1037A00011DB13496A0048435219124B920010185A
:1037B00018189D23DB00C3181D709E23DB009C4658
:1037C0006044046030BD7F2129404A0052180849F6
:1037D000084B4143920052189B189122D2009A182C
:1037E00015709222D200944663441C60EAE7C046FA
:1037F0004C050000A03400204BB2002B08DB0A4A25
:103800004B0042435B189B009A18084BD05A7047F4
:103810007F220A4053009B18034A9B0042439B1897
:10382000034A985AF3E7C0464C0500008A39002045
:103830002A390020F0B5C646040000B5002809D09A
:10384000194804F073F9194804F0ECF8184804F02A
:103850006DF9FEE7174B184E5960A9230020DB00D5
:10386000F250FDF7D5FD154F154BF25D8046F5186A
:10387000002A0FD02B68002B07D0DB68002B04D068
:1038800000220B2100209847F25D0134E4B2043598
:103890009442EFD3A923DB00F3580B210020984773
:1038A000404680BCB846F0BDB4470110304A011014
:1038B000AC470110EC390020A03400208404000043
:1038C00034040000094A83009A1810B51468402295
:1038D000544080322240064CC000A44663441A6023
:1038E000044B9C466044416010BDC04604C001408A
:1038F00004D0014000400140074B8000C3181B6802
:10390000C90092000A435A400C231340034A9446CC
:10391000604403607047C04604C0014004D00140C9
:103920008000002905D0064B9C46022360440360BA
:103930007047044B9C46022360440360F8E7C0468E
:1039400004E0014004F00140D0231B061B6830B5A1
:103950000500584243412F205B4283430E48EC0848
:103960008446072028408000814020000B4D3C30D9
:1039700063448000A40041511B19002A05D0802215
:10398000920194466344196030BDC022920194466E
:1039900063441960F8E7C0463041014000400140EF
:1039A000D023F0B5C6461B0698461B680C4F9B00FB
:1039B0001600FA5804000D0000B5104209D1290084
:1039C00014430D203200FC5000F068F980BCB8466A
:1039D000F0BD01F095FB43461B689B00FA58EEE7EB
:1039E00060DA002010B504000D2000F051FAD02359
:1039F0001B061B6802499B005A58A2435A5010BD2F
:103A000060DA00200123D022834012069362936182
:103A1000094A83009A1811684022514080320A40B6
:103A20000649C0008C4663441A60054B9C4605233A
:103A3000604443607047C04604C0014004D0014068
:103A4000004001400FB400B5084883B003F0EAFF1E
:103A5000049B002B07D005A91800019103F0B0FDCD
:103A6000034803F0DFFF012003F0C2FD404A0110CC
:103A700068480110EFF3108072B6034A1368002BF8
:103A8000FCD0BFF35F8F70472C0100D0BFF35F8F76
:103A90000022024B1A6080F3108870472C0100D07E
:103AA00070B5EFF3108C72B60D4D2B68002BFCD067
:103AB000BFF35F8F0724CB08C618C05C01230C40FE
:103AC000A3401C000440034207D118433070BFF3E9
:103AD0005F8F2C608CF3108870BD1000FFF7B2FF71
:103AE0002C0100D0F8B54746CE46884680B5EFF3A6
:103AF000108C72B61C4D2C68002CFCD0BFF35F8F6D
:103B00009A4222D807210126894602E001329342D7
:103B100018D34D4637001540AF40D4080119045D55
:103B20002742F3D110003C430C70BFF35F8F00229B
:103B30000D4B1A608CF3108800280EDBC0BCB94610
:103B4000B046F8BD01204042EFE7BFF35F8F00238E
:103B50002B608CF31088012040424346002BEDD0AF
:103B60000898FFF76FFFC0462C0100D030B5EFF387
:103B7000108C72B60A4C2368002BFCD0BFF35F8F09
:103B8000072301220B409A40CD08435D93434355E0
:103B9000BFF35F8F002323608CF3108830BDC046D5
:103BA0002C0100D0044A1078431CDBB2172B00D93B
:103BB000102313707047C0467C0700200021044B7F
:103BC000044ABFF35F8F02C39342FAD17047C046E5
:103BD000000100D0800100D0054B064A1360064A60
:103BE000136053609360D3601361536193617047B6
:103BF0008080808000E400E004E400E01F2318409F
:103C00001E3B8340002905D0C021044A490053507F
:103C100013607047802201498B50FAE700E100E011
:103C200001228240034B1B6813405A1E9341D8B2B5
:103C30007047C04600E100E001238340014A136061
:103C40007047C04600E200E070B50D00EFF310864B
:103C500072B60F4A1368002BFCD0BFF35F8F0D4B79
:103C600010309B6884001B590B4A934203D09D423D
:103C700001D001F045FA074B9B681D51BFF35F8FE0
:103C8000BFF35F8F0022024B1A6086F3108870BD6D
:103C9000240100D000ED00E0CD010010F0B5574642
:103CA0004E46DE464546E0B585B006000091170059
:103CB000EFF3108B72B66A4A1368002BFCD0BFF387
:103CC0005F8F0025674B5D579A46002D00DAA9E00B
:103CD0006B00654C01935B199B009846A146C1445B
:103CE0004B4652469B7910361370604BB6009B686A
:103CF00099590B1B2F2B33D95D4B994200D0ACE067
:103D0000019B42469C465B4B6544AD0063535A4B56
:103D10000232A218043B9B1A1B05584A5B0D651919
:103D200013436B80564B0121AB80FF23AB71009B8B
:103D3000EF71AB604B460B4319004C4B9B6899519C
:103D4000BFF35F8FBFF35F8F0022454B1A608BF389
:103D5000108805B0F0BCBB46B246A946A046F0BDEF
:103D600001200A008243D3798C46BB4231D84546B4
:103D7000130044491B1B5B415943090D3D4B6353E1
:103D80003D4B02356519043B5B1B1B053B4D5B0D31
:103D90002B43AA464D466B800425AC465546E0446D
:103DA000131F44441B1B1B055B0D1D434B469971A0
:103DB00000999D8099604946DF71334B0143136040
:103DC000BBE75800C01880002018C179B9422FD92C
:103DD00002000623D356002BF3DA02932B4B6146E5
:103DE0000393131D9A4604235B429C46E1445046CC
:103DF0004B461B1A1B055B0D9C46204B9571984644
:103E00006346404603439380019B5A199200039BEB
:103E1000A418A380029B1C4AA371009B2260E77137
:103E2000A3608AE701F06CF9002553465D574FE720
:103E3000908802934005131D9A46031561469C46DF
:103E40004046D444634604302018181AE023000585
:103E5000400D1B0218430390C5E701F051F94FE7ED
:103E6000240100D0450F01208007002000ED00E074
:103E7000CD01001000A1FFFFB007002000E0FFFF10
:103E800001BDFFFFAAAA00000148804701BD000054
:103E9000F0B5DE4657464E464546E0B50C0083B0C9
:103EA000EFF3108872B6634A1368002BFCD0BFF39F
:103EB0005F8F614B61499A68030010339F00D559A9
:103EC00001938D4243D0A54254D05D4EAA1B2F2AA8
:103ED0003DD85C4B9B461B68994601231A009C46C3
:103EE00082404B4613401F2299466346024093404E
:103EF0009A4680225B4650469850BFF35F8FEFF39F
:103F000005839B46002B37D0019B5B4501D001F018
:103F1000F7F801232A009A439068844208D176E09A
:103F20004B005B189B00F3189868844236D01A0047
:103F3000062151560029F3DA844254D04B46002B17
:103F400027D0C02251463F4B5200995019603A4B3E
:103F50009B68DD51BFF35F8FBFF35F8F0022354B4E
:103F60001A6088F3108803B0F0BCBB46B246A9467D
:103F7000A046F0BD0D00EAE72A0063469A43906828
:103F80008442D5D106201056130000280ADA0D000D
:103F900031E0802351462B4AD150D8E706201856ED
:103FA000002821DB42001118890074188B46A16893
:103FB0009960E179D971062161569971002924DB54
:103FC000A488F11A640524155C44091909051E4CDE
:103FD000490D2143998013181C4A9B001178F3184E
:103FE00099711070AAE713005946002914D1FF31C6
:103FF00091711749918015490A789A71154A9B1B4E
:104000005B415A43120D0A7098E71149E2E7062016
:10401000105613000028C5DA0F4A1049D21A083A80
:104020005002400D014399800D4952080A43DA803D
:1040300084E7C046240100D000ED00E0CD0100106F
:104040008007002000E100E000E0FFFF450F0120B5
:1040500001BDFFFFAAAA0000BA07002000F0FFFF81
:1040600000F8FFFF10B58308040003202040FF2460
:10407000054AC0009446844081409B0063441A680E
:10408000A2430A431A6010BD00E400E070B50124A9
:104090000443EFF30581EFF3108C72B6214A1368E5
:1040A000002BFCD0BFF35F8F1F4B05001F4AED1A9A
:1040B0006D416A43120D1E4D8900AE6852B27658AA
:1040C000A6421CD00621595691421CD012215956A5
:1040D000914222D01E215956914220D02A21595670
:1040E0000324914210D0134B19781A708171BFF3D9
:1040F0005F8F00220B4B1A608CF3108870BDAB6889
:104100000D4C5C50EFE700246100091989005B1831
:10411000FF21997109499980E5E70124F4E7022418
:10412000F2E7C046240100D080070020AAAA0000C0
:1041300000ED00E0450F0120CD01001001BDFFFFA3
:104140001F2110B5091A0248FFF710FD10BDC04627
:10415000480F012010B5084B084C82B001000093B5
:10416000002205232000FFF7BDFC002801DB1F23F0
:10417000181A02B010BDC046504A0110480F012065
:1041800070B504000E001500FFF70CFD01002000C3
:1041900000F006F8A680E580BFF35F8F70BDC046D3
:1041A000024B9C4661448900016070474000003426
:1041B00070B5114C114DAC420FD2FF262368002B75
:1041C0000CD0FFF7EFFC01002000FFF7E9FFA6800D
:1041D000BFF35F8F0834AC42F0D370BDFFF7E2FC51
:1041E00001002000FFF7DCFF2671BFF35F8F08346A
:1041F000AC42E3D3F1E7C046000F0020100F0020CF
:1042000010B50400FFF7CEFC01002000FFF7C8FF47
:10421000FF232371BFF35F8F10BDC04610B50400AC
:10422000FFF7C0FC01002000FFF7BAFFFF23A380C7
:10423000BFF35F8F10BDC0460A4B1968EFF31080C3
:1042400072B60A68002AFCD0BFF35F8F1B68BFF309
:104250005F8F00221A6080F3108840BF0020002189
:104260007047C046A40B0120F0B5DE4657464E46C7
:104270004546E0B587B0EFF30583032201251A40D8
:10428000954091008846A946B34B03925C58B34BC6
:104290001D60B34B04934B46B24843630823E55E6D
:1042A000002D37DAA3881BB2002B00DBADE0A37929
:1042B000002B00D0EEE00823E05E002820DB430066
:1042C00062691B18DB00D3189E68DD68731C00D17F
:1042D00011E1A44801004144826A0B69B71A9B1A94
:1042E0009F4215D30123026A039883401A420FD0DC
:1042F0009C4800F0BDFC8D4202DCCCD18642CAD97C
:1043000040BF07B0F0BCBB46B246A946A046F0BDD0
:104310000E61EDE762696B0092465B19DB009A441F
:1043200053469E68DF6800F0A3FC8F42BADC00D1E0
:1043300003E1002F00DAE8E05246534652691B6958
:104340009346049A934200D1D9E052460821605E18
:1043500052880004594610439847009001910099F3
:10436000019A0B001000134300D1CEE013000A00A5
:10437000B61A9F41002806DB7A4800F079FC009EBF
:10438000019F36184F4153469E60DF6000229A5EBF
:10439000002A00DA86E7530099186069C9004118BD
:1043A00002938B68C9689B46B94200DD7AE702D167
:1043B000B34200D976E708239C46A4440595654698
:1043C0002281A446029B2C0006E053009918C900E4
:1043D00041188D68C968AB469B18DB00C318B94209
:1043E00006DC00D1B3E01C000023E25E002AECDA18
:1043F000230064469C4653461A806346059D1D80F3
:10440000A3881BB2002B00DA51E72269EFF3108179
:1044100072B61368002BFCD0BFF35F8F0123A7880F
:104420005B42A3803FB22369BFF35F8F00221A6013
:1044300081F31088002F00DA39E7230008332200C7
:104440009A4666697B00DB19DB00F31899685046D1
:104450008C460824115FDD68002910DB029306E01A
:10446000AB4244D00023E15E2000002906DB4C0073
:104470006418E4003419E368AB42F1DD029B078065
:1044800000201F5E1980002FDCDA1400A379002BB6
:1044900000D110E70023A37126000823E15E08364F
:1044A0004B1C00D12CE70800A246656902E03E00E3
:1044B0004B1C1AD04B005B18DB00EF180A008C462F
:1044C000E95E7B881BB2002BF1DA01235B42DC172B
:1044D000BB60FC60824205D0534631801B893B8023
:1044E00053461A8160464B1CE4D15446E5E6A36866
:1044F0006345B7D9C2E76B1C00D0EAE6F8E65B4635
:1045000058461B69984700281BD153461B882269CF
:104510002381EFF3108372B611680029FCD0BFF33A
:104520005F8F514662880A8022696580BFF35F8F82
:104530000021116083F31088B4E6864200D8F8E6C3
:10454000B0E65B461A685B680092019307E7B345E3
:1045500000D848E74CE7C0469C9F00203C700540CF
:10456000694200100040054070B52E4C2569002DB1
:1045700004D00A212C48FFF713FE70BD2B4E0321F7
:10458000300000F051FBE660FFF70CFB284B0322E4
:104590009C46D02322701B061B6801216370254BAB
:1045A0006044A3600F238000206102206380636960
:1045B0004942A18019800231198647311D83585222
:1045C00018315A5275325C39995218320131995268
:1045D0001832013199521832013199520835183286
:1045E0009D520231183299521832013199521832C3
:1045F00001319952183201319952183201319952D0
:104600001832013199520C4B0C49DC600130356293
:10461000FFF71AFB01210320FFF7F0FA084B1D609A
:10462000A7E7C046C8070020A40B012000400540B2
:1046300040000034FFFF10009C9F002069420010E2
:104640003860054000487047C8070020F8B50500ED
:1046500018200F0001F0B4FA041E3ED018213800D3
:1046600001F0CCFA01216061280000F0F1FAE56068
:104670000600FFF797FAD022267012061268184B30
:1046800062709C460122BBB252426044800063814A
:104690009B1820612281A2806380002F0BD07900BB
:1046A0006269C919C9000F4B891813800133183288
:1046B0009BB28A42F9D10127B7400B4BB2003000C0
:1046C0000A492F62D450FFF7BFFA01213000FFF7EB
:1046D00095FA074B9C4665442F602000F8BDC04604
:1046E00040000034FFFF00009C9F00206942001042
:1046F00038200000124B70B5040098421ED00122F1
:1047000005781049AA408C46C36801211A626344A7
:104710001A602800FFF772FA0B492800FFF7B8FB70
:10472000280000F08BFA00212278084B6069920083
:10473000D15001F085FA200001F082FA70BDC04628
:10474000C807002038300000694200109C9F0020FC
:10475000F8B51F0008AB1B7804001600002B08D129
:1047600000F08EFA32003B00121A8B41002B00DA67
:1047700052E02269EFF3108072B61368002BFCD070
:10478000BFF35F8F0223E15E63694A005218D200D3
:104790009B182269002936DB1D886580BFF35F8F77
:1047A0000025156080F31088069A9E60DF601A610C
:1047B000079A5A615A8801325204520C101C002A7E
:1047C0001FD082B25880080410432669EFF3108787
:1047D00072B63268002AFCD0BFF35F8FA2881A80BD
:1047E000A1802369BFF35F8F00221A6087F31088CE
:1047F0000A4923788C4601329A40E36863441A6080
:10480000F8BD0120DDE7BFF35F8F0023136080F365
:10481000108801204042F3E70020F1E73C2000002F
:1048200070B501000469EFF3108C72B6206800289F
:10483000FCD0BFF35F8F02200D5E4C696800401909
:10484000C00024180869002D36DB26884E80BFF38F
:104850005F8F002606608CF31088E36063880498FD
:10486000013320615B0405985B0CA26060611A1C37
:10487000002B1FD093B22804628018430A69EFF31B
:10488000108C72B61368002BFCD0BFF35F8F8B883F
:1048900023808D800B69BFF35F8F00221A608CF339
:1048A00010880B7801329A40CB6808498C466344E3
:1048B0001A6070BD0122DDE7BFF35F8F0023036044
:1048C0008CF3108801204042F3E7C0463C200000F2
:1048D00010B543890A1493421ADD53009B184269AC
:1048E000DB00D3180469EFF3108C72B62268002A3B
:1048F000FCD0BFF35F8F5A88090494B2090C8A4236
:1049000008D00369BFF35F8F00221A608CF3108810
:10491000002010BD8022120214435C800123026932
:104920008371BFF35F8F002111608CF310880449FD
:1049300002788C469340C268012062441360E8E725
:104940003C20000040787047F0B506000F000624B8
:104950006442E517C646A4197D4100B582B08D4278
:1049600014D811D000F08CF922002B00121A8B41C0
:10497000002B15DC002B44D03000390000F0BEF9CC
:1049800002B080BCB846F0BD8442EBD900240025BB
:1049900000F076F922002B00121A8B41002BE9DD82
:1049A00000F06EF922002B00121A8B41002B0ADB5B
:1049B00000230193144B2200009314482B00FFF7AF
:1049C0002FFF0130D8D0A04629000024104A1148FA
:1049D000536A994204D8956A4545CDD29942CBD1C4
:1049E0000568EFF3108C72B62B68002BFCD0BFF378
:1049F0005F8F0368BFF35F8F1C608CF3108820BF4C
:104A0000E6E7002AB8D0CBE739420010C8070020FB
:104A100000400540A40B0120F0B5C64600B582B0A9
:104A2000040000F02DF9FA2206000F0020000023F8
:104A30000021920001F03AF88019794104000D1E1E
:104A400002DA01242E4D644206267642F717361903
:104A50006F41AF4214D811D000F012F932003B0080
:104A6000121A8B41002B15DC002B46D020002900A8
:104A700000F044F902B080BCB846F0BDA642EBD9C4
:104A80000026002700F0FCF832003B00121A8B4190
:104A9000002BE9DD00F0F4F832003B00121A8B41E4
:104AA000002B0ADB00230193164B320000931648BB
:104AB0003B00FFF7B5FE0130D8D000233900B046E7
:104AC0009C46124A1248536A994204D8966A46454F
:104AD000CCD29942CAD10668EFF3108772B6336818
:104AE000002BFCD0BFF35F8F0368BFF35F8F664678
:104AF0001E6087F3108820BFE5E7002AB6D0C9E71B
:104B0000FFFFFF7F39420010C8070020004005402A
:104B1000A40B0120F0B557464E46DE464546E0B5AB
:104B200006000F0085B0EFF3058399468B46002BF6
:104B300012D0384900204B6ABB4206D38A6ADB1B7D
:104B4000591E8B41B2424041184305B0F0BCBB46F0
:104B5000B246A946A046F0BD2F4B9A46DB68984660
:104B600053461B784046039300F082F84246039B6D
:104B7000040004339B009B580D001B1A39003000C1
:104B8000001BA941894510DC0DD020BF214A00201F
:104B9000536A5B45D9D3926ADB1B591E8B41B242E3
:104BA00040411843D1E78342EFD900F069F8320061
:104BB0003B00121A8B41002B1ADB00230193174B89
:104BC0003200009350463B00FFF72AFE011E0FDD26
:104BD000104B5A6A5A451BD39B6AB34216D35046B0
:104BE000FFF776FE0B4A0020536A5B45ADD3D2E750
:104BF000084A0020536A5B45A7D30020926ADB1B5A
:104C0000B24240415A1E934118439EE75A45E6D1AD
:104C100020BFE4E700400540C807002039420010EB
:104C2000004870470040054010B5024A0248FEF7B0
:104C300037FF10BD6C4A0110AC1C002010B5034BAF
:104C400001001800FEF792FF10BDC046AC1C00200A
:104C500000B5054B83B00093002203230348FEF701
:104C600041FF03B000BDC046904A0110AC1C0020BB
:104C70000300416A0A00986A596A8A42FAD1704769
:104C8000034B596A0A00986A596A9142FAD17047EF
:104C90000040054070B504000D00174A536A190022
:104CA000966A536A8B42FAD13000190024184D419C
:104CB000AB4216D813D0104B2A005B6A9D4203D931
:104CC0000D494B6A9342FCD3934207D10A4A02E052
:104CD000516A994202D1916AA142F9D370BDA642AC
:104CE000E9D9054B5B6A1C005A1CEFD00122012454
:104CF0006442E5175242E3E700400540064A536A22
:104D00009942FCD807D1044B02E05A6A914202D181
:104D10009A6A9042F9D8704700400540F8B5DE46DF
:104D20004E4657464546E0B58B4605000A991800A1
:104D3000160000F005FB0A9B6C001F02324B641941
:104D40009C46A4006444636881469F4200D9676022
:104D50002B1FDBB29846012B30D9C02380229B0148
:104D6000E31812011A60294BAD0059599A460029DF
:104D70001BD17301E026226853401E408023424627
:104D80005B01E3181E60012A30D9802380229B0139
:104D9000E31812011A6053464A4667605A51F0BC44
:104DA000BB46B246A946A046F8BD586900F0C8FA0D
:104DB000013043001B18033BFDD2DAE75B46012BB1
:104DC000CBD1C02303229B01E3181A60023AA368E7
:104DD0001A42FCD07301E0262268AD0053401E4009
:104DE00080230A4A5B019246E3181E605A462168F6
:104DF000514003220A401A6001225B469A40A36890
:104E00001A42FCD0C1E7C04600800040B41C00201C
:104E1000F0B546464F46D646C0B51F00344B440059
:104E20009C462418A4006444636888461600FF2B3F
:104E300002D880235B006360031FDBB29A46012B1C
:104E400030D9C02380229B01E31812011A60294B3C
:104E500085005959994600291BD17301E026226823
:104E600053401E40802352465B01E3181E60012A16
:104E700030D9802380229B01E31812011A6080231D
:104E80005B0063604B465F51E0BCBA46B146A84642
:104E9000F0BD586900F054FA013043001B18033B81
:104EA000FDD2DAE74346012BCBD1C02303229B017D
:104EB000E3181A60023AA3681A42FCD07301E02694
:104EC0002268850053401E4080230A4A5B019146B8
:104ED000E3181E6042462168514003220A401A60CE
:104EE000012342469340A2681342FCD0C1E7C0466A
:104EF00000800040B41C0020014B8000C058704767
:104F0000B41C0020F8B5040021481E0017000D0055
:104F100000F016FA0100380000F012FA069B360481
:104F20001B031E432368002B20DB1A4B1A49E3188E
:104F30005A1E93418022920194465B421B0B174AF2
:104F40001B0363441360164A13601F000A689743EB
:104F5000FBD1144B2560E2182123A0601360236865
:104F6000002BFCDA0823E6601360F8BD3F232268BB
:104F70001340AB42D9D1A3681B051B0D8342D4D18A
:104F8000EE22E368D2021340B342CED1EDE7C04631
:104F9000001BB7000040FDBF08C0004000E000401B
:104FA00000F000400430000010B580241C4BE405E4
:104FB0001C6000281AD001231A4C18431A4BDC61DC
:104FC0001A4C44401C62596298628021144BC905F6
:104FD0001960174817490860E021C9041960002AC0
:104FE00007D18022144B12061A6010BD0E4BD861F7
:104FF000EBE753019B1A9B009A18802312015B0474
:105000009A4209D213000D490B60074B5A60802267
:10501000094BD2051A60E8E7094B1A00F3E7C046CE
:1050200000B00540D3C007B0008005402D3FF84FC9
:10503000FCFF01000820014000A00540E03A0020EC
:10504000FFFFFF008023024A9B000B43D36270479F
:1050500000800540002310B50100988A1B8B9847FB
:1050600010BDC046162310B50100188802331B88F6
:10507000984710BDF8B54746CE4680B50F1E18D0EC
:1050800014239946043304000025012698464B4614
:105090001888434621681B88984701C4431E9841DD
:1050A00001350640AF42F2D13000C0BCB946B0462F
:1050B000F8BD0126F8E7C046002370B504000D00D6
:1050C000988A03491B8B98472900030020009847C2
:1050D00055420000AA23064A1B0113608D235B0082
:1050E000D3600449044B19605368002BFCDA704705
:1050F0000040024000B0FA00006002407047C04625
:1051000010B50148FEF79EFCA44A011070B5074D8A
:10511000074EB54209D20024013E761BB60808CDE1
:10512000984723000134B342F9D170BDC84601103D
:105130000447011070B5074D074EB54209D200244F
:10514000013E761BB60808CD984723000134B342D0
:10515000F9D170BDFC46011004470110054B064A09
:1051600006491A60064A074B1A6010000B689843FC
:10517000FBD1704700E00040BFCDFBFE08C00040FF
:10518000FE7F3C0000F00040044BDB6C002B03D1A1
:105190008022034BD2021A607047C04600001150B3
:1051A0004C201150044A054B1A60054A1368DB0174
:1051B0008033FBD17047C046FFFFFF0100F0004085
:1051C00008C000404022034B9A675A671A67DA66A4
:1051D0007047C04600F0014010B5FEF7EFFC10BD6F
:1051E00070B5044D044CA968C022200000F046FDB3
:1051F000AC6070BD00ED00E000000020002310B5A1
:10520000294C82B0A367FFF765FF0122274B1A6084
:10521000636C012BFCD10322254B1A60224A936B4D
:10522000012BFCD1013300930121224A224804338F
:10523000FFF768FE052301210093204A2048FFF76D
:1052400061FE0022022104201E4BFFF7E1FD002237
:10525000012105201C4BFFF7DBFD00220021072068
:105260001A4BFFF7D5FD002200210820174BFFF74E
:10527000CFFD8023DB000093002200210920134B87
:10528000FFF74CFD0022104B00210620FFF7C0FD68
:105290000420FFF731FE0E4900F052F80100002013
:1052A000FFF7D0FE02B010BD008000403CB00040CF
:1052B00030B00040002F685900800240008C8647C3
:1052C00000C00240001BB70040597307006CDC02AD
:1052D00040420F0001480421014B1847E00700201D
:1052E00075500010014B9B6818470000E007002034
:1052F000124A936F9B0815D29066D166002905D09B
:10530000FFE7FFE7FFE7516F106F704704B580219B
:105310000906C2175140002800D0C8430FF08CF98D
:10532000002104BDF0B5146E556E576F166FFFF770
:10533000E3FF1466556657671667F0BD000000D09E
:10534000114A936F9B0813D210665166002905D04D
:10535000FFE7FFE7FFE7516F106F704704B50028C4
:1053600001D00020C0430FF067F9002104BDC04602
:10537000F0B5146E556E576F166FFFF7E5FF1466A4
:10538000556657671667F0BD000000D094464A4A3C
:10539000926F9208624601D228E0C046F0B5464EB0
:1053A000346E756E776F366F00F020F89446424A7F
:1053B00014665566576716676246F0BD94463E4AC6
:1053C000926F9208624601D254E0C046F0B53A4E60
:1053D000346E756E776F366F00F04CF89446364A2F
:1053E00014665566576716676246F0BD002B24DBCE
:1053F00011D000293EDA00B5C943404200D1013145
:1054000000F038F8C943404200D10131DB43524239
:1054100000D1013300BD002AEBD1002801D10029C1
:1054200005D00020C90FC90701D1C043410800B50C
:105430000FF0EAF80022002300BD00B500290ADBC6
:10544000DB43524200D1013300F014F8C94340421B
:1054500000D1013100BDC943404200D10131DB43DD
:10546000524200D1013300F005F8DB43524200D133
:10547000013300BD002923D1002B18D1002A0CD004
:10548000BC460D4F38667A6600210023FFE7FFE730
:10549000FFE77A6F386F67467047002801D00748EA
:1054A000010000B50FF0B0F80022002300BD02009B
:1054B0000B00002000217047000000D0FFFFFFFF1D
:1054C000002B00D0BFE0130C28D1002AE7D080B415
:1054D000114F39667A66FFE7FFE730B4040C7B6F43
:1054E000396F1B0423433B667A66FFE7FFE7FFE75C
:1054F000C04684B27B6F3D6F1B0423433B667A66D4
:10550000FFE7FFE7C04600232C042D0C7A6F386FAD
:1055100000196941B0BC7047000000D0F0B5944656
:105520000025140E01D112020835140F01D1120109
:105530000435940F01D192000235D40F01D15200ED
:105540000135D40B0134254F7C66254C3C660E0C8E
:1055500093B2FFE7FFE7FFE73C6F6643360C770344
:10556000BE467343DF0B5B04C01AB941130C73438F
:10557000DB18C91ACE086643360CB64493B273439F
:105580001F0F1B01C01AB941130C73431F0B1B05DE
:10559000C01AB941860D8F023E436643360C092D71
:1055A00024DB520A7243801A7703460A6643360C9C
:1055B00016235B1BDE40DF40BF1964466643821B37
:1055C0007046043506330100D940A840C01900D305
:1055D0000131A24206D20023F0BD0000000000D03D
:1055E000FFFFFFFF121B0130F3D3F1E709277F1BF9
:1055F000FE406446A2B27243801A00D20139220CE6
:105600007243130C1204821A99410B007046043540
:1056100013370100F940A840801900D30131002B55
:1056200002D1A2420AD2F0BD013000D30131121BD7
:10563000FAD2013BF8D1A24200D2F0BD013000D332
:105640000131121BF7E7F0B51C0C00D080E00CB460
:1056500000251C0A04D11B02160E33431202083522
:105660001C0B04D11B01160F3343120104359C0B94
:1056700004D19B00960F334392000235DC0B02D11C
:1056800092185B4101351C00971864410134464F64
:105690007C66464C3C660E0CFFE7FFE7FFE7C04622
:1056A0003C6F6643360C7703BE4697B27743C01B08
:1056B00000D20139C01B00D201399FB27743C91B08
:1056C000C91B170C77437E04FF0B801BB941CE0822
:1056D0006643360C0C2D33DBB644120B1F053A43E0
:1056E0001B0B97B27743C01B00D201399FB277439F
:1056F000C91B170C77433E043F0C801BB941860D34
:105700008F023E43664329277F1BFE400C3D7746B0
:10571000AF40BF1930BCA2B2ABB272437343801A20
:105720009941220C7243130C1204801A9941020011
:105730000B000137001BA941F9D2781E0021F0BDF2
:105740000C277F1BFE4077467F0BAF40FF19E0E739
:1057500000245D1C07D0144F7D663966FFE7FFE724
:10576000FFE7FFE73C6F95B29EB265436643401B7F
:10577000B141150C1E0C6543664336042F0C3E43A5
:105780002D04401BB141994204D202000B002000BD
:105790000021F0BD01D19042F7D3801A9941013424
:1057A0009942F2D3F6E70000000000D0FFFFFFFFB0
:1057B00048404140484018B4134B5B68019308BD12
:1057C00018B4114B1B68019308BD94460F4A926FA1
:1057D000920805D2624618B40B4BDB68019308BDF2
:1057E0000A4AF0B5146E556E576F166F6246FFF792
:1057F000F2FF064A1466556657671667F0BD18B47F
:10580000014B9B68019308BD40160020000000D0AA
:10581000FFB550404240504059404B40594000E095
:10582000FFB5154F4C00640D03D0BC4204D10C03EE
:1058300014D80020090D09055C00640D03D0BC429A
:1058400004D11C030AD800221B0D1B0501264B4066
:1058500009D44B4003D58B4200D18242FFBD99420F
:10586000FCD19042FFBD0B43DB1803431343F5D03B
:10587000C9434918FFBD0000FF07000000B5FFF74E
:10588000CFFF01D0002000BD012000BD00B5FFF713
:10589000C7FF804100BDC04600B5FFF7C1FF01D979
:1058A000002000BD012000BD00B5FFF7B1FF01D908
:1058B000002000BD012000BD00B5FFF7A9FF804119
:1058C00000BD012040054A00121804D85A001218E1
:1058D00001D80020704701207047000000210028F7
:1058E00005D17047C1174840401AFAD0C90713B50F
:1058F000064B1B6898470CBC441CA2401005120BB9
:105900000349091B09051943114310BDA00A0120D1
:105910001F04000010B54C00620D8023D218DB007C
:10592000D21A5B057E2A10DD9E3A13DACC170903E2
:10593000490819435242D140640001341532202AEB
:1059400005DAD0400843604310BD002010BD084672
:10595000604310BDC80FC018013810BD18B4024B09
:105960005B6A019308BD00004016002018B4024B8A
:10597000DB6D019308BD000040160020C94211D321
:1059800000B549004908002200F014F8002904D4A9
:10599000002240428A41114600BD802109060020B4
:1059A00000BD000018B4024BDB6E019308BD00007F
:1059B0004016002018B4024B9B6F019308BD0000F5
:1059C0004016002018B4024BDB6F019308BD0000A5
:1059D0004016002010B50148FEF734F8B04A011017
:1059E000132370B51D78012D19D014DD1D48FFF764
:1059F00039FB06001C48FFF735FB1C4C80223100A8
:105A0000200000F03BF9022D06D01948FFF722FBD9
:105A1000184B186070BD154C174BA364F5E7174B76
:105A2000124C23606360A360E36023616361A36140
:105A3000E36123626362A362E36223636363A3633C
:105A4000E36323646364A364E36423656365A3651C
:105A5000E36523666366A366E36623676367A367FC
:105A6000E367D9E753440000534600004016002086
:105A70004C330000A00A0120815A0010D5590010B3
:105A800007B5604601880A0A0230DF2AFAD1C9B296
:105A9000820804D3028840880004104300E00068B4
:105AA000014A5050039007BD401600205143434324
:105AB000C9188C46110C83B24B4310B4040C6143DB
:105AC00092B280B2504362431C041B0C001910BCFC
:105AD00059411304120CC018514161447047000031
